{
  "_format": "hh-sol-artifact-1",
  "contractName": "StakeGuard",
  "sourceName": "contracts/StakeGuard.sol",
  "abi": [
    {
      "inputs": [
        {
          "internalType": "address",
          "name": "_token",
          "type": "address"
        }
      ],
      "stateMutability": "nonpayable",
      "type": "constructor"
    },
    {
      "inputs": [],
      "name": "AccessControlBadConfirmation",
      "type": "error"
    },
    {
      "inputs": [
        {
          "internalType": "address",
          "name": "account",
          "type": "address"
        },
        {
          "internalType": "bytes32",
          "name": "neededRole",
          "type": "bytes32"
        }
      ],
      "name": "AccessControlUnauthorizedAccount",
      "type": "error"
    },
    {
      "inputs": [],
      "name": "EnforcedPause",
      "type": "error"
    },
    {
      "inputs": [],
      "name": "ExpectedPause",
      "type": "error"
    },
    {
      "inputs": [],
      "name": "ReentrancyGuardReentrantCall",
      "type": "error"
    },
    {
      "anonymous": false,
      "inputs": [
        {
          "indexed": false,
          "internalType": "address",
          "name": "account",
          "type": "address"
        }
      ],
      "name": "Paused",
      "type": "event"
    },
    {
      "anonymous": false,
      "inputs": [
        {
          "indexed": true,
          "internalType": "bytes32",
          "name": "role",
          "type": "bytes32"
        },
        {
          "indexed": true,
          "internalType": "bytes32",
          "name": "previousAdminRole",
          "type": "bytes32"
        },
        {
          "indexed": true,
          "internalType": "bytes32",
          "name": "newAdminRole",
          "type": "bytes32"
        }
      ],
      "name": "RoleAdminChanged",
      "type": "event"
    },
    {
      "anonymous": false,
      "inputs": [
        {
          "indexed": true,
          "internalType": "bytes32",
          "name": "role",
          "type": "bytes32"
        },
        {
          "indexed": true,
          "internalType": "address",
          "name": "account",
          "type": "address"
        },
        {
          "indexed": true,
          "internalType": "address",
          "name": "sender",
          "type": "address"
        }
      ],
      "name": "RoleGranted",
      "type": "event"
    },
    {
      "anonymous": false,
      "inputs": [
        {
          "indexed": true,
          "internalType": "bytes32",
          "name": "role",
          "type": "bytes32"
        },
        {
          "indexed": true,
          "internalType": "address",
          "name": "account",
          "type": "address"
        },
        {
          "indexed": true,
          "internalType": "address",
          "name": "sender",
          "type": "address"
        }
      ],
      "name": "RoleRevoked",
      "type": "event"
    },
    {
      "anonymous": false,
      "inputs": [
        {
          "indexed": true,
          "internalType": "address",
          "name": "node",
          "type": "address"
        },
        {
          "indexed": false,
          "internalType": "uint256",
          "name": "amount",
          "type": "uint256"
        },
        {
          "indexed": false,
          "internalType": "string",
          "name": "reason",
          "type": "string"
        }
      ],
      "name": "Slashed",
      "type": "event"
    },
    {
      "anonymous": false,
      "inputs": [
        {
          "indexed": true,
          "internalType": "address",
          "name": "user",
          "type": "address"
        },
        {
          "indexed": false,
          "internalType": "uint256",
          "name": "amount",
          "type": "uint256"
        }
      ],
      "name": "Staked",
      "type": "event"
    },
    {
      "anonymous": false,
      "inputs": [
        {
          "indexed": false,
          "internalType": "address",
          "name": "account",
          "type": "address"
        }
      ],
      "name": "Unpaused",
      "type": "event"
    },
    {
      "anonymous": false,
      "inputs": [
        {
          "indexed": true,
          "internalType": "address",
          "name": "user",
          "type": "address"
        },
        {
          "indexed": false,
          "internalType": "uint256",
          "name": "amount",
          "type": "uint256"
        }
      ],
      "name": "Unstaked",
      "type": "event"
    },
    {
      "inputs": [],
      "name": "ADMIN_ROLE",
      "outputs": [
        {
          "internalType": "bytes32",
          "name": "",
          "type": "bytes32"
        }
      ],
      "stateMutability": "view",
      "type": "function"
    },
    {
      "inputs": [],
      "name": "DEFAULT_ADMIN_ROLE",
      "outputs": [
        {
          "internalType": "bytes32",
          "name": "",
          "type": "bytes32"
        }
      ],
      "stateMutability": "view",
      "type": "function"
    },
    {
      "inputs": [],
      "name": "MIN_STAKE",
      "outputs": [
        {
          "internalType": "uint256",
          "name": "",
          "type": "uint256"
        }
      ],
      "stateMutability": "view",
      "type": "function"
    },
    {
      "inputs": [],
      "name": "SLASHER_ROLE",
      "outputs": [
        {
          "internalType": "bytes32",
          "name": "",
          "type": "bytes32"
        }
      ],
      "stateMutability": "view",
      "type": "function"
    },
    {
      "inputs": [],
      "name": "UNBONDING_PERIOD",
      "outputs": [
        {
          "internalType": "uint256",
          "name": "",
          "type": "uint256"
        }
      ],
      "stateMutability": "view",
      "type": "function"
    },
    {
      "inputs": [
        {
          "internalType": "address",
          "name": "_node",
          "type": "address"
        }
      ],
      "name": "getReputation",
      "outputs": [
        {
          "internalType": "uint256",
          "name": "",
          "type": "uint256"
        }
      ],
      "stateMutability": "view",
      "type": "function"
    },
    {
      "inputs": [
        {
          "internalType": "bytes32",
          "name": "role",
          "type": "bytes32"
        }
      ],
      "name": "getRoleAdmin",
      "outputs": [
        {
          "internalType": "bytes32",
          "name": "",
          "type": "bytes32"
        }
      ],
      "stateMutability": "view",
      "type": "function"
    },
    {
      "inputs": [
        {
          "internalType": "bytes32",
          "name": "role",
          "type": "bytes32"
        },
        {
          "internalType": "address",
          "name": "account",
          "type": "address"
        }
      ],
      "name": "grantRole",
      "outputs": [],
      "stateMutability": "nonpayable",
      "type": "function"
    },
    {
      "inputs": [
        {
          "internalType": "bytes32",
          "name": "role",
          "type": "bytes32"
        },
        {
          "internalType": "address",
          "name": "account",
          "type": "address"
        }
      ],
      "name": "hasRole",
      "outputs": [
        {
          "internalType": "bool",
          "name": "",
          "type": "bool"
        }
      ],
      "stateMutability": "view",
      "type": "function"
    },
    {
      "inputs": [],
      "name": "obscuraToken",
      "outputs": [
        {
          "internalType": "contract IERC20",
          "name": "",
          "type": "address"
        }
      ],
      "stateMutability": "view",
      "type": "function"
    },
    {
      "inputs": [],
      "name": "pause",
      "outputs": [],
      "stateMutability": "nonpayable",
      "type": "function"
    },
    {
      "inputs": [],
      "name": "paused",
      "outputs": [
        {
          "internalType": "bool",
          "name": "",
          "type": "bool"
        }
      ],
      "stateMutability": "view",
      "type": "function"
    },
    {
      "inputs": [
        {
          "internalType": "bytes32",
          "name": "role",
          "type": "bytes32"
        },
        {
          "internalType": "address",
          "name": "callerConfirmation",
          "type": "address"
        }
      ],
      "name": "renounceRole",
      "outputs": [],
      "stateMutability": "nonpayable",
      "type": "function"
    },
    {
      "inputs": [
        {
          "internalType": "bytes32",
          "name": "role",
          "type": "bytes32"
        },
        {
          "internalType": "address",
          "name": "account",
          "type": "address"
        }
      ],
      "name": "revokeRole",
      "outputs": [],
      "stateMutability": "nonpayable",
      "type": "function"
    },
    {
      "inputs": [
        {
          "internalType": "address",
          "name": "_slasher",
          "type": "address"
        },
        {
          "internalType": "bool",
          "name": "_status",
          "type": "bool"
        }
      ],
      "name": "setSlasher",
      "outputs": [],
      "stateMutability": "nonpayable",
      "type": "function"
    },
    {
      "inputs": [
        {
          "internalType": "address",
          "name": "_treasury",
          "type": "address"
        }
      ],
      "name": "setTreasury",
      "outputs": [],
      "stateMutability": "nonpayable",
      "type": "function"
    },
    {
      "inputs": [
        {
          "internalType": "address",
          "name": "_node",
          "type": "address"
        },
        {
          "internalType": "uint256",
          "name": "_amount",
          "type": "uint256"
        },
        {
          "internalType": "string",
          "name": "_reason",
          "type": "string"
        }
      ],
      "name": "slash",
      "outputs": [],
      "stateMutability": "nonpayable",
      "type": "function"
    },
    {
      "inputs": [
        {
          "internalType": "uint256",
          "name": "_amount",
          "type": "uint256"
        }
      ],
      "name": "stake",
      "outputs": [],
      "stateMutability": "nonpayable",
      "type": "function"
    },
    {
      "inputs": [
        {
          "internalType": "address",
          "name": "",
          "type": "address"
        }
      ],
      "name": "stakers",
      "outputs": [
        {
          "internalType": "uint256",
          "name": "balance",
          "type": "uint256"
        },
        {
          "internalType": "uint256",
          "name": "lastStakeTime",
          "type": "uint256"
        },
        {
          "internalType": "uint256",
          "name": "reputation",
          "type": "uint256"
        },
        {
          "internalType": "bool",
          "name": "isActive",
          "type": "bool"
        }
      ],
      "stateMutability": "view",
      "type": "function"
    },
    {
      "inputs": [
        {
          "internalType": "bytes4",
          "name": "interfaceId",
          "type": "bytes4"
        }
      ],
      "name": "supportsInterface",
      "outputs": [
        {
          "internalType": "bool",
          "name": "",
          "type": "bool"
        }
      ],
      "stateMutability": "view",
      "type": "function"
    },
    {
      "inputs": [],
      "name": "totalStaked",
      "outputs": [
        {
          "internalType": "uint256",
          "name": "",
          "type": "uint256"
        }
      ],
      "stateMutability": "view",
      "type": "function"
    },
    {
      "inputs": [],
      "name": "treasury",
      "outputs": [
        {
          "internalType": "address",
          "name": "",
          "type": "address"
        }
      ],
      "stateMutability": "view",
      "type": "function"
    },
    {
      "inputs": [],
      "name": "unpause",
      "outputs": [],
      "stateMutability": "nonpayable",
      "type": "function"
    },
    {
      "inputs": [
        {
          "internalType": "uint256",
          "name": "_amount",
          "type": "uint256"
        }
      ],
      "name": "unstake",
      "outputs": [],
      "stateMutability": "nonpayable",
      "type": "function"
    },
    {
      "inputs": [
        {
          "internalType": "address",
          "name": "_node",
          "type": "address"
        },
        {
          "internalType": "int256",
          "name": "_delta",
          "type": "int256"
        }
      ],
      "name": "updateReputation",
      "outputs": [],
      "stateMutability": "nonpayable",
      "type": "function"
    }
  ],
  "bytecode": "0x60a0346100ac57601f61129f38819003918201601f19168301916001600160401b038311848410176100b1578084926020946040528339810103126100ac57516001600160a01b038116908190036100ac57600160025561005f336100c7565b5061006933610145565b50608052600580546001600160a01b0319163317905560405161109990816101e68239608051818181610266015281816106f1015281816108d90152610a8f0152f35b600080fd5b634e487b7160e01b600052604160045260246000fd5b6001600160a01b031660008181527fad3228b676f7d3cd4284a5443f17f1962b36e491b30a40b2405849e597ba5fb5602052604081205490919060ff1661014157818052816020526040822081835260205260408220600160ff19825416179055339160008051602061127f8339815191528180a4600190565b5090565b6001600160a01b031660008181527f7d7ffb7a348e1c6a02869081a26547b49160dd3df72d1d75a570eb9b698292ec60205260408120549091907fa49807205ce4d355092ef5a8a18f56e8913cf4a201fbe287825b095693c217759060ff166101e057808352826020526040832082845260205260408320600160ff1982541617905560008051602061127f833981519152339380a4600190565b50509056fe60806040908082526004918236101561001757600080fd5b600092833560e01c92836301ffc9a714610bef57508263248a9ca314610bc45782632e17de78146109e25782632f2ff15d146109b957826336568abe146109735782633f4ba83a1461090857826341787377146108c45782635095af641461089b57826352348080146108575782635c975abb1461083357826361d027b31461080a578263678b3ee2146105ed5782636a08b5111461055057826375b238fc14610515578263817b1cd2146104f65782638456cb591461049c5782639168ae721461043d57826391d14854146103f65782639c89a0e2146103ba578263a217fddf1461039f578263a694fc3a14610209578263cb1c2b5c146101e5578263d547741f146101a357508163d9a912ec14610181575063f0f442601461013a57600080fd5b3461017e57602036600319011261017e57610153610c5d565b61015b610c73565b60018060a01b03166bffffffffffffffffffffffff60a01b600554161760055580f35b80fd5b90503461019f578160031936011261019f576020905162093a808152f35b5080fd5b9150346101e157806003193601126101e1576101dd91356101d860016101c7610c42565b938387528660205286200154610d37565b610f0f565b5080f35b8280fd5b83823461019f578160031936011261019f576020905168056bc75e2d631000008152f35b83823461019f576020806003193601126101e157833591610228610f84565b610230611015565b68056bc75e2d6310000083106103665780516323b872dd60e01b81523386820152306024820152604481018490528281606481887f00000000000000000000000000000000000000000000000000000000000000006001600160a01b03165af1801561035c5761032f575b503384526003825260028185206102b3858254610ff2565b815542600182015560038101600160ff1982541617905501805490600a820180921161031c57907f9e71bc8eea02a63969f509818f2dafb9254532904319f9dbda79b67bd34a5f3d949596915561030b858254610ff2565b9055519283523392a2600160025580f35b634e487b7160e01b865260118752602486fd5b61034e90833d8511610355575b6103468183610fa2565b810190610fda565b508561029b565b503d61033c565b82513d87823e3d90fd5b5162461bcd60e51b81528085019190915260136024820152725374616b652062656c6f77206d696e696d756d60681b6044820152606490fd5b83823461019f578160031936011261019f5751908152602090f35b83823461019f57602036600319011261019f5760209160029082906001600160a01b036103e5610c5d565b168152600385522001549051908152f35b909150346101e157816003193601126101e1578160209360ff92610418610c42565b903582528186528282206001600160a01b039091168252855220549151911615158152f35b83823461019f57602036600319011261019f5760809181906001600160a01b03610465610c5d565b1681526003602052209081549160018101549160ff6003600284015493015416928151948552602085015283015215156060820152f35b83823461019f578160031936011261019f5760207f62e78cea01bee320cd4e420270b5ea74000d11b0c9f74754ebdbfc544b05a258916104da610c73565b6104e2610f84565b600160ff198154161760015551338152a180f35b909150346101e157826003193601126101e15760209250549051908152f35b83823461019f578160031936011261019f57602090517fa49807205ce4d355092ef5a8a18f56e8913cf4a201fbe287825b095693c217758152f35b9150346101e157806003193601126101e15761056a610c5d565b9060243591610577610ced565b6001600160a01b031684526003602052832091838213156105a857509060026105a39101918254610ff2565b905580f35b600160ff1b82146105da575060029083039101908154908082116000146105d2576105a391611036565b505081905580f35b634e487b7160e01b845260119052602483fd5b909150346101e15760603660031901126101e157610609610c5d565b9060243567ffffffffffffffff604435818111610806573660238201121561080657808401359182116108065736602483830101116108065761064a610ced565b610652610f84565b60018060a01b03809516948588526020946003865287892080548681106107c3579061068087600293611036565b815561068d878454611036565b8355018054878760328311156107b2575050603119810190811161079f5792879287926106ed95905b558b8260055416918c519687958694859363a9059cbb60e01b8552840160209093929193604081019460018060a01b031681520152565b03927f0000000000000000000000000000000000000000000000000000000000000000165af18015610795578392837f7e947095ed288d8885423bdaef4015b7420ffa9b84d62ef67c402e8bc36a8ea998996060979694602494610778575b50808051998a98895288015286015201848401378181018301879052601f01601f19168101030190a280f35b61078e908a3d8c11610355576103468183610fa2565b503861074c565b87513d8a823e3d90fd5b634e487b7160e01b8b526011835260248bfd5b926106ed9592508c949194906106b6565b895162461bcd60e51b8152808401899052601a60248201527f536c617368696e67206d6f7265207468616e2062616c616e63650000000000006044820152606490fd5b8680fd5b83823461019f578160031936011261019f5760055490516001600160a01b039091168152602090f35b83823461019f578160031936011261019f5760209060ff6001541690519015158152f35b83823461019f5736600319011261017e57610870610c5d565b60243580151581036101e157610884610c73565b15610892576101dd90610d5d565b6101dd90610e76565b83823461019f578160031936011261019f57602090516000805160206110448339815191528152f35b83823461019f578160031936011261019f57517f00000000000000000000000000000000000000000000000000000000000000006001600160a01b03168152602090f35b909150346101e157826003193601126101e157610923610c73565b6001549060ff821615610965575060ff1916600155513381527f5db9ee0a495bf2e6ff9c91a7834c1ba4fdd244a5e8aa4e537bd38aeae4b073aa90602090a180f35b8251638dfc202b60e01b8152fd5b83823461019f578060031936011261019f5761098d610c42565b90336001600160a01b038316036109aa57506101dd919235610f0f565b5163334bd91960e11b81528390fd5b9150346101e157806003193601126101e1576101dd91356109dd60016101c7610c42565b610dfd565b9150346101e15760209081600319360112610bc057823592610a02610f84565b610a0a611015565b338552600383528185208054858110610b8657600182015462093a808101809111610b73574210610b305794849392819592610a4983610a8a99611036565b8155610a56838354611036565b8255805415610b1f575b50835163a9059cbb60e01b8152339181019182526020820192909252909586918291604090910190565b0381887f00000000000000000000000000000000000000000000000000000000000000006001600160a01b03165af1938415610b15577f0f5bb82176feb1b5e747e28471aa92156a04d9f3ab9f45f28e2d704232b93f759394610af8575b50519283523392a2600160025580f35b610b0e90833d8511610355576103468183610fa2565b5038610ae8565b81513d87823e3d90fd5b600301805460ff1916905538610a60565b835162461bcd60e51b8152808401869052601960248201527f556e626f6e64696e6720706572696f64206e6f74206f766572000000000000006044820152606490fd5b634e487b7160e01b885260118452602488fd5b835162461bcd60e51b81528084018690526014602482015273496e73756666696369656e742062616c616e636560601b6044820152606490fd5b8380fd5b909150346101e15760203660031901126101e157816020936001923581528085522001549051908152f35b8491346101e15760203660031901126101e1573563ffffffff60e01b81168091036101e15760209250637965db0b60e01b8114908115610c31575b5015158152f35b6301ffc9a760e01b14905083610c2a565b602435906001600160a01b0382168203610c5857565b600080fd5b600435906001600160a01b0382168203610c5857565b3360009081527f7d7ffb7a348e1c6a02869081a26547b49160dd3df72d1d75a570eb9b698292ec60205260409020547fa49807205ce4d355092ef5a8a18f56e8913cf4a201fbe287825b095693c217759060ff1615610ccf5750565b6044906040519063e2517d3f60e01b82523360048301526024820152fd5b3360009081527fab95ee8443670cc2f20498fec769f3646c2375509362f6df15e28d91d339511860205260409020546000805160206110448339815191529060ff1615610ccf5750565b80600052600060205260406000203360005260205260ff6040600020541615610ccf5750565b6001600160a01b031660008181527fab95ee8443670cc2f20498fec769f3646c2375509362f6df15e28d91d339511860205260408120549091906000805160206110448339815191529060ff16610df857808352826020526040832082845260205260408320600160ff198254161790557f2f8788117e7eff1d82e926ec794901d17c78024a50270940304540a733656f0d339380a4600190565b505090565b9060009180835282602052604083209160018060a01b03169182845260205260ff60408420541615600014610df857808352826020526040832082845260205260408320600160ff198254161790557f2f8788117e7eff1d82e926ec794901d17c78024a50270940304540a733656f0d339380a4600190565b6001600160a01b031660008181527fab95ee8443670cc2f20498fec769f3646c2375509362f6df15e28d91d339511860205260408120549091906000805160206110448339815191529060ff1615610df85780835282602052604083208284526020526040832060ff1981541690557ff6391f5c32d9c69d2a47ea670b442974b53935d1edc7fd64eb21e047a839171b339380a4600190565b9060009180835282602052604083209160018060a01b03169182845260205260ff604084205416600014610df85780835282602052604083208284526020526040832060ff1981541690557ff6391f5c32d9c69d2a47ea670b442974b53935d1edc7fd64eb21e047a839171b339380a4600190565b60ff60015416610f9057565b60405163d93c066560e01b8152600490fd5b90601f8019910116810190811067ffffffffffffffff821117610fc457604052565b634e487b7160e01b600052604160045260246000fd5b90816020910312610c5857518015158103610c585790565b91908201809211610fff57565b634e487b7160e01b600052601160045260246000fd5b60028054146110245760028055565b604051633ee5aeb560e01b8152600490fd5b91908203918211610fff5756fe12b42e8a160f6064dc959c6f251e3af0750ad213dbecf573b4710d67d6c28e39a2646970667358221220987acf18e81305bed1722906c58f68a9aa75a36a7c28e2aa3690241168c6de9664736f6c634300081400332f8788117e7eff1d82e926ec794901d17c78024a50270940304540a733656f0d",
  "linkReferences": {},
  "deployedLinkReferences": {}
}