{
  "_format": "hh-sol-artifact-1",
  "contractName": "StakeGuard",
  "sourceName": "contracts/StakeGuard.sol",
  "abi": [
    {
      "inputs": [
        {
          "internalType": "address",
          "name": "_token",
          "type": "address"
        }
      ],
      "stateMutability": "nonpayable",
      "type": "constructor"
    },
    {
      "inputs": [
        {
          "internalType": "address",
          "name": "owner",
          "type": "address"
        }
      ],
      "name": "OwnableInvalidOwner",
      "type": "error"
    },
    {
      "inputs": [
        {
          "internalType": "address",
          "name": "account",
          "type": "address"
        }
      ],
      "name": "OwnableUnauthorizedAccount",
      "type": "error"
    },
    {
      "inputs": [],
      "name": "ReentrancyGuardReentrantCall",
      "type": "error"
    },
    {
      "anonymous": false,
      "inputs": [
        {
          "indexed": true,
          "internalType": "address",
          "name": "previousOwner",
          "type": "address"
        },
        {
          "indexed": true,
          "internalType": "address",
          "name": "newOwner",
          "type": "address"
        }
      ],
      "name": "OwnershipTransferred",
      "type": "event"
    },
    {
      "anonymous": false,
      "inputs": [
        {
          "indexed": true,
          "internalType": "address",
          "name": "node",
          "type": "address"
        },
        {
          "indexed": false,
          "internalType": "uint256",
          "name": "amount",
          "type": "uint256"
        },
        {
          "indexed": false,
          "internalType": "string",
          "name": "reason",
          "type": "string"
        }
      ],
      "name": "Slashed",
      "type": "event"
    },
    {
      "anonymous": false,
      "inputs": [
        {
          "indexed": true,
          "internalType": "address",
          "name": "user",
          "type": "address"
        },
        {
          "indexed": false,
          "internalType": "uint256",
          "name": "amount",
          "type": "uint256"
        }
      ],
      "name": "Staked",
      "type": "event"
    },
    {
      "anonymous": false,
      "inputs": [
        {
          "indexed": true,
          "internalType": "address",
          "name": "user",
          "type": "address"
        },
        {
          "indexed": false,
          "internalType": "uint256",
          "name": "amount",
          "type": "uint256"
        }
      ],
      "name": "Unstaked",
      "type": "event"
    },
    {
      "inputs": [],
      "name": "MIN_STAKE",
      "outputs": [
        {
          "internalType": "uint256",
          "name": "",
          "type": "uint256"
        }
      ],
      "stateMutability": "view",
      "type": "function"
    },
    {
      "inputs": [],
      "name": "UNBONDING_PERIOD",
      "outputs": [
        {
          "internalType": "uint256",
          "name": "",
          "type": "uint256"
        }
      ],
      "stateMutability": "view",
      "type": "function"
    },
    {
      "inputs": [
        {
          "internalType": "address",
          "name": "_node",
          "type": "address"
        }
      ],
      "name": "getReputation",
      "outputs": [
        {
          "internalType": "uint256",
          "name": "",
          "type": "uint256"
        }
      ],
      "stateMutability": "view",
      "type": "function"
    },
    {
      "inputs": [],
      "name": "obscuraToken",
      "outputs": [
        {
          "internalType": "contract IERC20",
          "name": "",
          "type": "address"
        }
      ],
      "stateMutability": "view",
      "type": "function"
    },
    {
      "inputs": [],
      "name": "owner",
      "outputs": [
        {
          "internalType": "address",
          "name": "",
          "type": "address"
        }
      ],
      "stateMutability": "view",
      "type": "function"
    },
    {
      "inputs": [],
      "name": "renounceOwnership",
      "outputs": [],
      "stateMutability": "nonpayable",
      "type": "function"
    },
    {
      "inputs": [
        {
          "internalType": "address",
          "name": "_slasher",
          "type": "address"
        },
        {
          "internalType": "bool",
          "name": "_status",
          "type": "bool"
        }
      ],
      "name": "setSlasher",
      "outputs": [],
      "stateMutability": "nonpayable",
      "type": "function"
    },
    {
      "inputs": [
        {
          "internalType": "address",
          "name": "_node",
          "type": "address"
        },
        {
          "internalType": "uint256",
          "name": "_amount",
          "type": "uint256"
        },
        {
          "internalType": "string",
          "name": "_reason",
          "type": "string"
        }
      ],
      "name": "slash",
      "outputs": [],
      "stateMutability": "nonpayable",
      "type": "function"
    },
    {
      "inputs": [
        {
          "internalType": "address",
          "name": "",
          "type": "address"
        }
      ],
      "name": "slashers",
      "outputs": [
        {
          "internalType": "bool",
          "name": "",
          "type": "bool"
        }
      ],
      "stateMutability": "view",
      "type": "function"
    },
    {
      "inputs": [
        {
          "internalType": "uint256",
          "name": "_amount",
          "type": "uint256"
        }
      ],
      "name": "stake",
      "outputs": [],
      "stateMutability": "nonpayable",
      "type": "function"
    },
    {
      "inputs": [
        {
          "internalType": "address",
          "name": "",
          "type": "address"
        }
      ],
      "name": "stakers",
      "outputs": [
        {
          "internalType": "uint256",
          "name": "balance",
          "type": "uint256"
        },
        {
          "internalType": "uint256",
          "name": "lastStakeTime",
          "type": "uint256"
        },
        {
          "internalType": "uint256",
          "name": "reputation",
          "type": "uint256"
        },
        {
          "internalType": "bool",
          "name": "isActive",
          "type": "bool"
        }
      ],
      "stateMutability": "view",
      "type": "function"
    },
    {
      "inputs": [],
      "name": "totalStaked",
      "outputs": [
        {
          "internalType": "uint256",
          "name": "",
          "type": "uint256"
        }
      ],
      "stateMutability": "view",
      "type": "function"
    },
    {
      "inputs": [
        {
          "internalType": "address",
          "name": "newOwner",
          "type": "address"
        }
      ],
      "name": "transferOwnership",
      "outputs": [],
      "stateMutability": "nonpayable",
      "type": "function"
    },
    {
      "inputs": [
        {
          "internalType": "uint256",
          "name": "_amount",
          "type": "uint256"
        }
      ],
      "name": "unstake",
      "outputs": [],
      "stateMutability": "nonpayable",
      "type": "function"
    }
  ],
  "bytecode": "0x60a060405234801561001057600080fd5b50604051610c87380380610c8783398101604081905261002f916100c4565b338061005557604051631e4fbdf760e01b81526000600482015260240160405180910390fd5b61005e81610074565b50600180556001600160a01b03166080526100f4565b600080546001600160a01b038381166001600160a01b0319831681178455604051919092169283917f8be0079c531659141344cd1fd0a4f28419497f9722a3daafe3b4186f6b6457e09190a35050565b6000602082840312156100d657600080fd5b81516001600160a01b03811681146100ed57600080fd5b9392505050565b608051610b6361012460003960008181610109015281816103c4015281816105f201526107740152610b636000f3fe608060405234801561001057600080fd5b50600436106100ea5760003560e01c80639168ae721161008c578063b87fcbff11610066578063b87fcbff1461023a578063cb1c2b5c1461026d578063d9a912ec1461027d578063f2fde38b1461028757600080fd5b80639168ae721461019e5780639c89a0e2146101fa578063a694fc3a1461022757600080fd5b8063678b3ee2116100c8578063678b3ee21461015b578063715018a61461016e578063817b1cd2146101765780638da5cb5b1461018d57600080fd5b80632e17de78146100ef57806341787377146101045780635234808014610148575b600080fd5b6101026100fd366004610975565b61029a565b005b61012b7f000000000000000000000000000000000000000000000000000000000000000081565b6040516001600160a01b0390911681526020015b60405180910390f35b6101026101563660046109b8565b61047d565b6101026101693660046109ef565b6104b0565b6101026106e7565b61017f60045481565b60405190815260200161013f565b6000546001600160a01b031661012b565b6101d86101ac366004610a76565b600260208190526000918252604090912080546001820154928201546003909201549092919060ff1684565b604080519485526020850193909352918301521515606082015260800161013f565b61017f610208366004610a76565b6001600160a01b03166000908152600260208190526040909120015490565b610102610235366004610975565b6106fb565b61025d610248366004610a76565b60036020526000908152604090205460ff1681565b604051901515815260200161013f565b61017f68056bc75e2d6310000081565b61017f62093a8081565b610102610295366004610a76565b610893565b6102a26108ce565b33600090815260026020526040902080548211156102fe5760405162461bcd60e51b8152602060048201526014602482015273496e73756666696369656e742062616c616e636560601b60448201526064015b60405180910390fd5b62093a8081600101546103119190610aae565b4210156103605760405162461bcd60e51b815260206004820152601960248201527f556e626f6e64696e6720706572696f64206e6f74206f7665720000000000000060448201526064016102f5565b818160000160008282546103749190610ac7565b92505081905550816004600082825461038d9190610ac7565b909155505080546000036103a85760038101805460ff191690555b60405163a9059cbb60e01b8152336004820152602481018390527f00000000000000000000000000000000000000000000000000000000000000006001600160a01b03169063a9059cbb906044016020604051808303816000875af1158015610415573d6000803e3d6000fd5b505050506040513d601f19601f820116820180604052508101906104399190610ada565b5060405182815233907f0f5bb82176feb1b5e747e28471aa92156a04d9f3ab9f45f28e2d704232b93f75906020015b60405180910390a25061047a60018055565b50565b6104856108f8565b6001600160a01b03919091166000908152600360205260409020805460ff1916911515919091179055565b6000546001600160a01b03163314806104d857503360009081526003602052604090205460ff165b6105245760405162461bcd60e51b815260206004820152601760248201527f4e6f7420617574686f72697a656420746f20736c61736800000000000000000060448201526064016102f5565b6001600160a01b0384166000908152600260205260409020805484111561058d5760405162461bcd60e51b815260206004820152601a60248201527f536c617368696e67206d6f7265207468616e2062616c616e636500000000000060448201526064016102f5565b838160000160008282546105a19190610ac7565b9250508190555083600460008282546105ba9190610ac7565b909155505060028101546032106105d25760006105e3565b603281600201546105e39190610ac7565b60028201556001600160a01b037f00000000000000000000000000000000000000000000000000000000000000001663a9059cbb6106296000546001600160a01b031690565b6040516001600160e01b031960e084901b1681526001600160a01b039091166004820152602481018790526044016020604051808303816000875af1158015610676573d6000803e3d6000fd5b505050506040513d601f19601f8201168201806040525081019061069a9190610ada565b50846001600160a01b03167f7e947095ed288d8885423bdaef4015b7420ffa9b84d62ef67c402e8bc36a8ea98585856040516106d893929190610af7565b60405180910390a25050505050565b6106ef6108f8565b6106f96000610925565b565b6107036108ce565b68056bc75e2d631000008110156107525760405162461bcd60e51b81526020600482015260136024820152725374616b652062656c6f77206d696e696d756d60681b60448201526064016102f5565b6040516323b872dd60e01b8152336004820152306024820152604481018290527f00000000000000000000000000000000000000000000000000000000000000006001600160a01b0316906323b872dd906064016020604051808303816000875af11580156107c5573d6000803e3d6000fd5b505050506040513d601f19601f820116820180604052508101906107e99190610ada565b5033600090815260026020526040812080549091839183919061080d908490610aae565b90915550504260018083019190915560038201805460ff19169091179055600281018054600a9190600090610843908490610aae565b92505081905550816004600082825461085c9190610aae565b909155505060405182815233907f9e71bc8eea02a63969f509818f2dafb9254532904319f9dbda79b67bd34a5f3d90602001610468565b61089b6108f8565b6001600160a01b0381166108c557604051631e4fbdf760e01b8152600060048201526024016102f5565b61047a81610925565b6002600154036108f157604051633ee5aeb560e01b815260040160405180910390fd5b6002600155565b6000546001600160a01b031633146106f95760405163118cdaa760e01b81523360048201526024016102f5565b600080546001600160a01b038381166001600160a01b0319831681178455604051919092169283917f8be0079c531659141344cd1fd0a4f28419497f9722a3daafe3b4186f6b6457e09190a35050565b60006020828403121561098757600080fd5b5035919050565b80356001600160a01b03811681146109a557600080fd5b919050565b801515811461047a57600080fd5b600080604083850312156109cb57600080fd5b6109d48361098e565b915060208301356109e4816109aa565b809150509250929050565b60008060008060608587031215610a0557600080fd5b610a0e8561098e565b935060208501359250604085013567ffffffffffffffff80821115610a3257600080fd5b818701915087601f830112610a4657600080fd5b813581811115610a5557600080fd5b886020828501011115610a6757600080fd5b95989497505060200194505050565b600060208284031215610a8857600080fd5b610a918261098e565b9392505050565b634e487b7160e01b600052601160045260246000fd5b80820180821115610ac157610ac1610a98565b92915050565b81810381811115610ac157610ac1610a98565b600060208284031215610aec57600080fd5b8151610a91816109aa565b83815260406020820152816040820152818360608301376000818301606090810191909152601f909201601f191601019291505056fea26469706673582212202518b66a3c6823b69ca4fdc7f5117f714a7b43ea93040dc7bd1cf876b4546e9764736f6c63430008140033",
  "linkReferences": {},
  "deployedLinkReferences": {}
}