{
  "_format": "hh-sol-artifact-1",
  "contractName": "StakeGuard",
  "sourceName": "contracts/StakeGuard.sol",
  "abi": [
    {
      "inputs": [
        {
          "internalType": "address",
          "name": "_token",
          "type": "address"
        }
      ],
      "stateMutability": "nonpayable",
      "type": "constructor"
    },
    {
      "inputs": [
        {
          "internalType": "address",
          "name": "owner",
          "type": "address"
        }
      ],
      "name": "OwnableInvalidOwner",
      "type": "error"
    },
    {
      "inputs": [
        {
          "internalType": "address",
          "name": "account",
          "type": "address"
        }
      ],
      "name": "OwnableUnauthorizedAccount",
      "type": "error"
    },
    {
      "inputs": [],
      "name": "ReentrancyGuardReentrantCall",
      "type": "error"
    },
    {
      "anonymous": false,
      "inputs": [
        {
          "indexed": true,
          "internalType": "address",
          "name": "previousOwner",
          "type": "address"
        },
        {
          "indexed": true,
          "internalType": "address",
          "name": "newOwner",
          "type": "address"
        }
      ],
      "name": "OwnershipTransferred",
      "type": "event"
    },
    {
      "anonymous": false,
      "inputs": [
        {
          "indexed": true,
          "internalType": "address",
          "name": "node",
          "type": "address"
        },
        {
          "indexed": false,
          "internalType": "uint256",
          "name": "amount",
          "type": "uint256"
        },
        {
          "indexed": false,
          "internalType": "string",
          "name": "reason",
          "type": "string"
        }
      ],
      "name": "Slashed",
      "type": "event"
    },
    {
      "anonymous": false,
      "inputs": [
        {
          "indexed": true,
          "internalType": "address",
          "name": "user",
          "type": "address"
        },
        {
          "indexed": false,
          "internalType": "uint256",
          "name": "amount",
          "type": "uint256"
        }
      ],
      "name": "Staked",
      "type": "event"
    },
    {
      "anonymous": false,
      "inputs": [
        {
          "indexed": true,
          "internalType": "address",
          "name": "user",
          "type": "address"
        },
        {
          "indexed": false,
          "internalType": "uint256",
          "name": "amount",
          "type": "uint256"
        }
      ],
      "name": "Unstaked",
      "type": "event"
    },
    {
      "inputs": [],
      "name": "MIN_STAKE",
      "outputs": [
        {
          "internalType": "uint256",
          "name": "",
          "type": "uint256"
        }
      ],
      "stateMutability": "view",
      "type": "function"
    },
    {
      "inputs": [],
      "name": "UNBONDING_PERIOD",
      "outputs": [
        {
          "internalType": "uint256",
          "name": "",
          "type": "uint256"
        }
      ],
      "stateMutability": "view",
      "type": "function"
    },
    {
      "inputs": [
        {
          "internalType": "address",
          "name": "_node",
          "type": "address"
        }
      ],
      "name": "getReputation",
      "outputs": [
        {
          "internalType": "uint256",
          "name": "",
          "type": "uint256"
        }
      ],
      "stateMutability": "view",
      "type": "function"
    },
    {
      "inputs": [],
      "name": "obscuraToken",
      "outputs": [
        {
          "internalType": "contract IERC20",
          "name": "",
          "type": "address"
        }
      ],
      "stateMutability": "view",
      "type": "function"
    },
    {
      "inputs": [],
      "name": "owner",
      "outputs": [
        {
          "internalType": "address",
          "name": "",
          "type": "address"
        }
      ],
      "stateMutability": "view",
      "type": "function"
    },
    {
      "inputs": [],
      "name": "renounceOwnership",
      "outputs": [],
      "stateMutability": "nonpayable",
      "type": "function"
    },
    {
      "inputs": [
        {
          "internalType": "address",
          "name": "_slasher",
          "type": "address"
        },
        {
          "internalType": "bool",
          "name": "_status",
          "type": "bool"
        }
      ],
      "name": "setSlasher",
      "outputs": [],
      "stateMutability": "nonpayable",
      "type": "function"
    },
    {
      "inputs": [
        {
          "internalType": "address",
          "name": "_node",
          "type": "address"
        },
        {
          "internalType": "uint256",
          "name": "_amount",
          "type": "uint256"
        },
        {
          "internalType": "string",
          "name": "_reason",
          "type": "string"
        }
      ],
      "name": "slash",
      "outputs": [],
      "stateMutability": "nonpayable",
      "type": "function"
    },
    {
      "inputs": [
        {
          "internalType": "address",
          "name": "",
          "type": "address"
        }
      ],
      "name": "slashers",
      "outputs": [
        {
          "internalType": "bool",
          "name": "",
          "type": "bool"
        }
      ],
      "stateMutability": "view",
      "type": "function"
    },
    {
      "inputs": [
        {
          "internalType": "uint256",
          "name": "_amount",
          "type": "uint256"
        }
      ],
      "name": "stake",
      "outputs": [],
      "stateMutability": "nonpayable",
      "type": "function"
    },
    {
      "inputs": [
        {
          "internalType": "address",
          "name": "",
          "type": "address"
        }
      ],
      "name": "stakers",
      "outputs": [
        {
          "internalType": "uint256",
          "name": "balance",
          "type": "uint256"
        },
        {
          "internalType": "uint256",
          "name": "lastStakeTime",
          "type": "uint256"
        },
        {
          "internalType": "uint256",
          "name": "reputation",
          "type": "uint256"
        },
        {
          "internalType": "bool",
          "name": "isActive",
          "type": "bool"
        }
      ],
      "stateMutability": "view",
      "type": "function"
    },
    {
      "inputs": [],
      "name": "totalStaked",
      "outputs": [
        {
          "internalType": "uint256",
          "name": "",
          "type": "uint256"
        }
      ],
      "stateMutability": "view",
      "type": "function"
    },
    {
      "inputs": [
        {
          "internalType": "address",
          "name": "newOwner",
          "type": "address"
        }
      ],
      "name": "transferOwnership",
      "outputs": [],
      "stateMutability": "nonpayable",
      "type": "function"
    },
    {
      "inputs": [
        {
          "internalType": "uint256",
          "name": "_amount",
          "type": "uint256"
        }
      ],
      "name": "unstake",
      "outputs": [],
      "stateMutability": "nonpayable",
      "type": "function"
    },
    {
      "inputs": [
        {
          "internalType": "address",
          "name": "_node",
          "type": "address"
        },
        {
          "internalType": "int256",
          "name": "_delta",
          "type": "int256"
        }
      ],
      "name": "updateReputation",
      "outputs": [],
      "stateMutability": "nonpayable",
      "type": "function"
    }
  ],
  "bytecode": "0x60a060405234801561001057600080fd5b50604051610dcd380380610dcd83398101604081905261002f916100c4565b338061005557604051631e4fbdf760e01b81526000600482015260240160405180910390fd5b61005e81610074565b50600180556001600160a01b03166080526100f4565b600080546001600160a01b038381166001600160a01b0319831681178455604051919092169283917f8be0079c531659141344cd1fd0a4f28419497f9722a3daafe3b4186f6b6457e09190a35050565b6000602082840312156100d657600080fd5b81516001600160a01b03811681146100ed57600080fd5b9392505050565b608051610ca961012460003960008181610114015281816103e20152818161060a01526108740152610ca96000f3fe608060405234801561001057600080fd5b50600436106100f55760003560e01c80638da5cb5b11610097578063b87fcbff11610066578063b87fcbff14610258578063cb1c2b5c1461028b578063d9a912ec1461029b578063f2fde38b146102a557600080fd5b80638da5cb5b146101ab5780639168ae72146101bc5780639c89a0e214610218578063a694fc3a1461024557600080fd5b8063678b3ee2116100d3578063678b3ee2146101665780636a08b51114610179578063715018a61461018c578063817b1cd21461019457600080fd5b80632e17de78146100fa578063417873771461010f5780635234808014610153575b600080fd5b61010d610108366004610a75565b6102b8565b005b6101367f000000000000000000000000000000000000000000000000000000000000000081565b6040516001600160a01b0390911681526020015b60405180910390f35b61010d610161366004610ab8565b61049b565b61010d610174366004610aef565b6104ce565b61010d610187366004610b76565b6106ff565b61010d6107e7565b61019d60045481565b60405190815260200161014a565b6000546001600160a01b0316610136565b6101f66101ca366004610ba0565b600260208190526000918252604090912080546001820154928201546003909201549092919060ff1684565b604080519485526020850193909352918301521515606082015260800161014a565b61019d610226366004610ba0565b6001600160a01b03166000908152600260208190526040909120015490565b61010d610253366004610a75565b6107fb565b61027b610266366004610ba0565b60036020526000908152604090205460ff1681565b604051901515815260200161014a565b61019d68056bc75e2d6310000081565b61019d62093a8081565b61010d6102b3366004610ba0565b610993565b6102c06109ce565b336000908152600260205260409020805482111561031c5760405162461bcd60e51b8152602060048201526014602482015273496e73756666696369656e742062616c616e636560601b60448201526064015b60405180910390fd5b62093a80816001015461032f9190610bd8565b42101561037e5760405162461bcd60e51b815260206004820152601960248201527f556e626f6e64696e6720706572696f64206e6f74206f766572000000000000006044820152606401610313565b818160000160008282546103929190610bf1565b9250508190555081600460008282546103ab9190610bf1565b909155505080546000036103c65760038101805460ff191690555b60405163a9059cbb60e01b8152336004820152602481018390527f00000000000000000000000000000000000000000000000000000000000000006001600160a01b03169063a9059cbb906044016020604051808303816000875af1158015610433573d6000803e3d6000fd5b505050506040513d601f19601f820116820180604052508101906104579190610c04565b5060405182815233907f0f5bb82176feb1b5e747e28471aa92156a04d9f3ab9f45f28e2d704232b93f75906020015b60405180910390a25061049860018055565b50565b6104a36109f8565b6001600160a01b03919091166000908152600360205260409020805460ff1916911515919091179055565b6000546001600160a01b03163314806104f657503360009081526003602052604090205460ff165b61053c5760405162461bcd60e51b815260206004820152601760248201527609cdee840c2eae8d0dee4d2f4cac840e8de40e6d8c2e6d604b1b6044820152606401610313565b6001600160a01b038416600090815260026020526040902080548411156105a55760405162461bcd60e51b815260206004820152601a60248201527f536c617368696e67206d6f7265207468616e2062616c616e63650000000000006044820152606401610313565b838160000160008282546105b99190610bf1565b9250508190555083600460008282546105d29190610bf1565b909155505060028101546032106105ea5760006105fb565b603281600201546105fb9190610bf1565b60028201556001600160a01b037f00000000000000000000000000000000000000000000000000000000000000001663a9059cbb6106416000546001600160a01b031690565b6040516001600160e01b031960e084901b1681526001600160a01b039091166004820152602481018790526044016020604051808303816000875af115801561068e573d6000803e3d6000fd5b505050506040513d601f19601f820116820180604052508101906106b29190610c04565b50846001600160a01b03167f7e947095ed288d8885423bdaef4015b7420ffa9b84d62ef67c402e8bc36a8ea98585856040516106f093929190610c21565b60405180910390a25050505050565b6000546001600160a01b031633148061072757503360009081526003602052604090205460ff165b61076d5760405162461bcd60e51b815260206004820152601760248201527609cdee840c2eae8d0dee4d2f4cac840e8de40e6d8c2e6d604b1b6044820152606401610313565b6001600160a01b0382166000908152600260205260408120908213156107ac57818160020160008282546107a19190610bd8565b909155506107e29050565b60006107b783610c57565b9050808260020154116107cb5760006107db565b8082600201546107db9190610bf1565b6002830155505b505050565b6107ef6109f8565b6107f96000610a25565b565b6108036109ce565b68056bc75e2d631000008110156108525760405162461bcd60e51b81526020600482015260136024820152725374616b652062656c6f77206d696e696d756d60681b6044820152606401610313565b6040516323b872dd60e01b8152336004820152306024820152604481018290527f00000000000000000000000000000000000000000000000000000000000000006001600160a01b0316906323b872dd906064016020604051808303816000875af11580156108c5573d6000803e3d6000fd5b505050506040513d601f19601f820116820180604052508101906108e99190610c04565b5033600090815260026020526040812080549091839183919061090d908490610bd8565b90915550504260018083019190915560038201805460ff19169091179055600281018054600a9190600090610943908490610bd8565b92505081905550816004600082825461095c9190610bd8565b909155505060405182815233907f9e71bc8eea02a63969f509818f2dafb9254532904319f9dbda79b67bd34a5f3d90602001610486565b61099b6109f8565b6001600160a01b0381166109c557604051631e4fbdf760e01b815260006004820152602401610313565b61049881610a25565b6002600154036109f157604051633ee5aeb560e01b815260040160405180910390fd5b6002600155565b6000546001600160a01b031633146107f95760405163118cdaa760e01b8152336004820152602401610313565b600080546001600160a01b038381166001600160a01b0319831681178455604051919092169283917f8be0079c531659141344cd1fd0a4f28419497f9722a3daafe3b4186f6b6457e09190a35050565b600060208284031215610a8757600080fd5b5035919050565b80356001600160a01b0381168114610aa557600080fd5b919050565b801515811461049857600080fd5b60008060408385031215610acb57600080fd5b610ad483610a8e565b91506020830135610ae481610aaa565b809150509250929050565b60008060008060608587031215610b0557600080fd5b610b0e85610a8e565b935060208501359250604085013567ffffffffffffffff80821115610b3257600080fd5b818701915087601f830112610b4657600080fd5b813581811115610b5557600080fd5b886020828501011115610b6757600080fd5b95989497505060200194505050565b60008060408385031215610b8957600080fd5b610b9283610a8e565b946020939093013593505050565b600060208284031215610bb257600080fd5b610bbb82610a8e565b9392505050565b634e487b7160e01b600052601160045260246000fd5b80820180821115610beb57610beb610bc2565b92915050565b81810381811115610beb57610beb610bc2565b600060208284031215610c1657600080fd5b8151610bbb81610aaa565b83815260406020820152816040820152818360608301376000818301606090810191909152601f909201601f1916010192915050565b6000600160ff1b8201610c6c57610c6c610bc2565b506000039056fea2646970667358221220dc9cc4f87138e1de7604131bc040ffe22036f0b490d986a190484d8f7839fe3f64736f6c63430008140033",
  "linkReferences": {},
  "deployedLinkReferences": {}
}