{
  "_format": "hh-sol-artifact-1",
  "contractName": "StakeGuard",
  "sourceName": "contracts/StakeGuard.sol",
  "abi": [
    {
      "inputs": [
        {
          "internalType": "address",
          "name": "_token",
          "type": "address"
        }
      ],
      "stateMutability": "nonpayable",
      "type": "constructor"
    },
    {
      "inputs": [
        {
          "internalType": "address",
          "name": "owner",
          "type": "address"
        }
      ],
      "name": "OwnableInvalidOwner",
      "type": "error"
    },
    {
      "inputs": [
        {
          "internalType": "address",
          "name": "account",
          "type": "address"
        }
      ],
      "name": "OwnableUnauthorizedAccount",
      "type": "error"
    },
    {
      "inputs": [],
      "name": "ReentrancyGuardReentrantCall",
      "type": "error"
    },
    {
      "anonymous": false,
      "inputs": [
        {
          "indexed": true,
          "internalType": "address",
          "name": "previousOwner",
          "type": "address"
        },
        {
          "indexed": true,
          "internalType": "address",
          "name": "newOwner",
          "type": "address"
        }
      ],
      "name": "OwnershipTransferred",
      "type": "event"
    },
    {
      "anonymous": false,
      "inputs": [
        {
          "indexed": true,
          "internalType": "address",
          "name": "node",
          "type": "address"
        },
        {
          "indexed": false,
          "internalType": "uint256",
          "name": "amount",
          "type": "uint256"
        },
        {
          "indexed": false,
          "internalType": "string",
          "name": "reason",
          "type": "string"
        }
      ],
      "name": "Slashed",
      "type": "event"
    },
    {
      "anonymous": false,
      "inputs": [
        {
          "indexed": true,
          "internalType": "address",
          "name": "user",
          "type": "address"
        },
        {
          "indexed": false,
          "internalType": "uint256",
          "name": "amount",
          "type": "uint256"
        }
      ],
      "name": "Staked",
      "type": "event"
    },
    {
      "anonymous": false,
      "inputs": [
        {
          "indexed": true,
          "internalType": "address",
          "name": "user",
          "type": "address"
        },
        {
          "indexed": false,
          "internalType": "uint256",
          "name": "amount",
          "type": "uint256"
        }
      ],
      "name": "Unstaked",
      "type": "event"
    },
    {
      "inputs": [],
      "name": "MIN_STAKE",
      "outputs": [
        {
          "internalType": "uint256",
          "name": "",
          "type": "uint256"
        }
      ],
      "stateMutability": "view",
      "type": "function"
    },
    {
      "inputs": [],
      "name": "UNBONDING_PERIOD",
      "outputs": [
        {
          "internalType": "uint256",
          "name": "",
          "type": "uint256"
        }
      ],
      "stateMutability": "view",
      "type": "function"
    },
    {
      "inputs": [
        {
          "internalType": "address",
          "name": "_node",
          "type": "address"
        }
      ],
      "name": "getReputation",
      "outputs": [
        {
          "internalType": "uint256",
          "name": "",
          "type": "uint256"
        }
      ],
      "stateMutability": "view",
      "type": "function"
    },
    {
      "inputs": [],
      "name": "obscuraToken",
      "outputs": [
        {
          "internalType": "contract IERC20",
          "name": "",
          "type": "address"
        }
      ],
      "stateMutability": "view",
      "type": "function"
    },
    {
      "inputs": [],
      "name": "owner",
      "outputs": [
        {
          "internalType": "address",
          "name": "",
          "type": "address"
        }
      ],
      "stateMutability": "view",
      "type": "function"
    },
    {
      "inputs": [],
      "name": "renounceOwnership",
      "outputs": [],
      "stateMutability": "nonpayable",
      "type": "function"
    },
    {
      "inputs": [
        {
          "internalType": "address",
          "name": "_node",
          "type": "address"
        },
        {
          "internalType": "uint256",
          "name": "_amount",
          "type": "uint256"
        },
        {
          "internalType": "string",
          "name": "_reason",
          "type": "string"
        }
      ],
      "name": "slash",
      "outputs": [],
      "stateMutability": "nonpayable",
      "type": "function"
    },
    {
      "inputs": [
        {
          "internalType": "uint256",
          "name": "_amount",
          "type": "uint256"
        }
      ],
      "name": "stake",
      "outputs": [],
      "stateMutability": "nonpayable",
      "type": "function"
    },
    {
      "inputs": [
        {
          "internalType": "address",
          "name": "",
          "type": "address"
        }
      ],
      "name": "stakers",
      "outputs": [
        {
          "internalType": "uint256",
          "name": "balance",
          "type": "uint256"
        },
        {
          "internalType": "uint256",
          "name": "lastStakeTime",
          "type": "uint256"
        },
        {
          "internalType": "uint256",
          "name": "reputation",
          "type": "uint256"
        },
        {
          "internalType": "bool",
          "name": "isActive",
          "type": "bool"
        }
      ],
      "stateMutability": "view",
      "type": "function"
    },
    {
      "inputs": [],
      "name": "totalStaked",
      "outputs": [
        {
          "internalType": "uint256",
          "name": "",
          "type": "uint256"
        }
      ],
      "stateMutability": "view",
      "type": "function"
    },
    {
      "inputs": [
        {
          "internalType": "address",
          "name": "newOwner",
          "type": "address"
        }
      ],
      "name": "transferOwnership",
      "outputs": [],
      "stateMutability": "nonpayable",
      "type": "function"
    },
    {
      "inputs": [
        {
          "internalType": "uint256",
          "name": "_amount",
          "type": "uint256"
        }
      ],
      "name": "unstake",
      "outputs": [],
      "stateMutability": "nonpayable",
      "type": "function"
    }
  ],
  "bytecode": "0x60a06040523480156200001157600080fd5b50604051620015153803806200151583398181016040528101906200003791906200022f565b33600073ffffffffffffffffffffffffffffffffffffffff168173ffffffffffffffffffffffffffffffffffffffff1603620000ad5760006040517f1e4fbdf7000000000000000000000000000000000000000000000000000000008152600401620000a4919062000272565b60405180910390fd5b620000be816200010160201b60201c565b50600180819055508073ffffffffffffffffffffffffffffffffffffffff1660808173ffffffffffffffffffffffffffffffffffffffff1681525050506200028f565b60008060009054906101000a900473ffffffffffffffffffffffffffffffffffffffff169050816000806101000a81548173ffffffffffffffffffffffffffffffffffffffff021916908373ffffffffffffffffffffffffffffffffffffffff1602179055508173ffffffffffffffffffffffffffffffffffffffff168173ffffffffffffffffffffffffffffffffffffffff167f8be0079c531659141344cd1fd0a4f28419497f9722a3daafe3b4186f6b6457e060405160405180910390a35050565b600080fd5b600073ffffffffffffffffffffffffffffffffffffffff82169050919050565b6000620001f782620001ca565b9050919050565b6200020981620001ea565b81146200021557600080fd5b50565b6000815190506200022981620001fe565b92915050565b600060208284031215620002485762000247620001c5565b5b6000620002588482850162000218565b91505092915050565b6200026c81620001ea565b82525050565b600060208201905062000289600083018462000261565b92915050565b608051611255620002c0600039600081816103730152818161046c0152818161058301526107a201526112556000f3fe608060405234801561001057600080fd5b50600436106100b45760003560e01c80639168ae72116100715780639168ae72146101555780639c89a0e214610188578063a694fc3a146101b8578063cb1c2b5c146101d4578063d9a912ec146101f2578063f2fde38b14610210576100b4565b80632e17de78146100b957806341787377146100d5578063678b3ee2146100f3578063715018a61461010f578063817b1cd2146101195780638da5cb5b14610137575b600080fd5b6100d360048036038101906100ce9190610bd0565b61022c565b005b6100dd61046a565b6040516100ea9190610c7c565b60405180910390f35b61010d60048036038101906101089190610d3a565b61048e565b005b610117610680565b005b610121610694565b60405161012e9190610dbd565b60405180910390f35b61013f61069a565b60405161014c9190610de7565b60405180910390f35b61016f600480360381019061016a9190610e02565b6106c3565b60405161017f9493929190610e4a565b60405180910390f35b6101a2600480360381019061019d9190610e02565b610700565b6040516101af9190610dbd565b60405180910390f35b6101d260048036038101906101cd9190610bd0565b61074c565b005b6101dc610954565b6040516101e99190610dbd565b60405180910390f35b6101fa610961565b6040516102079190610dbd565b60405180910390f35b61022a60048036038101906102259190610e02565b610968565b005b6102346109ee565b6000600260003373ffffffffffffffffffffffffffffffffffffffff1673ffffffffffffffffffffffffffffffffffffffff168152602001908152602001600020905081816000015410156102be576040517f08c379a00000000000000000000000000000000000000000000000000000000081526004016102b590610eec565b60405180910390fd5b62093a8081600101546102d19190610f3b565b421015610313576040517f08c379a000000000000000000000000000000000000000000000000000000000815260040161030a90610fbb565b60405180910390fd5b818160000160008282546103279190610fdb565b9250508190555081600360008282546103409190610fdb565b9250508190555060008160000154036103715760008160030160006101000a81548160ff0219169083151502179055505b7f000000000000000000000000000000000000000000000000000000000000000073ffffffffffffffffffffffffffffffffffffffff1663a9059cbb33846040518363ffffffff1660e01b81526004016103cc92919061100f565b6020604051808303816000875af11580156103eb573d6000803e3d6000fd5b505050506040513d601f19601f8201168201806040525081019061040f9190611064565b503373ffffffffffffffffffffffffffffffffffffffff167f0f5bb82176feb1b5e747e28471aa92156a04d9f3ab9f45f28e2d704232b93f75836040516104569190610dbd565b60405180910390a250610467610a34565b50565b7f000000000000000000000000000000000000000000000000000000000000000081565b610496610a3d565b6000600260008673ffffffffffffffffffffffffffffffffffffffff1673ffffffffffffffffffffffffffffffffffffffff16815260200190815260200160002090508381600001541015610520576040517f08c379a0000000000000000000000000000000000000000000000000000000008152600401610517906110dd565b60405180910390fd5b838160000160008282546105349190610fdb565b92505081905550836003600082825461054d9190610fdb565b925050819055506032816002015411610567576000610579565b603281600201546105789190610fdb565b5b81600201819055507f000000000000000000000000000000000000000000000000000000000000000073ffffffffffffffffffffffffffffffffffffffff1663a9059cbb6105c561069a565b866040518363ffffffff1660e01b81526004016105e392919061100f565b6020604051808303816000875af1158015610602573d6000803e3d6000fd5b505050506040513d601f19601f820116820180604052508101906106269190611064565b508473ffffffffffffffffffffffffffffffffffffffff167f7e947095ed288d8885423bdaef4015b7420ffa9b84d62ef67c402e8bc36a8ea98585856040516106719392919061114a565b60405180910390a25050505050565b610688610a3d565b6106926000610ac4565b565b60035481565b60008060009054906101000a900473ffffffffffffffffffffffffffffffffffffffff16905090565b60026020528060005260406000206000915090508060000154908060010154908060020154908060030160009054906101000a900460ff16905084565b6000600260008373ffffffffffffffffffffffffffffffffffffffff1673ffffffffffffffffffffffffffffffffffffffff168152602001908152602001600020600201549050919050565b6107546109ee565b68056bc75e2d631000008110156107a0576040517f08c379a0000000000000000000000000000000000000000000000000000000008152600401610797906111c8565b60405180910390fd5b7f000000000000000000000000000000000000000000000000000000000000000073ffffffffffffffffffffffffffffffffffffffff166323b872dd3330846040518463ffffffff1660e01b81526004016107fd939291906111e8565b6020604051808303816000875af115801561081c573d6000803e3d6000fd5b505050506040513d601f19601f820116820180604052508101906108409190611064565b506000600260003373ffffffffffffffffffffffffffffffffffffffff1673ffffffffffffffffffffffffffffffffffffffff1681526020019081526020016000209050818160000160008282546108989190610f3b565b9250508190555042816001018190555060018160030160006101000a81548160ff021916908315150217905550600a8160020160008282546108da9190610f3b565b9250508190555081600360008282546108f39190610f3b565b925050819055503373ffffffffffffffffffffffffffffffffffffffff167f9e71bc8eea02a63969f509818f2dafb9254532904319f9dbda79b67bd34a5f3d836040516109409190610dbd565b60405180910390a250610951610a34565b50565b68056bc75e2d6310000081565b62093a8081565b610970610a3d565b600073ffffffffffffffffffffffffffffffffffffffff168173ffffffffffffffffffffffffffffffffffffffff16036109e25760006040517f1e4fbdf70000000000000000000000000000000000000000000000000000000081526004016109d99190610de7565b60405180910390fd5b6109eb81610ac4565b50565b600260015403610a2a576040517f3ee5aeb500000000000000000000000000000000000000000000000000000000815260040160405180910390fd5b6002600181905550565b60018081905550565b610a45610b88565b73ffffffffffffffffffffffffffffffffffffffff16610a6361069a565b73ffffffffffffffffffffffffffffffffffffffff1614610ac257610a86610b88565b6040517f118cdaa7000000000000000000000000000000000000000000000000000000008152600401610ab99190610de7565b60405180910390fd5b565b60008060009054906101000a900473ffffffffffffffffffffffffffffffffffffffff169050816000806101000a81548173ffffffffffffffffffffffffffffffffffffffff021916908373ffffffffffffffffffffffffffffffffffffffff1602179055508173ffffffffffffffffffffffffffffffffffffffff168173ffffffffffffffffffffffffffffffffffffffff167f8be0079c531659141344cd1fd0a4f28419497f9722a3daafe3b4186f6b6457e060405160405180910390a35050565b600033905090565b600080fd5b600080fd5b6000819050919050565b610bad81610b9a565b8114610bb857600080fd5b50565b600081359050610bca81610ba4565b92915050565b600060208284031215610be657610be5610b90565b5b6000610bf484828501610bbb565b91505092915050565b600073ffffffffffffffffffffffffffffffffffffffff82169050919050565b6000819050919050565b6000610c42610c3d610c3884610bfd565b610c1d565b610bfd565b9050919050565b6000610c5482610c27565b9050919050565b6000610c6682610c49565b9050919050565b610c7681610c5b565b82525050565b6000602082019050610c916000830184610c6d565b92915050565b6000610ca282610bfd565b9050919050565b610cb281610c97565b8114610cbd57600080fd5b50565b600081359050610ccf81610ca9565b92915050565b600080fd5b600080fd5b600080fd5b60008083601f840112610cfa57610cf9610cd5565b5b8235905067ffffffffffffffff811115610d1757610d16610cda565b5b602083019150836001820283011115610d3357610d32610cdf565b5b9250929050565b60008060008060608587031215610d5457610d53610b90565b5b6000610d6287828801610cc0565b9450506020610d7387828801610bbb565b935050604085013567ffffffffffffffff811115610d9457610d93610b95565b5b610da087828801610ce4565b925092505092959194509250565b610db781610b9a565b82525050565b6000602082019050610dd26000830184610dae565b92915050565b610de181610c97565b82525050565b6000602082019050610dfc6000830184610dd8565b92915050565b600060208284031215610e1857610e17610b90565b5b6000610e2684828501610cc0565b91505092915050565b60008115159050919050565b610e4481610e2f565b82525050565b6000608082019050610e5f6000830187610dae565b610e6c6020830186610dae565b610e796040830185610dae565b610e866060830184610e3b565b95945050505050565b600082825260208201905092915050565b7f496e73756666696369656e742062616c616e6365000000000000000000000000600082015250565b6000610ed6601483610e8f565b9150610ee182610ea0565b602082019050919050565b60006020820190508181036000830152610f0581610ec9565b9050919050565b7f4e487b7100000000000000000000000000000000000000000000000000000000600052601160045260246000fd5b6000610f4682610b9a565b9150610f5183610b9a565b9250828201905080821115610f6957610f68610f0c565b5b92915050565b7f556e626f6e64696e6720706572696f64206e6f74206f76657200000000000000600082015250565b6000610fa5601983610e8f565b9150610fb082610f6f565b602082019050919050565b60006020820190508181036000830152610fd481610f98565b9050919050565b6000610fe682610b9a565b9150610ff183610b9a565b925082820390508181111561100957611008610f0c565b5b92915050565b60006040820190506110246000830185610dd8565b6110316020830184610dae565b9392505050565b61104181610e2f565b811461104c57600080fd5b50565b60008151905061105e81611038565b92915050565b60006020828403121561107a57611079610b90565b5b60006110888482850161104f565b91505092915050565b7f536c617368696e67206d6f7265207468616e2062616c616e6365000000000000600082015250565b60006110c7601a83610e8f565b91506110d282611091565b602082019050919050565b600060208201905081810360008301526110f6816110ba565b9050919050565b82818337600083830152505050565b6000601f19601f8301169050919050565b60006111298385610e8f565b93506111368385846110fd565b61113f8361110c565b840190509392505050565b600060408201905061115f6000830186610dae565b818103602083015261117281848661111d565b9050949350505050565b7f5374616b652062656c6f77206d696e696d756d00000000000000000000000000600082015250565b60006111b2601383610e8f565b91506111bd8261117c565b602082019050919050565b600060208201905081810360008301526111e1816111a5565b9050919050565b60006060820190506111fd6000830186610dd8565b61120a6020830185610dd8565b6112176040830184610dae565b94935050505056fea2646970667358221220b25ef8f652a7637bd06ab4cf592fbb83ca4301aa9c51333dcefd87df4231b1bf64736f6c63430008140033",
  "linkReferences": {},
  "deployedLinkReferences": {}
}