{
  "_format": "hh-sol-artifact-1",
  "contractName": "StakeGuard",
  "sourceName": "contracts/StakeGuard.sol",
  "abi": [
    {
      "inputs": [
        {
          "internalType": "address",
          "name": "_token",
          "type": "address"
        }
      ],
      "stateMutability": "nonpayable",
      "type": "constructor"
    },
    {
      "inputs": [],
      "name": "AccessControlBadConfirmation",
      "type": "error"
    },
    {
      "inputs": [
        {
          "internalType": "address",
          "name": "account",
          "type": "address"
        },
        {
          "internalType": "bytes32",
          "name": "neededRole",
          "type": "bytes32"
        }
      ],
      "name": "AccessControlUnauthorizedAccount",
      "type": "error"
    },
    {
      "inputs": [],
      "name": "EnforcedPause",
      "type": "error"
    },
    {
      "inputs": [],
      "name": "ExpectedPause",
      "type": "error"
    },
    {
      "inputs": [],
      "name": "ReentrancyGuardReentrantCall",
      "type": "error"
    },
    {
      "anonymous": false,
      "inputs": [
        {
          "indexed": false,
          "internalType": "address",
          "name": "account",
          "type": "address"
        }
      ],
      "name": "Paused",
      "type": "event"
    },
    {
      "anonymous": false,
      "inputs": [
        {
          "indexed": true,
          "internalType": "bytes32",
          "name": "role",
          "type": "bytes32"
        },
        {
          "indexed": true,
          "internalType": "bytes32",
          "name": "previousAdminRole",
          "type": "bytes32"
        },
        {
          "indexed": true,
          "internalType": "bytes32",
          "name": "newAdminRole",
          "type": "bytes32"
        }
      ],
      "name": "RoleAdminChanged",
      "type": "event"
    },
    {
      "anonymous": false,
      "inputs": [
        {
          "indexed": true,
          "internalType": "bytes32",
          "name": "role",
          "type": "bytes32"
        },
        {
          "indexed": true,
          "internalType": "address",
          "name": "account",
          "type": "address"
        },
        {
          "indexed": true,
          "internalType": "address",
          "name": "sender",
          "type": "address"
        }
      ],
      "name": "RoleGranted",
      "type": "event"
    },
    {
      "anonymous": false,
      "inputs": [
        {
          "indexed": true,
          "internalType": "bytes32",
          "name": "role",
          "type": "bytes32"
        },
        {
          "indexed": true,
          "internalType": "address",
          "name": "account",
          "type": "address"
        },
        {
          "indexed": true,
          "internalType": "address",
          "name": "sender",
          "type": "address"
        }
      ],
      "name": "RoleRevoked",
      "type": "event"
    },
    {
      "anonymous": false,
      "inputs": [
        {
          "indexed": true,
          "internalType": "address",
          "name": "node",
          "type": "address"
        },
        {
          "indexed": false,
          "internalType": "uint256",
          "name": "amount",
          "type": "uint256"
        },
        {
          "indexed": false,
          "internalType": "string",
          "name": "reason",
          "type": "string"
        }
      ],
      "name": "Slashed",
      "type": "event"
    },
    {
      "anonymous": false,
      "inputs": [
        {
          "indexed": true,
          "internalType": "address",
          "name": "user",
          "type": "address"
        },
        {
          "indexed": false,
          "internalType": "uint256",
          "name": "amount",
          "type": "uint256"
        }
      ],
      "name": "Staked",
      "type": "event"
    },
    {
      "anonymous": false,
      "inputs": [
        {
          "indexed": false,
          "internalType": "address",
          "name": "account",
          "type": "address"
        }
      ],
      "name": "Unpaused",
      "type": "event"
    },
    {
      "anonymous": false,
      "inputs": [
        {
          "indexed": true,
          "internalType": "address",
          "name": "user",
          "type": "address"
        },
        {
          "indexed": false,
          "internalType": "uint256",
          "name": "amount",
          "type": "uint256"
        }
      ],
      "name": "Unstaked",
      "type": "event"
    },
    {
      "inputs": [],
      "name": "ADMIN_ROLE",
      "outputs": [
        {
          "internalType": "bytes32",
          "name": "",
          "type": "bytes32"
        }
      ],
      "stateMutability": "view",
      "type": "function"
    },
    {
      "inputs": [],
      "name": "DEFAULT_ADMIN_ROLE",
      "outputs": [
        {
          "internalType": "bytes32",
          "name": "",
          "type": "bytes32"
        }
      ],
      "stateMutability": "view",
      "type": "function"
    },
    {
      "inputs": [],
      "name": "MIN_STAKE",
      "outputs": [
        {
          "internalType": "uint256",
          "name": "",
          "type": "uint256"
        }
      ],
      "stateMutability": "view",
      "type": "function"
    },
    {
      "inputs": [],
      "name": "SLASHER_ROLE",
      "outputs": [
        {
          "internalType": "bytes32",
          "name": "",
          "type": "bytes32"
        }
      ],
      "stateMutability": "view",
      "type": "function"
    },
    {
      "inputs": [],
      "name": "UNBONDING_PERIOD",
      "outputs": [
        {
          "internalType": "uint256",
          "name": "",
          "type": "uint256"
        }
      ],
      "stateMutability": "view",
      "type": "function"
    },
    {
      "inputs": [
        {
          "internalType": "address",
          "name": "_node",
          "type": "address"
        }
      ],
      "name": "getReputation",
      "outputs": [
        {
          "internalType": "uint256",
          "name": "",
          "type": "uint256"
        }
      ],
      "stateMutability": "view",
      "type": "function"
    },
    {
      "inputs": [
        {
          "internalType": "bytes32",
          "name": "role",
          "type": "bytes32"
        }
      ],
      "name": "getRoleAdmin",
      "outputs": [
        {
          "internalType": "bytes32",
          "name": "",
          "type": "bytes32"
        }
      ],
      "stateMutability": "view",
      "type": "function"
    },
    {
      "inputs": [
        {
          "internalType": "bytes32",
          "name": "role",
          "type": "bytes32"
        },
        {
          "internalType": "address",
          "name": "account",
          "type": "address"
        }
      ],
      "name": "grantRole",
      "outputs": [],
      "stateMutability": "nonpayable",
      "type": "function"
    },
    {
      "inputs": [
        {
          "internalType": "bytes32",
          "name": "role",
          "type": "bytes32"
        },
        {
          "internalType": "address",
          "name": "account",
          "type": "address"
        }
      ],
      "name": "hasRole",
      "outputs": [
        {
          "internalType": "bool",
          "name": "",
          "type": "bool"
        }
      ],
      "stateMutability": "view",
      "type": "function"
    },
    {
      "inputs": [],
      "name": "obscuraToken",
      "outputs": [
        {
          "internalType": "contract IERC20",
          "name": "",
          "type": "address"
        }
      ],
      "stateMutability": "view",
      "type": "function"
    },
    {
      "inputs": [],
      "name": "pause",
      "outputs": [],
      "stateMutability": "nonpayable",
      "type": "function"
    },
    {
      "inputs": [],
      "name": "paused",
      "outputs": [
        {
          "internalType": "bool",
          "name": "",
          "type": "bool"
        }
      ],
      "stateMutability": "view",
      "type": "function"
    },
    {
      "inputs": [
        {
          "internalType": "bytes32",
          "name": "role",
          "type": "bytes32"
        },
        {
          "internalType": "address",
          "name": "callerConfirmation",
          "type": "address"
        }
      ],
      "name": "renounceRole",
      "outputs": [],
      "stateMutability": "nonpayable",
      "type": "function"
    },
    {
      "inputs": [
        {
          "internalType": "bytes32",
          "name": "role",
          "type": "bytes32"
        },
        {
          "internalType": "address",
          "name": "account",
          "type": "address"
        }
      ],
      "name": "revokeRole",
      "outputs": [],
      "stateMutability": "nonpayable",
      "type": "function"
    },
    {
      "inputs": [
        {
          "internalType": "address",
          "name": "_slasher",
          "type": "address"
        },
        {
          "internalType": "bool",
          "name": "_status",
          "type": "bool"
        }
      ],
      "name": "setSlasher",
      "outputs": [],
      "stateMutability": "nonpayable",
      "type": "function"
    },
    {
      "inputs": [
        {
          "internalType": "address",
          "name": "_treasury",
          "type": "address"
        }
      ],
      "name": "setTreasury",
      "outputs": [],
      "stateMutability": "nonpayable",
      "type": "function"
    },
    {
      "inputs": [
        {
          "internalType": "address",
          "name": "_node",
          "type": "address"
        },
        {
          "internalType": "uint256",
          "name": "_amount",
          "type": "uint256"
        },
        {
          "internalType": "string",
          "name": "_reason",
          "type": "string"
        }
      ],
      "name": "slash",
      "outputs": [],
      "stateMutability": "nonpayable",
      "type": "function"
    },
    {
      "inputs": [
        {
          "internalType": "uint256",
          "name": "_amount",
          "type": "uint256"
        }
      ],
      "name": "stake",
      "outputs": [],
      "stateMutability": "nonpayable",
      "type": "function"
    },
    {
      "inputs": [
        {
          "internalType": "address",
          "name": "",
          "type": "address"
        }
      ],
      "name": "stakers",
      "outputs": [
        {
          "internalType": "uint256",
          "name": "balance",
          "type": "uint256"
        },
        {
          "internalType": "uint256",
          "name": "lastStakeTime",
          "type": "uint256"
        },
        {
          "internalType": "uint256",
          "name": "reputation",
          "type": "uint256"
        },
        {
          "internalType": "bool",
          "name": "isActive",
          "type": "bool"
        }
      ],
      "stateMutability": "view",
      "type": "function"
    },
    {
      "inputs": [
        {
          "internalType": "bytes4",
          "name": "interfaceId",
          "type": "bytes4"
        }
      ],
      "name": "supportsInterface",
      "outputs": [
        {
          "internalType": "bool",
          "name": "",
          "type": "bool"
        }
      ],
      "stateMutability": "view",
      "type": "function"
    },
    {
      "inputs": [],
      "name": "totalStaked",
      "outputs": [
        {
          "internalType": "uint256",
          "name": "",
          "type": "uint256"
        }
      ],
      "stateMutability": "view",
      "type": "function"
    },
    {
      "inputs": [],
      "name": "treasury",
      "outputs": [
        {
          "internalType": "address",
          "name": "",
          "type": "address"
        }
      ],
      "stateMutability": "view",
      "type": "function"
    },
    {
      "inputs": [],
      "name": "unpause",
      "outputs": [],
      "stateMutability": "nonpayable",
      "type": "function"
    },
    {
      "inputs": [
        {
          "internalType": "uint256",
          "name": "_amount",
          "type": "uint256"
        }
      ],
      "name": "unstake",
      "outputs": [],
      "stateMutability": "nonpayable",
      "type": "function"
    },
    {
      "inputs": [
        {
          "internalType": "address",
          "name": "_node",
          "type": "address"
        },
        {
          "internalType": "int256",
          "name": "_delta",
          "type": "int256"
        }
      ],
      "name": "updateReputation",
      "outputs": [],
      "stateMutability": "nonpayable",
      "type": "function"
    }
  ],
  "bytecode": "0x60a060405234801561001057600080fd5b5060405161121438038061121483398101604081905261002f9161013a565b600160025561003f60003361008e565b5061006a7fa49807205ce4d355092ef5a8a18f56e8913cf4a201fbe287825b095693c217753361008e565b506001600160a01b0316608052600580546001600160a01b0319163317905561016a565b6000828152602081815260408083206001600160a01b038516845290915281205460ff16610130576000838152602081815260408083206001600160a01b03861684529091529020805460ff191660011790556100e83390565b6001600160a01b0316826001600160a01b0316847f2f8788117e7eff1d82e926ec794901d17c78024a50270940304540a733656f0d60405160405180910390a4506001610134565b5060005b92915050565b60006020828403121561014c57600080fd5b81516001600160a01b038116811461016357600080fd5b9392505050565b60805161107a61019a6000396000818161021901528181610544015281816107dc01526109f5015261107a6000f3fe608060405234801561001057600080fd5b50600436106101735760003560e01c80636a08b511116100de5780639c89a0e211610097578063cb1c2b5c11610071578063cb1c2b5c1461039b578063d547741f146103ab578063d9a912ec146103be578063f0f44260146103c857600080fd5b80639c89a0e214610354578063a217fddf14610380578063a694fc3a1461038857600080fd5b80636a08b511146102ac57806375b238fc146102bf578063817b1cd2146102d45780638456cb59146102dd5780639168ae72146102e557806391d148541461034157600080fd5b8063417873771161013057806341787377146102145780635095af641461025357806352348080146102685780635c975abb1461027b57806361d027b314610286578063678b3ee21461029957600080fd5b806301ffc9a714610178578063248a9ca3146101a05780632e17de78146101d15780632f2ff15d146101e657806336568abe146101f95780633f4ba83a1461020c575b600080fd5b61018b610186366004610db6565b6103db565b60405190151581526020015b60405180910390f35b6101c36101ae366004610de7565b60009081526020819052604090206001015490565b604051908152602001610197565b6101e46101df366004610de7565b610412565b005b6101e46101f4366004610e1c565b6105fe565b6101e4610207366004610e1c565b610629565b6101e4610661565b61023b7f000000000000000000000000000000000000000000000000000000000000000081565b6040516001600160a01b039091168152602001610197565b6101c360008051602061100583398151915281565b6101e4610276366004610e56565b610681565b60015460ff1661018b565b60055461023b906001600160a01b031681565b6101e46102a7366004610e8d565b6106cf565b6101e46102ba366004610f14565b610899565b6101c360008051602061102583398151915281565b6101c360045481565b6101e461092b565b61031f6102f3366004610f3e565b600360208190526000918252604090912080546001820154600283015492909301549092919060ff1684565b6040805194855260208501939093529183015215156060820152608001610197565b61018b61034f366004610e1c565b61094b565b6101c3610362366004610f3e565b6001600160a01b031660009081526003602052604090206002015490565b6101c3600081565b6101e4610396366004610de7565b610974565b6101c368056bc75e2d6310000081565b6101e46103b9366004610e1c565b610b14565b6101c362093a8081565b6101e46103d6366004610f3e565b610b39565b60006001600160e01b03198216637965db0b60e01b148061040c57506301ffc9a760e01b6001600160e01b03198316145b92915050565b61041a610b74565b610422610b9a565b336000908152600360205260409020805482111561047e5760405162461bcd60e51b8152602060048201526014602482015273496e73756666696369656e742062616c616e636560601b60448201526064015b60405180910390fd5b62093a8081600101546104919190610f6f565b4210156104e05760405162461bcd60e51b815260206004820152601960248201527f556e626f6e64696e6720706572696f64206e6f74206f766572000000000000006044820152606401610475565b818160000160008282546104f49190610f82565b92505081905550816004600082825461050d9190610f82565b909155505080546000036105285760038101805460ff191690555b60405163a9059cbb60e01b8152336004820152602481018390527f00000000000000000000000000000000000000000000000000000000000000006001600160a01b03169063a9059cbb906044016020604051808303816000875af1158015610595573d6000803e3d6000fd5b505050506040513d601f19601f820116820180604052508101906105b99190610f95565b5060405182815233907f0f5bb82176feb1b5e747e28471aa92156a04d9f3ab9f45f28e2d704232b93f75906020015b60405180910390a2506105fb6001600255565b50565b60008281526020819052604090206001015461061981610bc2565b6106238383610bcc565b50505050565b6001600160a01b03811633146106525760405163334bd91960e11b815260040160405180910390fd5b61065c8282610c5e565b505050565b60008051602061102583398151915261067981610bc2565b6105fb610cc9565b60008051602061102583398151915261069981610bc2565b81156106b75761062360008051602061100583398151915284610bcc565b61062360008051602061100583398151915284610c5e565b6000805160206110058339815191526106e781610bc2565b6106ef610b74565b6001600160a01b038516600090815260036020526040902080548511156107585760405162461bcd60e51b815260206004820152601a60248201527f536c617368696e67206d6f7265207468616e2062616c616e63650000000000006044820152606401610475565b8481600001600082825461076c9190610f82565b9250508190555084600460008282546107859190610f82565b9091555050600281015460321061079d5760006107ae565b603281600201546107ae9190610f82565b600282015560055460405163a9059cbb60e01b81526001600160a01b039182166004820152602481018790527f00000000000000000000000000000000000000000000000000000000000000009091169063a9059cbb906044016020604051808303816000875af1158015610827573d6000803e3d6000fd5b505050506040513d601f19601f8201168201806040525081019061084b9190610f95565b50856001600160a01b03167f7e947095ed288d8885423bdaef4015b7420ffa9b84d62ef67c402e8bc36a8ea986868660405161088993929190610fb2565b60405180910390a2505050505050565b6000805160206110058339815191526108b181610bc2565b6001600160a01b0383166000908152600360205260408120908313156108f057828160020160008282546108e59190610f6f565b909155506106239050565b60006108fb84610fe8565b90508082600201541161090f57600061091f565b80826002015461091f9190610f82565b60028301555050505050565b60008051602061102583398151915261094381610bc2565b6105fb610d1b565b6000918252602082815260408084206001600160a01b0393909316845291905290205460ff1690565b61097c610b74565b610984610b9a565b68056bc75e2d631000008110156109d35760405162461bcd60e51b81526020600482015260136024820152725374616b652062656c6f77206d696e696d756d60681b6044820152606401610475565b6040516323b872dd60e01b8152336004820152306024820152604481018290527f00000000000000000000000000000000000000000000000000000000000000006001600160a01b0316906323b872dd906064016020604051808303816000875af1158015610a46573d6000803e3d6000fd5b505050506040513d601f19601f82011682018060405250810190610a6a9190610f95565b50336000908152600360205260408120805490918391839190610a8e908490610f6f565b90915550504260018083019190915560038201805460ff19169091179055600281018054600a9190600090610ac4908490610f6f565b925050819055508160046000828254610add9190610f6f565b909155505060405182815233907f9e71bc8eea02a63969f509818f2dafb9254532904319f9dbda79b67bd34a5f3d906020016105e8565b600082815260208190526040902060010154610b2f81610bc2565b6106238383610c5e565b600080516020611025833981519152610b5181610bc2565b50600580546001600160a01b0319166001600160a01b0392909216919091179055565b60015460ff1615610b985760405163d93c066560e01b815260040160405180910390fd5b565b6002805403610bbc57604051633ee5aeb560e01b815260040160405180910390fd5b60028055565b6105fb8133610d56565b6000610bd8838361094b565b610c56576000838152602081815260408083206001600160a01b03861684529091529020805460ff19166001179055610c0e3390565b6001600160a01b0316826001600160a01b0316847f2f8788117e7eff1d82e926ec794901d17c78024a50270940304540a733656f0d60405160405180910390a450600161040c565b50600061040c565b6000610c6a838361094b565b15610c56576000838152602081815260408083206001600160a01b0386168085529252808320805460ff1916905551339286917ff6391f5c32d9c69d2a47ea670b442974b53935d1edc7fd64eb21e047a839171b9190a450600161040c565b610cd1610d93565b6001805460ff191690557f5db9ee0a495bf2e6ff9c91a7834c1ba4fdd244a5e8aa4e537bd38aeae4b073aa335b6040516001600160a01b03909116815260200160405180910390a1565b610d23610b74565b6001805460ff1916811790557f62e78cea01bee320cd4e420270b5ea74000d11b0c9f74754ebdbfc544b05a25833610cfe565b610d60828261094b565b610d8f5760405163e2517d3f60e01b81526001600160a01b038216600482015260248101839052604401610475565b5050565b60015460ff16610b9857604051638dfc202b60e01b815260040160405180910390fd5b600060208284031215610dc857600080fd5b81356001600160e01b031981168114610de057600080fd5b9392505050565b600060208284031215610df957600080fd5b5035919050565b80356001600160a01b0381168114610e1757600080fd5b919050565b60008060408385031215610e2f57600080fd5b82359150610e3f60208401610e00565b90509250929050565b80151581146105fb57600080fd5b60008060408385031215610e6957600080fd5b610e7283610e00565b91506020830135610e8281610e48565b809150509250929050565b60008060008060608587031215610ea357600080fd5b610eac85610e00565b935060208501359250604085013567ffffffffffffffff80821115610ed057600080fd5b818701915087601f830112610ee457600080fd5b813581811115610ef357600080fd5b886020828501011115610f0557600080fd5b95989497505060200194505050565b60008060408385031215610f2757600080fd5b610f3083610e00565b946020939093013593505050565b600060208284031215610f5057600080fd5b610de082610e00565b634e487b7160e01b600052601160045260246000fd5b8082018082111561040c5761040c610f59565b8181038181111561040c5761040c610f59565b600060208284031215610fa757600080fd5b8151610de081610e48565b83815260406020820152816040820152818360608301376000818301606090810191909152601f909201601f1916010192915050565b6000600160ff1b8201610ffd57610ffd610f59565b506000039056fe12b42e8a160f6064dc959c6f251e3af0750ad213dbecf573b4710d67d6c28e39a49807205ce4d355092ef5a8a18f56e8913cf4a201fbe287825b095693c21775a2646970667358221220018040b38fb973aca335fa1ba10625b0e6c5362722ed34e9d092d8535f78580a64736f6c63430008140033",
  "linkReferences": {},
  "deployedLinkReferences": {}
}