{"contracts/StakeGuard.sol":{"StakeGuard":{"abi":[{"inputs":[{"internalType":"address","name":"_token","type":"address"}],"stateMutability":"nonpayable","type":"constructor"},{"inputs":[{"internalType":"address","name":"owner","type":"address"}],"name":"OwnableInvalidOwner","type":"error"},{"inputs":[{"internalType":"address","name":"account","type":"address"}],"name":"OwnableUnauthorizedAccount","type":"error"},{"inputs":[],"name":"ReentrancyGuardReentrantCall","type":"error"},{"anonymous":false,"inputs":[{"indexed":true,"internalType":"address","name":"previousOwner","type":"address"},{"indexed":true,"internalType":"address","name":"newOwner","type":"address"}],"name":"OwnershipTransferred","type":"event"},{"anonymous":false,"inputs":[{"indexed":true,"internalType":"address","name":"node","type":"address"},{"indexed":false,"internalType":"uint256","name":"amount","type":"uint256"},{"indexed":false,"internalType":"string","name":"reason","type":"string"}],"name":"Slashed","type":"event"},{"anonymous":false,"inputs":[{"indexed":true,"internalType":"address","name":"user","type":"address"},{"indexed":false,"internalType":"uint256","name":"amount","type":"uint256"}],"name":"Staked","type":"event"},{"anonymous":false,"inputs":[{"indexed":true,"internalType":"address","name":"user","type":"address"},{"indexed":false,"internalType":"uint256","name":"amount","type":"uint256"}],"name":"Unstaked","type":"event"},{"inputs":[],"name":"MIN_STAKE","outputs":[{"internalType":"uint256","name":"","type":"uint256"}],"stateMutability":"view","type":"function"},{"inputs":[],"name":"UNBONDING_PERIOD","outputs":[{"internalType":"uint256","name":"","type":"uint256"}],"stateMutability":"view","type":"function"},{"inputs":[{"internalType":"address","name":"_node","type":"address"}],"name":"getReputation","outputs":[{"internalType":"uint256","name":"","type":"uint256"}],"stateMutability":"view","type":"function"},{"inputs":[],"name":"obscuraToken","outputs":[{"internalType":"contract IERC20","name":"","type":"address"}],"stateMutability":"view","type":"function"},{"inputs":[],"name":"owner","outputs":[{"internalType":"address","name":"","type":"address"}],"stateMutability":"view","type":"function"},{"inputs":[],"name":"renounceOwnership","outputs":[],"stateMutability":"nonpayable","type":"function"},{"inputs":[{"internalType":"address","name":"_node","type":"address"},{"internalType":"uint256","name":"_amount","type":"uint256"},{"internalType":"string","name":"_reason","type":"string"}],"name":"slash","outputs":[],"stateMutability":"nonpayable","type":"function"},{"inputs":[{"internalType":"uint256","name":"_amount","type":"uint256"}],"name":"stake","outputs":[],"stateMutability":"nonpayable","type":"function"},{"inputs":[{"internalType":"address","name":"","type":"address"}],"name":"stakers","outputs":[{"internalType":"uint256","name":"balance","type":"uint256"},{"internalType":"uint256","name":"lastStakeTime","type":"uint256"},{"internalType":"uint256","name":"reputation","type":"uint256"},{"internalType":"bool","name":"isActive","type":"bool"}],"stateMutability":"view","type":"function"},{"inputs":[],"name":"totalStaked","outputs":[{"internalType":"uint256","name":"","type":"uint256"}],"stateMutability":"view","type":"function"},{"inputs":[{"internalType":"address","name":"newOwner","type":"address"}],"name":"transferOwnership","outputs":[],"stateMutability":"nonpayable","type":"function"},{"inputs":[{"internalType":"uint256","name":"_amount","type":"uint256"}],"name":"unstake","outputs":[],"stateMutability":"nonpayable","type":"function"}],"evm":{"bytecode":{"linkReferences":{},"object":"60a06040523480156200001157600080fd5b50604051620015153803806200151583398181016040528101906200003791906200022f565b33600073ffffffffffffffffffffffffffffffffffffffff168173ffffffffffffffffffffffffffffffffffffffff1603620000ad5760006040517f1e4fbdf7000000000000000000000000000000000000000000000000000000008152600401620000a4919062000272565b60405180910390fd5b620000be816200010160201b60201c565b50600180819055508073ffffffffffffffffffffffffffffffffffffffff1660808173ffffffffffffffffffffffffffffffffffffffff1681525050506200028f565b60008060009054906101000a900473ffffffffffffffffffffffffffffffffffffffff169050816000806101000a81548173ffffffffffffffffffffffffffffffffffffffff021916908373ffffffffffffffffffffffffffffffffffffffff1602179055508173ffffffffffffffffffffffffffffffffffffffff168173ffffffffffffffffffffffffffffffffffffffff167f8be0079c531659141344cd1fd0a4f28419497f9722a3daafe3b4186f6b6457e060405160405180910390a35050565b600080fd5b600073ffffffffffffffffffffffffffffffffffffffff82169050919050565b6000620001f782620001ca565b9050919050565b6200020981620001ea565b81146200021557600080fd5b50565b6000815190506200022981620001fe565b92915050565b600060208284031215620002485762000247620001c5565b5b6000620002588482850162000218565b91505092915050565b6200026c81620001ea565b82525050565b600060208201905062000289600083018462000261565b92915050565b608051611255620002c0600039600081816103730152818161046c0152818161058301526107a201526112556000f3fe608060405234801561001057600080fd5b50600436106100b45760003560e01c80639168ae72116100715780639168ae72146101555780639c89a0e214610188578063a694fc3a146101b8578063cb1c2b5c146101d4578063d9a912ec146101f2578063f2fde38b14610210576100b4565b80632e17de78146100b957806341787377146100d5578063678b3ee2146100f3578063715018a61461010f578063817b1cd2146101195780638da5cb5b14610137575b600080fd5b6100d360048036038101906100ce9190610bd0565b61022c565b005b6100dd61046a565b6040516100ea9190610c7c565b60405180910390f35b61010d60048036038101906101089190610d3a565b61048e565b005b610117610680565b005b610121610694565b60405161012e9190610dbd565b60405180910390f35b61013f61069a565b60405161014c9190610de7565b60405180910390f35b61016f600480360381019061016a9190610e02565b6106c3565b60405161017f9493929190610e4a565b60405180910390f35b6101a2600480360381019061019d9190610e02565b610700565b6040516101af9190610dbd565b60405180910390f35b6101d260048036038101906101cd9190610bd0565b61074c565b005b6101dc610954565b6040516101e99190610dbd565b60405180910390f35b6101fa610961565b6040516102079190610dbd565b60405180910390f35b61022a60048036038101906102259190610e02565b610968565b005b6102346109ee565b6000600260003373ffffffffffffffffffffffffffffffffffffffff1673ffffffffffffffffffffffffffffffffffffffff168152602001908152602001600020905081816000015410156102be576040517f08c379a00000000000000000000000000000000000000000000000000000000081526004016102b590610eec565b60405180910390fd5b62093a8081600101546102d19190610f3b565b421015610313576040517f08c379a000000000000000000000000000000000000000000000000000000000815260040161030a90610fbb565b60405180910390fd5b818160000160008282546103279190610fdb565b9250508190555081600360008282546103409190610fdb565b9250508190555060008160000154036103715760008160030160006101000a81548160ff0219169083151502179055505b7f000000000000000000000000000000000000000000000000000000000000000073ffffffffffffffffffffffffffffffffffffffff1663a9059cbb33846040518363ffffffff1660e01b81526004016103cc92919061100f565b6020604051808303816000875af11580156103eb573d6000803e3d6000fd5b505050506040513d601f19601f8201168201806040525081019061040f9190611064565b503373ffffffffffffffffffffffffffffffffffffffff167f0f5bb82176feb1b5e747e28471aa92156a04d9f3ab9f45f28e2d704232b93f75836040516104569190610dbd565b60405180910390a250610467610a34565b50565b7f000000000000000000000000000000000000000000000000000000000000000081565b610496610a3d565b6000600260008673ffffffffffffffffffffffffffffffffffffffff1673ffffffffffffffffffffffffffffffffffffffff16815260200190815260200160002090508381600001541015610520576040517f08c379a0000000000000000000000000000000000000000000000000000000008152600401610517906110dd565b60405180910390fd5b838160000160008282546105349190610fdb565b92505081905550836003600082825461054d9190610fdb565b925050819055506032816002015411610567576000610579565b603281600201546105789190610fdb565b5b81600201819055507f000000000000000000000000000000000000000000000000000000000000000073ffffffffffffffffffffffffffffffffffffffff1663a9059cbb6105c561069a565b866040518363ffffffff1660e01b81526004016105e392919061100f565b6020604051808303816000875af1158015610602573d6000803e3d6000fd5b505050506040513d601f19601f820116820180604052508101906106269190611064565b508473ffffffffffffffffffffffffffffffffffffffff167f7e947095ed288d8885423bdaef4015b7420ffa9b84d62ef67c402e8bc36a8ea98585856040516106719392919061114a565b60405180910390a25050505050565b610688610a3d565b6106926000610ac4565b565b60035481565b60008060009054906101000a900473ffffffffffffffffffffffffffffffffffffffff16905090565b60026020528060005260406000206000915090508060000154908060010154908060020154908060030160009054906101000a900460ff16905084565b6000600260008373ffffffffffffffffffffffffffffffffffffffff1673ffffffffffffffffffffffffffffffffffffffff168152602001908152602001600020600201549050919050565b6107546109ee565b68056bc75e2d631000008110156107a0576040517f08c379a0000000000000000000000000000000000000000000000000000000008152600401610797906111c8565b60405180910390fd5b7f000000000000000000000000000000000000000000000000000000000000000073ffffffffffffffffffffffffffffffffffffffff166323b872dd3330846040518463ffffffff1660e01b81526004016107fd939291906111e8565b6020604051808303816000875af115801561081c573d6000803e3d6000fd5b505050506040513d601f19601f820116820180604052508101906108409190611064565b506000600260003373ffffffffffffffffffffffffffffffffffffffff1673ffffffffffffffffffffffffffffffffffffffff1681526020019081526020016000209050818160000160008282546108989190610f3b565b9250508190555042816001018190555060018160030160006101000a81548160ff021916908315150217905550600a8160020160008282546108da9190610f3b565b9250508190555081600360008282546108f39190610f3b565b925050819055503373ffffffffffffffffffffffffffffffffffffffff167f9e71bc8eea02a63969f509818f2dafb9254532904319f9dbda79b67bd34a5f3d836040516109409190610dbd565b60405180910390a250610951610a34565b50565b68056bc75e2d6310000081565b62093a8081565b610970610a3d565b600073ffffffffffffffffffffffffffffffffffffffff168173ffffffffffffffffffffffffffffffffffffffff16036109e25760006040517f1e4fbdf70000000000000000000000000000000000000000000000000000000081526004016109d99190610de7565b60405180910390fd5b6109eb81610ac4565b50565b600260015403610a2a576040517f3ee5aeb500000000000000000000000000000000000000000000000000000000815260040160405180910390fd5b6002600181905550565b60018081905550565b610a45610b88565b73ffffffffffffffffffffffffffffffffffffffff16610a6361069a565b73ffffffffffffffffffffffffffffffffffffffff1614610ac257610a86610b88565b6040517f118cdaa7000000000000000000000000000000000000000000000000000000008152600401610ab99190610de7565b60405180910390fd5b565b60008060009054906101000a900473ffffffffffffffffffffffffffffffffffffffff169050816000806101000a81548173ffffffffffffffffffffffffffffffffffffffff021916908373ffffffffffffffffffffffffffffffffffffffff1602179055508173ffffffffffffffffffffffffffffffffffffffff168173ffffffffffffffffffffffffffffffffffffffff167f8be0079c531659141344cd1fd0a4f28419497f9722a3daafe3b4186f6b6457e060405160405180910390a35050565b600033905090565b600080fd5b600080fd5b6000819050919050565b610bad81610b9a565b8114610bb857600080fd5b50565b600081359050610bca81610ba4565b92915050565b600060208284031215610be657610be5610b90565b5b6000610bf484828501610bbb565b91505092915050565b600073ffffffffffffffffffffffffffffffffffffffff82169050919050565b6000819050919050565b6000610c42610c3d610c3884610bfd565b610c1d565b610bfd565b9050919050565b6000610c5482610c27565b9050919050565b6000610c6682610c49565b9050919050565b610c7681610c5b565b82525050565b6000602082019050610c916000830184610c6d565b92915050565b6000610ca282610bfd565b9050919050565b610cb281610c97565b8114610cbd57600080fd5b50565b600081359050610ccf81610ca9565b92915050565b600080fd5b600080fd5b600080fd5b60008083601f840112610cfa57610cf9610cd5565b5b8235905067ffffffffffffffff811115610d1757610d16610cda565b5b602083019150836001820283011115610d3357610d32610cdf565b5b9250929050565b60008060008060608587031215610d5457610d53610b90565b5b6000610d6287828801610cc0565b9450506020610d7387828801610bbb565b935050604085013567ffffffffffffffff811115610d9457610d93610b95565b5b610da087828801610ce4565b925092505092959194509250565b610db781610b9a565b82525050565b6000602082019050610dd26000830184610dae565b92915050565b610de181610c97565b82525050565b6000602082019050610dfc6000830184610dd8565b92915050565b600060208284031215610e1857610e17610b90565b5b6000610e2684828501610cc0565b91505092915050565b60008115159050919050565b610e4481610e2f565b82525050565b6000608082019050610e5f6000830187610dae565b610e6c6020830186610dae565b610e796040830185610dae565b610e866060830184610e3b565b95945050505050565b600082825260208201905092915050565b7f496e73756666696369656e742062616c616e6365000000000000000000000000600082015250565b6000610ed6601483610e8f565b9150610ee182610ea0565b602082019050919050565b60006020820190508181036000830152610f0581610ec9565b9050919050565b7f4e487b7100000000000000000000000000000000000000000000000000000000600052601160045260246000fd5b6000610f4682610b9a565b9150610f5183610b9a565b9250828201905080821115610f6957610f68610f0c565b5b92915050565b7f556e626f6e64696e6720706572696f64206e6f74206f76657200000000000000600082015250565b6000610fa5601983610e8f565b9150610fb082610f6f565b602082019050919050565b60006020820190508181036000830152610fd481610f98565b9050919050565b6000610fe682610b9a565b9150610ff183610b9a565b925082820390508181111561100957611008610f0c565b5b92915050565b60006040820190506110246000830185610dd8565b6110316020830184610dae565b9392505050565b61104181610e2f565b811461104c57600080fd5b50565b60008151905061105e81611038565b92915050565b60006020828403121561107a57611079610b90565b5b60006110888482850161104f565b91505092915050565b7f536c617368696e67206d6f7265207468616e2062616c616e6365000000000000600082015250565b60006110c7601a83610e8f565b91506110d282611091565b602082019050919050565b600060208201905081810360008301526110f6816110ba565b9050919050565b82818337600083830152505050565b6000601f19601f8301169050919050565b60006111298385610e8f565b93506111368385846110fd565b61113f8361110c565b840190509392505050565b600060408201905061115f6000830186610dae565b818103602083015261117281848661111d565b9050949350505050565b7f5374616b652062656c6f77206d696e696d756d00000000000000000000000000600082015250565b60006111b2601383610e8f565b91506111bd8261117c565b602082019050919050565b600060208201905081810360008301526111e1816111a5565b9050919050565b60006060820190506111fd6000830186610dd8565b61120a6020830185610dd8565b6112176040830184610dae565b94935050505056fea2646970667358221220b25ef8f652a7637bd06ab4cf592fbb83ca4301aa9c51333dcefd87df4231b1bf64736f6c63430008140033","opcodes":"PUSH1 0xA0 PUSH1 0x40 MSTORE CALLVALUE DUP1 ISZERO PUSH3 0x11 JUMPI PUSH1 0x0 DUP1 REVERT JUMPDEST POP PUSH1 0x40 MLOAD PUSH3 0x1515 CODESIZE SUB DUP1 PUSH3 0x1515 DUP4 CODECOPY DUP2 DUP2 ADD PUSH1 0x40 MSTORE DUP2 ADD SWAP1 PUSH3 0x37 SWAP2 SWAP1 PUSH3 0x22F JUMP JUMPDEST CALLER PUSH1 0x0 PUSH20 0xFFFFFFFFFFFFFFFFFFFFFFFFFFFFFFFFFFFFFFFF AND DUP2 PUSH20 0xFFFFFFFFFFFFFFFFFFFFFFFFFFFFFFFFFFFFFFFF AND SUB PUSH3 0xAD JUMPI PUSH1 0x0 PUSH1 0x40 MLOAD PUSH32 0x1E4FBDF700000000000000000000000000000000000000000000000000000000 DUP2 MSTORE PUSH1 0x4 ADD PUSH3 0xA4 SWAP2 SWAP1 PUSH3 0x272 JUMP JUMPDEST PUSH1 0x40 MLOAD DUP1 SWAP2 SUB SWAP1 REVERT JUMPDEST PUSH3 0xBE DUP2 PUSH3 0x101 PUSH1 0x20 SHL PUSH1 0x20 SHR JUMP JUMPDEST POP PUSH1 0x1 DUP1 DUP2 SWAP1 SSTORE POP DUP1 PUSH20 0xFFFFFFFFFFFFFFFFFFFFFFFFFFFFFFFFFFFFFFFF AND PUSH1 0x80 DUP2 PUSH20 0xFFFFFFFFFFFFFFFFFFFFFFFFFFFFFFFFFFFFFFFF AND DUP2 MSTORE POP POP POP PUSH3 0x28F JUMP JUMPDEST PUSH1 0x0 DUP1 PUSH1 0x0 SWAP1 SLOAD SWAP1 PUSH2 0x100 EXP SWAP1 DIV PUSH20 0xFFFFFFFFFFFFFFFFFFFFFFFFFFFFFFFFFFFFFFFF AND SWAP1 POP DUP2 PUSH1 0x0 DUP1 PUSH2 0x100 EXP DUP2 SLOAD DUP2 PUSH20 0xFFFFFFFFFFFFFFFFFFFFFFFFFFFFFFFFFFFFFFFF MUL NOT AND SWAP1 DUP4 PUSH20 0xFFFFFFFFFFFFFFFFFFFFFFFFFFFFFFFFFFFFFFFF AND MUL OR SWAP1 SSTORE POP DUP2 PUSH20 0xFFFFFFFFFFFFFFFFFFFFFFFFFFFFFFFFFFFFFFFF AND DUP2 PUSH20 0xFFFFFFFFFFFFFFFFFFFFFFFFFFFFFFFFFFFFFFFF AND PUSH32 0x8BE0079C531659141344CD1FD0A4F28419497F9722A3DAAFE3B4186F6B6457E0 PUSH1 0x40 MLOAD PUSH1 0x40 MLOAD DUP1 SWAP2 SUB SWAP1 LOG3 POP POP JUMP JUMPDEST PUSH1 0x0 DUP1 REVERT JUMPDEST PUSH1 0x0 PUSH20 0xFFFFFFFFFFFFFFFFFFFFFFFFFFFFFFFFFFFFFFFF DUP3 AND SWAP1 POP SWAP2 SWAP1 POP JUMP JUMPDEST PUSH1 0x0 PUSH3 0x1F7 DUP3 PUSH3 0x1CA JUMP JUMPDEST SWAP1 POP SWAP2 SWAP1 POP JUMP JUMPDEST PUSH3 0x209 DUP2 PUSH3 0x1EA JUMP JUMPDEST DUP2 EQ PUSH3 0x215 JUMPI PUSH1 0x0 DUP1 REVERT JUMPDEST POP JUMP JUMPDEST PUSH1 0x0 DUP2 MLOAD SWAP1 POP PUSH3 0x229 DUP2 PUSH3 0x1FE JUMP JUMPDEST SWAP3 SWAP2 POP POP JUMP JUMPDEST PUSH1 0x0 PUSH1 0x20 DUP3 DUP5 SUB SLT ISZERO PUSH3 0x248 JUMPI PUSH3 0x247 PUSH3 0x1C5 JUMP JUMPDEST JUMPDEST PUSH1 0x0 PUSH3 0x258 DUP5 DUP3 DUP6 ADD PUSH3 0x218 JUMP JUMPDEST SWAP2 POP POP SWAP3 SWAP2 POP POP JUMP JUMPDEST PUSH3 0x26C DUP2 PUSH3 0x1EA JUMP JUMPDEST DUP3 MSTORE POP POP JUMP JUMPDEST PUSH1 0x0 PUSH1 0x20 DUP3 ADD SWAP1 POP PUSH3 0x289 PUSH1 0x0 DUP4 ADD DUP5 PUSH3 0x261 JUMP JUMPDEST SWAP3 SWAP2 POP POP JUMP JUMPDEST PUSH1 0x80 MLOAD PUSH2 0x1255 PUSH3 0x2C0 PUSH1 0x0 CODECOPY PUSH1 0x0 DUP2 DUP2 PUSH2 0x373 ADD MSTORE DUP2 DUP2 PUSH2 0x46C ADD MSTORE DUP2 DUP2 PUSH2 0x583 ADD MSTORE PUSH2 0x7A2 ADD MSTORE PUSH2 0x1255 PUSH1 0x0 RETURN INVALID PUSH1 0x80 PUSH1 0x40 MSTORE CALLVALUE DUP1 ISZERO PUSH2 0x10 JUMPI PUSH1 0x0 DUP1 REVERT JUMPDEST POP PUSH1 0x4 CALLDATASIZE LT PUSH2 0xB4 JUMPI PUSH1 0x0 CALLDATALOAD PUSH1 0xE0 SHR DUP1 PUSH4 0x9168AE72 GT PUSH2 0x71 JUMPI DUP1 PUSH4 0x9168AE72 EQ PUSH2 0x155 JUMPI DUP1 PUSH4 0x9C89A0E2 EQ PUSH2 0x188 JUMPI DUP1 PUSH4 0xA694FC3A EQ PUSH2 0x1B8 JUMPI DUP1 PUSH4 0xCB1C2B5C EQ PUSH2 0x1D4 JUMPI DUP1 PUSH4 0xD9A912EC EQ PUSH2 0x1F2 JUMPI DUP1 PUSH4 0xF2FDE38B EQ PUSH2 0x210 JUMPI PUSH2 0xB4 JUMP JUMPDEST DUP1 PUSH4 0x2E17DE78 EQ PUSH2 0xB9 JUMPI DUP1 PUSH4 0x41787377 EQ PUSH2 0xD5 JUMPI DUP1 PUSH4 0x678B3EE2 EQ PUSH2 0xF3 JUMPI DUP1 PUSH4 0x715018A6 EQ PUSH2 0x10F JUMPI DUP1 PUSH4 0x817B1CD2 EQ PUSH2 0x119 JUMPI DUP1 PUSH4 0x8DA5CB5B EQ PUSH2 0x137 JUMPI JUMPDEST PUSH1 0x0 DUP1 REVERT JUMPDEST PUSH2 0xD3 PUSH1 0x4 DUP1 CALLDATASIZE SUB DUP2 ADD SWAP1 PUSH2 0xCE SWAP2 SWAP1 PUSH2 0xBD0 JUMP JUMPDEST PUSH2 0x22C JUMP JUMPDEST STOP JUMPDEST PUSH2 0xDD PUSH2 0x46A JUMP JUMPDEST PUSH1 0x40 MLOAD PUSH2 0xEA SWAP2 SWAP1 PUSH2 0xC7C JUMP JUMPDEST PUSH1 0x40 MLOAD DUP1 SWAP2 SUB SWAP1 RETURN JUMPDEST PUSH2 0x10D PUSH1 0x4 DUP1 CALLDATASIZE SUB DUP2 ADD SWAP1 PUSH2 0x108 SWAP2 SWAP1 PUSH2 0xD3A JUMP JUMPDEST PUSH2 0x48E JUMP JUMPDEST STOP JUMPDEST PUSH2 0x117 PUSH2 0x680 JUMP JUMPDEST STOP JUMPDEST PUSH2 0x121 PUSH2 0x694 JUMP JUMPDEST PUSH1 0x40 MLOAD PUSH2 0x12E SWAP2 SWAP1 PUSH2 0xDBD JUMP JUMPDEST PUSH1 0x40 MLOAD DUP1 SWAP2 SUB SWAP1 RETURN JUMPDEST PUSH2 0x13F PUSH2 0x69A JUMP JUMPDEST PUSH1 0x40 MLOAD PUSH2 0x14C SWAP2 SWAP1 PUSH2 0xDE7 JUMP JUMPDEST PUSH1 0x40 MLOAD DUP1 SWAP2 SUB SWAP1 RETURN JUMPDEST PUSH2 0x16F PUSH1 0x4 DUP1 CALLDATASIZE SUB DUP2 ADD SWAP1 PUSH2 0x16A SWAP2 SWAP1 PUSH2 0xE02 JUMP JUMPDEST PUSH2 0x6C3 JUMP JUMPDEST PUSH1 0x40 MLOAD PUSH2 0x17F SWAP5 SWAP4 SWAP3 SWAP2 SWAP1 PUSH2 0xE4A JUMP JUMPDEST PUSH1 0x40 MLOAD DUP1 SWAP2 SUB SWAP1 RETURN JUMPDEST PUSH2 0x1A2 PUSH1 0x4 DUP1 CALLDATASIZE SUB DUP2 ADD SWAP1 PUSH2 0x19D SWAP2 SWAP1 PUSH2 0xE02 JUMP JUMPDEST PUSH2 0x700 JUMP JUMPDEST PUSH1 0x40 MLOAD PUSH2 0x1AF SWAP2 SWAP1 PUSH2 0xDBD JUMP JUMPDEST PUSH1 0x40 MLOAD DUP1 SWAP2 SUB SWAP1 RETURN JUMPDEST PUSH2 0x1D2 PUSH1 0x4 DUP1 CALLDATASIZE SUB DUP2 ADD SWAP1 PUSH2 0x1CD SWAP2 SWAP1 PUSH2 0xBD0 JUMP JUMPDEST PUSH2 0x74C JUMP JUMPDEST STOP JUMPDEST PUSH2 0x1DC PUSH2 0x954 JUMP JUMPDEST PUSH1 0x40 MLOAD PUSH2 0x1E9 SWAP2 SWAP1 PUSH2 0xDBD JUMP JUMPDEST PUSH1 0x40 MLOAD DUP1 SWAP2 SUB SWAP1 RETURN JUMPDEST PUSH2 0x1FA PUSH2 0x961 JUMP JUMPDEST PUSH1 0x40 MLOAD PUSH2 0x207 SWAP2 SWAP1 PUSH2 0xDBD JUMP JUMPDEST PUSH1 0x40 MLOAD DUP1 SWAP2 SUB SWAP1 RETURN JUMPDEST PUSH2 0x22A PUSH1 0x4 DUP1 CALLDATASIZE SUB DUP2 ADD SWAP1 PUSH2 0x225 SWAP2 SWAP1 PUSH2 0xE02 JUMP JUMPDEST PUSH2 0x968 JUMP JUMPDEST STOP JUMPDEST PUSH2 0x234 PUSH2 0x9EE JUMP JUMPDEST PUSH1 0x0 PUSH1 0x2 PUSH1 0x0 CALLER PUSH20 0xFFFFFFFFFFFFFFFFFFFFFFFFFFFFFFFFFFFFFFFF AND PUSH20 0xFFFFFFFFFFFFFFFFFFFFFFFFFFFFFFFFFFFFFFFF AND DUP2 MSTORE PUSH1 0x20 ADD SWAP1 DUP2 MSTORE PUSH1 0x20 ADD PUSH1 0x0 KECCAK256 SWAP1 POP DUP2 DUP2 PUSH1 0x0 ADD SLOAD LT ISZERO PUSH2 0x2BE JUMPI PUSH1 0x40 MLOAD PUSH32 0x8C379A000000000000000000000000000000000000000000000000000000000 DUP2 MSTORE PUSH1 0x4 ADD PUSH2 0x2B5 SWAP1 PUSH2 0xEEC JUMP JUMPDEST PUSH1 0x40 MLOAD DUP1 SWAP2 SUB SWAP1 REVERT JUMPDEST PUSH3 0x93A80 DUP2 PUSH1 0x1 ADD SLOAD PUSH2 0x2D1 SWAP2 SWAP1 PUSH2 0xF3B JUMP JUMPDEST TIMESTAMP LT ISZERO PUSH2 0x313 JUMPI PUSH1 0x40 MLOAD PUSH32 0x8C379A000000000000000000000000000000000000000000000000000000000 DUP2 MSTORE PUSH1 0x4 ADD PUSH2 0x30A SWAP1 PUSH2 0xFBB JUMP JUMPDEST PUSH1 0x40 MLOAD DUP1 SWAP2 SUB SWAP1 REVERT JUMPDEST DUP2 DUP2 PUSH1 0x0 ADD PUSH1 0x0 DUP3 DUP3 SLOAD PUSH2 0x327 SWAP2 SWAP1 PUSH2 0xFDB JUMP JUMPDEST SWAP3 POP POP DUP2 SWAP1 SSTORE POP DUP2 PUSH1 0x3 PUSH1 0x0 DUP3 DUP3 SLOAD PUSH2 0x340 SWAP2 SWAP1 PUSH2 0xFDB JUMP JUMPDEST SWAP3 POP POP DUP2 SWAP1 SSTORE POP PUSH1 0x0 DUP2 PUSH1 0x0 ADD SLOAD SUB PUSH2 0x371 JUMPI PUSH1 0x0 DUP2 PUSH1 0x3 ADD PUSH1 0x0 PUSH2 0x100 EXP DUP2 SLOAD DUP2 PUSH1 0xFF MUL NOT AND SWAP1 DUP4 ISZERO ISZERO MUL OR SWAP1 SSTORE POP JUMPDEST PUSH32 0x0 PUSH20 0xFFFFFFFFFFFFFFFFFFFFFFFFFFFFFFFFFFFFFFFF AND PUSH4 0xA9059CBB CALLER DUP5 PUSH1 0x40 MLOAD DUP4 PUSH4 0xFFFFFFFF AND PUSH1 0xE0 SHL DUP2 MSTORE PUSH1 0x4 ADD PUSH2 0x3CC SWAP3 SWAP2 SWAP1 PUSH2 0x100F JUMP JUMPDEST PUSH1 0x20 PUSH1 0x40 MLOAD DUP1 DUP4 SUB DUP2 PUSH1 0x0 DUP8 GAS CALL ISZERO DUP1 ISZERO PUSH2 0x3EB JUMPI RETURNDATASIZE PUSH1 0x0 DUP1 RETURNDATACOPY RETURNDATASIZE PUSH1 0x0 REVERT JUMPDEST POP POP POP POP PUSH1 0x40 MLOAD RETURNDATASIZE PUSH1 0x1F NOT PUSH1 0x1F DUP3 ADD AND DUP3 ADD DUP1 PUSH1 0x40 MSTORE POP DUP2 ADD SWAP1 PUSH2 0x40F SWAP2 SWAP1 PUSH2 0x1064 JUMP JUMPDEST POP CALLER PUSH20 0xFFFFFFFFFFFFFFFFFFFFFFFFFFFFFFFFFFFFFFFF AND PUSH32 0xF5BB82176FEB1B5E747E28471AA92156A04D9F3AB9F45F28E2D704232B93F75 DUP4 PUSH1 0x40 MLOAD PUSH2 0x456 SWAP2 SWAP1 PUSH2 0xDBD JUMP JUMPDEST PUSH1 0x40 MLOAD DUP1 SWAP2 SUB SWAP1 LOG2 POP PUSH2 0x467 PUSH2 0xA34 JUMP JUMPDEST POP JUMP JUMPDEST PUSH32 0x0 DUP2 JUMP JUMPDEST PUSH2 0x496 PUSH2 0xA3D JUMP JUMPDEST PUSH1 0x0 PUSH1 0x2 PUSH1 0x0 DUP7 PUSH20 0xFFFFFFFFFFFFFFFFFFFFFFFFFFFFFFFFFFFFFFFF AND PUSH20 0xFFFFFFFFFFFFFFFFFFFFFFFFFFFFFFFFFFFFFFFF AND DUP2 MSTORE PUSH1 0x20 ADD SWAP1 DUP2 MSTORE PUSH1 0x20 ADD PUSH1 0x0 KECCAK256 SWAP1 POP DUP4 DUP2 PUSH1 0x0 ADD SLOAD LT ISZERO PUSH2 0x520 JUMPI PUSH1 0x40 MLOAD PUSH32 0x8C379A000000000000000000000000000000000000000000000000000000000 DUP2 MSTORE PUSH1 0x4 ADD PUSH2 0x517 SWAP1 PUSH2 0x10DD JUMP JUMPDEST PUSH1 0x40 MLOAD DUP1 SWAP2 SUB SWAP1 REVERT JUMPDEST DUP4 DUP2 PUSH1 0x0 ADD PUSH1 0x0 DUP3 DUP3 SLOAD PUSH2 0x534 SWAP2 SWAP1 PUSH2 0xFDB JUMP JUMPDEST SWAP3 POP POP DUP2 SWAP1 SSTORE POP DUP4 PUSH1 0x3 PUSH1 0x0 DUP3 DUP3 SLOAD PUSH2 0x54D SWAP2 SWAP1 PUSH2 0xFDB JUMP JUMPDEST SWAP3 POP POP DUP2 SWAP1 SSTORE POP PUSH1 0x32 DUP2 PUSH1 0x2 ADD SLOAD GT PUSH2 0x567 JUMPI PUSH1 0x0 PUSH2 0x579 JUMP JUMPDEST PUSH1 0x32 DUP2 PUSH1 0x2 ADD SLOAD PUSH2 0x578 SWAP2 SWAP1 PUSH2 0xFDB JUMP JUMPDEST JUMPDEST DUP2 PUSH1 0x2 ADD DUP2 SWAP1 SSTORE POP PUSH32 0x0 PUSH20 0xFFFFFFFFFFFFFFFFFFFFFFFFFFFFFFFFFFFFFFFF AND PUSH4 0xA9059CBB PUSH2 0x5C5 PUSH2 0x69A JUMP JUMPDEST DUP7 PUSH1 0x40 MLOAD DUP4 PUSH4 0xFFFFFFFF AND PUSH1 0xE0 SHL DUP2 MSTORE PUSH1 0x4 ADD PUSH2 0x5E3 SWAP3 SWAP2 SWAP1 PUSH2 0x100F JUMP JUMPDEST PUSH1 0x20 PUSH1 0x40 MLOAD DUP1 DUP4 SUB DUP2 PUSH1 0x0 DUP8 GAS CALL ISZERO DUP1 ISZERO PUSH2 0x602 JUMPI RETURNDATASIZE PUSH1 0x0 DUP1 RETURNDATACOPY RETURNDATASIZE PUSH1 0x0 REVERT JUMPDEST POP POP POP POP PUSH1 0x40 MLOAD RETURNDATASIZE PUSH1 0x1F NOT PUSH1 0x1F DUP3 ADD AND DUP3 ADD DUP1 PUSH1 0x40 MSTORE POP DUP2 ADD SWAP1 PUSH2 0x626 SWAP2 SWAP1 PUSH2 0x1064 JUMP JUMPDEST POP DUP5 PUSH20 0xFFFFFFFFFFFFFFFFFFFFFFFFFFFFFFFFFFFFFFFF AND PUSH32 0x7E947095ED288D8885423BDAEF4015B7420FFA9B84D62EF67C402E8BC36A8EA9 DUP6 DUP6 DUP6 PUSH1 0x40 MLOAD PUSH2 0x671 SWAP4 SWAP3 SWAP2 SWAP1 PUSH2 0x114A JUMP JUMPDEST PUSH1 0x40 MLOAD DUP1 SWAP2 SUB SWAP1 LOG2 POP POP POP POP POP JUMP JUMPDEST PUSH2 0x688 PUSH2 0xA3D JUMP JUMPDEST PUSH2 0x692 PUSH1 0x0 PUSH2 0xAC4 JUMP JUMPDEST JUMP JUMPDEST PUSH1 0x3 SLOAD DUP2 JUMP JUMPDEST PUSH1 0x0 DUP1 PUSH1 0x0 SWAP1 SLOAD SWAP1 PUSH2 0x100 EXP SWAP1 DIV PUSH20 0xFFFFFFFFFFFFFFFFFFFFFFFFFFFFFFFFFFFFFFFF AND SWAP1 POP SWAP1 JUMP JUMPDEST PUSH1 0x2 PUSH1 0x20 MSTORE DUP1 PUSH1 0x0 MSTORE PUSH1 0x40 PUSH1 0x0 KECCAK256 PUSH1 0x0 SWAP2 POP SWAP1 POP DUP1 PUSH1 0x0 ADD SLOAD SWAP1 DUP1 PUSH1 0x1 ADD SLOAD SWAP1 DUP1 PUSH1 0x2 ADD SLOAD SWAP1 DUP1 PUSH1 0x3 ADD PUSH1 0x0 SWAP1 SLOAD SWAP1 PUSH2 0x100 EXP SWAP1 DIV PUSH1 0xFF AND SWAP1 POP DUP5 JUMP JUMPDEST PUSH1 0x0 PUSH1 0x2 PUSH1 0x0 DUP4 PUSH20 0xFFFFFFFFFFFFFFFFFFFFFFFFFFFFFFFFFFFFFFFF AND PUSH20 0xFFFFFFFFFFFFFFFFFFFFFFFFFFFFFFFFFFFFFFFF AND DUP2 MSTORE PUSH1 0x20 ADD SWAP1 DUP2 MSTORE PUSH1 0x20 ADD PUSH1 0x0 KECCAK256 PUSH1 0x2 ADD SLOAD SWAP1 POP SWAP2 SWAP1 POP JUMP JUMPDEST PUSH2 0x754 PUSH2 0x9EE JUMP JUMPDEST PUSH9 0x56BC75E2D63100000 DUP2 LT ISZERO PUSH2 0x7A0 JUMPI PUSH1 0x40 MLOAD PUSH32 0x8C379A000000000000000000000000000000000000000000000000000000000 DUP2 MSTORE PUSH1 0x4 ADD PUSH2 0x797 SWAP1 PUSH2 0x11C8 JUMP JUMPDEST PUSH1 0x40 MLOAD DUP1 SWAP2 SUB SWAP1 REVERT JUMPDEST PUSH32 0x0 PUSH20 0xFFFFFFFFFFFFFFFFFFFFFFFFFFFFFFFFFFFFFFFF AND PUSH4 0x23B872DD CALLER ADDRESS DUP5 PUSH1 0x40 MLOAD DUP5 PUSH4 0xFFFFFFFF AND PUSH1 0xE0 SHL DUP2 MSTORE PUSH1 0x4 ADD PUSH2 0x7FD SWAP4 SWAP3 SWAP2 SWAP1 PUSH2 0x11E8 JUMP JUMPDEST PUSH1 0x20 PUSH1 0x40 MLOAD DUP1 DUP4 SUB DUP2 PUSH1 0x0 DUP8 GAS CALL ISZERO DUP1 ISZERO PUSH2 0x81C JUMPI RETURNDATASIZE PUSH1 0x0 DUP1 RETURNDATACOPY RETURNDATASIZE PUSH1 0x0 REVERT JUMPDEST POP POP POP POP PUSH1 0x40 MLOAD RETURNDATASIZE PUSH1 0x1F NOT PUSH1 0x1F DUP3 ADD AND DUP3 ADD DUP1 PUSH1 0x40 MSTORE POP DUP2 ADD SWAP1 PUSH2 0x840 SWAP2 SWAP1 PUSH2 0x1064 JUMP JUMPDEST POP PUSH1 0x0 PUSH1 0x2 PUSH1 0x0 CALLER PUSH20 0xFFFFFFFFFFFFFFFFFFFFFFFFFFFFFFFFFFFFFFFF AND PUSH20 0xFFFFFFFFFFFFFFFFFFFFFFFFFFFFFFFFFFFFFFFF AND DUP2 MSTORE PUSH1 0x20 ADD SWAP1 DUP2 MSTORE PUSH1 0x20 ADD PUSH1 0x0 KECCAK256 SWAP1 POP DUP2 DUP2 PUSH1 0x0 ADD PUSH1 0x0 DUP3 DUP3 SLOAD PUSH2 0x898 SWAP2 SWAP1 PUSH2 0xF3B JUMP JUMPDEST SWAP3 POP POP DUP2 SWAP1 SSTORE POP TIMESTAMP DUP2 PUSH1 0x1 ADD DUP2 SWAP1 SSTORE POP PUSH1 0x1 DUP2 PUSH1 0x3 ADD PUSH1 0x0 PUSH2 0x100 EXP DUP2 SLOAD DUP2 PUSH1 0xFF MUL NOT AND SWAP1 DUP4 ISZERO ISZERO MUL OR SWAP1 SSTORE POP PUSH1 0xA DUP2 PUSH1 0x2 ADD PUSH1 0x0 DUP3 DUP3 SLOAD PUSH2 0x8DA SWAP2 SWAP1 PUSH2 0xF3B JUMP JUMPDEST SWAP3 POP POP DUP2 SWAP1 SSTORE POP DUP2 PUSH1 0x3 PUSH1 0x0 DUP3 DUP3 SLOAD PUSH2 0x8F3 SWAP2 SWAP1 PUSH2 0xF3B JUMP JUMPDEST SWAP3 POP POP DUP2 SWAP1 SSTORE POP CALLER PUSH20 0xFFFFFFFFFFFFFFFFFFFFFFFFFFFFFFFFFFFFFFFF AND PUSH32 0x9E71BC8EEA02A63969F509818F2DAFB9254532904319F9DBDA79B67BD34A5F3D DUP4 PUSH1 0x40 MLOAD PUSH2 0x940 SWAP2 SWAP1 PUSH2 0xDBD JUMP JUMPDEST PUSH1 0x40 MLOAD DUP1 SWAP2 SUB SWAP1 LOG2 POP PUSH2 0x951 PUSH2 0xA34 JUMP JUMPDEST POP JUMP JUMPDEST PUSH9 0x56BC75E2D63100000 DUP2 JUMP JUMPDEST PUSH3 0x93A80 DUP2 JUMP JUMPDEST PUSH2 0x970 PUSH2 0xA3D JUMP JUMPDEST PUSH1 0x0 PUSH20 0xFFFFFFFFFFFFFFFFFFFFFFFFFFFFFFFFFFFFFFFF AND DUP2 PUSH20 0xFFFFFFFFFFFFFFFFFFFFFFFFFFFFFFFFFFFFFFFF AND SUB PUSH2 0x9E2 JUMPI PUSH1 0x0 PUSH1 0x40 MLOAD PUSH32 0x1E4FBDF700000000000000000000000000000000000000000000000000000000 DUP2 MSTORE PUSH1 0x4 ADD PUSH2 0x9D9 SWAP2 SWAP1 PUSH2 0xDE7 JUMP JUMPDEST PUSH1 0x40 MLOAD DUP1 SWAP2 SUB SWAP1 REVERT JUMPDEST PUSH2 0x9EB DUP2 PUSH2 0xAC4 JUMP JUMPDEST POP JUMP JUMPDEST PUSH1 0x2 PUSH1 0x1 SLOAD SUB PUSH2 0xA2A JUMPI PUSH1 0x40 MLOAD PUSH32 0x3EE5AEB500000000000000000000000000000000000000000000000000000000 DUP2 MSTORE PUSH1 0x4 ADD PUSH1 0x40 MLOAD DUP1 SWAP2 SUB SWAP1 REVERT JUMPDEST PUSH1 0x2 PUSH1 0x1 DUP2 SWAP1 SSTORE POP JUMP JUMPDEST PUSH1 0x1 DUP1 DUP2 SWAP1 SSTORE POP JUMP JUMPDEST PUSH2 0xA45 PUSH2 0xB88 JUMP JUMPDEST PUSH20 0xFFFFFFFFFFFFFFFFFFFFFFFFFFFFFFFFFFFFFFFF AND PUSH2 0xA63 PUSH2 0x69A JUMP JUMPDEST PUSH20 0xFFFFFFFFFFFFFFFFFFFFFFFFFFFFFFFFFFFFFFFF AND EQ PUSH2 0xAC2 JUMPI PUSH2 0xA86 PUSH2 0xB88 JUMP JUMPDEST PUSH1 0x40 MLOAD PUSH32 0x118CDAA700000000000000000000000000000000000000000000000000000000 DUP2 MSTORE PUSH1 0x4 ADD PUSH2 0xAB9 SWAP2 SWAP1 PUSH2 0xDE7 JUMP JUMPDEST PUSH1 0x40 MLOAD DUP1 SWAP2 SUB SWAP1 REVERT JUMPDEST JUMP JUMPDEST PUSH1 0x0 DUP1 PUSH1 0x0 SWAP1 SLOAD SWAP1 PUSH2 0x100 EXP SWAP1 DIV PUSH20 0xFFFFFFFFFFFFFFFFFFFFFFFFFFFFFFFFFFFFFFFF AND SWAP1 POP DUP2 PUSH1 0x0 DUP1 PUSH2 0x100 EXP DUP2 SLOAD DUP2 PUSH20 0xFFFFFFFFFFFFFFFFFFFFFFFFFFFFFFFFFFFFFFFF MUL NOT AND SWAP1 DUP4 PUSH20 0xFFFFFFFFFFFFFFFFFFFFFFFFFFFFFFFFFFFFFFFF AND MUL OR SWAP1 SSTORE POP DUP2 PUSH20 0xFFFFFFFFFFFFFFFFFFFFFFFFFFFFFFFFFFFFFFFF AND DUP2 PUSH20 0xFFFFFFFFFFFFFFFFFFFFFFFFFFFFFFFFFFFFFFFF AND PUSH32 0x8BE0079C531659141344CD1FD0A4F28419497F9722A3DAAFE3B4186F6B6457E0 PUSH1 0x40 MLOAD PUSH1 0x40 MLOAD DUP1 SWAP2 SUB SWAP1 LOG3 POP POP JUMP JUMPDEST PUSH1 0x0 CALLER SWAP1 POP SWAP1 JUMP JUMPDEST PUSH1 0x0 DUP1 REVERT JUMPDEST PUSH1 0x0 DUP1 REVERT JUMPDEST PUSH1 0x0 DUP2 SWAP1 POP SWAP2 SWAP1 POP JUMP JUMPDEST PUSH2 0xBAD DUP2 PUSH2 0xB9A JUMP JUMPDEST DUP2 EQ PUSH2 0xBB8 JUMPI PUSH1 0x0 DUP1 REVERT JUMPDEST POP JUMP JUMPDEST PUSH1 0x0 DUP2 CALLDATALOAD SWAP1 POP PUSH2 0xBCA DUP2 PUSH2 0xBA4 JUMP JUMPDEST SWAP3 SWAP2 POP POP JUMP JUMPDEST PUSH1 0x0 PUSH1 0x20 DUP3 DUP5 SUB SLT ISZERO PUSH2 0xBE6 JUMPI PUSH2 0xBE5 PUSH2 0xB90 JUMP JUMPDEST JUMPDEST PUSH1 0x0 PUSH2 0xBF4 DUP5 DUP3 DUP6 ADD PUSH2 0xBBB JUMP JUMPDEST SWAP2 POP POP SWAP3 SWAP2 POP POP JUMP JUMPDEST PUSH1 0x0 PUSH20 0xFFFFFFFFFFFFFFFFFFFFFFFFFFFFFFFFFFFFFFFF DUP3 AND SWAP1 POP SWAP2 SWAP1 POP JUMP JUMPDEST PUSH1 0x0 DUP2 SWAP1 POP SWAP2 SWAP1 POP JUMP JUMPDEST PUSH1 0x0 PUSH2 0xC42 PUSH2 0xC3D PUSH2 0xC38 DUP5 PUSH2 0xBFD JUMP JUMPDEST PUSH2 0xC1D JUMP JUMPDEST PUSH2 0xBFD JUMP JUMPDEST SWAP1 POP SWAP2 SWAP1 POP JUMP JUMPDEST PUSH1 0x0 PUSH2 0xC54 DUP3 PUSH2 0xC27 JUMP JUMPDEST SWAP1 POP SWAP2 SWAP1 POP JUMP JUMPDEST PUSH1 0x0 PUSH2 0xC66 DUP3 PUSH2 0xC49 JUMP JUMPDEST SWAP1 POP SWAP2 SWAP1 POP JUMP JUMPDEST PUSH2 0xC76 DUP2 PUSH2 0xC5B JUMP JUMPDEST DUP3 MSTORE POP POP JUMP JUMPDEST PUSH1 0x0 PUSH1 0x20 DUP3 ADD SWAP1 POP PUSH2 0xC91 PUSH1 0x0 DUP4 ADD DUP5 PUSH2 0xC6D JUMP JUMPDEST SWAP3 SWAP2 POP POP JUMP JUMPDEST PUSH1 0x0 PUSH2 0xCA2 DUP3 PUSH2 0xBFD JUMP JUMPDEST SWAP1 POP SWAP2 SWAP1 POP JUMP JUMPDEST PUSH2 0xCB2 DUP2 PUSH2 0xC97 JUMP JUMPDEST DUP2 EQ PUSH2 0xCBD JUMPI PUSH1 0x0 DUP1 REVERT JUMPDEST POP JUMP JUMPDEST PUSH1 0x0 DUP2 CALLDATALOAD SWAP1 POP PUSH2 0xCCF DUP2 PUSH2 0xCA9 JUMP JUMPDEST SWAP3 SWAP2 POP POP JUMP JUMPDEST PUSH1 0x0 DUP1 REVERT JUMPDEST PUSH1 0x0 DUP1 REVERT JUMPDEST PUSH1 0x0 DUP1 REVERT JUMPDEST PUSH1 0x0 DUP1 DUP4 PUSH1 0x1F DUP5 ADD SLT PUSH2 0xCFA JUMPI PUSH2 0xCF9 PUSH2 0xCD5 JUMP JUMPDEST JUMPDEST DUP3 CALLDATALOAD SWAP1 POP PUSH8 0xFFFFFFFFFFFFFFFF DUP2 GT ISZERO PUSH2 0xD17 JUMPI PUSH2 0xD16 PUSH2 0xCDA JUMP JUMPDEST JUMPDEST PUSH1 0x20 DUP4 ADD SWAP2 POP DUP4 PUSH1 0x1 DUP3 MUL DUP4 ADD GT ISZERO PUSH2 0xD33 JUMPI PUSH2 0xD32 PUSH2 0xCDF JUMP JUMPDEST JUMPDEST SWAP3 POP SWAP3 SWAP1 POP JUMP JUMPDEST PUSH1 0x0 DUP1 PUSH1 0x0 DUP1 PUSH1 0x60 DUP6 DUP8 SUB SLT ISZERO PUSH2 0xD54 JUMPI PUSH2 0xD53 PUSH2 0xB90 JUMP JUMPDEST JUMPDEST PUSH1 0x0 PUSH2 0xD62 DUP8 DUP3 DUP9 ADD PUSH2 0xCC0 JUMP JUMPDEST SWAP5 POP POP PUSH1 0x20 PUSH2 0xD73 DUP8 DUP3 DUP9 ADD PUSH2 0xBBB JUMP JUMPDEST SWAP4 POP POP PUSH1 0x40 DUP6 ADD CALLDATALOAD PUSH8 0xFFFFFFFFFFFFFFFF DUP2 GT ISZERO PUSH2 0xD94 JUMPI PUSH2 0xD93 PUSH2 0xB95 JUMP JUMPDEST JUMPDEST PUSH2 0xDA0 DUP8 DUP3 DUP9 ADD PUSH2 0xCE4 JUMP JUMPDEST SWAP3 POP SWAP3 POP POP SWAP3 SWAP6 SWAP2 SWAP5 POP SWAP3 POP JUMP JUMPDEST PUSH2 0xDB7 DUP2 PUSH2 0xB9A JUMP JUMPDEST DUP3 MSTORE POP POP JUMP JUMPDEST PUSH1 0x0 PUSH1 0x20 DUP3 ADD SWAP1 POP PUSH2 0xDD2 PUSH1 0x0 DUP4 ADD DUP5 PUSH2 0xDAE JUMP JUMPDEST SWAP3 SWAP2 POP POP JUMP JUMPDEST PUSH2 0xDE1 DUP2 PUSH2 0xC97 JUMP JUMPDEST DUP3 MSTORE POP POP JUMP JUMPDEST PUSH1 0x0 PUSH1 0x20 DUP3 ADD SWAP1 POP PUSH2 0xDFC PUSH1 0x0 DUP4 ADD DUP5 PUSH2 0xDD8 JUMP JUMPDEST SWAP3 SWAP2 POP POP JUMP JUMPDEST PUSH1 0x0 PUSH1 0x20 DUP3 DUP5 SUB SLT ISZERO PUSH2 0xE18 JUMPI PUSH2 0xE17 PUSH2 0xB90 JUMP JUMPDEST JUMPDEST PUSH1 0x0 PUSH2 0xE26 DUP5 DUP3 DUP6 ADD PUSH2 0xCC0 JUMP JUMPDEST SWAP2 POP POP SWAP3 SWAP2 POP POP JUMP JUMPDEST PUSH1 0x0 DUP2 ISZERO ISZERO SWAP1 POP SWAP2 SWAP1 POP JUMP JUMPDEST PUSH2 0xE44 DUP2 PUSH2 0xE2F JUMP JUMPDEST DUP3 MSTORE POP POP JUMP JUMPDEST PUSH1 0x0 PUSH1 0x80 DUP3 ADD SWAP1 POP PUSH2 0xE5F PUSH1 0x0 DUP4 ADD DUP8 PUSH2 0xDAE JUMP JUMPDEST PUSH2 0xE6C PUSH1 0x20 DUP4 ADD DUP7 PUSH2 0xDAE JUMP JUMPDEST PUSH2 0xE79 PUSH1 0x40 DUP4 ADD DUP6 PUSH2 0xDAE JUMP JUMPDEST PUSH2 0xE86 PUSH1 0x60 DUP4 ADD DUP5 PUSH2 0xE3B JUMP JUMPDEST SWAP6 SWAP5 POP POP POP POP POP JUMP JUMPDEST PUSH1 0x0 DUP3 DUP3 MSTORE PUSH1 0x20 DUP3 ADD SWAP1 POP SWAP3 SWAP2 POP POP JUMP JUMPDEST PUSH32 0x496E73756666696369656E742062616C616E6365000000000000000000000000 PUSH1 0x0 DUP3 ADD MSTORE POP JUMP JUMPDEST PUSH1 0x0 PUSH2 0xED6 PUSH1 0x14 DUP4 PUSH2 0xE8F JUMP JUMPDEST SWAP2 POP PUSH2 0xEE1 DUP3 PUSH2 0xEA0 JUMP JUMPDEST PUSH1 0x20 DUP3 ADD SWAP1 POP SWAP2 SWAP1 POP JUMP JUMPDEST PUSH1 0x0 PUSH1 0x20 DUP3 ADD SWAP1 POP DUP2 DUP2 SUB PUSH1 0x0 DUP4 ADD MSTORE PUSH2 0xF05 DUP2 PUSH2 0xEC9 JUMP JUMPDEST SWAP1 POP SWAP2 SWAP1 POP JUMP JUMPDEST PUSH32 0x4E487B7100000000000000000000000000000000000000000000000000000000 PUSH1 0x0 MSTORE PUSH1 0x11 PUSH1 0x4 MSTORE PUSH1 0x24 PUSH1 0x0 REVERT JUMPDEST PUSH1 0x0 PUSH2 0xF46 DUP3 PUSH2 0xB9A JUMP JUMPDEST SWAP2 POP PUSH2 0xF51 DUP4 PUSH2 0xB9A JUMP JUMPDEST SWAP3 POP DUP3 DUP3 ADD SWAP1 POP DUP1 DUP3 GT ISZERO PUSH2 0xF69 JUMPI PUSH2 0xF68 PUSH2 0xF0C JUMP JUMPDEST JUMPDEST SWAP3 SWAP2 POP POP JUMP JUMPDEST PUSH32 0x556E626F6E64696E6720706572696F64206E6F74206F76657200000000000000 PUSH1 0x0 DUP3 ADD MSTORE POP JUMP JUMPDEST PUSH1 0x0 PUSH2 0xFA5 PUSH1 0x19 DUP4 PUSH2 0xE8F JUMP JUMPDEST SWAP2 POP PUSH2 0xFB0 DUP3 PUSH2 0xF6F JUMP JUMPDEST PUSH1 0x20 DUP3 ADD SWAP1 POP SWAP2 SWAP1 POP JUMP JUMPDEST PUSH1 0x0 PUSH1 0x20 DUP3 ADD SWAP1 POP DUP2 DUP2 SUB PUSH1 0x0 DUP4 ADD MSTORE PUSH2 0xFD4 DUP2 PUSH2 0xF98 JUMP JUMPDEST SWAP1 POP SWAP2 SWAP1 POP JUMP JUMPDEST PUSH1 0x0 PUSH2 0xFE6 DUP3 PUSH2 0xB9A JUMP JUMPDEST SWAP2 POP PUSH2 0xFF1 DUP4 PUSH2 0xB9A JUMP JUMPDEST SWAP3 POP DUP3 DUP3 SUB SWAP1 POP DUP2 DUP2 GT ISZERO PUSH2 0x1009 JUMPI PUSH2 0x1008 PUSH2 0xF0C JUMP JUMPDEST JUMPDEST SWAP3 SWAP2 POP POP JUMP JUMPDEST PUSH1 0x0 PUSH1 0x40 DUP3 ADD SWAP1 POP PUSH2 0x1024 PUSH1 0x0 DUP4 ADD DUP6 PUSH2 0xDD8 JUMP JUMPDEST PUSH2 0x1031 PUSH1 0x20 DUP4 ADD DUP5 PUSH2 0xDAE JUMP JUMPDEST SWAP4 SWAP3 POP POP POP JUMP JUMPDEST PUSH2 0x1041 DUP2 PUSH2 0xE2F JUMP JUMPDEST DUP2 EQ PUSH2 0x104C JUMPI PUSH1 0x0 DUP1 REVERT JUMPDEST POP JUMP JUMPDEST PUSH1 0x0 DUP2 MLOAD SWAP1 POP PUSH2 0x105E DUP2 PUSH2 0x1038 JUMP JUMPDEST SWAP3 SWAP2 POP POP JUMP JUMPDEST PUSH1 0x0 PUSH1 0x20 DUP3 DUP5 SUB SLT ISZERO PUSH2 0x107A JUMPI PUSH2 0x1079 PUSH2 0xB90 JUMP JUMPDEST JUMPDEST PUSH1 0x0 PUSH2 0x1088 DUP5 DUP3 DUP6 ADD PUSH2 0x104F JUMP JUMPDEST SWAP2 POP POP SWAP3 SWAP2 POP POP JUMP JUMPDEST PUSH32 0x536C617368696E67206D6F7265207468616E2062616C616E6365000000000000 PUSH1 0x0 DUP3 ADD MSTORE POP JUMP JUMPDEST PUSH1 0x0 PUSH2 0x10C7 PUSH1 0x1A DUP4 PUSH2 0xE8F JUMP JUMPDEST SWAP2 POP PUSH2 0x10D2 DUP3 PUSH2 0x1091 JUMP JUMPDEST PUSH1 0x20 DUP3 ADD SWAP1 POP SWAP2 SWAP1 POP JUMP JUMPDEST PUSH1 0x0 PUSH1 0x20 DUP3 ADD SWAP1 POP DUP2 DUP2 SUB PUSH1 0x0 DUP4 ADD MSTORE PUSH2 0x10F6 DUP2 PUSH2 0x10BA JUMP JUMPDEST SWAP1 POP SWAP2 SWAP1 POP JUMP JUMPDEST DUP3 DUP2 DUP4 CALLDATACOPY PUSH1 0x0 DUP4 DUP4 ADD MSTORE POP POP POP JUMP JUMPDEST PUSH1 0x0 PUSH1 0x1F NOT PUSH1 0x1F DUP4 ADD AND SWAP1 POP SWAP2 SWAP1 POP JUMP JUMPDEST PUSH1 0x0 PUSH2 0x1129 DUP4 DUP6 PUSH2 0xE8F JUMP JUMPDEST SWAP4 POP PUSH2 0x1136 DUP4 DUP6 DUP5 PUSH2 0x10FD JUMP JUMPDEST PUSH2 0x113F DUP4 PUSH2 0x110C JUMP JUMPDEST DUP5 ADD SWAP1 POP SWAP4 SWAP3 POP POP POP JUMP JUMPDEST PUSH1 0x0 PUSH1 0x40 DUP3 ADD SWAP1 POP PUSH2 0x115F PUSH1 0x0 DUP4 ADD DUP7 PUSH2 0xDAE JUMP JUMPDEST DUP2 DUP2 SUB PUSH1 0x20 DUP4 ADD MSTORE PUSH2 0x1172 DUP2 DUP5 DUP7 PUSH2 0x111D JUMP JUMPDEST SWAP1 POP SWAP5 SWAP4 POP POP POP POP JUMP JUMPDEST PUSH32 0x5374616B652062656C6F77206D696E696D756D00000000000000000000000000 PUSH1 0x0 DUP3 ADD MSTORE POP JUMP JUMPDEST PUSH1 0x0 PUSH2 0x11B2 PUSH1 0x13 DUP4 PUSH2 0xE8F JUMP JUMPDEST SWAP2 POP PUSH2 0x11BD DUP3 PUSH2 0x117C JUMP JUMPDEST PUSH1 0x20 DUP3 ADD SWAP1 POP SWAP2 SWAP1 POP JUMP JUMPDEST PUSH1 0x0 PUSH1 0x20 DUP3 ADD SWAP1 POP DUP2 DUP2 SUB PUSH1 0x0 DUP4 ADD MSTORE PUSH2 0x11E1 DUP2 PUSH2 0x11A5 JUMP JUMPDEST SWAP1 POP SWAP2 SWAP1 POP JUMP JUMPDEST PUSH1 0x0 PUSH1 0x60 DUP3 ADD SWAP1 POP PUSH2 0x11FD PUSH1 0x0 DUP4 ADD DUP7 PUSH2 0xDD8 JUMP JUMPDEST PUSH2 0x120A PUSH1 0x20 DUP4 ADD DUP6 PUSH2 0xDD8 JUMP JUMPDEST PUSH2 0x1217 PUSH1 0x40 DUP4 ADD DUP5 PUSH2 0xDAE JUMP JUMPDEST SWAP5 SWAP4 POP POP POP POP JUMP INVALID LOG2 PUSH5 0x6970667358 0x22 SLT KECCAK256 0xB2 0x5E 0xF8 0xF6 MSTORE 0xA7 PUSH4 0x7BD06AB4 0xCF MSIZE 0x2F 0xBB DUP4 0xCA NUMBER ADD 0xAA SWAP13 MLOAD CALLER RETURNDATASIZE 0xCE REVERT DUP8 0xDF TIMESTAMP BALANCE 0xB1 0xBF PUSH5 0x736F6C6343 STOP ADDMOD EQ STOP CALLER "},"methodIdentifiers":{"MIN_STAKE()":"cb1c2b5c","UNBONDING_PERIOD()":"d9a912ec","getReputation(address)":"9c89a0e2","obscuraToken()":"41787377","owner()":"8da5cb5b","renounceOwnership()":"715018a6","slash(address,uint256,string)":"678b3ee2","stake(uint256)":"a694fc3a","stakers(address)":"9168ae72","totalStaked()":"817b1cd2","transferOwnership(address)":"f2fde38b","unstake(uint256)":"2e17de78"}}}}}