{
  "_format": "hh-sol-artifact-1",
  "contractName": "ObscuraOracle",
  "sourceName": "contracts/ObscuraOracle.sol",
  "abi": [
    {
      "inputs": [
        {
          "internalType": "address",
          "name": "_token",
          "type": "address"
        },
        {
          "internalType": "address",
          "name": "_stakeGuard",
          "type": "address"
        },
        {
          "internalType": "address",
          "name": "_verifier",
          "type": "address"
        }
      ],
      "stateMutability": "nonpayable",
      "type": "constructor"
    },
    {
      "inputs": [],
      "name": "AccessControlBadConfirmation",
      "type": "error"
    },
    {
      "inputs": [
        {
          "internalType": "address",
          "name": "account",
          "type": "address"
        },
        {
          "internalType": "bytes32",
          "name": "neededRole",
          "type": "bytes32"
        }
      ],
      "name": "AccessControlUnauthorizedAccount",
      "type": "error"
    },
    {
      "inputs": [],
      "name": "EnforcedPause",
      "type": "error"
    },
    {
      "inputs": [],
      "name": "ExpectedPause",
      "type": "error"
    },
    {
      "inputs": [],
      "name": "ReentrancyGuardReentrantCall",
      "type": "error"
    },
    {
      "anonymous": false,
      "inputs": [
        {
          "indexed": true,
          "internalType": "uint256",
          "name": "requestId",
          "type": "uint256"
        },
        {
          "indexed": true,
          "internalType": "address",
          "name": "node",
          "type": "address"
        },
        {
          "indexed": false,
          "internalType": "uint256",
          "name": "value",
          "type": "uint256"
        }
      ],
      "name": "DataSubmitted",
      "type": "event"
    },
    {
      "anonymous": false,
      "inputs": [
        {
          "indexed": true,
          "internalType": "uint80",
          "name": "roundId",
          "type": "uint80"
        },
        {
          "indexed": false,
          "internalType": "int256",
          "name": "answer",
          "type": "int256"
        },
        {
          "indexed": false,
          "internalType": "uint256",
          "name": "updatedAt",
          "type": "uint256"
        }
      ],
      "name": "NewRound",
      "type": "event"
    },
    {
      "anonymous": false,
      "inputs": [
        {
          "indexed": false,
          "internalType": "address",
          "name": "account",
          "type": "address"
        }
      ],
      "name": "Paused",
      "type": "event"
    },
    {
      "anonymous": false,
      "inputs": [
        {
          "indexed": true,
          "internalType": "uint256",
          "name": "requestId",
          "type": "uint256"
        },
        {
          "indexed": false,
          "internalType": "uint256",
          "name": "randomness",
          "type": "uint256"
        }
      ],
      "name": "RandomnessFulfilled",
      "type": "event"
    },
    {
      "anonymous": false,
      "inputs": [
        {
          "indexed": true,
          "internalType": "uint256",
          "name": "requestId",
          "type": "uint256"
        },
        {
          "indexed": false,
          "internalType": "string",
          "name": "seed",
          "type": "string"
        },
        {
          "indexed": true,
          "internalType": "address",
          "name": "requester",
          "type": "address"
        }
      ],
      "name": "RandomnessRequested",
      "type": "event"
    },
    {
      "anonymous": false,
      "inputs": [
        {
          "indexed": true,
          "internalType": "uint256",
          "name": "requestId",
          "type": "uint256"
        },
        {
          "indexed": false,
          "internalType": "string",
          "name": "apiUrl",
          "type": "string"
        },
        {
          "indexed": false,
          "internalType": "uint256",
          "name": "min",
          "type": "uint256"
        },
        {
          "indexed": false,
          "internalType": "uint256",
          "name": "max",
          "type": "uint256"
        },
        {
          "indexed": true,
          "internalType": "address",
          "name": "requester",
          "type": "address"
        }
      ],
      "name": "RequestData",
      "type": "event"
    },
    {
      "anonymous": false,
      "inputs": [
        {
          "indexed": true,
          "internalType": "uint256",
          "name": "requestId",
          "type": "uint256"
        },
        {
          "indexed": false,
          "internalType": "uint256",
          "name": "finalValue",
          "type": "uint256"
        }
      ],
      "name": "RequestFulfilled",
      "type": "event"
    },
    {
      "anonymous": false,
      "inputs": [
        {
          "indexed": true,
          "internalType": "bytes32",
          "name": "role",
          "type": "bytes32"
        },
        {
          "indexed": true,
          "internalType": "bytes32",
          "name": "previousAdminRole",
          "type": "bytes32"
        },
        {
          "indexed": true,
          "internalType": "bytes32",
          "name": "newAdminRole",
          "type": "bytes32"
        }
      ],
      "name": "RoleAdminChanged",
      "type": "event"
    },
    {
      "anonymous": false,
      "inputs": [
        {
          "indexed": true,
          "internalType": "bytes32",
          "name": "role",
          "type": "bytes32"
        },
        {
          "indexed": true,
          "internalType": "address",
          "name": "account",
          "type": "address"
        },
        {
          "indexed": true,
          "internalType": "address",
          "name": "sender",
          "type": "address"
        }
      ],
      "name": "RoleGranted",
      "type": "event"
    },
    {
      "anonymous": false,
      "inputs": [
        {
          "indexed": true,
          "internalType": "bytes32",
          "name": "role",
          "type": "bytes32"
        },
        {
          "indexed": true,
          "internalType": "address",
          "name": "account",
          "type": "address"
        },
        {
          "indexed": true,
          "internalType": "address",
          "name": "sender",
          "type": "address"
        }
      ],
      "name": "RoleRevoked",
      "type": "event"
    },
    {
      "anonymous": false,
      "inputs": [
        {
          "indexed": false,
          "internalType": "address",
          "name": "account",
          "type": "address"
        }
      ],
      "name": "Unpaused",
      "type": "event"
    },
    {
      "inputs": [],
      "name": "ADMIN_ROLE",
      "outputs": [
        {
          "internalType": "bytes32",
          "name": "",
          "type": "bytes32"
        }
      ],
      "stateMutability": "view",
      "type": "function"
    },
    {
      "inputs": [],
      "name": "DEFAULT_ADMIN_ROLE",
      "outputs": [
        {
          "internalType": "bytes32",
          "name": "",
          "type": "bytes32"
        }
      ],
      "stateMutability": "view",
      "type": "function"
    },
    {
      "inputs": [],
      "name": "MAX_DEVIATION",
      "outputs": [
        {
          "internalType": "uint256",
          "name": "",
          "type": "uint256"
        }
      ],
      "stateMutability": "view",
      "type": "function"
    },
    {
      "inputs": [],
      "name": "REWARD_PERCENT",
      "outputs": [
        {
          "internalType": "uint256",
          "name": "",
          "type": "uint256"
        }
      ],
      "stateMutability": "view",
      "type": "function"
    },
    {
      "inputs": [],
      "name": "SLASHER_ROLE",
      "outputs": [
        {
          "internalType": "bytes32",
          "name": "",
          "type": "bytes32"
        }
      ],
      "stateMutability": "view",
      "type": "function"
    },
    {
      "inputs": [],
      "name": "SLASH_AMOUNT",
      "outputs": [
        {
          "internalType": "uint256",
          "name": "",
          "type": "uint256"
        }
      ],
      "stateMutability": "view",
      "type": "function"
    },
    {
      "inputs": [],
      "name": "TIMEOUT",
      "outputs": [
        {
          "internalType": "uint256",
          "name": "",
          "type": "uint256"
        }
      ],
      "stateMutability": "view",
      "type": "function"
    },
    {
      "inputs": [
        {
          "internalType": "uint256",
          "name": "requestId",
          "type": "uint256"
        }
      ],
      "name": "cancelRequest",
      "outputs": [],
      "stateMutability": "nonpayable",
      "type": "function"
    },
    {
      "inputs": [],
      "name": "claimRewards",
      "outputs": [],
      "stateMutability": "nonpayable",
      "type": "function"
    },
    {
      "inputs": [],
      "name": "decimals",
      "outputs": [
        {
          "internalType": "uint8",
          "name": "",
          "type": "uint8"
        }
      ],
      "stateMutability": "pure",
      "type": "function"
    },
    {
      "inputs": [],
      "name": "description",
      "outputs": [
        {
          "internalType": "string",
          "name": "",
          "type": "string"
        }
      ],
      "stateMutability": "pure",
      "type": "function"
    },
    {
      "inputs": [
        {
          "internalType": "uint256",
          "name": "requestId",
          "type": "uint256"
        }
      ],
      "name": "forceFinalize",
      "outputs": [],
      "stateMutability": "nonpayable",
      "type": "function"
    },
    {
      "inputs": [
        {
          "internalType": "uint256",
          "name": "requestId",
          "type": "uint256"
        },
        {
          "internalType": "uint256",
          "name": "value",
          "type": "uint256"
        },
        {
          "internalType": "uint256[8]",
          "name": "zkpProof",
          "type": "uint256[8]"
        },
        {
          "internalType": "uint256[2]",
          "name": "publicInputs",
          "type": "uint256[2]"
        }
      ],
      "name": "fulfillData",
      "outputs": [],
      "stateMutability": "nonpayable",
      "type": "function"
    },
    {
      "inputs": [
        {
          "internalType": "uint256",
          "name": "requestId",
          "type": "uint256"
        },
        {
          "internalType": "uint256",
          "name": "randomness",
          "type": "uint256"
        },
        {
          "internalType": "bytes",
          "name": "",
          "type": "bytes"
        }
      ],
      "name": "fulfillRandomness",
      "outputs": [],
      "stateMutability": "nonpayable",
      "type": "function"
    },
    {
      "inputs": [
        {
          "internalType": "bytes32",
          "name": "role",
          "type": "bytes32"
        }
      ],
      "name": "getRoleAdmin",
      "outputs": [
        {
          "internalType": "bytes32",
          "name": "",
          "type": "bytes32"
        }
      ],
      "stateMutability": "view",
      "type": "function"
    },
    {
      "inputs": [
        {
          "internalType": "uint80",
          "name": "_roundId",
          "type": "uint80"
        }
      ],
      "name": "getRoundData",
      "outputs": [
        {
          "internalType": "uint80",
          "name": "roundId",
          "type": "uint80"
        },
        {
          "internalType": "int256",
          "name": "answer",
          "type": "int256"
        },
        {
          "internalType": "uint256",
          "name": "startedAt",
          "type": "uint256"
        },
        {
          "internalType": "uint256",
          "name": "updatedAt",
          "type": "uint256"
        },
        {
          "internalType": "uint80",
          "name": "answeredInRound",
          "type": "uint80"
        }
      ],
      "stateMutability": "view",
      "type": "function"
    },
    {
      "inputs": [
        {
          "internalType": "bytes32",
          "name": "role",
          "type": "bytes32"
        },
        {
          "internalType": "address",
          "name": "account",
          "type": "address"
        }
      ],
      "name": "grantRole",
      "outputs": [],
      "stateMutability": "nonpayable",
      "type": "function"
    },
    {
      "inputs": [
        {
          "internalType": "bytes32",
          "name": "role",
          "type": "bytes32"
        },
        {
          "internalType": "address",
          "name": "account",
          "type": "address"
        }
      ],
      "name": "hasRole",
      "outputs": [
        {
          "internalType": "bool",
          "name": "",
          "type": "bool"
        }
      ],
      "stateMutability": "view",
      "type": "function"
    },
    {
      "inputs": [],
      "name": "latestAnswer",
      "outputs": [
        {
          "internalType": "int256",
          "name": "",
          "type": "int256"
        }
      ],
      "stateMutability": "view",
      "type": "function"
    },
    {
      "inputs": [],
      "name": "latestRoundData",
      "outputs": [
        {
          "internalType": "uint80",
          "name": "roundId",
          "type": "uint80"
        },
        {
          "internalType": "int256",
          "name": "answer",
          "type": "int256"
        },
        {
          "internalType": "uint256",
          "name": "startedAt",
          "type": "uint256"
        },
        {
          "internalType": "uint256",
          "name": "updatedAt",
          "type": "uint256"
        },
        {
          "internalType": "uint80",
          "name": "answeredInRound",
          "type": "uint80"
        }
      ],
      "stateMutability": "view",
      "type": "function"
    },
    {
      "inputs": [],
      "name": "latestRoundId",
      "outputs": [
        {
          "internalType": "uint80",
          "name": "",
          "type": "uint80"
        }
      ],
      "stateMutability": "view",
      "type": "function"
    },
    {
      "inputs": [],
      "name": "latestTimestamp",
      "outputs": [
        {
          "internalType": "uint256",
          "name": "",
          "type": "uint256"
        }
      ],
      "stateMutability": "view",
      "type": "function"
    },
    {
      "inputs": [],
      "name": "minResponses",
      "outputs": [
        {
          "internalType": "uint256",
          "name": "",
          "type": "uint256"
        }
      ],
      "stateMutability": "view",
      "type": "function"
    },
    {
      "inputs": [],
      "name": "nextRandomnessId",
      "outputs": [
        {
          "internalType": "uint256",
          "name": "",
          "type": "uint256"
        }
      ],
      "stateMutability": "view",
      "type": "function"
    },
    {
      "inputs": [],
      "name": "nextRequestId",
      "outputs": [
        {
          "internalType": "uint256",
          "name": "",
          "type": "uint256"
        }
      ],
      "stateMutability": "view",
      "type": "function"
    },
    {
      "inputs": [
        {
          "internalType": "address",
          "name": "",
          "type": "address"
        }
      ],
      "name": "nodeRewards",
      "outputs": [
        {
          "internalType": "uint256",
          "name": "",
          "type": "uint256"
        }
      ],
      "stateMutability": "view",
      "type": "function"
    },
    {
      "inputs": [],
      "name": "obscuraToken",
      "outputs": [
        {
          "internalType": "contract IERC20",
          "name": "",
          "type": "address"
        }
      ],
      "stateMutability": "view",
      "type": "function"
    },
    {
      "inputs": [],
      "name": "pause",
      "outputs": [],
      "stateMutability": "nonpayable",
      "type": "function"
    },
    {
      "inputs": [],
      "name": "paused",
      "outputs": [
        {
          "internalType": "bool",
          "name": "",
          "type": "bool"
        }
      ],
      "stateMutability": "view",
      "type": "function"
    },
    {
      "inputs": [],
      "name": "paymentFee",
      "outputs": [
        {
          "internalType": "uint256",
          "name": "",
          "type": "uint256"
        }
      ],
      "stateMutability": "view",
      "type": "function"
    },
    {
      "inputs": [
        {
          "internalType": "uint256",
          "name": "",
          "type": "uint256"
        }
      ],
      "name": "randomnessRequests",
      "outputs": [
        {
          "internalType": "string",
          "name": "seed",
          "type": "string"
        },
        {
          "internalType": "address",
          "name": "requester",
          "type": "address"
        },
        {
          "internalType": "uint256",
          "name": "randomness",
          "type": "uint256"
        },
        {
          "internalType": "bool",
          "name": "resolved",
          "type": "bool"
        }
      ],
      "stateMutability": "view",
      "type": "function"
    },
    {
      "inputs": [
        {
          "internalType": "bytes32",
          "name": "role",
          "type": "bytes32"
        },
        {
          "internalType": "address",
          "name": "callerConfirmation",
          "type": "address"
        }
      ],
      "name": "renounceRole",
      "outputs": [],
      "stateMutability": "nonpayable",
      "type": "function"
    },
    {
      "inputs": [
        {
          "internalType": "string",
          "name": "apiUrl",
          "type": "string"
        },
        {
          "internalType": "uint256",
          "name": "min",
          "type": "uint256"
        },
        {
          "internalType": "uint256",
          "name": "max",
          "type": "uint256"
        },
        {
          "internalType": "string",
          "name": "metadata",
          "type": "string"
        }
      ],
      "name": "requestData",
      "outputs": [
        {
          "internalType": "uint256",
          "name": "",
          "type": "uint256"
        }
      ],
      "stateMutability": "nonpayable",
      "type": "function"
    },
    {
      "inputs": [
        {
          "internalType": "string",
          "name": "seed",
          "type": "string"
        }
      ],
      "name": "requestRandomness",
      "outputs": [
        {
          "internalType": "uint256",
          "name": "",
          "type": "uint256"
        }
      ],
      "stateMutability": "nonpayable",
      "type": "function"
    },
    {
      "inputs": [
        {
          "internalType": "uint256",
          "name": "",
          "type": "uint256"
        }
      ],
      "name": "requests",
      "outputs": [
        {
          "internalType": "uint256",
          "name": "id",
          "type": "uint256"
        },
        {
          "internalType": "string",
          "name": "apiUrl",
          "type": "string"
        },
        {
          "internalType": "address",
          "name": "requester",
          "type": "address"
        },
        {
          "internalType": "bool",
          "name": "resolved",
          "type": "bool"
        },
        {
          "internalType": "uint256",
          "name": "finalValue",
          "type": "uint256"
        },
        {
          "internalType": "uint256",
          "name": "createdAt",
          "type": "uint256"
        },
        {
          "internalType": "uint256",
          "name": "minThreshold",
          "type": "uint256"
        },
        {
          "internalType": "uint256",
          "name": "maxThreshold",
          "type": "uint256"
        },
        {
          "internalType": "string",
          "name": "metadata",
          "type": "string"
        }
      ],
      "stateMutability": "view",
      "type": "function"
    },
    {
      "inputs": [
        {
          "internalType": "bytes32",
          "name": "role",
          "type": "bytes32"
        },
        {
          "internalType": "address",
          "name": "account",
          "type": "address"
        }
      ],
      "name": "revokeRole",
      "outputs": [],
      "stateMutability": "nonpayable",
      "type": "function"
    },
    {
      "inputs": [
        {
          "internalType": "uint80",
          "name": "",
          "type": "uint80"
        }
      ],
      "name": "rounds",
      "outputs": [
        {
          "internalType": "uint80",
          "name": "roundId",
          "type": "uint80"
        },
        {
          "internalType": "int256",
          "name": "answer",
          "type": "int256"
        },
        {
          "internalType": "uint256",
          "name": "startedAt",
          "type": "uint256"
        },
        {
          "internalType": "uint256",
          "name": "updatedAt",
          "type": "uint256"
        },
        {
          "internalType": "uint80",
          "name": "answeredInRound",
          "type": "uint80"
        }
      ],
      "stateMutability": "view",
      "type": "function"
    },
    {
      "inputs": [
        {
          "internalType": "uint256",
          "name": "_fee",
          "type": "uint256"
        }
      ],
      "name": "setFee",
      "outputs": [],
      "stateMutability": "nonpayable",
      "type": "function"
    },
    {
      "inputs": [
        {
          "internalType": "uint256",
          "name": "_min",
          "type": "uint256"
        }
      ],
      "name": "setMinResponses",
      "outputs": [],
      "stateMutability": "nonpayable",
      "type": "function"
    },
    {
      "inputs": [
        {
          "internalType": "address",
          "name": "_node",
          "type": "address"
        },
        {
          "internalType": "bool",
          "name": "_status",
          "type": "bool"
        }
      ],
      "name": "setNodeWhitelist",
      "outputs": [],
      "stateMutability": "nonpayable",
      "type": "function"
    },
    {
      "inputs": [
        {
          "internalType": "address",
          "name": "_stakeGuard",
          "type": "address"
        }
      ],
      "name": "setStakeGuard",
      "outputs": [],
      "stateMutability": "nonpayable",
      "type": "function"
    },
    {
      "inputs": [
        {
          "internalType": "address",
          "name": "_verifier",
          "type": "address"
        }
      ],
      "name": "setVerifier",
      "outputs": [],
      "stateMutability": "nonpayable",
      "type": "function"
    },
    {
      "inputs": [],
      "name": "stakeGuard",
      "outputs": [
        {
          "internalType": "contract IStakeGuard",
          "name": "",
          "type": "address"
        }
      ],
      "stateMutability": "view",
      "type": "function"
    },
    {
      "inputs": [
        {
          "internalType": "bytes4",
          "name": "interfaceId",
          "type": "bytes4"
        }
      ],
      "name": "supportsInterface",
      "outputs": [
        {
          "internalType": "bool",
          "name": "",
          "type": "bool"
        }
      ],
      "stateMutability": "view",
      "type": "function"
    },
    {
      "inputs": [],
      "name": "unpause",
      "outputs": [],
      "stateMutability": "nonpayable",
      "type": "function"
    },
    {
      "inputs": [],
      "name": "verifier",
      "outputs": [
        {
          "internalType": "contract IVerifier",
          "name": "",
          "type": "address"
        }
      ],
      "stateMutability": "view",
      "type": "function"
    },
    {
      "inputs": [],
      "name": "version",
      "outputs": [
        {
          "internalType": "uint256",
          "name": "",
          "type": "uint256"
        }
      ],
      "stateMutability": "pure",
      "type": "function"
    },
    {
      "inputs": [
        {
          "internalType": "address",
          "name": "",
          "type": "address"
        }
      ],
      "name": "whitelistedNodes",
      "outputs": [
        {
          "internalType": "bool",
          "name": "",
          "type": "bool"
        }
      ],
      "stateMutability": "view",
      "type": "function"
    },
    {
      "inputs": [],
      "name": "withdrawFees",
      "outputs": [],
      "stateMutability": "nonpayable",
      "type": "function"
    }
  ],
  "bytecode": "0x6080604052670de0b6b3a764000060065560016007553480156200002257600080fd5b5060405162002b2638038062002b26833981016040819052620000459162000194565b600160025562000057600033620000c8565b50620000847fa49807205ce4d355092ef5a8a18f56e8913cf4a201fbe287825b095693c2177533620000c8565b50600380546001600160a01b039485166001600160a01b031991821617909155600480549385169382169390931790925560058054919093169116179055620001de565b6000828152602081815260408083206001600160a01b038516845290915281205460ff166200016d576000838152602081815260408083206001600160a01b03861684529091529020805460ff19166001179055620001243390565b6001600160a01b0316826001600160a01b0316847f2f8788117e7eff1d82e926ec794901d17c78024a50270940304540a733656f0d60405160405180910390a450600162000171565b5060005b92915050565b80516001600160a01b03811681146200018f57600080fd5b919050565b600080600060608486031215620001aa57600080fd5b620001b58462000177565b9250620001c56020850162000177565b9150620001d56040850162000177565b90509250925092565b61293880620001ee6000396000f3fe608060405234801561001057600080fd5b50600436106102bb5760003560e01c806369fe0e2d1161018257806391d14854116100e9578063c4c32648116100a2578063e7b6ecff1161007c578063e7b6ecff146106c2578063e8547258146106d5578063f56f48f2146106e8578063feaf968c146106f157600080fd5b8063c4c326481461069d578063d547741f146106a6578063d585013c146106b957600080fd5b806391d14854146106415780639a6fc8f514610654578063a217fddf14610667578063b05f233a1461066f578063b92e31b114610677578063b9ffd9dd1461068a57600080fd5b8063769729481161013b57806376972948146105c3578063770ce3d8146105d65780637a15ea67146105f657806381d12c58146106095780638205bf6a146106315780638456cb591461063957600080fd5b806369fe0e2d146105275780636a84a9851461053a5780636ef06a08146105435780636f30aa221461054c5780637284e4161461056f57806375b238fc146105ae57600080fd5b8063377206061161022657806350d25bcd116101df57806350d25bcd146104c45780635437988d146104cc57806354fd4d50146104df5780635bbffbb2146104e65780635c975abb146104f95780635cb6dfff1461050457600080fd5b806337720606146104585780633f4ba83a1461046757806340a4ffef1461046f5780634178737714610482578063476343ee146104955780635095af641461049d57600080fd5b80632ede662f116102785780632ede662f1461038c5780632f2ff15d146104085780633015394c1461041b578063313ce5671461042e57806336568abe1461043d578063372500ab1461045057600080fd5b806301ffc9a7146102c057806306fbedbe146102e857806311a8f413146102fe578063231f145714610329578063248a9ca31461033e5780632b7ac3f314610361575b600080fd5b6102d36102ce3660046121a9565b6106f9565b60405190151581526020015b60405180910390f35b6102f0605a81565b6040519081526020016102df565b600a54610311906001600160501b031681565b6040516001600160501b0390911681526020016102df565b61033c6103373660046121da565b610730565b005b6102f061034c3660046121da565b60009081526020819052604090206001015490565b600554610374906001600160a01b031681565b6040516001600160a01b0390911681526020016102df565b6103d461039a3660046121f3565b600b60205260009081526040902080546001820154600283015460038401546004909401546001600160501b039384169492939192911685565b604080516001600160501b03968716815260208101959095528401929092526060830152909116608082015260a0016102df565b61033c610416366004612233565b61074e565b61033c6104293660046121da565b610779565b604051600881526020016102df565b61033c61044b366004612233565b610961565b61033c610999565b6102f0678ac7230489e8000081565b61033c610ac7565b6102f061047d3660046122a8565b610ae7565b600354610374906001600160a01b031681565b61033c610c4c565b6102f07f12b42e8a160f6064dc959c6f251e3af0750ad213dbecf573b4710d67d6c28e3981565b6102f0610d47565b61033c6104da3660046122ea565b610d94565b60016102f0565b61033c6104f4366004612313565b610dcf565b60015460ff166102d3565b6105176105123660046121da565b610e13565b6040516102df9493929190612390565b61033c6105353660046121da565b610ed2565b6102f0600c5481565b6102f060065481565b6102d361055a3660046122ea565b60086020526000908152604090205460ff1681565b604080518082018252601b81527f4f6273637572612050726976616379204f7261636c6520466565640000000000602082015290516102df91906123ca565b6102f06000805160206128e383398151915281565b6102f06105d13660046123dd565b610ef0565b6102f06105e43660046122ea565b60096020526000908152604090205481565b600454610374906001600160a01b031681565b61061c6106173660046121da565b611092565b6040516102df99989796959493929190612460565b6102f06111ff565b61033c61124c565b6102d361064f366004612233565b61126c565b6103d46106623660046121f3565b611295565b6102f0600081565b6102f0603281565b61033c6106853660046124cd565b61134b565b61033c6106983660046122ea565b611558565b6102f060075481565b61033c6106b4366004612233565b611593565b6102f0600e5481565b61033c6106d03660046121da565b6115b8565b61033c6106e3366004612520565b6115dd565b6102f0610e1081565b6103d4611908565b60006001600160e01b03198216637965db0b60e01b148061072a57506301ffc9a760e01b6001600160e01b03198316145b92915050565b6000805160206128e383398151915261074881611982565b50600755565b60008281526020819052604090206001015461076981611982565b610773838361198c565b50505050565b610781611a1e565b6000818152600d6020526040902060028101546001600160a01b031633146107e45760405162461bcd60e51b81526020600482015260116024820152702737ba103a3432903932b8bab2b9ba32b960791b60448201526064015b60405180910390fd5b6002810154600160a01b900460ff16156108335760405162461bcd60e51b815260206004820152601060248201526f105b1c9958591e481c995cdbdb1d995960821b60448201526064016107db565b610e108160040154610845919061258c565b42116108895760405162461bcd60e51b8152602060048201526013602482015272151a5b595bdd5d081b9bdd081c995858da1959606a1b60448201526064016107db565b60028101805460ff60a01b1916600160a01b17905560035460065460405163a9059cbb60e01b815233600482015260248101919091526001600160a01b039091169063a9059cbb906044016020604051808303816000875af11580156108f3573d6000803e3d6000fd5b505050506040513d601f19601f82011682018060405250810190610917919061259f565b6109535760405162461bcd60e51b815260206004820152600d60248201526c1499599d5b990819985a5b1959609a1b60448201526064016107db565b5061095e6001600255565b50565b6001600160a01b038116331461098a5760405163334bd91960e11b815260040160405180910390fd5b6109948282611a46565b505050565b6109a1611a1e565b33600090815260096020526040902054806109f45760405162461bcd60e51b81526020600482015260136024820152724e6f207265776172647320746f20636c61696d60681b60448201526064016107db565b3360008181526009602052604080822091909155600354905163a9059cbb60e01b81526004810192909252602482018390526001600160a01b03169063a9059cbb906044016020604051808303816000875af1158015610a58573d6000803e3d6000fd5b505050506040513d601f19601f82011682018060405250810190610a7c919061259f565b610aba5760405162461bcd60e51b815260206004820152600f60248201526e151c985b9cd9995c8819985a5b1959608a1b60448201526064016107db565b50610ac56001600255565b565b6000805160206128e3833981519152610adf81611982565b61095e611ab1565b6000610af1611b03565b610af9611a1e565b6003546006546040516323b872dd60e01b815233600482015230602482015260448101919091526001600160a01b03909116906323b872dd906064016020604051808303816000875af1158015610b54573d6000803e3d6000fd5b505050506040513d601f19601f82011682018060405250810190610b78919061259f565b610bb95760405162461bcd60e51b8152602060048201526012602482015271119959481c185e5b595b9d0819985a5b195960721b60448201526064016107db565b600e805460009182610bca836125bc565b909155506000818152600f6020526040902090915080610beb858783612673565b506001810180546001600160a01b0319163390811790915560405183907f673723d02765ca5f3d137c345c7fb902e007939bcc2f1333768621ba2f1bb9d990610c37908990899061275d565b60405180910390a350905061072a6001600255565b6000805160206128e3833981519152610c6481611982565b6003546040516370a0823160e01b81523060048201526000916001600160a01b0316906370a0823190602401602060405180830381865afa158015610cad573d6000803e3d6000fd5b505050506040513d601f19601f82011682018060405250810190610cd19190612779565b60035460405163a9059cbb60e01b8152336004820152602481018390529192506001600160a01b03169063a9059cbb906044016020604051808303816000875af1158015610d23573d6000803e3d6000fd5b505050506040513d601f19601f82011682018060405250810190610994919061259f565b600a546000906001600160501b0316610d725760405162461bcd60e51b81526004016107db90612792565b50600a546001600160501b03166000908152600b602052604090206001015490565b6000805160206128e3833981519152610dac81611982565b50600580546001600160a01b0319166001600160a01b0392909216919091179055565b6000805160206128e3833981519152610de781611982565b506001600160a01b03919091166000908152600860205260409020805460ff1916911515919091179055565b600f60205260009081526040902080548190610e2e906125eb565b80601f0160208091040260200160405190810160405280929190818152602001828054610e5a906125eb565b8015610ea75780601f10610e7c57610100808354040283529160200191610ea7565b820191906000526020600020905b815481529060010190602001808311610e8a57829003601f168201915b505050506001830154600284015460039094015492936001600160a01b039091169290915060ff1684565b6000805160206128e3833981519152610eea81611982565b50600655565b6000610efa611b03565b610f02611a1e565b6003546006546040516323b872dd60e01b815233600482015230602482015260448101919091526001600160a01b03909116906323b872dd906064016020604051808303816000875af1158015610f5d573d6000803e3d6000fd5b505050506040513d601f19601f82011682018060405250810190610f81919061259f565b610fc25760405162461bcd60e51b8152602060048201526012602482015271119959481c185e5b595b9d0819985a5b195960721b60448201526064016107db565b600c805460009182610fd3836125bc565b909155506000818152600d6020526040902081815590915060018101610ffa898b83612673565b506002810180546001600160a01b03191633179055426004820155600581018790556006810186905560078101611032858783612673565b50336001600160a01b0316827f65445418d0a2f902f581119ce888ce3c872dc471220fe4fc76c0e6d73daec8e18b8b8b8b60405161107394939291906127bb565b60405180910390a35090506110886001600255565b9695505050505050565b600d60205260009081526040902080546001820180549192916110b4906125eb565b80601f01602080910402602001604051908101604052809291908181526020018280546110e0906125eb565b801561112d5780601f106111025761010080835404028352916020019161112d565b820191906000526020600020905b81548152906001019060200180831161111057829003601f168201915b505050506002830154600384015460048501546005860154600687015460078801805497986001600160a01b03871698600160a01b90970460ff16975094959394929391929161117c906125eb565b80601f01602080910402602001604051908101604052809291908181526020018280546111a8906125eb565b80156111f55780601f106111ca576101008083540402835291602001916111f5565b820191906000526020600020905b8154815290600101906020018083116111d857829003601f168201915b5050505050905089565b600a546000906001600160501b031661122a5760405162461bcd60e51b81526004016107db90612792565b50600a546001600160501b03166000908152600b602052604090206003015490565b6000805160206128e383398151915261126481611982565b61095e611b27565b6000918252602082815260408084206001600160a01b0393909316845291905290205460ff1690565b600a5460009081908190819081906001600160501b03908116908716118015906112c857506000866001600160501b0316115b6113075760405162461bcd60e51b815260206004820152601060248201526f125b9d985b1a59081c9bdd5b9908125160821b60448201526064016107db565b505050506001600160501b039182166000908152600b6020526040902080546001820154600283015460038401546004909401549286169691959094509190911690565b611353611b03565b61135b611a1e565b3360009081526008602052604090205460ff166113ac5760405162461bcd60e51b815260206004820152600f60248201526e139bdd081dda1a5d195b1a5cdd1959608a1b60448201526064016107db565b600480546040516348b4573960e11b815233928101929092526000916001600160a01b0390911690639168ae7290602401608060405180830381865afa1580156113fa573d6000803e3d6000fd5b505050506040513d601f19601f8201168201806040525081019061141e91906127e2565b9350505050806114625760405162461bcd60e51b815260206004820152600f60248201526e4e6f6465206e6f742061637469766560881b60448201526064016107db565b6000858152600f60205260409020600381015460ff16156114b85760405162461bcd60e51b815260206004820152601060248201526f105b1c9958591e481c995cdbdb1d995960821b60448201526064016107db565b6002810185905560038101805460ff191660011790556006546000906064906114e390605a90612823565b6114ed9190612850565b3360009081526009602052604081208054929350839290919061151190849061258c565b909155505060405186815287907f546aca7b2683440b8f02fa95faeb8efc79dd0f16af3d815a002742ea6f76116c9060200160405180910390a25050506107736001600255565b6000805160206128e383398151915261157081611982565b50600480546001600160a01b0319166001600160a01b0392909216919091179055565b6000828152602081905260409020600101546115ae81611982565b6107738383611a46565b6000805160206128e38339815191526115d081611982565b6115d982611b62565b5050565b6115e5611b03565b6115ed611a1e565b3360009081526008602052604090205460ff1661163e5760405162461bcd60e51b815260206004820152600f60248201526e139bdd081dda1a5d195b1a5cdd1959608a1b60448201526064016107db565b600480546040516348b4573960e11b815233928101929092526000916001600160a01b0390911690639168ae7290602401608060405180830381865afa15801561168c573d6000803e3d6000fd5b505050506040513d601f19601f820116820180604052508101906116b091906127e2565b9350505050806117025760405162461bcd60e51b815260206004820152601d60248201527f4e6f6465206e6f742061637469766520696e205374616b65477561726400000060448201526064016107db565b6000858152600d602052604090206002810154600160a01b900460ff161561176c5760405162461bcd60e51b815260206004820152601860248201527f5265717565737420616c7265616479207265736f6c766564000000000000000060448201526064016107db565b33600090815260098201602052604090205460ff16156117c25760405162461bcd60e51b8152602060048201526011602482015270105b1c9958591e481c995cdc1bdb991959607a1b60448201526064016107db565b6005546001600160a01b0316158015906117da575060015b1561184257600554604051635fe24f2360e01b81526001600160a01b0390911690635fe24f23906118119087908790600401612864565b60006040518083038186803b15801561182957600080fd5b505afa15801561183d573d6000803e3d6000fd5b505050505b6040805180820182523380825260208083018981526008860180546001808201835560009283528483209651600290920290960180546001600160a01b0319166001600160a01b03909216919091178155915191850191909155828152600986018252849020805460ff1916909317909255915187815288917fc2af2237b2cd9e2e41495402b40b373744eff683f8123d61e07c0291e166dbe7910160405180910390a36007546008820154106118fc576118fc86611b62565b50506107736001600255565b600a5460009081908190819081906001600160501b031661193b5760405162461bcd60e51b81526004016107db90612792565b5050600a546001600160501b039081166000908152600b60205260409020805460018201546002830154600384015460049094015492851698919750955091935090911690565b61095e8133611f98565b6000611998838361126c565b611a16576000838152602081815260408083206001600160a01b03861684529091529020805460ff191660011790556119ce3390565b6001600160a01b0316826001600160a01b0316847f2f8788117e7eff1d82e926ec794901d17c78024a50270940304540a733656f0d60405160405180910390a450600161072a565b50600061072a565b6002805403611a4057604051633ee5aeb560e01b815260040160405180910390fd5b60028055565b6000611a52838361126c565b15611a16576000838152602081815260408083206001600160a01b0386168085529252808320805460ff1916905551339286917ff6391f5c32d9c69d2a47ea670b442974b53935d1edc7fd64eb21e047a839171b9190a450600161072a565b611ab9611fd1565b6001805460ff191690557f5db9ee0a495bf2e6ff9c91a7834c1ba4fdd244a5e8aa4e537bd38aeae4b073aa335b6040516001600160a01b03909116815260200160405180910390a1565b60015460ff1615610ac55760405163d93c066560e01b815260040160405180910390fd5b611b2f611b03565b6001805460ff1916811790557f62e78cea01bee320cd4e420270b5ea74000d11b0c9f74754ebdbfc544b05a25833611ae6565b6000818152600d60205260408120600881015490919067ffffffffffffffff811115611b9057611b906125d5565b604051908082528060200260200182016040528015611bb9578160200160208202803683370190505b50905060005b6008830154811015611c2157826008018181548110611be057611be061287f565b906000526020600020906002020160010154828281518110611c0457611c0461287f565b602090810291909101015280611c19816125bc565b915050611bbf565b506000611c2d82611ff4565b6003840181905560028401805460ff60a01b1916600160a01b179055600a80549192506001600160501b03909116906000611c6783612895565b82546101009290920a6001600160501b038181021990931691831602179091556040805160a081018252600a80548416808352602080840188815260048b8101548688019081524260608801818152608089018781526000978852600b8752968a90209851895469ffffffffffffffffffff19908116918d16919091178a55945160018a0155915160028901559051600388015593519501805490911694871694909417909355905483518781529283019190915290921692507fbeebf5eb056354f309b6bfd65f6362fee2d3c877cd1d6e4efd5558aba81d4f1e910160405180910390a2600883015415611f585760006064605a600654611d699190612823565b611d739190612850565b6008850154909150600090611d889083612850565b905060005b6008860154811015611f54576000866008018281548110611db057611db061287f565b600091825260208220600290910201546008890180546001600160a01b0390921693509084908110611de457611de461287f565b6000918252602082206001600290920201015491508615611e5a576064611e0c60328261258c565b611e169089612823565b611e209190612850565b821180611e4c57506064611e356032826128bb565b611e3f9089612823565b611e499190612850565b82105b15611e55575060015b611e64565b8115611e64575060015b8015611f1057600480546040516333c59f7160e11b81526001600160a01b0386811693820193909352678ac7230489e80000602482015260606044820152601760648201527f507269636520646576696174696f6e206f75746c696572000000000000000000608482015291169063678b3ee29060a401600060405180830381600087803b158015611ef557600080fd5b505af1925050508015611f06575060015b15611f3e57611f3e565b6001600160a01b03831660009081526009602052604081208054879290611f3890849061258c565b90915550505b5050508080611f4c906125bc565b915050611d8d565b5050505b837f5c69e7026b653d8606b5613bb00fd8c4b0504b1cbe8db600c406faac180924d582604051611f8a91815260200190565b60405180910390a250505050565b611fa2828261126c565b6115d95760405163e2517d3f60e01b81526001600160a01b0382166004820152602481018390526044016107db565b60015460ff16610ac557604051638dfc202b60e01b815260040160405180910390fd5b6000805b82518110156120f057600061200e82600161258c565b90505b83518110156120dd5783818151811061202c5761202c61287f565b60200260200101518483815181106120465761204661287f565b602002602001015111156120cb5760008483815181106120685761206861287f565b602002602001015190508482815181106120845761208461287f565b602002602001015185848151811061209e5761209e61287f565b602002602001018181525050808583815181106120bd576120bd61287f565b602002602001018181525050505b806120d5816125bc565b915050612011565b50806120e8816125bc565b915050611ff8565b50600282516120ff91906128ce565b60000361217657600282600284516121179190612850565b815181106121275761212761287f565b6020026020010151836001600286516121409190612850565b61214a91906128bb565b8151811061215a5761215a61287f565b602002602001015161216c919061258c565b61072a9190612850565b81600283516121859190612850565b815181106121955761219561287f565b60200260200101519050919050565b919050565b6000602082840312156121bb57600080fd5b81356001600160e01b0319811681146121d357600080fd5b9392505050565b6000602082840312156121ec57600080fd5b5035919050565b60006020828403121561220557600080fd5b81356001600160501b03811681146121d357600080fd5b80356001600160a01b03811681146121a457600080fd5b6000806040838503121561224657600080fd5b823591506122566020840161221c565b90509250929050565b60008083601f84011261227157600080fd5b50813567ffffffffffffffff81111561228957600080fd5b6020830191508360208285010111156122a157600080fd5b9250929050565b600080602083850312156122bb57600080fd5b823567ffffffffffffffff8111156122d257600080fd5b6122de8582860161225f565b90969095509350505050565b6000602082840312156122fc57600080fd5b6121d38261221c565b801515811461095e57600080fd5b6000806040838503121561232657600080fd5b61232f8361221c565b9150602083013561233f81612305565b809150509250929050565b6000815180845260005b8181101561237057602081850181015186830182015201612354565b506000602082860101526020601f19601f83011685010191505092915050565b6080815260006123a3608083018761234a565b6001600160a01b039590951660208301525060408101929092521515606090910152919050565b6020815260006121d3602083018461234a565b600080600080600080608087890312156123f657600080fd5b863567ffffffffffffffff8082111561240e57600080fd5b61241a8a838b0161225f565b90985096506020890135955060408901359450606089013591508082111561244157600080fd5b5061244e89828a0161225f565b979a9699509497509295939492505050565b60006101208b835280602084015261247a8184018c61234a565b905060018060a01b038a16604084015288151560608401528760808401528660a08401528560c08401528460e08401528281036101008401526124bd818561234a565b9c9b505050505050505050505050565b600080600080606085870312156124e357600080fd5b8435935060208501359250604085013567ffffffffffffffff81111561250857600080fd5b6125148782880161225f565b95989497509550505050565b60008060008061018080868803121561253857600080fd5b853594506020860135935061014086018781111561255557600080fd5b60408701935087828801111561256a57600080fd5b94979396509194505050565b634e487b7160e01b600052601160045260246000fd5b8082018082111561072a5761072a612576565b6000602082840312156125b157600080fd5b81516121d381612305565b6000600182016125ce576125ce612576565b5060010190565b634e487b7160e01b600052604160045260246000fd5b600181811c908216806125ff57607f821691505b60208210810361261f57634e487b7160e01b600052602260045260246000fd5b50919050565b601f82111561099457600081815260208120601f850160051c8101602086101561264c5750805b601f850160051c820191505b8181101561266b57828155600101612658565b505050505050565b67ffffffffffffffff83111561268b5761268b6125d5565b61269f8361269983546125eb565b83612625565b6000601f8411600181146126d357600085156126bb5750838201355b600019600387901b1c1916600186901b17835561272d565b600083815260209020601f19861690835b8281101561270457868501358255602094850194600190920191016126e4565b50868210156127215760001960f88860031b161c19848701351681555b505060018560011b0183555b5050505050565b81835281816020850137506000828201602090810191909152601f909101601f19169091010190565b602081526000612771602083018486612734565b949350505050565b60006020828403121561278b57600080fd5b5051919050565b6020808252600f908201526e139bc81c9bdd5b991cc8195e1a5cdd608a1b604082015260600190565b6060815260006127cf606083018688612734565b6020830194909452506040015292915050565b600080600080608085870312156127f857600080fd5b845193506020850151925060408501519150606085015161281881612305565b939692955090935050565b808202811582820484141761072a5761072a612576565b634e487b7160e01b600052601260045260246000fd5b60008261285f5761285f61283a565b500490565b61014081016101008085843760408482850137509392505050565b634e487b7160e01b600052603260045260246000fd5b60006001600160501b038083168181036128b1576128b1612576565b6001019392505050565b8181038181111561072a5761072a612576565b6000826128dd576128dd61283a565b50069056fea49807205ce4d355092ef5a8a18f56e8913cf4a201fbe287825b095693c21775a26469706673582212207721465f515ae3129c115fae363b92e7d59effb1dfa0cfcbe0dd80b14e10f63e64736f6c63430008140033",
  "linkReferences": {},
  "deployedLinkReferences": {}
}