{
  "_format": "hh-sol-artifact-1",
  "contractName": "ObscuraOracle",
  "sourceName": "contracts/ObscuraOracle.sol",
  "abi": [
    {
      "inputs": [
        {
          "internalType": "address",
          "name": "_token",
          "type": "address"
        },
        {
          "internalType": "address",
          "name": "_stakeGuard",
          "type": "address"
        },
        {
          "internalType": "address",
          "name": "_verifier",
          "type": "address"
        }
      ],
      "stateMutability": "nonpayable",
      "type": "constructor"
    },
    {
      "inputs": [],
      "name": "AccessControlBadConfirmation",
      "type": "error"
    },
    {
      "inputs": [
        {
          "internalType": "address",
          "name": "account",
          "type": "address"
        },
        {
          "internalType": "bytes32",
          "name": "neededRole",
          "type": "bytes32"
        }
      ],
      "name": "AccessControlUnauthorizedAccount",
      "type": "error"
    },
    {
      "inputs": [],
      "name": "EnforcedPause",
      "type": "error"
    },
    {
      "inputs": [],
      "name": "ExpectedPause",
      "type": "error"
    },
    {
      "inputs": [],
      "name": "ReentrancyGuardReentrantCall",
      "type": "error"
    },
    {
      "anonymous": false,
      "inputs": [
        {
          "indexed": true,
          "internalType": "uint256",
          "name": "requestId",
          "type": "uint256"
        },
        {
          "indexed": true,
          "internalType": "address",
          "name": "challenger",
          "type": "address"
        },
        {
          "indexed": false,
          "internalType": "uint256",
          "name": "bond",
          "type": "uint256"
        }
      ],
      "name": "ChallengeRaised",
      "type": "event"
    },
    {
      "anonymous": false,
      "inputs": [
        {
          "indexed": true,
          "internalType": "uint256",
          "name": "requestId",
          "type": "uint256"
        },
        {
          "indexed": true,
          "internalType": "address",
          "name": "node",
          "type": "address"
        },
        {
          "indexed": false,
          "internalType": "uint256",
          "name": "value",
          "type": "uint256"
        }
      ],
      "name": "DataSubmitted",
      "type": "event"
    },
    {
      "anonymous": false,
      "inputs": [
        {
          "indexed": true,
          "internalType": "uint256",
          "name": "requestId",
          "type": "uint256"
        },
        {
          "indexed": false,
          "internalType": "bool",
          "name": "success",
          "type": "bool"
        }
      ],
      "name": "DisputeResolved",
      "type": "event"
    },
    {
      "anonymous": false,
      "inputs": [
        {
          "indexed": true,
          "internalType": "uint80",
          "name": "roundId",
          "type": "uint80"
        },
        {
          "indexed": false,
          "internalType": "int256",
          "name": "answer",
          "type": "int256"
        },
        {
          "indexed": false,
          "internalType": "uint256",
          "name": "updatedAt",
          "type": "uint256"
        }
      ],
      "name": "NewRound",
      "type": "event"
    },
    {
      "anonymous": false,
      "inputs": [
        {
          "indexed": true,
          "internalType": "uint256",
          "name": "requestId",
          "type": "uint256"
        },
        {
          "indexed": true,
          "internalType": "address",
          "name": "beneficiary",
          "type": "address"
        },
        {
          "indexed": false,
          "internalType": "uint256",
          "name": "amount",
          "type": "uint256"
        }
      ],
      "name": "OEVCaptured",
      "type": "event"
    },
    {
      "anonymous": false,
      "inputs": [
        {
          "indexed": true,
          "internalType": "uint256",
          "name": "requestId",
          "type": "uint256"
        },
        {
          "indexed": false,
          "internalType": "uint256",
          "name": "value",
          "type": "uint256"
        },
        {
          "indexed": false,
          "internalType": "uint256",
          "name": "deadline",
          "type": "uint256"
        }
      ],
      "name": "OptimisticFulfillment",
      "type": "event"
    },
    {
      "anonymous": false,
      "inputs": [
        {
          "indexed": false,
          "internalType": "address",
          "name": "account",
          "type": "address"
        }
      ],
      "name": "Paused",
      "type": "event"
    },
    {
      "anonymous": false,
      "inputs": [
        {
          "indexed": true,
          "internalType": "uint256",
          "name": "requestId",
          "type": "uint256"
        },
        {
          "indexed": false,
          "internalType": "uint256",
          "name": "randomness",
          "type": "uint256"
        }
      ],
      "name": "RandomnessFulfilled",
      "type": "event"
    },
    {
      "anonymous": false,
      "inputs": [
        {
          "indexed": true,
          "internalType": "uint256",
          "name": "requestId",
          "type": "uint256"
        },
        {
          "indexed": false,
          "internalType": "string",
          "name": "seed",
          "type": "string"
        },
        {
          "indexed": true,
          "internalType": "address",
          "name": "requester",
          "type": "address"
        }
      ],
      "name": "RandomnessRequested",
      "type": "event"
    },
    {
      "anonymous": false,
      "inputs": [
        {
          "indexed": true,
          "internalType": "uint256",
          "name": "requestId",
          "type": "uint256"
        },
        {
          "indexed": false,
          "internalType": "string",
          "name": "apiUrl",
          "type": "string"
        },
        {
          "indexed": false,
          "internalType": "uint256",
          "name": "min",
          "type": "uint256"
        },
        {
          "indexed": false,
          "internalType": "uint256",
          "name": "max",
          "type": "uint256"
        },
        {
          "indexed": true,
          "internalType": "address",
          "name": "requester",
          "type": "address"
        },
        {
          "indexed": false,
          "internalType": "bool",
          "name": "oevEnabled",
          "type": "bool"
        },
        {
          "indexed": false,
          "internalType": "address",
          "name": "oevBeneficiary",
          "type": "address"
        },
        {
          "indexed": false,
          "internalType": "bool",
          "name": "isOptimistic",
          "type": "bool"
        }
      ],
      "name": "RequestData",
      "type": "event"
    },
    {
      "anonymous": false,
      "inputs": [
        {
          "indexed": true,
          "internalType": "uint256",
          "name": "requestId",
          "type": "uint256"
        },
        {
          "indexed": false,
          "internalType": "uint256",
          "name": "finalValue",
          "type": "uint256"
        }
      ],
      "name": "RequestFulfilled",
      "type": "event"
    },
    {
      "anonymous": false,
      "inputs": [
        {
          "indexed": true,
          "internalType": "bytes32",
          "name": "role",
          "type": "bytes32"
        },
        {
          "indexed": true,
          "internalType": "bytes32",
          "name": "previousAdminRole",
          "type": "bytes32"
        },
        {
          "indexed": true,
          "internalType": "bytes32",
          "name": "newAdminRole",
          "type": "bytes32"
        }
      ],
      "name": "RoleAdminChanged",
      "type": "event"
    },
    {
      "anonymous": false,
      "inputs": [
        {
          "indexed": true,
          "internalType": "bytes32",
          "name": "role",
          "type": "bytes32"
        },
        {
          "indexed": true,
          "internalType": "address",
          "name": "account",
          "type": "address"
        },
        {
          "indexed": true,
          "internalType": "address",
          "name": "sender",
          "type": "address"
        }
      ],
      "name": "RoleGranted",
      "type": "event"
    },
    {
      "anonymous": false,
      "inputs": [
        {
          "indexed": true,
          "internalType": "bytes32",
          "name": "role",
          "type": "bytes32"
        },
        {
          "indexed": true,
          "internalType": "address",
          "name": "account",
          "type": "address"
        },
        {
          "indexed": true,
          "internalType": "address",
          "name": "sender",
          "type": "address"
        }
      ],
      "name": "RoleRevoked",
      "type": "event"
    },
    {
      "anonymous": false,
      "inputs": [
        {
          "indexed": false,
          "internalType": "address",
          "name": "account",
          "type": "address"
        }
      ],
      "name": "Unpaused",
      "type": "event"
    },
    {
      "inputs": [],
      "name": "ADMIN_ROLE",
      "outputs": [
        {
          "internalType": "bytes32",
          "name": "",
          "type": "bytes32"
        }
      ],
      "stateMutability": "view",
      "type": "function"
    },
    {
      "inputs": [],
      "name": "CHALLENGE_PERIOD",
      "outputs": [
        {
          "internalType": "uint256",
          "name": "",
          "type": "uint256"
        }
      ],
      "stateMutability": "view",
      "type": "function"
    },
    {
      "inputs": [],
      "name": "DEFAULT_ADMIN_ROLE",
      "outputs": [
        {
          "internalType": "bytes32",
          "name": "",
          "type": "bytes32"
        }
      ],
      "stateMutability": "view",
      "type": "function"
    },
    {
      "inputs": [],
      "name": "DISPUTE_BOND",
      "outputs": [
        {
          "internalType": "uint256",
          "name": "",
          "type": "uint256"
        }
      ],
      "stateMutability": "view",
      "type": "function"
    },
    {
      "inputs": [],
      "name": "MAX_DEVIATION",
      "outputs": [
        {
          "internalType": "uint256",
          "name": "",
          "type": "uint256"
        }
      ],
      "stateMutability": "view",
      "type": "function"
    },
    {
      "inputs": [],
      "name": "REWARD_PERCENT",
      "outputs": [
        {
          "internalType": "uint256",
          "name": "",
          "type": "uint256"
        }
      ],
      "stateMutability": "view",
      "type": "function"
    },
    {
      "inputs": [],
      "name": "SLASHER_ROLE",
      "outputs": [
        {
          "internalType": "bytes32",
          "name": "",
          "type": "bytes32"
        }
      ],
      "stateMutability": "view",
      "type": "function"
    },
    {
      "inputs": [],
      "name": "SLASH_AMOUNT",
      "outputs": [
        {
          "internalType": "uint256",
          "name": "",
          "type": "uint256"
        }
      ],
      "stateMutability": "view",
      "type": "function"
    },
    {
      "inputs": [],
      "name": "TIMEOUT",
      "outputs": [
        {
          "internalType": "uint256",
          "name": "",
          "type": "uint256"
        }
      ],
      "stateMutability": "view",
      "type": "function"
    },
    {
      "inputs": [
        {
          "internalType": "uint256",
          "name": "requestId",
          "type": "uint256"
        }
      ],
      "name": "cancelRequest",
      "outputs": [],
      "stateMutability": "nonpayable",
      "type": "function"
    },
    {
      "inputs": [],
      "name": "claimOEVEarnings",
      "outputs": [],
      "stateMutability": "nonpayable",
      "type": "function"
    },
    {
      "inputs": [],
      "name": "claimRewards",
      "outputs": [],
      "stateMutability": "nonpayable",
      "type": "function"
    },
    {
      "inputs": [],
      "name": "decimals",
      "outputs": [
        {
          "internalType": "uint8",
          "name": "",
          "type": "uint8"
        }
      ],
      "stateMutability": "pure",
      "type": "function"
    },
    {
      "inputs": [],
      "name": "description",
      "outputs": [
        {
          "internalType": "string",
          "name": "",
          "type": "string"
        }
      ],
      "stateMutability": "pure",
      "type": "function"
    },
    {
      "inputs": [
        {
          "internalType": "uint256",
          "name": "requestId",
          "type": "uint256"
        }
      ],
      "name": "disputeFulfillment",
      "outputs": [],
      "stateMutability": "nonpayable",
      "type": "function"
    },
    {
      "inputs": [
        {
          "internalType": "uint256",
          "name": "requestId",
          "type": "uint256"
        }
      ],
      "name": "forceFinalize",
      "outputs": [],
      "stateMutability": "nonpayable",
      "type": "function"
    },
    {
      "inputs": [
        {
          "internalType": "uint256",
          "name": "requestId",
          "type": "uint256"
        },
        {
          "internalType": "uint256",
          "name": "value",
          "type": "uint256"
        },
        {
          "internalType": "uint256[8]",
          "name": "zkpProof",
          "type": "uint256[8]"
        },
        {
          "internalType": "uint256[2]",
          "name": "publicInputs",
          "type": "uint256[2]"
        }
      ],
      "name": "fulfillData",
      "outputs": [],
      "stateMutability": "nonpayable",
      "type": "function"
    },
    {
      "inputs": [
        {
          "internalType": "uint256",
          "name": "requestId",
          "type": "uint256"
        },
        {
          "internalType": "uint256",
          "name": "value",
          "type": "uint256"
        }
      ],
      "name": "fulfillDataOptimistic",
      "outputs": [],
      "stateMutability": "nonpayable",
      "type": "function"
    },
    {
      "inputs": [
        {
          "internalType": "uint256",
          "name": "requestId",
          "type": "uint256"
        },
        {
          "internalType": "uint256",
          "name": "value",
          "type": "uint256"
        },
        {
          "internalType": "uint256[8]",
          "name": "zkpProof",
          "type": "uint256[8]"
        },
        {
          "internalType": "uint256[2]",
          "name": "publicInputs",
          "type": "uint256[2]"
        },
        {
          "internalType": "uint256",
          "name": "oevBid",
          "type": "uint256"
        }
      ],
      "name": "fulfillDataWithOEV",
      "outputs": [],
      "stateMutability": "nonpayable",
      "type": "function"
    },
    {
      "inputs": [
        {
          "internalType": "uint256",
          "name": "requestId",
          "type": "uint256"
        },
        {
          "internalType": "uint256",
          "name": "randomness",
          "type": "uint256"
        },
        {
          "internalType": "bytes",
          "name": "",
          "type": "bytes"
        }
      ],
      "name": "fulfillRandomness",
      "outputs": [],
      "stateMutability": "nonpayable",
      "type": "function"
    },
    {
      "inputs": [
        {
          "internalType": "bytes32",
          "name": "role",
          "type": "bytes32"
        }
      ],
      "name": "getRoleAdmin",
      "outputs": [
        {
          "internalType": "bytes32",
          "name": "",
          "type": "bytes32"
        }
      ],
      "stateMutability": "view",
      "type": "function"
    },
    {
      "inputs": [
        {
          "internalType": "uint80",
          "name": "_roundId",
          "type": "uint80"
        }
      ],
      "name": "getRoundData",
      "outputs": [
        {
          "internalType": "uint80",
          "name": "roundId",
          "type": "uint80"
        },
        {
          "internalType": "int256",
          "name": "answer",
          "type": "int256"
        },
        {
          "internalType": "uint256",
          "name": "startedAt",
          "type": "uint256"
        },
        {
          "internalType": "uint256",
          "name": "updatedAt",
          "type": "uint256"
        },
        {
          "internalType": "uint80",
          "name": "answeredInRound",
          "type": "uint80"
        }
      ],
      "stateMutability": "view",
      "type": "function"
    },
    {
      "inputs": [
        {
          "internalType": "bytes32",
          "name": "role",
          "type": "bytes32"
        },
        {
          "internalType": "address",
          "name": "account",
          "type": "address"
        }
      ],
      "name": "grantRole",
      "outputs": [],
      "stateMutability": "nonpayable",
      "type": "function"
    },
    {
      "inputs": [
        {
          "internalType": "bytes32",
          "name": "role",
          "type": "bytes32"
        },
        {
          "internalType": "address",
          "name": "account",
          "type": "address"
        }
      ],
      "name": "hasRole",
      "outputs": [
        {
          "internalType": "bool",
          "name": "",
          "type": "bool"
        }
      ],
      "stateMutability": "view",
      "type": "function"
    },
    {
      "inputs": [],
      "name": "latestAnswer",
      "outputs": [
        {
          "internalType": "int256",
          "name": "",
          "type": "int256"
        }
      ],
      "stateMutability": "view",
      "type": "function"
    },
    {
      "inputs": [],
      "name": "latestRoundData",
      "outputs": [
        {
          "internalType": "uint80",
          "name": "roundId",
          "type": "uint80"
        },
        {
          "internalType": "int256",
          "name": "answer",
          "type": "int256"
        },
        {
          "internalType": "uint256",
          "name": "startedAt",
          "type": "uint256"
        },
        {
          "internalType": "uint256",
          "name": "updatedAt",
          "type": "uint256"
        },
        {
          "internalType": "uint80",
          "name": "answeredInRound",
          "type": "uint80"
        }
      ],
      "stateMutability": "view",
      "type": "function"
    },
    {
      "inputs": [],
      "name": "latestRoundId",
      "outputs": [
        {
          "internalType": "uint80",
          "name": "",
          "type": "uint80"
        }
      ],
      "stateMutability": "view",
      "type": "function"
    },
    {
      "inputs": [],
      "name": "latestTimestamp",
      "outputs": [
        {
          "internalType": "uint256",
          "name": "",
          "type": "uint256"
        }
      ],
      "stateMutability": "view",
      "type": "function"
    },
    {
      "inputs": [],
      "name": "minResponses",
      "outputs": [
        {
          "internalType": "uint256",
          "name": "",
          "type": "uint256"
        }
      ],
      "stateMutability": "view",
      "type": "function"
    },
    {
      "inputs": [],
      "name": "nextRandomnessId",
      "outputs": [
        {
          "internalType": "uint256",
          "name": "",
          "type": "uint256"
        }
      ],
      "stateMutability": "view",
      "type": "function"
    },
    {
      "inputs": [],
      "name": "nextRequestId",
      "outputs": [
        {
          "internalType": "uint256",
          "name": "",
          "type": "uint256"
        }
      ],
      "stateMutability": "view",
      "type": "function"
    },
    {
      "inputs": [
        {
          "internalType": "address",
          "name": "",
          "type": "address"
        }
      ],
      "name": "nodeRewards",
      "outputs": [
        {
          "internalType": "uint256",
          "name": "",
          "type": "uint256"
        }
      ],
      "stateMutability": "view",
      "type": "function"
    },
    {
      "inputs": [],
      "name": "obscuraToken",
      "outputs": [
        {
          "internalType": "contract IERC20",
          "name": "",
          "type": "address"
        }
      ],
      "stateMutability": "view",
      "type": "function"
    },
    {
      "inputs": [
        {
          "internalType": "address",
          "name": "",
          "type": "address"
        }
      ],
      "name": "oevEarnings",
      "outputs": [
        {
          "internalType": "uint256",
          "name": "",
          "type": "uint256"
        }
      ],
      "stateMutability": "view",
      "type": "function"
    },
    {
      "inputs": [],
      "name": "pause",
      "outputs": [],
      "stateMutability": "nonpayable",
      "type": "function"
    },
    {
      "inputs": [],
      "name": "paused",
      "outputs": [
        {
          "internalType": "bool",
          "name": "",
          "type": "bool"
        }
      ],
      "stateMutability": "view",
      "type": "function"
    },
    {
      "inputs": [],
      "name": "paymentFee",
      "outputs": [
        {
          "internalType": "uint256",
          "name": "",
          "type": "uint256"
        }
      ],
      "stateMutability": "view",
      "type": "function"
    },
    {
      "inputs": [
        {
          "internalType": "uint256",
          "name": "",
          "type": "uint256"
        }
      ],
      "name": "randomnessRequests",
      "outputs": [
        {
          "internalType": "string",
          "name": "seed",
          "type": "string"
        },
        {
          "internalType": "address",
          "name": "requester",
          "type": "address"
        },
        {
          "internalType": "uint256",
          "name": "randomness",
          "type": "uint256"
        },
        {
          "internalType": "bool",
          "name": "resolved",
          "type": "bool"
        }
      ],
      "stateMutability": "view",
      "type": "function"
    },
    {
      "inputs": [
        {
          "internalType": "bytes32",
          "name": "role",
          "type": "bytes32"
        },
        {
          "internalType": "address",
          "name": "callerConfirmation",
          "type": "address"
        }
      ],
      "name": "renounceRole",
      "outputs": [],
      "stateMutability": "nonpayable",
      "type": "function"
    },
    {
      "inputs": [
        {
          "internalType": "string",
          "name": "apiUrl",
          "type": "string"
        },
        {
          "internalType": "uint256",
          "name": "min",
          "type": "uint256"
        },
        {
          "internalType": "uint256",
          "name": "max",
          "type": "uint256"
        },
        {
          "internalType": "string",
          "name": "metadata",
          "type": "string"
        }
      ],
      "name": "requestData",
      "outputs": [
        {
          "internalType": "uint256",
          "name": "",
          "type": "uint256"
        }
      ],
      "stateMutability": "nonpayable",
      "type": "function"
    },
    {
      "inputs": [
        {
          "internalType": "string",
          "name": "apiUrl",
          "type": "string"
        },
        {
          "internalType": "uint256",
          "name": "min",
          "type": "uint256"
        },
        {
          "internalType": "uint256",
          "name": "max",
          "type": "uint256"
        },
        {
          "internalType": "string",
          "name": "metadata",
          "type": "string"
        },
        {
          "internalType": "address",
          "name": "beneficiary",
          "type": "address"
        }
      ],
      "name": "requestDataOEV",
      "outputs": [
        {
          "internalType": "uint256",
          "name": "",
          "type": "uint256"
        }
      ],
      "stateMutability": "nonpayable",
      "type": "function"
    },
    {
      "inputs": [
        {
          "internalType": "string",
          "name": "seed",
          "type": "string"
        }
      ],
      "name": "requestRandomness",
      "outputs": [
        {
          "internalType": "uint256",
          "name": "",
          "type": "uint256"
        }
      ],
      "stateMutability": "nonpayable",
      "type": "function"
    },
    {
      "inputs": [
        {
          "internalType": "uint256",
          "name": "",
          "type": "uint256"
        }
      ],
      "name": "requests",
      "outputs": [
        {
          "internalType": "uint256",
          "name": "id",
          "type": "uint256"
        },
        {
          "internalType": "string",
          "name": "apiUrl",
          "type": "string"
        },
        {
          "internalType": "address",
          "name": "requester",
          "type": "address"
        },
        {
          "internalType": "address",
          "name": "oevBeneficiary",
          "type": "address"
        },
        {
          "internalType": "bool",
          "name": "oevEnabled",
          "type": "bool"
        },
        {
          "internalType": "bool",
          "name": "isOptimistic",
          "type": "bool"
        },
        {
          "internalType": "uint256",
          "name": "challengeWindow",
          "type": "uint256"
        },
        {
          "internalType": "address",
          "name": "disputer",
          "type": "address"
        },
        {
          "internalType": "bool",
          "name": "isDisputed",
          "type": "bool"
        },
        {
          "internalType": "bool",
          "name": "resolved",
          "type": "bool"
        },
        {
          "internalType": "uint256",
          "name": "finalValue",
          "type": "uint256"
        },
        {
          "internalType": "uint256",
          "name": "createdAt",
          "type": "uint256"
        },
        {
          "internalType": "uint256",
          "name": "minThreshold",
          "type": "uint256"
        },
        {
          "internalType": "uint256",
          "name": "maxThreshold",
          "type": "uint256"
        },
        {
          "internalType": "string",
          "name": "metadata",
          "type": "string"
        }
      ],
      "stateMutability": "view",
      "type": "function"
    },
    {
      "inputs": [
        {
          "internalType": "uint256",
          "name": "requestId",
          "type": "uint256"
        },
        {
          "internalType": "uint256[8]",
          "name": "zkpProof",
          "type": "uint256[8]"
        },
        {
          "internalType": "uint256[2]",
          "name": "publicInputs",
          "type": "uint256[2]"
        }
      ],
      "name": "resolveDispute",
      "outputs": [],
      "stateMutability": "nonpayable",
      "type": "function"
    },
    {
      "inputs": [
        {
          "internalType": "bytes32",
          "name": "role",
          "type": "bytes32"
        },
        {
          "internalType": "address",
          "name": "account",
          "type": "address"
        }
      ],
      "name": "revokeRole",
      "outputs": [],
      "stateMutability": "nonpayable",
      "type": "function"
    },
    {
      "inputs": [
        {
          "internalType": "uint80",
          "name": "",
          "type": "uint80"
        }
      ],
      "name": "rounds",
      "outputs": [
        {
          "internalType": "uint80",
          "name": "roundId",
          "type": "uint80"
        },
        {
          "internalType": "int256",
          "name": "answer",
          "type": "int256"
        },
        {
          "internalType": "uint256",
          "name": "startedAt",
          "type": "uint256"
        },
        {
          "internalType": "uint256",
          "name": "updatedAt",
          "type": "uint256"
        },
        {
          "internalType": "uint80",
          "name": "answeredInRound",
          "type": "uint80"
        }
      ],
      "stateMutability": "view",
      "type": "function"
    },
    {
      "inputs": [
        {
          "internalType": "uint256",
          "name": "_fee",
          "type": "uint256"
        }
      ],
      "name": "setFee",
      "outputs": [],
      "stateMutability": "nonpayable",
      "type": "function"
    },
    {
      "inputs": [
        {
          "internalType": "uint256",
          "name": "_min",
          "type": "uint256"
        }
      ],
      "name": "setMinResponses",
      "outputs": [],
      "stateMutability": "nonpayable",
      "type": "function"
    },
    {
      "inputs": [
        {
          "internalType": "address",
          "name": "_node",
          "type": "address"
        },
        {
          "internalType": "bool",
          "name": "_status",
          "type": "bool"
        }
      ],
      "name": "setNodeWhitelist",
      "outputs": [],
      "stateMutability": "nonpayable",
      "type": "function"
    },
    {
      "inputs": [
        {
          "internalType": "address",
          "name": "_stakeGuard",
          "type": "address"
        }
      ],
      "name": "setStakeGuard",
      "outputs": [],
      "stateMutability": "nonpayable",
      "type": "function"
    },
    {
      "inputs": [
        {
          "internalType": "address",
          "name": "_verifier",
          "type": "address"
        }
      ],
      "name": "setVerifier",
      "outputs": [],
      "stateMutability": "nonpayable",
      "type": "function"
    },
    {
      "inputs": [],
      "name": "stakeGuard",
      "outputs": [
        {
          "internalType": "contract IStakeGuard",
          "name": "",
          "type": "address"
        }
      ],
      "stateMutability": "view",
      "type": "function"
    },
    {
      "inputs": [
        {
          "internalType": "bytes4",
          "name": "interfaceId",
          "type": "bytes4"
        }
      ],
      "name": "supportsInterface",
      "outputs": [
        {
          "internalType": "bool",
          "name": "",
          "type": "bool"
        }
      ],
      "stateMutability": "view",
      "type": "function"
    },
    {
      "inputs": [],
      "name": "unpause",
      "outputs": [],
      "stateMutability": "nonpayable",
      "type": "function"
    },
    {
      "inputs": [],
      "name": "verifier",
      "outputs": [
        {
          "internalType": "contract IVerifier",
          "name": "",
          "type": "address"
        }
      ],
      "stateMutability": "view",
      "type": "function"
    },
    {
      "inputs": [],
      "name": "version",
      "outputs": [
        {
          "internalType": "uint256",
          "name": "",
          "type": "uint256"
        }
      ],
      "stateMutability": "pure",
      "type": "function"
    },
    {
      "inputs": [
        {
          "internalType": "address",
          "name": "",
          "type": "address"
        }
      ],
      "name": "whitelistedNodes",
      "outputs": [
        {
          "internalType": "bool",
          "name": "",
          "type": "bool"
        }
      ],
      "stateMutability": "view",
      "type": "function"
    },
    {
      "inputs": [],
      "name": "withdrawFees",
      "outputs": [],
      "stateMutability": "nonpayable",
      "type": "function"
    }
  ],
  "bytecode": "0x608034620000d957601f620038ce38819003918201601f19168301916001600160401b03831184841017620000de57808492606094604052833981010312620000d9576200004d81620000f4565b906200006a60406200006260208401620000f4565b9201620000f4565b6001600255670de0b6b3a764000060065560016007556200008b3362000109565b50620000973362000189565b5060018060a01b0380928160018060a01b03199516856003541617600355168360045416176004551690600554161760055560405161368290816200022c8239f35b600080fd5b634e487b7160e01b600052604160045260246000fd5b51906001600160a01b0382168203620000d957565b6001600160a01b031660008181527fad3228b676f7d3cd4284a5443f17f1962b36e491b30a40b2405849e597ba5fb5602052604081205490919060ff166200018557818052816020526040822081835260205260408220600160ff198254161790553391600080516020620038ae8339815191528180a4600190565b5090565b6001600160a01b031660008181527f7d7ffb7a348e1c6a02869081a26547b49160dd3df72d1d75a570eb9b698292ec60205260408120549091907fa49807205ce4d355092ef5a8a18f56e8913cf4a201fbe287825b095693c217759060ff166200022657808352826020526040832082845260205260408320600160ff19825416179055600080516020620038ae833981519152339380a4600190565b50509056fe608080604052600436101561001357600080fd5b600090813560e01c90816301ffc9a714612b8e5750806306fbedbe14612b725780630fea3e841461284257806311a8f4131461281b578063189e8646146123b5578063231f145714612392578063248a9ca3146123665780632b7ac3f31461233d5780632ede662f146122db5780632f2ff15d1461229e5780633015394c146120e1578063313ce567146120c557806336568abe1461207d578063372500ab14611f475780633772060614611f245780633f4ba83a14611eb957806340a4ffef14611c145780634178737714611beb57806344a6db431461193b578063476343ee146118415780634c68ae631461181d5780635095af64146117e257806350d25bcd146117b3578063516423b7146116645780635437988d1461162457806354fd4d50146116085780635b30192e146115cf5780635bbffbb2146115785780635c975abb146115555780635cb6dfff146114e257806369fe0e2d146114bf5780636a84a985146114a15780636ef06a08146114835780636f30aa22146114445780637284e416146113e657806375b238fc146113ab5780637697294814610f91578063770ce3d814610f585780637a15ea6714610f2f57806381d12c5814610e1f5780638205bf6a14610ddf5780638456cb5914610d8557806391d1485414610d3a5780639a6fc8f514610c86578063a217fddf14610c6a578063b05f233a14610c4e578063b92e31b114610aa5578063b9ffd9dd14610a65578063c3a079ed14610a48578063c4c3264814610a2a578063cf0b6f401461090a578063d547741f146108c9578063d585013c146108ab578063e7b6ecff14610883578063e85472581461055b578063f56f48f21461053e578063f6536786146103065763feaf968c1461029f57600080fd5b3461030357806003193601126103035760406001600160501b039182600a54166102ca81151561358f565b8152600b60205220906102ff818354169160018401549360028101549160046003830154920154169160405195869586612c3c565b0390f35b80fd5b50346103035760208060031936011261053a57600435610324612f6e565b61032c612f8c565b808352600e82526040832060ff600382015460a81c16156104f557600481015442116104b0576005019160ff835460a01c166104795760018060a01b0360035416926040516323b872dd60e01b815233600482015230602482015282816064818968056bc75e2d63100000998a60448401525af190811561046e578691610435575b50156104005780546001600160a81b03191633908117600160a01b17909155604051938452927f8b4ae033df53763d25ec9affd111c2ab75e3328bc7dd7a289c3478b4adba838d9190a3600160025580f35b60405162461bcd60e51b815260048101839052600d60248201526c109bdb99081c995c5d5a5c9959609a1b6044820152606490fd5b90508281813d8311610467575b61044c8183612cd4565b810103126104635761045d90612fad565b386103ae565b8580fd5b503d610442565b6040513d88823e3d90fd5b6064906040519062461bcd60e51b82526004820152601060248201526f105b1c9958591e48191a5cdc1d5d195960821b6044820152fd5b60405162461bcd60e51b815260048101849052601760248201527f4368616c6c656e67652077696e646f7720636c6f7365640000000000000000006044820152606490fd5b60405162461bcd60e51b815260048101849052601d60248201527f4e6f7420616e206f7074696d69737469632066756c66696c6c6d656e740000006044820152606490fd5b5080fd5b50346103035780600319360112610303576020604051610e108152f35b5034610303576101803660031901126103035760043560248035366101441161087f57366101841161087f5761058f612f6e565b610597612f8c565b3384526020600881526105b060ff604087205416613041565b60018060a01b03928060808560045416604051928380926348b4573960e11b82523360048301525afa908115610874578791610842575b50156107ff57848652600e8252604086209060ff600583015460a81c166107bc57600c8201913360005282845260ff60406000205416610784578786600554168015158061077c575b610725575b5050600b01946040519061064882612cb9565b338252848201918683528754680100000000000000008110156107125780600161067592018a55896130ce565b94909461070057507fc2af2237b2cd9e2e41495402b40b373744eff683f8123d61e07c0291e166dbe794928996949260019251166001600160601b0360a01b845416178355519101553360005281526040600020600160ff198254161790556040519384523393a35460075411156106f1575b50600160025580f35b6106fa9061312b565b386106e8565b634e487b7160e01b8b5260048b90528afd5b634e487b7160e01b8b526041600452848bfd5b803b1561053a57816040518092635fe24f2360e01b8252818061074a6004820161308c565b03915afa801561077157156106355761076290612ca6565b61076d578738610635565b8780fd5b6040513d84823e3d90fd5b506001610630565b60405162461bcd60e51b81526004810185905260118184015270105b1c9958591e481c995cdc1bdb991959607a1b6044820152606490fd5b8260186064926040519262461bcd60e51b845260048401528201527f5265717565737420616c7265616479207265736f6c76656400000000000000006044820152fd5b90601d6064926040519262461bcd60e51b845260048401528201527f4e6f6465206e6f742061637469766520696e205374616b6547756172640000006044820152fd5b610863915060803d811161086d575b61085b8183612cd4565b8101906130a5565b92505050386105e7565b503d610851565b6040513d89823e3d90fd5b8380fd5b50346103035760203660031901126103035761089d612ddb565b6108a860043561312b565b80f35b50346103035780600319360112610303576020600f54604051908152f35b5034610303576040366003190112610303576109066004356108e9612c10565b90808452836020526109016001604086200154612e55565b612ef9565b5080f35b50346103035760403660031901126103035760043560243561092a612f6e565b610932612f8c565b338352600860205261094a60ff604085205416613041565b818352600e6020526040832060038101805460ff8160a81c161580610a1e575b156109e55760ff60a81b1916600160a81b17905560068101829055426107088101919082106109d157918160409260047f05f322b8c9bef5da81a9f95729f962c444a603e2a59ec1d02b0cdd7e725f403795015582519182526020820152a2600160025580f35b634e487b7160e01b85526011600452602485fd5b60405162461bcd60e51b8152602060048201526011602482015270105b1c9958591e48199d5b199a5b1b1959607a1b6044820152606490fd5b5060068301541561096a565b50346103035780600319360112610303576020600754604051908152f35b503461030357806003193601126103035760206040516107088152f35b503461030357602036600319011261030357610a7f612c26565b610a87612ddb565b60018060a01b03166001600160601b0360a01b600454161760045580f35b5034610303576060366003190112610303576004356024356044356001600160401b03811161087f57610adc903690600401612be3565b5050610ae6612f6e565b610aee612f8c565b3383526008602052610b0660ff604085205416613041565b6024608060018060a01b0360045416604051928380926348b4573960e11b82523360048301525afa908115610c43578491610c21575b5015610bea5781835260106020526040832060016003820191836002845492610b6860ff8516156135cd565b015560ff1916179055600654605a810290808204605a1490151715610bd6577f546aca7b2683440b8f02fa95faeb8efc79dd0f16af3d815a002742ea6f76116c9160209133865260098352610bc56064604088209204825461307f565b9055604051908152a2600160025580f35b634e487b7160e01b84526011600452602484fd5b60405162461bcd60e51b815260206004820152600f60248201526e4e6f6465206e6f742061637469766560881b6044820152606490fd5b610c39915060803d811161086d5761085b8183612cd4565b9250505038610b3c565b6040513d86823e3d90fd5b5034610303578060031936011261030357602060405160328152f35b5034610303578060031936011261030357602090604051908152f35b5034610303576020366003190112610303576004356001600160501b03918282168092036103035782600a541682111580610d31575b15610cf9576040918152600b60205220906102ff818354169160018401549360028101549160046003830154920154169160405195869586612c3c565b60405162461bcd60e51b815260206004820152601060248201526f125b9d985b1a59081c9bdd5b9908125160821b6044820152606490fd5b50811515610cbc565b5034610303576040366003190112610303576040610d56612c10565b91600435815280602052209060018060a01b0316600052602052602060ff604060002054166040519015158152f35b5034610303578060031936011261030357610d9e612ddb565b610da6612f6e565b600160ff19815416176001557f62e78cea01bee320cd4e420270b5ea74000d11b0c9f74754ebdbfc544b05a2586020604051338152a180f35b5034610303578060031936011261030357600360406020926001600160501b03600a5416610e0e81151561358f565b8152600b8452200154604051908152f35b5034610303576020366003190112610303576004358152600e602052604090208054610e4d60018301612cf5565b91600160a01b600190039081600282015416906003810154926004820154906005830154600684015490600785015492600886015494600987015496600a01610e9590612cf5565b986040519b8c9b8c528b6101e06020819201528c01610eb391612d9b565b9860408c015282811660608c01528060a01c60ff16151560808c015260a81c60ff16151560a08b015260c08a0152811660e08901528060a01c60ff16151561010089015260a81c60ff1615156101208801526101408701526101608601526101808501526101a08401528281036101c08401526102ff91612d9b565b50346103035780600319360112610303576004546040516001600160a01b039091168152602090f35b5034610303576020366003190112610303576020906040906001600160a01b03610f80612c26565b168152600983522054604051908152f35b5034610303576080366003190112610303576004356001600160401b03811161053a57610fc2903690600401612be3565b91606435906001600160401b0382116103035750610fe4903690600401612be3565b90610fed612f6e565b610ff5612f8c565b600380546006546040516323b872dd60e01b8152336004820152306024820152604481019190915291939190602090829060649082906000906001600160a01b03165af1801561139f57600090611364575b6110519150612fba565b600d549361105e85612ffb565b600d5584600052600e6020526040600020918583556001600160401b0387116112925761108e6001840154612c6c565b601f811161131b575b50866000601f82116001146112b3576000916112a8575b508760011b9060001989881b1c19161760018401555b60028301336001600160601b0360a01b8254161790558483016affffffffffffffffffffff60a81b815416905542600784015560243594856008850155600a6044359485600982015501946001600160401b038311611292576111278654612c6c565b601f811161124a575b50916020989391889593600090601f84116001146111cc579260008051602061362d833981519152979892819261118f96956000936111c1575b50508260011b92600019911b1c19161790555b6040519360c0855260c0850191613020565b948783015260408201526000606082015260006080820152600060a08201528033940390a36001600255604051908152f35b01359150388061116a565b90601f198416928982528c822093825b818110611230575092859260008051602061362d8339815191529a9b959261118f989760019610611216575b50505050811b01905561117d565b60f885600019921b161c1991013516905538808080611208565b8385013586558d9a50600190950194928e01928e016111dc565b866000526020600020601f850160051c81019160208610611288575b601f0160051c01905b81811061127c5750611130565b6000815560010161126f565b9091508190611266565b634e487b7160e01b600052604160045260246000fd5b9050820135386110ae565b600185018152602081209150805b601f198a168110611303575088601f198116106112eb575b5050600187811b0160018401556110c4565b83013560001989881b60f8161c1916905538806112d9565b909160206001819285880135815501930191016112c1565b600184016000526020600020601f890160051c810160208a1061135d575b601f90920160051c01905b8181106113515750611097565b60008155600101611344565b5080611339565b6020823d602011611397575b8161137d60209383612cd4565b81010312610303575061139261105191612fad565b611047565b3d9150611370565b6040513d6000823e3d90fd5b503461030357806003193601126103035760206040517fa49807205ce4d355092ef5a8a18f56e8913cf4a201fbe287825b095693c217758152f35b50346103035780600319360112610303576102ff60405161140681612cb9565b601b81527f4f6273637572612050726976616379204f7261636c65204665656400000000006020820152604051918291602083526020830190612d9b565b50346103035760203660031901126103035760209060ff906040906001600160a01b0361146f612c26565b168152600884522054166040519015158152f35b50346103035780600319360112610303576020600654604051908152f35b50346103035780600319360112610303576020600d54604051908152f35b5034610303576020366003190112610303576114d9612ddb565b60043560065580f35b503461030357602036600319011261030357604061153f91600435815260106020522061150e81612cf5565b9060018060a01b036001820154169060ff600360028301549201541690604051948594608086526080860190612d9b565b9260208501526040840152151560608301520390f35b5034610303578060031936011261030357602060ff600154166040519015158152f35b503461030357604036600319011261030357611592612c26565b602435908115158092036115cb576115a8612ddb565b60018060a01b031682526008602052604082209060ff8019835416911617905580f35b8280fd5b5034610303576020366003190112610303576020906040906001600160a01b036115f7612c26565b168152600c83522054604051908152f35b5034610303578060031936011261030357602060405160018152f35b50346103035760203660031901126103035761163e612c26565b611646612ddb565b60018060a01b03166001600160601b0360a01b600554161760055580f35b503461030357806003193601126103035761167d612f8c565b3381526020600c81526040822054801561176e5733808452600c83526040808520859055600354905163a9059cbb60e01b8152600481019290925260248201929092529082908290604490829087906001600160a01b03165af190811561176357839161172e575b50156116f45750600160025580f35b6064906040519062461bcd60e51b82526004820152601360248201527213d155881d1c985b9cd9995c8819985a5b1959606a1b6044820152fd5b90508181813d831161175c575b6117458183612cd4565b810103126115cb5761175690612fad565b386116e5565b503d61173b565b6040513d85823e3d90fd5b60405162461bcd60e51b815260048101839052601860248201527f4e6f204f4556206561726e696e677320746f20636c61696d00000000000000006044820152606490fd5b5034610303578060031936011261030357600160406020926001600160501b03600a5416610e0e81151561358f565b503461030357806003193601126103035760206040517f12b42e8a160f6064dc959c6f251e3af0750ad213dbecf573b4710d67d6c28e398152f35b5034610303578060031936011261030357602060405168056bc75e2d631000008152f35b503461030357806003193601126103035761185a612ddb565b6003546040516370a0823160e01b81523060048201528291602091906001600160a01b03168282602481845afa8015610c435783928591611903575b5060405163a9059cbb60e01b8152336004820152602481019190915293849190829081604481015b03925af18015611763576118d0578280f35b81813d83116118fc575b6118e48183612cd4565b8101031261053a576118f590612fad565b5038808280f35b503d6118da565b8381939492503d8311611934575b61191b8183612cd4565b8101031261192f57518291906118be611896565b505050fd5b503d611911565b503461030357610160366003190112610303576101246004353682116115cb5736610164116115cb5761196c612f6e565b611974612f8c565b808352602091600e83526040842091600583019182549060ff8260a01c1615611bb25760055487926001926001600160a01b03928316803b1561046357899486918260405193848093635fe24f2360e01b8252610100602460048401376040886101048401376101449687915afa9182611b95575b5050611b8f575085915b82611b7e575b5081611b6d575b5015611ac257506003541660446040518094819363a9059cbb60e01b835233600484015268056bc75e2d6310000060248401525af1801561046e57611a7b575b5060008051602061360d83398151915260039460405160018152a25b805460ff60a01b1916905501805460ff60a81b19169055600160025580f35b8481813d8311611abb575b611a908183612cd4565b8101031261046357600394611ab360008051602061360d83398151915292612fad565b509450611a40565b503d611a86565b9250604481600354169389604051958694859363a9059cbb60e01b8552166004840152680ad78ebc5ac620000060248401525af1801561046e57611b26575b5060008051602061360d833981519152600394866006860155604051878152a2611a5c565b8481813d8311611b66575b611b3b8183612cd4565b8101031261046357600394611b5e60008051602061360d83398151915292612fad565b509450611b01565b503d611b31565b905060068801549035101538611a00565b60068a0154903511159150386119f9565b916119f3565b611ba191929850612ca6565b611bae578a9587386119e9565b8680fd5b60405162461bcd60e51b81526004810187905260116024820152704e6f20616374697665206469737075746560781b6044820152606490fd5b50346103035780600319360112610303576003546040516001600160a01b039091168152602090f35b50346103035760209081600319360112610303576001600160401b036004358181116115cb57611c48903690600401612be3565b91611c51612f6e565b611c59612f8c565b6003546006546040516323b872dd60e01b815233600482015230602482015260448101919091529086908290606490829089906001600160a01b03165af18015611eae578590611e74575b611cae9150612fba565b600f5493611cbb85612ffb565b600f558481526010865260408120918411611e60579083859392611cdf8354612c6c565b601f8111611e09575b5080601f8311600114611d7b57927f673723d02765ca5f3d137c345c7fb902e007939bcc2f1333768621ba2f1bb9d99492600192611d609591611d70575b50600019600389901b1c191687831b1781555b01336001600160601b0360a01b825416179055604051918291888352339689840191613020565b0390a36001600255604051908152f35b905083013538611d26565b91601f198116848452898420935b8a828210611ded57505092600192611d6095927f673723d02765ca5f3d137c345c7fb902e007939bcc2f1333768621ba2f1bb9d9979510611dd3575b50508187811b018155611d39565b84013560001960038a901b60f8161c191690553880611dc5565b8488013586558a98506001909501949384019389935001611d89565b915091809394508252868220601f860160051c810191888710611e56575b918795949391601f88940160051c01905b818110611e455750611ce8565b828155889650879350600101611e38565b9091508190611e27565b634e487b7160e01b81526041600452602490fd5b508581813d8311611ea7575b611e8a8183612cd4565b81010312611ea357611e9e611cae91612fad565b611ca4565b8480fd5b503d611e80565b6040513d87823e3d90fd5b5034610303578060031936011261030357611ed2612ddb565b60015460ff811615611f125760ff19166001557f5db9ee0a495bf2e6ff9c91a7834c1ba4fdd244a5e8aa4e537bd38aeae4b073aa6020604051338152a180f35b604051638dfc202b60e01b8152600490fd5b50346103035780600319360112610303576020604051678ac7230489e800008152f35b5034610303578060031936011261030357611f60612f8c565b338152602060098152604082205480156120425733808452600983526040808520859055600354905163a9059cbb60e01b8152600481019290925260248201929092529082908290604490829087906001600160a01b03165af190811561176357839161200d575b5015611fd75750600160025580f35b6064906040519062461bcd60e51b82526004820152600f60248201526e151c985b9cd9995c8819985a5b1959608a1b6044820152fd5b90508181813d831161203b575b6120248183612cd4565b810103126115cb5761203590612fad565b38611fc8565b503d61201a565b60405162461bcd60e51b81526004810183905260136024820152724e6f207265776172647320746f20636c61696d60681b6044820152606490fd5b503461030357604036600319011261030357612097612c10565b336001600160a01b038216036120b35761090690600435612ef9565b60405163334bd91960e11b8152600490fd5b5034610303578060031936011261030357602060405160088152f35b50346103035760208060031936011261053a576120fc612f8c565b6004358252600e81526040822060028101546001600160a01b03919082163303612265576005810190600782549161213a60ff8460a81c16156135cd565b0154610e108101809111612251574211156122165760ff60a81b1916600160a81b17905560035460065460405163a9059cbb60e01b815233600482015260248101919091529183918391168186816044810103925af19081156117635783916121e1575b50156121ad5750600160025580f35b6064906040519062461bcd60e51b82526004820152600d60248201526c1499599d5b990819985a5b1959609a1b6044820152fd5b90508181813d831161220f575b6121f88183612cd4565b810103126115cb5761220990612fad565b3861219e565b503d6121ee565b60405162461bcd60e51b8152600481018590526013602482015272151a5b595bdd5d081b9bdd081c995858da1959606a1b6044820152606490fd5b634e487b7160e01b86526011600452602486fd5b60405162461bcd60e51b81526004810184905260116024820152702737ba103a3432903932b8bab2b9ba32b960791b6044820152606490fd5b5034610303576040366003190112610303576109066004356122be612c10565b90808452836020526122d66001604086200154612e55565b612e7b565b503461030357602036600319011261030357600435906001600160501b039182811680910361053a57906040918152600b60205220906102ff818354169160018401549360028101549160046003830154920154169160405195869586612c3c565b50346103035780600319360112610303576005546040516001600160a01b039091168152602090f35b503461030357602036600319011261030357600160406020926004358152808452200154604051908152f35b5034610303576020366003190112610303576123ac612ddb565b60043560075580f35b50346103035760a0366003190112610303576004356001600160401b03811161053a576123e6903690600401612be3565b91606435906001600160401b0382116103035750612408903690600401612be3565b9160843591906001600160a01b0390818416840361281657612428612f6e565b612430612f8c565b818416156127d1576003546006546040516323b872dd60e01b81523360048201523060248201526044810191909152906020908290606490829060009088165af1801561139f57600090612796575b6124899150612fba565b600d549461249686612ffb565b600d5585600052600e6020526040600020908682556001600160401b038811611292576124c66001830154612c6c565b601f811161274f575b50876000601f82116001146126e5576000916126da575b508860011b906000198a60031b1c19161760018301555b6002820180546001600160a01b031916331790556003820180546001600160a81b03191687861617600160a01b179055426007830155602435600883015560443560098301556001600160401b0381116112925761255e600a830154612c6c565b601f811161268f575b5091869391602098936000601f821160011461260957816125c7949392600a9260008051602061362d833981519152999a6000926125fe575b50508160011b916000199060031b1c1916179101556040519360c0855260c0850191613020565b9460243588840152604435604084015260016060840152166080820152600060a08201528033940390a36001600255604051908152f35b0135905038806125a0565b909196600a880182528a822091805b601f198516811061267557508360008051602061362d833981519152989993600a936001936125c79897601f1981161061265b575b505050811b0191015561117d565b0135600019600384901b60f8161c1916905538808061264d565b8183013584558b9850600190930192908c01908c01612618565b600a83016000526020600020601f830160051c810191602084106126d0575b601f0160051c01905b8181106126c45750612567565b600081556001016126b7565b90915081906126ae565b9050830135386124e6565b600184018152602081209150805b601f198b168110612737575089601f1981161061271d575b5050600188811b0160018301556124fd565b84013560001960038b901b60f8161c19169055388061270b565b909160206001819285890135815501930191016126f3565b600183016000526020600020601f8a0160051c810160208b1061278f575b601f830160051c820181106127835750506124cf565b6000815560010161276d565b508061276d565b6020823d6020116127c9575b816127af60209383612cd4565b8101031261030357506127c461248991612fad565b61247f565b3d91506127a2565b60405162461bcd60e51b815260206004820152601760248201527f496e76616c6964204f45562062656e65666963696172790000000000000000006044820152606490fd5b600080fd5b503461030357806003193601126103035760206001600160501b03600a5416604051908152f35b5034610303576101a03660031901126103035760043560248035366101441161087f57610184368111611ea3573591612879612f6e565b612881612f8c565b838552602090600e825260408620936003850160ff815460a01c1615612b30578115612aee576003546040516323b872dd60e01b8152336004820152306024820152604481018490526001600160a01b0397918690829060649082908e908d165af1908115612ae3578a91612aaa575b5015612a665784877f6c37813135052cb6825e22fa78f2ac6ac13d6289e9176ffa20bd0c47dfa8ea8a92818554168c52600c835260408c2061293487825461307f565b90555493541693604051908152a33386526008825261295960ff604088205416613041565b8060808560045416604051928380926348b4573960e11b82523360048301525afa908115610874578791612a44575b50156107ff57848652600e8252604086209060ff600583015460a81c166107bc57600c82019133885282845260ff60408920541661078457856005541680151580612a3c575b6129e5575b50600b01946040519061064882612cb9565b803b15612a3857886040518092635fe24f2360e01b82528180612a0a6004820161308c565b03915afa8015612a2d57156129d35797612a26600b9299612ca6565b97906129d3565b6040513d8b823e3d90fd5b8880fd5b5060016129ce565b612a5c915060803d811161086d5761085b8183612cd4565b9250505038612988565b60405162461bcd60e51b8152600481018690526017818601527f4f455620626964207472616e73666572206661696c65640000000000000000006044820152606490fd5b90508581813d8311612adc575b612ac18183612cd4565b81010312612ad857612ad290612fad565b386128f1565b8980fd5b503d612ab7565b6040513d8c823e3d90fd5b606483856040519162461bcd60e51b83528160048401528201527f42696420726571756972656420666f72204f45562066756c66696c6c6d656e746044820152fd5b606483856040519162461bcd60e51b83528160048401528201527f4f4556206e6f7420656e61626c656420666f72207468697320726571756573746044820152fd5b50346103035780600319360112610303576020604051605a8152f35b90503461053a57602036600319011261053a5760043563ffffffff60e01b81168091036115cb5760209250637965db0b60e01b8114908115612bd2575b5015158152f35b6301ffc9a760e01b14905038612bcb565b9181601f84011215612816578235916001600160401b038311612816576020838186019501011161281657565b602435906001600160a01b038216820361281657565b600435906001600160a01b038216820361281657565b93608093969591929660a08601976001600160501b03809516875260208701526040860152606085015216910152565b90600182811c92168015612c9c575b6020831014612c8657565b634e487b7160e01b600052602260045260246000fd5b91607f1691612c7b565b6001600160401b03811161129257604052565b604081019081106001600160401b0382111761129257604052565b90601f801991011681019081106001600160401b0382111761129257604052565b9060405191826000825492612d0984612c6c565b908184526001948581169081600014612d785750600114612d35575b5050612d3392500383612cd4565b565b9093915060005260209081600020936000915b818310612d60575050612d3393508201013880612d25565b85548884018501529485019487945091830191612d48565b915050612d3394506020925060ff191682840152151560051b8201013880612d25565b919082519283825260005b848110612dc7575050826000602080949584010152601f8019910116010190565b602081830181015184830182015201612da6565b3360009081527f7d7ffb7a348e1c6a02869081a26547b49160dd3df72d1d75a570eb9b698292ec60205260409020547fa49807205ce4d355092ef5a8a18f56e8913cf4a201fbe287825b095693c217759060ff1615612e375750565b6044906040519063e2517d3f60e01b82523360048301526024820152fd5b80600052600060205260406000203360005260205260ff6040600020541615612e375750565b9060009180835282602052604083209160018060a01b03169182845260205260ff60408420541615600014612ef457808352826020526040832082845260205260408320600160ff198254161790557f2f8788117e7eff1d82e926ec794901d17c78024a50270940304540a733656f0d339380a4600190565b505090565b9060009180835282602052604083209160018060a01b03169182845260205260ff604084205416600014612ef45780835282602052604083208284526020526040832060ff1981541690557ff6391f5c32d9c69d2a47ea670b442974b53935d1edc7fd64eb21e047a839171b339380a4600190565b60ff60015416612f7a57565b60405163d93c066560e01b8152600490fd5b6002805414612f9b5760028055565b604051633ee5aeb560e01b8152600490fd5b5190811515820361281657565b15612fc157565b60405162461bcd60e51b8152602060048201526012602482015271119959481c185e5b595b9d0819985a5b195960721b6044820152606490fd5b600019811461300a5760010190565b634e487b7160e01b600052601160045260246000fd5b908060209392818452848401376000828201840152601f01601f1916010190565b1561304857565b60405162461bcd60e51b815260206004820152600f60248201526e139bdd081dda1a5d195b1a5cdd1959608a1b6044820152606490fd5b9190820180921161300a57565b9060406101446101408401936101009081604482370137565b9190826080910312612816578151916020810151916130cb606060408401519301612fad565b90565b80548210156130ea5760005260206000209060011b0190600090565b634e487b7160e01b600052603260045260246000fd5b6001600160401b0381116112925760051b60200190565b80518210156130ea5760209160051b010190565b80600052600e6020526040600020600b8101805461314881613100565b906131566040519283612cd4565b808252601f1961316582613100565b0136602084013760005b81811061347a575050613181906134a2565b6006830181905560058301805460ff60a81b1916600160a81b179055600a5490926001600160501b039182811680841461300a57836001600792011692836001600160501b031980941617600a55015460405160a08101908082106001600160401b0383111761129257859260049260405285825260208201908982526040830190815260608301914283526080840197808952600052600b602052856040600020945116878554161784555160018401555160028301555160038201550192511690825416179055600a54167fbeebf5eb056354f309b6bfd65f6362fee2d3c877cd1d6e4efd5558aba81d4f1e60408051858152426020820152a2805480159081156132b9575b50505060207f5c69e7026b653d8606b5613bb00fd8c4b0504b1cbe8db600c406faac180924d591604051908152a2565b91946006939193549384605a810204605a148515171561300a576134645760005b8654811015613434576132ed81886130ce565b50546001600160a01b0316906001613305828a6130ce565b5001546000908515613427576096868181020481148715171561300a576064908702048111908115613407575b506133ff575b156133d4576004546001600160a01b0316803b15612816576000809160a46133c09560405194859384926333c59f7160e11b84526004840152678ac7230489e80000602484015260606044840152601760648401527f507269636520646576696174696f6e206f75746c69657200000000000000000060848401525af16133c5575b50612ffb565b6132da565b6133ce90612ca6565b386133ba565b6133c091600052600960205260406000206133f8866064605a8a020404825461307f565b9055612ffb565b506001613338565b90506032868181020481148715171561300a576064908702041138613332565b1561333857506001613338565b5094509150602090507f5c69e7026b653d8606b5613bb00fd8c4b0504b1cbe8db600c406faac180924d538613289565b634e487b7160e01b600052601260045260246000fd5b80600161348a61349d93876130ce565b5001546134978286613117565b52612ffb565b61316f565b60005b815181101561353557600180820180831161300a57815b6134d1575b50506134cc90612ffb565b6134a5565b8351811015613530576134ff82916134e98587613117565b516134f48288613117565b511061350557612ffb565b906134bc565b61350f8587613117565b5161351a8288613117565b516135258789613117565b526134978288613117565b6134c1565b5080516001811661357d5750805160011c90600019820191821161300a576135706135636135779383613117565b5191805160011c90613117565b519061307f565b60011c90565b9061358b9160011c90613117565b5190565b1561359657565b60405162461bcd60e51b815260206004820152600f60248201526e139bc81c9bdd5b991cc8195e1a5cdd608a1b6044820152606490fd5b156135d457565b60405162461bcd60e51b815260206004820152601060248201526f105b1c9958591e481c995cdbdb1d995960821b6044820152606490fdfe5a87909bff68caaaaf0b3fd9c74eeccc928832f879315e5c6fb7a73612f26c0c57936e73aecfc46b1d4e6058b2370815620fb22e4ba66923610173e1df75d60fa2646970667358221220640418d9a0e30289aad5c063bfca5b002e741d3c5e6e0790c12a56ca1f32fa8c64736f6c634300081400332f8788117e7eff1d82e926ec794901d17c78024a50270940304540a733656f0d",
  "linkReferences": {},
  "deployedLinkReferences": {}
}