{
  "_format": "hh-sol-artifact-1",
  "contractName": "ObscuraOracle",
  "sourceName": "contracts/ObscuraOracle.sol",
  "abi": [
    {
      "inputs": [
        {
          "internalType": "address",
          "name": "_token",
          "type": "address"
        },
        {
          "internalType": "address",
          "name": "_stakeGuard",
          "type": "address"
        },
        {
          "internalType": "address",
          "name": "_verifier",
          "type": "address"
        }
      ],
      "stateMutability": "nonpayable",
      "type": "constructor"
    },
    {
      "inputs": [
        {
          "internalType": "address",
          "name": "owner",
          "type": "address"
        }
      ],
      "name": "OwnableInvalidOwner",
      "type": "error"
    },
    {
      "inputs": [
        {
          "internalType": "address",
          "name": "account",
          "type": "address"
        }
      ],
      "name": "OwnableUnauthorizedAccount",
      "type": "error"
    },
    {
      "inputs": [],
      "name": "ReentrancyGuardReentrantCall",
      "type": "error"
    },
    {
      "anonymous": false,
      "inputs": [
        {
          "indexed": true,
          "internalType": "uint256",
          "name": "requestId",
          "type": "uint256"
        },
        {
          "indexed": true,
          "internalType": "address",
          "name": "node",
          "type": "address"
        },
        {
          "indexed": false,
          "internalType": "uint256",
          "name": "value",
          "type": "uint256"
        }
      ],
      "name": "DataSubmitted",
      "type": "event"
    },
    {
      "anonymous": false,
      "inputs": [
        {
          "indexed": true,
          "internalType": "address",
          "name": "previousOwner",
          "type": "address"
        },
        {
          "indexed": true,
          "internalType": "address",
          "name": "newOwner",
          "type": "address"
        }
      ],
      "name": "OwnershipTransferred",
      "type": "event"
    },
    {
      "anonymous": false,
      "inputs": [
        {
          "indexed": true,
          "internalType": "uint256",
          "name": "requestId",
          "type": "uint256"
        },
        {
          "indexed": false,
          "internalType": "uint256",
          "name": "randomness",
          "type": "uint256"
        }
      ],
      "name": "RandomnessFulfilled",
      "type": "event"
    },
    {
      "anonymous": false,
      "inputs": [
        {
          "indexed": true,
          "internalType": "uint256",
          "name": "requestId",
          "type": "uint256"
        },
        {
          "indexed": false,
          "internalType": "string",
          "name": "seed",
          "type": "string"
        },
        {
          "indexed": true,
          "internalType": "address",
          "name": "requester",
          "type": "address"
        }
      ],
      "name": "RandomnessRequested",
      "type": "event"
    },
    {
      "anonymous": false,
      "inputs": [
        {
          "indexed": true,
          "internalType": "uint256",
          "name": "requestId",
          "type": "uint256"
        },
        {
          "indexed": false,
          "internalType": "string",
          "name": "apiUrl",
          "type": "string"
        },
        {
          "indexed": false,
          "internalType": "uint256",
          "name": "min",
          "type": "uint256"
        },
        {
          "indexed": false,
          "internalType": "uint256",
          "name": "max",
          "type": "uint256"
        },
        {
          "indexed": true,
          "internalType": "address",
          "name": "requester",
          "type": "address"
        }
      ],
      "name": "RequestData",
      "type": "event"
    },
    {
      "anonymous": false,
      "inputs": [
        {
          "indexed": true,
          "internalType": "uint256",
          "name": "requestId",
          "type": "uint256"
        },
        {
          "indexed": false,
          "internalType": "uint256",
          "name": "finalValue",
          "type": "uint256"
        }
      ],
      "name": "RequestFulfilled",
      "type": "event"
    },
    {
      "inputs": [],
      "name": "MAX_DEVIATION",
      "outputs": [
        {
          "internalType": "uint256",
          "name": "",
          "type": "uint256"
        }
      ],
      "stateMutability": "view",
      "type": "function"
    },
    {
      "inputs": [],
      "name": "REWARD_PERCENT",
      "outputs": [
        {
          "internalType": "uint256",
          "name": "",
          "type": "uint256"
        }
      ],
      "stateMutability": "view",
      "type": "function"
    },
    {
      "inputs": [],
      "name": "SLASH_AMOUNT",
      "outputs": [
        {
          "internalType": "uint256",
          "name": "",
          "type": "uint256"
        }
      ],
      "stateMutability": "view",
      "type": "function"
    },
    {
      "inputs": [],
      "name": "TIMEOUT",
      "outputs": [
        {
          "internalType": "uint256",
          "name": "",
          "type": "uint256"
        }
      ],
      "stateMutability": "view",
      "type": "function"
    },
    {
      "inputs": [
        {
          "internalType": "uint256",
          "name": "requestId",
          "type": "uint256"
        }
      ],
      "name": "cancelRequest",
      "outputs": [],
      "stateMutability": "nonpayable",
      "type": "function"
    },
    {
      "inputs": [],
      "name": "claimRewards",
      "outputs": [],
      "stateMutability": "nonpayable",
      "type": "function"
    },
    {
      "inputs": [
        {
          "internalType": "uint256",
          "name": "requestId",
          "type": "uint256"
        }
      ],
      "name": "forceFinalize",
      "outputs": [],
      "stateMutability": "nonpayable",
      "type": "function"
    },
    {
      "inputs": [
        {
          "internalType": "uint256",
          "name": "requestId",
          "type": "uint256"
        },
        {
          "internalType": "uint256",
          "name": "value",
          "type": "uint256"
        },
        {
          "internalType": "uint256[8]",
          "name": "zkpProof",
          "type": "uint256[8]"
        },
        {
          "internalType": "uint256[2]",
          "name": "publicInputs",
          "type": "uint256[2]"
        }
      ],
      "name": "fulfillData",
      "outputs": [],
      "stateMutability": "nonpayable",
      "type": "function"
    },
    {
      "inputs": [
        {
          "internalType": "uint256",
          "name": "requestId",
          "type": "uint256"
        },
        {
          "internalType": "uint256",
          "name": "randomness",
          "type": "uint256"
        },
        {
          "internalType": "bytes",
          "name": "proof",
          "type": "bytes"
        }
      ],
      "name": "fulfillRandomness",
      "outputs": [],
      "stateMutability": "nonpayable",
      "type": "function"
    },
    {
      "inputs": [],
      "name": "minResponses",
      "outputs": [
        {
          "internalType": "uint256",
          "name": "",
          "type": "uint256"
        }
      ],
      "stateMutability": "view",
      "type": "function"
    },
    {
      "inputs": [],
      "name": "nextRandomnessId",
      "outputs": [
        {
          "internalType": "uint256",
          "name": "",
          "type": "uint256"
        }
      ],
      "stateMutability": "view",
      "type": "function"
    },
    {
      "inputs": [],
      "name": "nextRequestId",
      "outputs": [
        {
          "internalType": "uint256",
          "name": "",
          "type": "uint256"
        }
      ],
      "stateMutability": "view",
      "type": "function"
    },
    {
      "inputs": [
        {
          "internalType": "address",
          "name": "",
          "type": "address"
        }
      ],
      "name": "nodeRewards",
      "outputs": [
        {
          "internalType": "uint256",
          "name": "",
          "type": "uint256"
        }
      ],
      "stateMutability": "view",
      "type": "function"
    },
    {
      "inputs": [],
      "name": "obscuraToken",
      "outputs": [
        {
          "internalType": "contract IERC20",
          "name": "",
          "type": "address"
        }
      ],
      "stateMutability": "view",
      "type": "function"
    },
    {
      "inputs": [],
      "name": "owner",
      "outputs": [
        {
          "internalType": "address",
          "name": "",
          "type": "address"
        }
      ],
      "stateMutability": "view",
      "type": "function"
    },
    {
      "inputs": [],
      "name": "paymentFee",
      "outputs": [
        {
          "internalType": "uint256",
          "name": "",
          "type": "uint256"
        }
      ],
      "stateMutability": "view",
      "type": "function"
    },
    {
      "inputs": [
        {
          "internalType": "uint256",
          "name": "",
          "type": "uint256"
        }
      ],
      "name": "randomnessRequests",
      "outputs": [
        {
          "internalType": "string",
          "name": "seed",
          "type": "string"
        },
        {
          "internalType": "address",
          "name": "requester",
          "type": "address"
        },
        {
          "internalType": "uint256",
          "name": "randomness",
          "type": "uint256"
        },
        {
          "internalType": "bool",
          "name": "resolved",
          "type": "bool"
        }
      ],
      "stateMutability": "view",
      "type": "function"
    },
    {
      "inputs": [],
      "name": "renounceOwnership",
      "outputs": [],
      "stateMutability": "nonpayable",
      "type": "function"
    },
    {
      "inputs": [
        {
          "internalType": "string",
          "name": "apiUrl",
          "type": "string"
        },
        {
          "internalType": "uint256",
          "name": "min",
          "type": "uint256"
        },
        {
          "internalType": "uint256",
          "name": "max",
          "type": "uint256"
        },
        {
          "internalType": "string",
          "name": "metadata",
          "type": "string"
        }
      ],
      "name": "requestData",
      "outputs": [
        {
          "internalType": "uint256",
          "name": "",
          "type": "uint256"
        }
      ],
      "stateMutability": "nonpayable",
      "type": "function"
    },
    {
      "inputs": [
        {
          "internalType": "string",
          "name": "seed",
          "type": "string"
        }
      ],
      "name": "requestRandomness",
      "outputs": [
        {
          "internalType": "uint256",
          "name": "",
          "type": "uint256"
        }
      ],
      "stateMutability": "nonpayable",
      "type": "function"
    },
    {
      "inputs": [
        {
          "internalType": "uint256",
          "name": "",
          "type": "uint256"
        }
      ],
      "name": "requests",
      "outputs": [
        {
          "internalType": "uint256",
          "name": "id",
          "type": "uint256"
        },
        {
          "internalType": "string",
          "name": "apiUrl",
          "type": "string"
        },
        {
          "internalType": "address",
          "name": "requester",
          "type": "address"
        },
        {
          "internalType": "bool",
          "name": "resolved",
          "type": "bool"
        },
        {
          "internalType": "uint256",
          "name": "finalValue",
          "type": "uint256"
        },
        {
          "internalType": "uint256",
          "name": "createdAt",
          "type": "uint256"
        },
        {
          "internalType": "uint256",
          "name": "minThreshold",
          "type": "uint256"
        },
        {
          "internalType": "uint256",
          "name": "maxThreshold",
          "type": "uint256"
        },
        {
          "internalType": "string",
          "name": "metadata",
          "type": "string"
        }
      ],
      "stateMutability": "view",
      "type": "function"
    },
    {
      "inputs": [
        {
          "internalType": "uint256",
          "name": "_fee",
          "type": "uint256"
        }
      ],
      "name": "setFee",
      "outputs": [],
      "stateMutability": "nonpayable",
      "type": "function"
    },
    {
      "inputs": [
        {
          "internalType": "uint256",
          "name": "_min",
          "type": "uint256"
        }
      ],
      "name": "setMinResponses",
      "outputs": [],
      "stateMutability": "nonpayable",
      "type": "function"
    },
    {
      "inputs": [
        {
          "internalType": "address",
          "name": "_node",
          "type": "address"
        },
        {
          "internalType": "bool",
          "name": "_status",
          "type": "bool"
        }
      ],
      "name": "setNodeWhitelist",
      "outputs": [],
      "stateMutability": "nonpayable",
      "type": "function"
    },
    {
      "inputs": [
        {
          "internalType": "address",
          "name": "_stakeGuard",
          "type": "address"
        }
      ],
      "name": "setStakeGuard",
      "outputs": [],
      "stateMutability": "nonpayable",
      "type": "function"
    },
    {
      "inputs": [
        {
          "internalType": "address",
          "name": "_verifier",
          "type": "address"
        }
      ],
      "name": "setVerifier",
      "outputs": [],
      "stateMutability": "nonpayable",
      "type": "function"
    },
    {
      "inputs": [],
      "name": "stakeGuard",
      "outputs": [
        {
          "internalType": "contract IStakeGuard",
          "name": "",
          "type": "address"
        }
      ],
      "stateMutability": "view",
      "type": "function"
    },
    {
      "inputs": [
        {
          "internalType": "address",
          "name": "newOwner",
          "type": "address"
        }
      ],
      "name": "transferOwnership",
      "outputs": [],
      "stateMutability": "nonpayable",
      "type": "function"
    },
    {
      "inputs": [],
      "name": "verifier",
      "outputs": [
        {
          "internalType": "contract IVerifier",
          "name": "",
          "type": "address"
        }
      ],
      "stateMutability": "view",
      "type": "function"
    },
    {
      "inputs": [
        {
          "internalType": "address",
          "name": "",
          "type": "address"
        }
      ],
      "name": "whitelistedNodes",
      "outputs": [
        {
          "internalType": "bool",
          "name": "",
          "type": "bool"
        }
      ],
      "stateMutability": "view",
      "type": "function"
    },
    {
      "inputs": [],
      "name": "withdrawFees",
      "outputs": [],
      "stateMutability": "nonpayable",
      "type": "function"
    }
  ],
  "bytecode": "0x6080604052670de0b6b3a764000060055560016006553480156200002257600080fd5b50604051620021353803806200213583398101604081905262000045916200012c565b33806200006c57604051631e4fbdf760e01b81526000600482015260240160405180910390fd5b6200007781620000bf565b5060018055600280546001600160a01b039485166001600160a01b03199182161790915560038054938516938216939093179092556004805491909316911617905562000176565b600080546001600160a01b038381166001600160a01b0319831681178455604051919092169283917f8be0079c531659141344cd1fd0a4f28419497f9722a3daafe3b4186f6b6457e09190a35050565b80516001600160a01b03811681146200012757600080fd5b919050565b6000806000606084860312156200014257600080fd5b6200014d846200010f565b92506200015d602085016200010f565b91506200016d604085016200010f565b90509250925092565b611faf80620001866000396000f3fe608060405234801561001057600080fd5b50600436106101e55760003560e01c80636f30aa221161010f578063b92e31b1116100a2578063e7b6ecff11610071578063e7b6ecff14610405578063e854725814610418578063f2fde38b1461042b578063f56f48f21461043e57600080fd5b8063b92e31b1146103cd578063b9ffd9dd146103e0578063c4c32648146103f3578063d585013c146103fc57600080fd5b80637a15ea67116100de5780637a15ea671461037957806381d12c581461038c5780638da5cb5b146103b4578063b05f233a146103c557600080fd5b80636f30aa221461030b578063715018a61461033e5780637697294814610346578063770ce3d81461035957600080fd5b806341787377116101875780635cb6dfff116101565780635cb6dfff146102c357806369fe0e2d146102e65780636a84a985146102f95780636ef06a081461030257600080fd5b80634178737714610282578063476343ee146102955780635437988d1461029d5780635bbffbb2146102b057600080fd5b80633015394c116101c35780633015394c14610245578063372500ab14610258578063377206061461026057806340a4ffef1461026f57600080fd5b806306fbedbe146101ea578063231f1457146102055780632b7ac3f31461021a575b600080fd5b6101f2605a81565b6040519081526020015b60405180910390f35b610218610213366004611920565b610447565b005b60045461022d906001600160a01b031681565b6040516001600160a01b0390911681526020016101fc565b610218610253366004611920565b610454565b61021861063a565b6101f2678ac7230489e8000081565b6101f261027d366004611982565b610767565b60025461022d906001600160a01b031681565b6102186108c9565b6102186102ab3660046119db565b6109b8565b6102186102be366004611a0b565b6109e2565b6102d66102d1366004611920565b610a15565b6040516101fc9493929190611a88565b6102186102f4366004611920565b610ad4565b6101f260095481565b6101f260055481565b61032e6103193660046119db565b60076020526000908152604090205460ff1681565b60405190151581526020016101fc565b610218610ae1565b6101f2610354366004611ac2565b610af3565b6101f26103673660046119db565b60086020526000908152604090205481565b60035461022d906001600160a01b031681565b61039f61039a366004611920565b610c8c565b6040516101fc99989796959493929190611b45565b6000546001600160a01b031661022d565b6101f2603281565b6102186103db366004611bb2565b610df9565b6102186103ee3660046119db565b610ffe565b6101f260065481565b6101f2600b5481565b610218610413366004611920565b611028565b610218610426366004611c05565b611039565b6102186104393660046119db565b611355565b6101f2610e1081565b61044f611390565b600655565b61045c6113bd565b6000818152600a6020526040902060028101546001600160a01b031633146104bf5760405162461bcd60e51b81526020600482015260116024820152702737ba103a3432903932b8bab2b9ba32b960791b60448201526064015b60405180910390fd5b6002810154600160a01b900460ff161561050e5760405162461bcd60e51b815260206004820152601060248201526f105b1c9958591e481c995cdbdb1d995960821b60448201526064016104b6565b610e1081600401546105209190611c71565b42116105645760405162461bcd60e51b8152602060048201526013602482015272151a5b595bdd5d081b9bdd081c995858da1959606a1b60448201526064016104b6565b6002818101805460ff60a01b1916600160a01b1790555460055460405163a9059cbb60e01b815233600482015260248101919091526001600160a01b039091169063a9059cbb906044016020604051808303816000875af11580156105cd573d6000803e3d6000fd5b505050506040513d601f19601f820116820180604052508101906105f19190611c84565b61062d5760405162461bcd60e51b815260206004820152600d60248201526c1499599d5b990819985a5b1959609a1b60448201526064016104b6565b5061063760018055565b50565b6106426113bd565b33600090815260086020526040902054806106955760405162461bcd60e51b81526020600482015260136024820152724e6f207265776172647320746f20636c61696d60681b60448201526064016104b6565b3360008181526008602052604080822091909155600254905163a9059cbb60e01b81526004810192909252602482018390526001600160a01b03169063a9059cbb906044016020604051808303816000875af11580156106f9573d6000803e3d6000fd5b505050506040513d601f19601f8201168201806040525081019061071d9190611c84565b61075b5760405162461bcd60e51b815260206004820152600f60248201526e151c985b9cd9995c8819985a5b1959608a1b60448201526064016104b6565b5061076560018055565b565b60006107716113bd565b6002546005546040516323b872dd60e01b815233600482015230602482015260448101919091526001600160a01b03909116906323b872dd906064016020604051808303816000875af11580156107cc573d6000803e3d6000fd5b505050506040513d601f19601f820116820180604052508101906107f09190611c84565b6108315760405162461bcd60e51b8152602060048201526012602482015271119959481c185e5b595b9d0819985a5b195960721b60448201526064016104b6565b600b80546000918261084283611ca1565b909155506000818152600c6020526040902090915080610863858783611d59565b506001810180546001600160a01b0319163390811790915560405183907f673723d02765ca5f3d137c345c7fb902e007939bcc2f1333768621ba2f1bb9d9906108af9089908990611e43565b60405180910390a35090506108c360018055565b92915050565b6108d1611390565b6002546040516370a0823160e01b81523060048201526000916001600160a01b0316906370a0823190602401602060405180830381865afa15801561091a573d6000803e3d6000fd5b505050506040513d601f19601f8201168201806040525081019061093e9190611e5f565b60025460405163a9059cbb60e01b8152336004820152602481018390529192506001600160a01b03169063a9059cbb906044016020604051808303816000875af1158015610990573d6000803e3d6000fd5b505050506040513d601f19601f820116820180604052508101906109b49190611c84565b5050565b6109c0611390565b600480546001600160a01b0319166001600160a01b0392909216919091179055565b6109ea611390565b6001600160a01b03919091166000908152600760205260409020805460ff1916911515919091179055565b600c60205260009081526040902080548190610a3090611cd0565b80601f0160208091040260200160405190810160405280929190818152602001828054610a5c90611cd0565b8015610aa95780601f10610a7e57610100808354040283529160200191610aa9565b820191906000526020600020905b815481529060010190602001808311610a8c57829003601f168201915b505050506001830154600284015460039094015492936001600160a01b039091169290915060ff1684565b610adc611390565b600555565b610ae9611390565b61076560006113e7565b6000610afd6113bd565b6002546005546040516323b872dd60e01b815233600482015230602482015260448101919091526001600160a01b03909116906323b872dd906064016020604051808303816000875af1158015610b58573d6000803e3d6000fd5b505050506040513d601f19601f82011682018060405250810190610b7c9190611c84565b610bbd5760405162461bcd60e51b8152602060048201526012602482015271119959481c185e5b595b9d0819985a5b195960721b60448201526064016104b6565b6009805460009182610bce83611ca1565b909155506000818152600a6020526040902081815590915060018101610bf5898b83611d59565b506002810180546001600160a01b03191633179055426004820155600581018790556006810186905560078101610c2d858783611d59565b50336001600160a01b0316827f65445418d0a2f902f581119ce888ce3c872dc471220fe4fc76c0e6d73daec8e18b8b8b8b604051610c6e9493929190611e78565b60405180910390a3509050610c8260018055565b9695505050505050565b600a6020526000908152604090208054600182018054919291610cae90611cd0565b80601f0160208091040260200160405190810160405280929190818152602001828054610cda90611cd0565b8015610d275780601f10610cfc57610100808354040283529160200191610d27565b820191906000526020600020905b815481529060010190602001808311610d0a57829003601f168201915b505050506002830154600384015460048501546005860154600687015460078801805497986001600160a01b03871698600160a01b90970460ff169750949593949293919291610d7690611cd0565b80601f0160208091040260200160405190810160405280929190818152602001828054610da290611cd0565b8015610def5780601f10610dc457610100808354040283529160200191610def565b820191906000526020600020905b815481529060010190602001808311610dd257829003601f168201915b5050505050905089565b610e016113bd565b3360009081526007602052604090205460ff16610e525760405162461bcd60e51b815260206004820152600f60248201526e139bdd081dda1a5d195b1a5cdd1959608a1b60448201526064016104b6565b6003546040516348b4573960e11b81523360048201526000916001600160a01b031690639168ae7290602401608060405180830381865afa158015610e9b573d6000803e3d6000fd5b505050506040513d601f19601f82011682018060405250810190610ebf9190611e9f565b935050505080610f035760405162461bcd60e51b815260206004820152600f60248201526e4e6f6465206e6f742061637469766560881b60448201526064016104b6565b6000858152600c60205260409020600381015460ff1615610f595760405162461bcd60e51b815260206004820152601060248201526f105b1c9958591e481c995cdbdb1d995960821b60448201526064016104b6565b6002810185905560038101805460ff19166001179055600554600090606490610f8490605a90611ee0565b610f8e9190611f0d565b33600090815260086020526040812080549293508392909190610fb2908490611c71565b909155505060405186815287907f546aca7b2683440b8f02fa95faeb8efc79dd0f16af3d815a002742ea6f76116c9060200160405180910390a2505050610ff860018055565b50505050565b611006611390565b600380546001600160a01b0319166001600160a01b0392909216919091179055565b611030611390565b61063781611437565b6110416113bd565b3360009081526007602052604090205460ff166110925760405162461bcd60e51b815260206004820152600f60248201526e139bdd081dda1a5d195b1a5cdd1959608a1b60448201526064016104b6565b6003546040516348b4573960e11b81523360048201526000916001600160a01b031690639168ae7290602401608060405180830381865afa1580156110db573d6000803e3d6000fd5b505050506040513d601f19601f820116820180604052508101906110ff9190611e9f565b9350505050806111515760405162461bcd60e51b815260206004820152601d60248201527f4e6f6465206e6f742061637469766520696e205374616b65477561726400000060448201526064016104b6565b6000858152600a602052604090206002810154600160a01b900460ff16156111bb5760405162461bcd60e51b815260206004820152601860248201527f5265717565737420616c7265616479207265736f6c766564000000000000000060448201526064016104b6565b33600090815260098201602052604090205460ff16156112115760405162461bcd60e51b8152602060048201526011602482015270105b1c9958591e481c995cdc1bdb991959607a1b60448201526064016104b6565b6004546001600160a01b031615801590611229575060015b156112905760048054604051635fe24f2360e01b81526001600160a01b0390911691635fe24f239161125f918891889101611f21565b60006040518083038186803b15801561127757600080fd5b505afa15801561128b573d6000803e3d6000fd5b505050505b6040805180820182523380825260208083018981526008860180546001808201835560009283528483209651600290920290960180546001600160a01b0319166001600160a01b03909216919091178155915191850191909155828152600986018252849020805460ff1916909317909255915187815288917fc2af2237b2cd9e2e41495402b40b373744eff683f8123d61e07c0291e166dbe7910160405180910390a360065460088201541061134a5761134a86611437565b5050610ff860018055565b61135d611390565b6001600160a01b03811661138757604051631e4fbdf760e01b8152600060048201526024016104b6565b610637816113e7565b6000546001600160a01b031633146107655760405163118cdaa760e01b81523360048201526024016104b6565b6002600154036113e057604051633ee5aeb560e01b815260040160405180910390fd5b6002600155565b600080546001600160a01b038381166001600160a01b0319831681178455604051919092169283917f8be0079c531659141344cd1fd0a4f28419497f9722a3daafe3b4186f6b6457e09190a35050565b6000818152600a60205260408120600881015490919067ffffffffffffffff81111561146557611465611cba565b60405190808252806020026020018201604052801561148e578160200160208202803683370190505b50905060005b60088301548110156114f6578260080181815481106114b5576114b5611f3c565b9060005260206000209060020201600101548282815181106114d9576114d9611f3c565b6020908102919091010152806114ee81611ca1565b915050611494565b5060006115028261176b565b6003840181905560028401805460ff60a01b1916600160a01b17905560088401549091501561172b5760006064605a60055461153e9190611ee0565b6115489190611f0d565b600885015490915060009061155d9083611f0d565b905060005b600886015481101561172757600086600801828154811061158557611585611f3c565b600091825260208220600290910201546008890180546001600160a01b03909216935090849081106115b9576115b9611f3c565b600091825260208220600160029092020101549150861561162f5760646115e1603282611c71565b6115eb9089611ee0565b6115f59190611f0d565b8211806116215750606461160a603282611f52565b6116149089611ee0565b61161e9190611f0d565b82105b1561162a575060015b611639565b8115611639575060015b80156116e3576003546040516333c59f7160e11b81526001600160a01b038581166004830152678ac7230489e80000602483015260606044830152601760648301527f507269636520646576696174696f6e206f75746c69657200000000000000000060848301529091169063678b3ee29060a401600060405180830381600087803b1580156116c857600080fd5b505af19250505080156116d9575060015b1561171157611711565b6001600160a01b0383166000908152600860205260408120805487929061170b908490611c71565b90915550505b505050808061171f90611ca1565b915050611562565b5050505b837f5c69e7026b653d8606b5613bb00fd8c4b0504b1cbe8db600c406faac180924d58260405161175d91815260200190565b60405180910390a250505050565b6000805b8251811015611867576000611785826001611c71565b90505b8351811015611854578381815181106117a3576117a3611f3c565b60200260200101518483815181106117bd576117bd611f3c565b602002602001015111156118425760008483815181106117df576117df611f3c565b602002602001015190508482815181106117fb576117fb611f3c565b602002602001015185848151811061181557611815611f3c565b6020026020010181815250508085838151811061183457611834611f3c565b602002602001018181525050505b8061184c81611ca1565b915050611788565b508061185f81611ca1565b91505061176f565b50600282516118769190611f65565b6000036118ed576002826002845161188e9190611f0d565b8151811061189e5761189e611f3c565b6020026020010151836001600286516118b79190611f0d565b6118c19190611f52565b815181106118d1576118d1611f3c565b60200260200101516118e39190611c71565b6108c39190611f0d565b81600283516118fc9190611f0d565b8151811061190c5761190c611f3c565b60200260200101519050919050565b919050565b60006020828403121561193257600080fd5b5035919050565b60008083601f84011261194b57600080fd5b50813567ffffffffffffffff81111561196357600080fd5b60208301915083602082850101111561197b57600080fd5b9250929050565b6000806020838503121561199557600080fd5b823567ffffffffffffffff8111156119ac57600080fd5b6119b885828601611939565b90969095509350505050565b80356001600160a01b038116811461191b57600080fd5b6000602082840312156119ed57600080fd5b6119f6826119c4565b9392505050565b801515811461063757600080fd5b60008060408385031215611a1e57600080fd5b611a27836119c4565b91506020830135611a37816119fd565b809150509250929050565b6000815180845260005b81811015611a6857602081850181015186830182015201611a4c565b506000602082860101526020601f19601f83011685010191505092915050565b608081526000611a9b6080830187611a42565b6001600160a01b039590951660208301525060408101929092521515606090910152919050565b60008060008060008060808789031215611adb57600080fd5b863567ffffffffffffffff80821115611af357600080fd5b611aff8a838b01611939565b909850965060208901359550604089013594506060890135915080821115611b2657600080fd5b50611b3389828a01611939565b979a9699509497509295939492505050565b60006101208b8352806020840152611b5f8184018c611a42565b905060018060a01b038a16604084015288151560608401528760808401528660a08401528560c08401528460e0840152828103610100840152611ba28185611a42565b9c9b505050505050505050505050565b60008060008060608587031215611bc857600080fd5b8435935060208501359250604085013567ffffffffffffffff811115611bed57600080fd5b611bf987828801611939565b95989497509550505050565b600080600080610180808688031215611c1d57600080fd5b8535945060208601359350610140860187811115611c3a57600080fd5b604087019350878288011115611c4f57600080fd5b94979396509194505050565b634e487b7160e01b600052601160045260246000fd5b808201808211156108c3576108c3611c5b565b600060208284031215611c9657600080fd5b81516119f6816119fd565b600060018201611cb357611cb3611c5b565b5060010190565b634e487b7160e01b600052604160045260246000fd5b600181811c90821680611ce457607f821691505b602082108103611d0457634e487b7160e01b600052602260045260246000fd5b50919050565b601f821115611d5457600081815260208120601f850160051c81016020861015611d315750805b601f850160051c820191505b81811015611d5057828155600101611d3d565b5050505b505050565b67ffffffffffffffff831115611d7157611d71611cba565b611d8583611d7f8354611cd0565b83611d0a565b6000601f841160018114611db95760008515611da15750838201355b600019600387901b1c1916600186901b178355611e13565b600083815260209020601f19861690835b82811015611dea5786850135825560209485019460019092019101611dca565b5086821015611e075760001960f88860031b161c19848701351681555b505060018560011b0183555b5050505050565b81835281816020850137506000828201602090810191909152601f909101601f19169091010190565b602081526000611e57602083018486611e1a565b949350505050565b600060208284031215611e7157600080fd5b5051919050565b606081526000611e8c606083018688611e1a565b6020830194909452506040015292915050565b60008060008060808587031215611eb557600080fd5b8451935060208501519250604085015191506060850151611ed5816119fd565b939692955090935050565b80820281158282048414176108c3576108c3611c5b565b634e487b7160e01b600052601260045260246000fd5b600082611f1c57611f1c611ef7565b500490565b61014081016101008085843760408482850137509392505050565b634e487b7160e01b600052603260045260246000fd5b818103818111156108c3576108c3611c5b565b600082611f7457611f74611ef7565b50069056fea264697066735822122001e4e2725fdfcf8573511f19b492033d9a48ccbc6d70638ff8dcd540f80980c764736f6c63430008140033",
  "linkReferences": {},
  "deployedLinkReferences": {}
}