{
  "_format": "hh-sol-artifact-1",
  "contractName": "ObscuraOracle",
  "sourceName": "contracts/ObscuraOracle.sol",
  "abi": [
    {
      "inputs": [
        {
          "internalType": "address",
          "name": "_stakeGuard",
          "type": "address"
        },
        {
          "internalType": "address",
          "name": "_verifier",
          "type": "address"
        }
      ],
      "stateMutability": "nonpayable",
      "type": "constructor"
    },
    {
      "inputs": [
        {
          "internalType": "address",
          "name": "owner",
          "type": "address"
        }
      ],
      "name": "OwnableInvalidOwner",
      "type": "error"
    },
    {
      "inputs": [
        {
          "internalType": "address",
          "name": "account",
          "type": "address"
        }
      ],
      "name": "OwnableUnauthorizedAccount",
      "type": "error"
    },
    {
      "anonymous": false,
      "inputs": [
        {
          "indexed": true,
          "internalType": "uint256",
          "name": "requestId",
          "type": "uint256"
        },
        {
          "indexed": false,
          "internalType": "uint256",
          "name": "value",
          "type": "uint256"
        },
        {
          "indexed": false,
          "internalType": "uint256[8]",
          "name": "zkpProof",
          "type": "uint256[8]"
        }
      ],
      "name": "DataFulfilled",
      "type": "event"
    },
    {
      "anonymous": false,
      "inputs": [
        {
          "indexed": true,
          "internalType": "address",
          "name": "previousOwner",
          "type": "address"
        },
        {
          "indexed": true,
          "internalType": "address",
          "name": "newOwner",
          "type": "address"
        }
      ],
      "name": "OwnershipTransferred",
      "type": "event"
    },
    {
      "anonymous": false,
      "inputs": [
        {
          "indexed": true,
          "internalType": "uint256",
          "name": "requestId",
          "type": "uint256"
        },
        {
          "indexed": false,
          "internalType": "string",
          "name": "apiUrl",
          "type": "string"
        },
        {
          "indexed": false,
          "internalType": "uint256",
          "name": "min",
          "type": "uint256"
        },
        {
          "indexed": false,
          "internalType": "uint256",
          "name": "max",
          "type": "uint256"
        },
        {
          "indexed": true,
          "internalType": "address",
          "name": "requester",
          "type": "address"
        }
      ],
      "name": "RequestData",
      "type": "event"
    },
    {
      "inputs": [
        {
          "internalType": "uint256",
          "name": "requestId",
          "type": "uint256"
        },
        {
          "internalType": "uint256",
          "name": "value",
          "type": "uint256"
        },
        {
          "internalType": "uint256[8]",
          "name": "zkpProof",
          "type": "uint256[8]"
        },
        {
          "internalType": "uint256[2]",
          "name": "publicInputs",
          "type": "uint256[2]"
        }
      ],
      "name": "fulfillData",
      "outputs": [],
      "stateMutability": "nonpayable",
      "type": "function"
    },
    {
      "inputs": [],
      "name": "nextRequestId",
      "outputs": [
        {
          "internalType": "uint256",
          "name": "",
          "type": "uint256"
        }
      ],
      "stateMutability": "view",
      "type": "function"
    },
    {
      "inputs": [],
      "name": "owner",
      "outputs": [
        {
          "internalType": "address",
          "name": "",
          "type": "address"
        }
      ],
      "stateMutability": "view",
      "type": "function"
    },
    {
      "inputs": [],
      "name": "renounceOwnership",
      "outputs": [],
      "stateMutability": "nonpayable",
      "type": "function"
    },
    {
      "inputs": [
        {
          "internalType": "string",
          "name": "apiUrl",
          "type": "string"
        },
        {
          "internalType": "uint256",
          "name": "min",
          "type": "uint256"
        },
        {
          "internalType": "uint256",
          "name": "max",
          "type": "uint256"
        },
        {
          "internalType": "string",
          "name": "metadata",
          "type": "string"
        }
      ],
      "name": "requestData",
      "outputs": [
        {
          "internalType": "uint256",
          "name": "",
          "type": "uint256"
        }
      ],
      "stateMutability": "nonpayable",
      "type": "function"
    },
    {
      "inputs": [
        {
          "internalType": "uint256",
          "name": "",
          "type": "uint256"
        }
      ],
      "name": "requests",
      "outputs": [
        {
          "internalType": "uint256",
          "name": "id",
          "type": "uint256"
        },
        {
          "internalType": "string",
          "name": "apiUrl",
          "type": "string"
        },
        {
          "internalType": "address",
          "name": "requester",
          "type": "address"
        },
        {
          "internalType": "uint256",
          "name": "value",
          "type": "uint256"
        },
        {
          "internalType": "bool",
          "name": "resolved",
          "type": "bool"
        },
        {
          "internalType": "uint256",
          "name": "minThreshold",
          "type": "uint256"
        },
        {
          "internalType": "uint256",
          "name": "maxThreshold",
          "type": "uint256"
        },
        {
          "internalType": "string",
          "name": "metadata",
          "type": "string"
        }
      ],
      "stateMutability": "view",
      "type": "function"
    },
    {
      "inputs": [
        {
          "internalType": "address",
          "name": "_node",
          "type": "address"
        },
        {
          "internalType": "bool",
          "name": "_status",
          "type": "bool"
        }
      ],
      "name": "setNodeWhitelist",
      "outputs": [],
      "stateMutability": "nonpayable",
      "type": "function"
    },
    {
      "inputs": [
        {
          "internalType": "address",
          "name": "_stakeGuard",
          "type": "address"
        }
      ],
      "name": "setStakeGuard",
      "outputs": [],
      "stateMutability": "nonpayable",
      "type": "function"
    },
    {
      "inputs": [
        {
          "internalType": "address",
          "name": "_verifier",
          "type": "address"
        }
      ],
      "name": "setVerifier",
      "outputs": [],
      "stateMutability": "nonpayable",
      "type": "function"
    },
    {
      "inputs": [],
      "name": "stakeGuard",
      "outputs": [
        {
          "internalType": "contract IStakeGuard",
          "name": "",
          "type": "address"
        }
      ],
      "stateMutability": "view",
      "type": "function"
    },
    {
      "inputs": [
        {
          "internalType": "address",
          "name": "newOwner",
          "type": "address"
        }
      ],
      "name": "transferOwnership",
      "outputs": [],
      "stateMutability": "nonpayable",
      "type": "function"
    },
    {
      "inputs": [],
      "name": "verifier",
      "outputs": [
        {
          "internalType": "contract IVerifier",
          "name": "",
          "type": "address"
        }
      ],
      "stateMutability": "view",
      "type": "function"
    },
    {
      "inputs": [
        {
          "internalType": "address",
          "name": "",
          "type": "address"
        }
      ],
      "name": "whitelistedNodes",
      "outputs": [
        {
          "internalType": "bool",
          "name": "",
          "type": "bool"
        }
      ],
      "stateMutability": "view",
      "type": "function"
    }
  ],
  "bytecode": "0x60806040523480156200001157600080fd5b5060405162001ba238038062001ba2833981810160405281019062000037919062000277565b33600073ffffffffffffffffffffffffffffffffffffffff168173ffffffffffffffffffffffffffffffffffffffff1603620000ad5760006040517f1e4fbdf7000000000000000000000000000000000000000000000000000000008152600401620000a49190620002cf565b60405180910390fd5b620000be816200014960201b60201c565b5081600160006101000a81548173ffffffffffffffffffffffffffffffffffffffff021916908373ffffffffffffffffffffffffffffffffffffffff16021790555080600260006101000a81548173ffffffffffffffffffffffffffffffffffffffff021916908373ffffffffffffffffffffffffffffffffffffffff1602179055505050620002ec565b60008060009054906101000a900473ffffffffffffffffffffffffffffffffffffffff169050816000806101000a81548173ffffffffffffffffffffffffffffffffffffffff021916908373ffffffffffffffffffffffffffffffffffffffff1602179055508173ffffffffffffffffffffffffffffffffffffffff168173ffffffffffffffffffffffffffffffffffffffff167f8be0079c531659141344cd1fd0a4f28419497f9722a3daafe3b4186f6b6457e060405160405180910390a35050565b600080fd5b600073ffffffffffffffffffffffffffffffffffffffff82169050919050565b60006200023f8262000212565b9050919050565b620002518162000232565b81146200025d57600080fd5b50565b600081519050620002718162000246565b92915050565b600080604083850312156200029157620002906200020d565b5b6000620002a18582860162000260565b9250506020620002b48582860162000260565b9150509250929050565b620002c98162000232565b82525050565b6000602082019050620002e66000830184620002be565b92915050565b6118a680620002fc6000396000f3fe608060405234801561001057600080fd5b50600436106100cf5760003560e01c8063769729481161008c5780638da5cb5b116100665780638da5cb5b14610207578063b9ffd9dd14610225578063e854725814610241578063f2fde38b1461025d576100cf565b806376972948146101825780637a15ea67146101b257806381d12c58146101d0576100cf565b80632b7ac3f3146100d45780635437988d146100f25780635bbffbb21461010e5780636a84a9851461012a5780636f30aa2214610148578063715018a614610178575b600080fd5b6100dc610279565b6040516100e99190610d23565b60405180910390f35b61010c60048036038101906101079190610d86565b61029f565b005b61012860048036038101906101239190610deb565b6102eb565b005b61013261034e565b60405161013f9190610e44565b60405180910390f35b610162600480360381019061015d9190610d86565b610354565b60405161016f9190610e6e565b60405180910390f35b610180610374565b005b61019c60048036038101906101979190610f1a565b610388565b6040516101a99190610e44565b60405180910390f35b6101ba6104c2565b6040516101c79190610fe2565b60405180910390f35b6101ea60048036038101906101e59190610ffd565b6104e8565b6040516101fe9897969594939291906110c9565b60405180910390f35b61020f61066d565b60405161021c9190611155565b60405180910390f35b61023f600480360381019061023a9190610d86565b610696565b005b61025b600480360381019061025691906111b4565b6106e2565b005b61027760048036038101906102729190610d86565b610a2e565b005b600260009054906101000a900473ffffffffffffffffffffffffffffffffffffffff1681565b6102a7610ab4565b80600260006101000a81548173ffffffffffffffffffffffffffffffffffffffff021916908373ffffffffffffffffffffffffffffffffffffffff16021790555050565b6102f3610ab4565b80600360008473ffffffffffffffffffffffffffffffffffffffff1673ffffffffffffffffffffffffffffffffffffffff16815260200190815260200160002060006101000a81548160ff0219169083151502179055505050565b60045481565b60036020528060005260406000206000915054906101000a900460ff1681565b61037c610ab4565b6103866000610b3b565b565b6000806004600081548092919061039e9061124c565b919050559050600060056000838152602001908152602001600020905081816000018190555088888260010191826103d79291906114d0565b50338160020160006101000a81548173ffffffffffffffffffffffffffffffffffffffff021916908373ffffffffffffffffffffffffffffffffffffffff16021790555060008160040160006101000a81548160ff0219169083151502179055508681600f0181905550858160100181905550848482601101918261045d9291906114d0565b503373ffffffffffffffffffffffffffffffffffffffff16827f65445418d0a2f902f581119ce888ce3c872dc471220fe4fc76c0e6d73daec8e18b8b8b8b6040516104ab94939291906115dc565b60405180910390a381925050509695505050505050565b600160009054906101000a900473ffffffffffffffffffffffffffffffffffffffff1681565b6005602052806000526040600020600091509050806000015490806001018054610511906112fd565b80601f016020809104026020016040519081016040528092919081815260200182805461053d906112fd565b801561058a5780601f1061055f5761010080835404028352916020019161058a565b820191906000526020600020905b81548152906001019060200180831161056d57829003601f168201915b5050505050908060020160009054906101000a900473ffffffffffffffffffffffffffffffffffffffff16908060030154908060040160009054906101000a900460ff169080600f0154908060100154908060110180546105ea906112fd565b80601f0160208091040260200160405190810160405280929190818152602001828054610616906112fd565b80156106635780601f1061063857610100808354040283529160200191610663565b820191906000526020600020905b81548152906001019060200180831161064657829003601f168201915b5050505050905088565b60008060009054906101000a900473ffffffffffffffffffffffffffffffffffffffff16905090565b61069e610ab4565b80600160006101000a81548173ffffffffffffffffffffffffffffffffffffffff021916908373ffffffffffffffffffffffffffffffffffffffff16021790555050565b600360003373ffffffffffffffffffffffffffffffffffffffff1673ffffffffffffffffffffffffffffffffffffffff16815260200190815260200160002060009054906101000a900460ff1661076e576040517f08c379a000000000000000000000000000000000000000000000000000000000815260040161076590611668565b60405180910390fd5b6000600160009054906101000a900473ffffffffffffffffffffffffffffffffffffffff1673ffffffffffffffffffffffffffffffffffffffff16639168ae72336040518263ffffffff1660e01b81526004016107cb9190611155565b608060405180830381865afa1580156107e8573d6000803e3d6000fd5b505050506040513d601f19601f8201168201806040525081019061080c91906116b2565b935050505080610851576040517f08c379a000000000000000000000000000000000000000000000000000000000815260040161084890611765565b60405180910390fd5b60006005600087815260200190815260200160002090508060040160009054906101000a900460ff16156108ba576040517f08c379a00000000000000000000000000000000000000000000000000000000081526004016108b1906117d1565b60405180910390fd5b600073ffffffffffffffffffffffffffffffffffffffff16600260009054906101000a900473ffffffffffffffffffffffffffffffffffffffff1673ffffffffffffffffffffffffffffffffffffffff161461099e57600260009054906101000a900473ffffffffffffffffffffffffffffffffffffffff1673ffffffffffffffffffffffffffffffffffffffff16635fe24f2385856040518363ffffffff1660e01b815260040161096d92919061181b565b60006040518083038186803b15801561098557600080fd5b505afa158015610999573d6000803e3d6000fd5b505050505b84816003018190555083816005019060086109ba929190610c07565b508281600d019060026109ce929190610c47565b5060018160040160006101000a81548160ff021916908315150217905550857f97597117f5e4854639d80ebb96c4518441d15171ac8a017070633ddf3cc1a3b48686604051610a1e929190611846565b60405180910390a2505050505050565b610a36610ab4565b600073ffffffffffffffffffffffffffffffffffffffff168173ffffffffffffffffffffffffffffffffffffffff1603610aa85760006040517f1e4fbdf7000000000000000000000000000000000000000000000000000000008152600401610a9f9190611155565b60405180910390fd5b610ab181610b3b565b50565b610abc610bff565b73ffffffffffffffffffffffffffffffffffffffff16610ada61066d565b73ffffffffffffffffffffffffffffffffffffffff1614610b3957610afd610bff565b6040517f118cdaa7000000000000000000000000000000000000000000000000000000008152600401610b309190611155565b60405180910390fd5b565b60008060009054906101000a900473ffffffffffffffffffffffffffffffffffffffff169050816000806101000a81548173ffffffffffffffffffffffffffffffffffffffff021916908373ffffffffffffffffffffffffffffffffffffffff1602179055508173ffffffffffffffffffffffffffffffffffffffff168173ffffffffffffffffffffffffffffffffffffffff167f8be0079c531659141344cd1fd0a4f28419497f9722a3daafe3b4186f6b6457e060405160405180910390a35050565b600033905090565b8260088101928215610c36579160200282015b82811115610c35578235825591602001919060010190610c1a565b5b509050610c439190610c87565b5090565b8260028101928215610c76579160200282015b82811115610c75578235825591602001919060010190610c5a565b5b509050610c839190610c87565b5090565b5b80821115610ca0576000816000905550600101610c88565b5090565b600073ffffffffffffffffffffffffffffffffffffffff82169050919050565b6000819050919050565b6000610ce9610ce4610cdf84610ca4565b610cc4565b610ca4565b9050919050565b6000610cfb82610cce565b9050919050565b6000610d0d82610cf0565b9050919050565b610d1d81610d02565b82525050565b6000602082019050610d386000830184610d14565b92915050565b600080fd5b600080fd5b6000610d5382610ca4565b9050919050565b610d6381610d48565b8114610d6e57600080fd5b50565b600081359050610d8081610d5a565b92915050565b600060208284031215610d9c57610d9b610d3e565b5b6000610daa84828501610d71565b91505092915050565b60008115159050919050565b610dc881610db3565b8114610dd357600080fd5b50565b600081359050610de581610dbf565b92915050565b60008060408385031215610e0257610e01610d3e565b5b6000610e1085828601610d71565b9250506020610e2185828601610dd6565b9150509250929050565b6000819050919050565b610e3e81610e2b565b82525050565b6000602082019050610e596000830184610e35565b92915050565b610e6881610db3565b82525050565b6000602082019050610e836000830184610e5f565b92915050565b600080fd5b600080fd5b600080fd5b60008083601f840112610eae57610ead610e89565b5b8235905067ffffffffffffffff811115610ecb57610eca610e8e565b5b602083019150836001820283011115610ee757610ee6610e93565b5b9250929050565b610ef781610e2b565b8114610f0257600080fd5b50565b600081359050610f1481610eee565b92915050565b60008060008060008060808789031215610f3757610f36610d3e565b5b600087013567ffffffffffffffff811115610f5557610f54610d43565b5b610f6189828a01610e98565b96509650506020610f7489828a01610f05565b9450506040610f8589828a01610f05565b935050606087013567ffffffffffffffff811115610fa657610fa5610d43565b5b610fb289828a01610e98565b92509250509295509295509295565b6000610fcc82610cf0565b9050919050565b610fdc81610fc1565b82525050565b6000602082019050610ff76000830184610fd3565b92915050565b60006020828403121561101357611012610d3e565b5b600061102184828501610f05565b91505092915050565b600081519050919050565b600082825260208201905092915050565b60005b83811015611064578082015181840152602081019050611049565b60008484015250505050565b6000601f19601f8301169050919050565b600061108c8261102a565b6110968185611035565b93506110a6818560208601611046565b6110af81611070565b840191505092915050565b6110c381610d48565b82525050565b6000610100820190506110df600083018b610e35565b81810360208301526110f1818a611081565b905061110060408301896110ba565b61110d6060830188610e35565b61111a6080830187610e5f565b61112760a0830186610e35565b61113460c0830185610e35565b81810360e08301526111468184611081565b90509998505050505050505050565b600060208201905061116a60008301846110ba565b92915050565b60008190508260206008028201111561118c5761118b610e93565b5b92915050565b6000819050826020600202820111156111ae576111ad610e93565b5b92915050565b60008060008061018085870312156111cf576111ce610d3e565b5b60006111dd87828801610f05565b94505060206111ee87828801610f05565b93505060406111ff87828801611170565b92505061014061121187828801611192565b91505092959194509250565b7f4e487b7100000000000000000000000000000000000000000000000000000000600052601160045260246000fd5b600061125782610e2b565b91507fffffffffffffffffffffffffffffffffffffffffffffffffffffffffffffffff82036112895761128861121d565b5b600182019050919050565b600082905092915050565b7f4e487b7100000000000000000000000000000000000000000000000000000000600052604160045260246000fd5b7f4e487b7100000000000000000000000000000000000000000000000000000000600052602260045260246000fd5b6000600282049050600182168061131557607f821691505b602082108103611328576113276112ce565b5b50919050565b60008190508160005260206000209050919050565b60006020601f8301049050919050565b600082821b905092915050565b6000600883026113907fffffffffffffffffffffffffffffffffffffffffffffffffffffffffffffffff82611353565b61139a8683611353565b95508019841693508086168417925050509392505050565b60006113cd6113c86113c384610e2b565b610cc4565b610e2b565b9050919050565b6000819050919050565b6113e7836113b2565b6113fb6113f3826113d4565b848454611360565b825550505050565b600090565b611410611403565b61141b8184846113de565b505050565b5b8181101561143f57611434600082611408565b600181019050611421565b5050565b601f821115611484576114558161132e565b61145e84611343565b8101602085101561146d578190505b61148161147985611343565b830182611420565b50505b505050565b600082821c905092915050565b60006114a760001984600802611489565b1980831691505092915050565b60006114c08383611496565b9150826002028217905092915050565b6114da8383611294565b67ffffffffffffffff8111156114f3576114f261129f565b5b6114fd82546112fd565b611508828285611443565b6000601f8311600181146115375760008415611525578287013590505b61152f85826114b4565b865550611597565b601f1984166115458661132e565b60005b8281101561156d57848901358255600182019150602085019450602081019050611548565b8683101561158a5784890135611586601f891682611496565b8355505b6001600288020188555050505b50505050505050565b82818337600083830152505050565b60006115bb8385611035565b93506115c88385846115a0565b6115d183611070565b840190509392505050565b600060608201905081810360008301526115f78186886115af565b90506116066020830185610e35565b6116136040830184610e35565b95945050505050565b7f4e6f742077686974656c69737465640000000000000000000000000000000000600082015250565b6000611652600f83611035565b915061165d8261161c565b602082019050919050565b6000602082019050818103600083015261168181611645565b9050919050565b60008151905061169781610eee565b92915050565b6000815190506116ac81610dbf565b92915050565b600080600080608085870312156116cc576116cb610d3e565b5b60006116da87828801611688565b94505060206116eb87828801611688565b93505060406116fc87828801611688565b925050606061170d8782880161169d565b91505092959194509250565b7f4e6f6465206e6f742061637469766520696e205374616b654775617264000000600082015250565b600061174f601d83611035565b915061175a82611719565b602082019050919050565b6000602082019050818103600083015261177e81611742565b9050919050565b7f416c7265616479207265736f6c76656400000000000000000000000000000000600082015250565b60006117bb601083611035565b91506117c682611785565b602082019050919050565b600060208201905081810360008301526117ea816117ae565b9050919050565b82818337505050565b61180761010083836117f1565b5050565b611817604083836117f1565b5050565b60006101408201905061183160008301856117fa565b61183f61010083018461180b565b9392505050565b60006101208201905061185c6000830185610e35565b61186960208301846117fa565b939250505056fea2646970667358221220e9f71294e23c367dce034eafcec6b84ea8c8e258eaa13faa9935ea26ff53bf6164736f6c63430008140033",
  "linkReferences": {},
  "deployedLinkReferences": {}
}