{
  "_format": "hh-sol-artifact-1",
  "contractName": "ObscuraOracle",
  "sourceName": "contracts/ObscuraOracle.sol",
  "abi": [
    {
      "inputs": [
        {
          "internalType": "address",
          "name": "_token",
          "type": "address"
        },
        {
          "internalType": "address",
          "name": "_stakeGuard",
          "type": "address"
        },
        {
          "internalType": "address",
          "name": "_verifier",
          "type": "address"
        }
      ],
      "stateMutability": "nonpayable",
      "type": "constructor"
    },
    {
      "inputs": [
        {
          "internalType": "address",
          "name": "owner",
          "type": "address"
        }
      ],
      "name": "OwnableInvalidOwner",
      "type": "error"
    },
    {
      "inputs": [
        {
          "internalType": "address",
          "name": "account",
          "type": "address"
        }
      ],
      "name": "OwnableUnauthorizedAccount",
      "type": "error"
    },
    {
      "inputs": [],
      "name": "ReentrancyGuardReentrantCall",
      "type": "error"
    },
    {
      "anonymous": false,
      "inputs": [
        {
          "indexed": true,
          "internalType": "uint256",
          "name": "requestId",
          "type": "uint256"
        },
        {
          "indexed": true,
          "internalType": "address",
          "name": "node",
          "type": "address"
        },
        {
          "indexed": false,
          "internalType": "uint256",
          "name": "value",
          "type": "uint256"
        }
      ],
      "name": "DataSubmitted",
      "type": "event"
    },
    {
      "anonymous": false,
      "inputs": [
        {
          "indexed": true,
          "internalType": "address",
          "name": "previousOwner",
          "type": "address"
        },
        {
          "indexed": true,
          "internalType": "address",
          "name": "newOwner",
          "type": "address"
        }
      ],
      "name": "OwnershipTransferred",
      "type": "event"
    },
    {
      "anonymous": false,
      "inputs": [
        {
          "indexed": true,
          "internalType": "uint256",
          "name": "requestId",
          "type": "uint256"
        },
        {
          "indexed": false,
          "internalType": "string",
          "name": "apiUrl",
          "type": "string"
        },
        {
          "indexed": false,
          "internalType": "uint256",
          "name": "min",
          "type": "uint256"
        },
        {
          "indexed": false,
          "internalType": "uint256",
          "name": "max",
          "type": "uint256"
        },
        {
          "indexed": true,
          "internalType": "address",
          "name": "requester",
          "type": "address"
        }
      ],
      "name": "RequestData",
      "type": "event"
    },
    {
      "anonymous": false,
      "inputs": [
        {
          "indexed": true,
          "internalType": "uint256",
          "name": "requestId",
          "type": "uint256"
        },
        {
          "indexed": false,
          "internalType": "uint256",
          "name": "finalValue",
          "type": "uint256"
        }
      ],
      "name": "RequestFulfilled",
      "type": "event"
    },
    {
      "inputs": [],
      "name": "MAX_DEVIATION",
      "outputs": [
        {
          "internalType": "uint256",
          "name": "",
          "type": "uint256"
        }
      ],
      "stateMutability": "view",
      "type": "function"
    },
    {
      "inputs": [],
      "name": "REWARD_PERCENT",
      "outputs": [
        {
          "internalType": "uint256",
          "name": "",
          "type": "uint256"
        }
      ],
      "stateMutability": "view",
      "type": "function"
    },
    {
      "inputs": [],
      "name": "SLASH_AMOUNT",
      "outputs": [
        {
          "internalType": "uint256",
          "name": "",
          "type": "uint256"
        }
      ],
      "stateMutability": "view",
      "type": "function"
    },
    {
      "inputs": [],
      "name": "TIMEOUT",
      "outputs": [
        {
          "internalType": "uint256",
          "name": "",
          "type": "uint256"
        }
      ],
      "stateMutability": "view",
      "type": "function"
    },
    {
      "inputs": [
        {
          "internalType": "uint256",
          "name": "requestId",
          "type": "uint256"
        }
      ],
      "name": "cancelRequest",
      "outputs": [],
      "stateMutability": "nonpayable",
      "type": "function"
    },
    {
      "inputs": [],
      "name": "claimRewards",
      "outputs": [],
      "stateMutability": "nonpayable",
      "type": "function"
    },
    {
      "inputs": [
        {
          "internalType": "uint256",
          "name": "requestId",
          "type": "uint256"
        }
      ],
      "name": "forceFinalize",
      "outputs": [],
      "stateMutability": "nonpayable",
      "type": "function"
    },
    {
      "inputs": [
        {
          "internalType": "uint256",
          "name": "requestId",
          "type": "uint256"
        },
        {
          "internalType": "uint256",
          "name": "value",
          "type": "uint256"
        },
        {
          "internalType": "uint256[8]",
          "name": "zkpProof",
          "type": "uint256[8]"
        },
        {
          "internalType": "uint256[2]",
          "name": "publicInputs",
          "type": "uint256[2]"
        }
      ],
      "name": "fulfillData",
      "outputs": [],
      "stateMutability": "nonpayable",
      "type": "function"
    },
    {
      "inputs": [],
      "name": "minResponses",
      "outputs": [
        {
          "internalType": "uint256",
          "name": "",
          "type": "uint256"
        }
      ],
      "stateMutability": "view",
      "type": "function"
    },
    {
      "inputs": [],
      "name": "nextRequestId",
      "outputs": [
        {
          "internalType": "uint256",
          "name": "",
          "type": "uint256"
        }
      ],
      "stateMutability": "view",
      "type": "function"
    },
    {
      "inputs": [
        {
          "internalType": "address",
          "name": "",
          "type": "address"
        }
      ],
      "name": "nodeRewards",
      "outputs": [
        {
          "internalType": "uint256",
          "name": "",
          "type": "uint256"
        }
      ],
      "stateMutability": "view",
      "type": "function"
    },
    {
      "inputs": [],
      "name": "obscuraToken",
      "outputs": [
        {
          "internalType": "contract IERC20",
          "name": "",
          "type": "address"
        }
      ],
      "stateMutability": "view",
      "type": "function"
    },
    {
      "inputs": [],
      "name": "owner",
      "outputs": [
        {
          "internalType": "address",
          "name": "",
          "type": "address"
        }
      ],
      "stateMutability": "view",
      "type": "function"
    },
    {
      "inputs": [],
      "name": "paymentFee",
      "outputs": [
        {
          "internalType": "uint256",
          "name": "",
          "type": "uint256"
        }
      ],
      "stateMutability": "view",
      "type": "function"
    },
    {
      "inputs": [],
      "name": "renounceOwnership",
      "outputs": [],
      "stateMutability": "nonpayable",
      "type": "function"
    },
    {
      "inputs": [
        {
          "internalType": "string",
          "name": "apiUrl",
          "type": "string"
        },
        {
          "internalType": "uint256",
          "name": "min",
          "type": "uint256"
        },
        {
          "internalType": "uint256",
          "name": "max",
          "type": "uint256"
        },
        {
          "internalType": "string",
          "name": "metadata",
          "type": "string"
        }
      ],
      "name": "requestData",
      "outputs": [
        {
          "internalType": "uint256",
          "name": "",
          "type": "uint256"
        }
      ],
      "stateMutability": "nonpayable",
      "type": "function"
    },
    {
      "inputs": [
        {
          "internalType": "uint256",
          "name": "",
          "type": "uint256"
        }
      ],
      "name": "requests",
      "outputs": [
        {
          "internalType": "uint256",
          "name": "id",
          "type": "uint256"
        },
        {
          "internalType": "string",
          "name": "apiUrl",
          "type": "string"
        },
        {
          "internalType": "address",
          "name": "requester",
          "type": "address"
        },
        {
          "internalType": "bool",
          "name": "resolved",
          "type": "bool"
        },
        {
          "internalType": "uint256",
          "name": "finalValue",
          "type": "uint256"
        },
        {
          "internalType": "uint256",
          "name": "createdAt",
          "type": "uint256"
        },
        {
          "internalType": "uint256",
          "name": "minThreshold",
          "type": "uint256"
        },
        {
          "internalType": "uint256",
          "name": "maxThreshold",
          "type": "uint256"
        },
        {
          "internalType": "string",
          "name": "metadata",
          "type": "string"
        }
      ],
      "stateMutability": "view",
      "type": "function"
    },
    {
      "inputs": [
        {
          "internalType": "uint256",
          "name": "_fee",
          "type": "uint256"
        }
      ],
      "name": "setFee",
      "outputs": [],
      "stateMutability": "nonpayable",
      "type": "function"
    },
    {
      "inputs": [
        {
          "internalType": "uint256",
          "name": "_min",
          "type": "uint256"
        }
      ],
      "name": "setMinResponses",
      "outputs": [],
      "stateMutability": "nonpayable",
      "type": "function"
    },
    {
      "inputs": [
        {
          "internalType": "address",
          "name": "_node",
          "type": "address"
        },
        {
          "internalType": "bool",
          "name": "_status",
          "type": "bool"
        }
      ],
      "name": "setNodeWhitelist",
      "outputs": [],
      "stateMutability": "nonpayable",
      "type": "function"
    },
    {
      "inputs": [
        {
          "internalType": "address",
          "name": "_stakeGuard",
          "type": "address"
        }
      ],
      "name": "setStakeGuard",
      "outputs": [],
      "stateMutability": "nonpayable",
      "type": "function"
    },
    {
      "inputs": [
        {
          "internalType": "address",
          "name": "_verifier",
          "type": "address"
        }
      ],
      "name": "setVerifier",
      "outputs": [],
      "stateMutability": "nonpayable",
      "type": "function"
    },
    {
      "inputs": [],
      "name": "stakeGuard",
      "outputs": [
        {
          "internalType": "contract IStakeGuard",
          "name": "",
          "type": "address"
        }
      ],
      "stateMutability": "view",
      "type": "function"
    },
    {
      "inputs": [
        {
          "internalType": "address",
          "name": "newOwner",
          "type": "address"
        }
      ],
      "name": "transferOwnership",
      "outputs": [],
      "stateMutability": "nonpayable",
      "type": "function"
    },
    {
      "inputs": [],
      "name": "verifier",
      "outputs": [
        {
          "internalType": "contract IVerifier",
          "name": "",
          "type": "address"
        }
      ],
      "stateMutability": "view",
      "type": "function"
    },
    {
      "inputs": [
        {
          "internalType": "address",
          "name": "",
          "type": "address"
        }
      ],
      "name": "whitelistedNodes",
      "outputs": [
        {
          "internalType": "bool",
          "name": "",
          "type": "bool"
        }
      ],
      "stateMutability": "view",
      "type": "function"
    },
    {
      "inputs": [],
      "name": "withdrawFees",
      "outputs": [],
      "stateMutability": "nonpayable",
      "type": "function"
    }
  ],
  "bytecode": "0x6080604052670de0b6b3a764000060055560016006553480156200002257600080fd5b5060405162001b9238038062001b9283398101604081905262000045916200012c565b33806200006c57604051631e4fbdf760e01b81526000600482015260240160405180910390fd5b6200007781620000bf565b5060018055600280546001600160a01b039485166001600160a01b03199182161790915560038054938516938216939093179092556004805491909316911617905562000176565b600080546001600160a01b038381166001600160a01b0319831681178455604051919092169283917f8be0079c531659141344cd1fd0a4f28419497f9722a3daafe3b4186f6b6457e09190a35050565b80516001600160a01b03811681146200012757600080fd5b919050565b6000806000606084860312156200014257600080fd5b6200014d846200010f565b92506200015d602085016200010f565b91506200016d604085016200010f565b90509250925092565b611a0c80620001866000396000f3fe608060405234801561001057600080fd5b50600436106101a95760003560e01c80636f30aa22116100f9578063b05f233a11610097578063e7b6ecff11610071578063e7b6ecff14610377578063e85472581461038a578063f2fde38b1461039d578063f56f48f2146103b057600080fd5b8063b05f233a14610353578063b9ffd9dd1461035b578063c4c326481461036e57600080fd5b8063770ce3d8116100d3578063770ce3d8146102e75780637a15ea671461030757806381d12c581461031a5780638da5cb5b1461034257600080fd5b80636f30aa2214610299578063715018a6146102cc57806376972948146102d457600080fd5b806341787377116101665780635bbffbb2116101405780635bbffbb21461026157806369fe0e2d146102745780636a84a985146102875780636ef06a081461029057600080fd5b80634178737714610233578063476343ee146102465780635437988d1461024e57600080fd5b806306fbedbe146101ae578063231f1457146101c95780632b7ac3f3146101de5780633015394c14610209578063372500ab1461021c5780633772060614610224575b600080fd5b6101b6605a81565b6040519081526020015b60405180910390f35b6101dc6101d7366004611478565b6103b9565b005b6004546101f1906001600160a01b031681565b6040516001600160a01b0390911681526020016101c0565b6101dc610217366004611478565b6103c6565b6101dc6105ac565b6101b6678ac7230489e8000081565b6002546101f1906001600160a01b031681565b6101dc6106d9565b6101dc61025c3660046114a8565b6107c8565b6101dc61026f3660046114d8565b6107f2565b6101dc610282366004611478565b610825565b6101b660095481565b6101b660055481565b6102bc6102a73660046114a8565b60076020526000908152604090205460ff1681565b60405190151581526020016101c0565b6101dc610832565b6101b66102e2366004611558565b610844565b6101b66102f53660046114a8565b60086020526000908152604090205481565b6003546101f1906001600160a01b031681565b61032d610328366004611478565b6109dd565b6040516101c099989796959493929190611621565b6000546001600160a01b03166101f1565b6101b6603281565b6101dc6103693660046114a8565b610b4a565b6101b660065481565b6101dc610385366004611478565b610b74565b6101dc61039836600461168e565b610b85565b6101dc6103ab3660046114a8565b610ea7565b6101b6610e1081565b6103c1610ee2565b600655565b6103ce610f0f565b6000818152600a6020526040902060028101546001600160a01b031633146104315760405162461bcd60e51b81526020600482015260116024820152702737ba103a3432903932b8bab2b9ba32b960791b60448201526064015b60405180910390fd5b6002810154600160a01b900460ff16156104805760405162461bcd60e51b815260206004820152601060248201526f105b1c9958591e481c995cdbdb1d995960821b6044820152606401610428565b610e10816004015461049291906116fa565b42116104d65760405162461bcd60e51b8152602060048201526013602482015272151a5b595bdd5d081b9bdd081c995858da1959606a1b6044820152606401610428565b6002818101805460ff60a01b1916600160a01b1790555460055460405163a9059cbb60e01b815233600482015260248101919091526001600160a01b039091169063a9059cbb906044016020604051808303816000875af115801561053f573d6000803e3d6000fd5b505050506040513d601f19601f82011682018060405250810190610563919061170d565b61059f5760405162461bcd60e51b815260206004820152600d60248201526c1499599d5b990819985a5b1959609a1b6044820152606401610428565b506105a960018055565b50565b6105b4610f0f565b33600090815260086020526040902054806106075760405162461bcd60e51b81526020600482015260136024820152724e6f207265776172647320746f20636c61696d60681b6044820152606401610428565b3360008181526008602052604080822091909155600254905163a9059cbb60e01b81526004810192909252602482018390526001600160a01b03169063a9059cbb906044016020604051808303816000875af115801561066b573d6000803e3d6000fd5b505050506040513d601f19601f8201168201806040525081019061068f919061170d565b6106cd5760405162461bcd60e51b815260206004820152600f60248201526e151c985b9cd9995c8819985a5b1959608a1b6044820152606401610428565b506106d760018055565b565b6106e1610ee2565b6002546040516370a0823160e01b81523060048201526000916001600160a01b0316906370a0823190602401602060405180830381865afa15801561072a573d6000803e3d6000fd5b505050506040513d601f19601f8201168201806040525081019061074e919061172a565b60025460405163a9059cbb60e01b8152336004820152602481018390529192506001600160a01b03169063a9059cbb906044016020604051808303816000875af11580156107a0573d6000803e3d6000fd5b505050506040513d601f19601f820116820180604052508101906107c4919061170d565b5050565b6107d0610ee2565b600480546001600160a01b0319166001600160a01b0392909216919091179055565b6107fa610ee2565b6001600160a01b03919091166000908152600760205260409020805460ff1916911515919091179055565b61082d610ee2565b600555565b61083a610ee2565b6106d76000610f39565b600061084e610f0f565b6002546005546040516323b872dd60e01b815233600482015230602482015260448101919091526001600160a01b03909116906323b872dd906064016020604051808303816000875af11580156108a9573d6000803e3d6000fd5b505050506040513d601f19601f820116820180604052508101906108cd919061170d565b61090e5760405162461bcd60e51b8152602060048201526012602482015271119959481c185e5b595b9d0819985a5b195960721b6044820152606401610428565b600980546000918261091f83611743565b909155506000818152600a6020526040902081815590915060018101610946898b836117fb565b506002810180546001600160a01b0319163317905542600482015560058101879055600681018690556007810161097e8587836117fb565b50336001600160a01b0316827f65445418d0a2f902f581119ce888ce3c872dc471220fe4fc76c0e6d73daec8e18b8b8b8b6040516109bf94939291906118bc565b60405180910390a35090506109d360018055565b9695505050505050565b600a60205260009081526040902080546001820180549192916109ff90611772565b80601f0160208091040260200160405190810160405280929190818152602001828054610a2b90611772565b8015610a785780601f10610a4d57610100808354040283529160200191610a78565b820191906000526020600020905b815481529060010190602001808311610a5b57829003601f168201915b505050506002830154600384015460048501546005860154600687015460078801805497986001600160a01b03871698600160a01b90970460ff169750949593949293919291610ac790611772565b80601f0160208091040260200160405190810160405280929190818152602001828054610af390611772565b8015610b405780601f10610b1557610100808354040283529160200191610b40565b820191906000526020600020905b815481529060010190602001808311610b2357829003601f168201915b5050505050905089565b610b52610ee2565b600380546001600160a01b0319166001600160a01b0392909216919091179055565b610b7c610ee2565b6105a981610f89565b610b8d610f0f565b3360009081526007602052604090205460ff16610bde5760405162461bcd60e51b815260206004820152600f60248201526e139bdd081dda1a5d195b1a5cdd1959608a1b6044820152606401610428565b6003546040516348b4573960e11b81523360048201526000916001600160a01b031690639168ae7290602401608060405180830381865afa158015610c27573d6000803e3d6000fd5b505050506040513d601f19601f82011682018060405250810190610c4b91906118fc565b935050505080610c9d5760405162461bcd60e51b815260206004820152601d60248201527f4e6f6465206e6f742061637469766520696e205374616b6547756172640000006044820152606401610428565b6000858152600a602052604090206002810154600160a01b900460ff1615610d075760405162461bcd60e51b815260206004820152601860248201527f5265717565737420616c7265616479207265736f6c76656400000000000000006044820152606401610428565b33600090815260098201602052604090205460ff1615610d5d5760405162461bcd60e51b8152602060048201526011602482015270105b1c9958591e481c995cdc1bdb991959607a1b6044820152606401610428565b6004546001600160a01b031615801590610d75575060015b15610ddc5760048054604051635fe24f2360e01b81526001600160a01b0390911691635fe24f2391610dab91889188910161193d565b60006040518083038186803b158015610dc357600080fd5b505afa158015610dd7573d6000803e3d6000fd5b505050505b6040805180820182523380825260208083018981526008860180546001808201835560009283528483209651600290920290960180546001600160a01b0319166001600160a01b03909216919091178155915191850191909155828152600986018252849020805460ff1916909317909255915187815288917fc2af2237b2cd9e2e41495402b40b373744eff683f8123d61e07c0291e166dbe7910160405180910390a3600654600882015410610e9657610e9686610f89565b5050610ea160018055565b50505050565b610eaf610ee2565b6001600160a01b038116610ed957604051631e4fbdf760e01b815260006004820152602401610428565b6105a981610f39565b6000546001600160a01b031633146106d75760405163118cdaa760e01b8152336004820152602401610428565b600260015403610f3257604051633ee5aeb560e01b815260040160405180910390fd5b6002600155565b600080546001600160a01b038381166001600160a01b0319831681178455604051919092169283917f8be0079c531659141344cd1fd0a4f28419497f9722a3daafe3b4186f6b6457e09190a35050565b6000818152600a60205260408120600881015490919067ffffffffffffffff811115610fb757610fb761175c565b604051908082528060200260200182016040528015610fe0578160200160208202803683370190505b50905060005b60088301548110156110485782600801818154811061100757611007611958565b90600052602060002090600202016001015482828151811061102b5761102b611958565b60209081029190910101528061104081611743565b915050610fe6565b506000611054826112bd565b6003840181905560028401805460ff60a01b1916600160a01b17905560088401549091501561127d5760006064605a600554611090919061196e565b61109a919061199b565b60088501549091506000906110af908361199b565b905060005b60088601548110156112795760008660080182815481106110d7576110d7611958565b600091825260208220600290910201546008890180546001600160a01b039092169350908490811061110b5761110b611958565b60009182526020822060016002909202010154915086156111815760646111336032826116fa565b61113d908961196e565b611147919061199b565b8211806111735750606461115c6032826119af565b611166908961196e565b611170919061199b565b82105b1561117c575060015b61118b565b811561118b575060015b8015611235576003546040516333c59f7160e11b81526001600160a01b038581166004830152678ac7230489e80000602483015260606044830152601760648301527f507269636520646576696174696f6e206f75746c69657200000000000000000060848301529091169063678b3ee29060a401600060405180830381600087803b15801561121a57600080fd5b505af192505050801561122b575060015b1561126357611263565b6001600160a01b0383166000908152600860205260408120805487929061125d9084906116fa565b90915550505b505050808061127190611743565b9150506110b4565b5050505b837f5c69e7026b653d8606b5613bb00fd8c4b0504b1cbe8db600c406faac180924d5826040516112af91815260200190565b60405180910390a250505050565b6000805b82518110156113b95760006112d78260016116fa565b90505b83518110156113a6578381815181106112f5576112f5611958565b602002602001015184838151811061130f5761130f611958565b6020026020010151111561139457600084838151811061133157611331611958565b6020026020010151905084828151811061134d5761134d611958565b602002602001015185848151811061136757611367611958565b6020026020010181815250508085838151811061138657611386611958565b602002602001018181525050505b8061139e81611743565b9150506112da565b50806113b181611743565b9150506112c1565b50600282516113c891906119c2565b60000361144557600282600284516113e0919061199b565b815181106113f0576113f0611958565b602002602001015183600160028651611409919061199b565b61141391906119af565b8151811061142357611423611958565b602002602001015161143591906116fa565b61143f919061199b565b92915050565b8160028351611454919061199b565b8151811061146457611464611958565b60200260200101519050919050565b919050565b60006020828403121561148a57600080fd5b5035919050565b80356001600160a01b038116811461147357600080fd5b6000602082840312156114ba57600080fd5b6114c382611491565b9392505050565b80151581146105a957600080fd5b600080604083850312156114eb57600080fd5b6114f483611491565b91506020830135611504816114ca565b809150509250929050565b60008083601f84011261152157600080fd5b50813567ffffffffffffffff81111561153957600080fd5b60208301915083602082850101111561155157600080fd5b9250929050565b6000806000806000806080878903121561157157600080fd5b863567ffffffffffffffff8082111561158957600080fd5b6115958a838b0161150f565b9098509650602089013595506040890135945060608901359150808211156115bc57600080fd5b506115c989828a0161150f565b979a9699509497509295939492505050565b6000815180845260005b81811015611601576020818501810151868301820152016115e5565b506000602082860101526020601f19601f83011685010191505092915050565b60006101208b835280602084015261163b8184018c6115db565b905060018060a01b038a16604084015288151560608401528760808401528660a08401528560c08401528460e084015282810361010084015261167e81856115db565b9c9b505050505050505050505050565b6000806000806101808086880312156116a657600080fd5b85359450602086013593506101408601878111156116c357600080fd5b6040870193508782880111156116d857600080fd5b94979396509194505050565b634e487b7160e01b600052601160045260246000fd5b8082018082111561143f5761143f6116e4565b60006020828403121561171f57600080fd5b81516114c3816114ca565b60006020828403121561173c57600080fd5b5051919050565b600060018201611755576117556116e4565b5060010190565b634e487b7160e01b600052604160045260246000fd5b600181811c9082168061178657607f821691505b6020821081036117a657634e487b7160e01b600052602260045260246000fd5b50919050565b601f8211156117f657600081815260208120601f850160051c810160208610156117d35750805b601f850160051c820191505b818110156117f2578281556001016117df565b5050505b505050565b67ffffffffffffffff8311156118135761181361175c565b611827836118218354611772565b836117ac565b6000601f84116001811461185b57600085156118435750838201355b600019600387901b1c1916600186901b1783556118b5565b600083815260209020601f19861690835b8281101561188c578685013582556020948501946001909201910161186c565b50868210156118a95760001960f88860031b161c19848701351681555b505060018560011b0183555b5050505050565b606081528360608201528385608083013760006080858301015260006080601f19601f870116830101905083602083015282604083015295945050505050565b6000806000806080858703121561191257600080fd5b8451935060208501519250604085015191506060850151611932816114ca565b939692955090935050565b61014081016101008085843760408482850137509392505050565b634e487b7160e01b600052603260045260246000fd5b808202811582820484141761143f5761143f6116e4565b634e487b7160e01b600052601260045260246000fd5b6000826119aa576119aa611985565b500490565b8181038181111561143f5761143f6116e4565b6000826119d1576119d1611985565b50069056fea2646970667358221220feece7ae2b8d74a145c034cb48897063bd53c620b9403345fe7a7c2a011dfcbd64736f6c63430008140033",
  "linkReferences": {},
  "deployedLinkReferences": {}
}