{
  "_format": "hh-sol-artifact-1",
  "contractName": "ObscuraOracle",
  "sourceName": "contracts/ObscuraOracle.sol",
  "abi": [
    {
      "inputs": [
        {
          "internalType": "address",
          "name": "_token",
          "type": "address"
        },
        {
          "internalType": "address",
          "name": "_stakeGuard",
          "type": "address"
        },
        {
          "internalType": "address",
          "name": "_verifier",
          "type": "address"
        }
      ],
      "stateMutability": "nonpayable",
      "type": "constructor"
    },
    {
      "inputs": [],
      "name": "AccessControlBadConfirmation",
      "type": "error"
    },
    {
      "inputs": [
        {
          "internalType": "address",
          "name": "account",
          "type": "address"
        },
        {
          "internalType": "bytes32",
          "name": "neededRole",
          "type": "bytes32"
        }
      ],
      "name": "AccessControlUnauthorizedAccount",
      "type": "error"
    },
    {
      "inputs": [],
      "name": "EnforcedPause",
      "type": "error"
    },
    {
      "inputs": [],
      "name": "ExpectedPause",
      "type": "error"
    },
    {
      "inputs": [],
      "name": "ReentrancyGuardReentrantCall",
      "type": "error"
    },
    {
      "anonymous": false,
      "inputs": [
        {
          "indexed": true,
          "internalType": "uint256",
          "name": "requestId",
          "type": "uint256"
        },
        {
          "indexed": true,
          "internalType": "address",
          "name": "node",
          "type": "address"
        },
        {
          "indexed": false,
          "internalType": "uint256",
          "name": "value",
          "type": "uint256"
        }
      ],
      "name": "DataSubmitted",
      "type": "event"
    },
    {
      "anonymous": false,
      "inputs": [
        {
          "indexed": false,
          "internalType": "address",
          "name": "account",
          "type": "address"
        }
      ],
      "name": "Paused",
      "type": "event"
    },
    {
      "anonymous": false,
      "inputs": [
        {
          "indexed": true,
          "internalType": "uint256",
          "name": "requestId",
          "type": "uint256"
        },
        {
          "indexed": false,
          "internalType": "uint256",
          "name": "randomness",
          "type": "uint256"
        }
      ],
      "name": "RandomnessFulfilled",
      "type": "event"
    },
    {
      "anonymous": false,
      "inputs": [
        {
          "indexed": true,
          "internalType": "uint256",
          "name": "requestId",
          "type": "uint256"
        },
        {
          "indexed": false,
          "internalType": "string",
          "name": "seed",
          "type": "string"
        },
        {
          "indexed": true,
          "internalType": "address",
          "name": "requester",
          "type": "address"
        }
      ],
      "name": "RandomnessRequested",
      "type": "event"
    },
    {
      "anonymous": false,
      "inputs": [
        {
          "indexed": true,
          "internalType": "uint256",
          "name": "requestId",
          "type": "uint256"
        },
        {
          "indexed": false,
          "internalType": "string",
          "name": "apiUrl",
          "type": "string"
        },
        {
          "indexed": false,
          "internalType": "uint256",
          "name": "min",
          "type": "uint256"
        },
        {
          "indexed": false,
          "internalType": "uint256",
          "name": "max",
          "type": "uint256"
        },
        {
          "indexed": true,
          "internalType": "address",
          "name": "requester",
          "type": "address"
        }
      ],
      "name": "RequestData",
      "type": "event"
    },
    {
      "anonymous": false,
      "inputs": [
        {
          "indexed": true,
          "internalType": "uint256",
          "name": "requestId",
          "type": "uint256"
        },
        {
          "indexed": false,
          "internalType": "uint256",
          "name": "finalValue",
          "type": "uint256"
        }
      ],
      "name": "RequestFulfilled",
      "type": "event"
    },
    {
      "anonymous": false,
      "inputs": [
        {
          "indexed": true,
          "internalType": "bytes32",
          "name": "role",
          "type": "bytes32"
        },
        {
          "indexed": true,
          "internalType": "bytes32",
          "name": "previousAdminRole",
          "type": "bytes32"
        },
        {
          "indexed": true,
          "internalType": "bytes32",
          "name": "newAdminRole",
          "type": "bytes32"
        }
      ],
      "name": "RoleAdminChanged",
      "type": "event"
    },
    {
      "anonymous": false,
      "inputs": [
        {
          "indexed": true,
          "internalType": "bytes32",
          "name": "role",
          "type": "bytes32"
        },
        {
          "indexed": true,
          "internalType": "address",
          "name": "account",
          "type": "address"
        },
        {
          "indexed": true,
          "internalType": "address",
          "name": "sender",
          "type": "address"
        }
      ],
      "name": "RoleGranted",
      "type": "event"
    },
    {
      "anonymous": false,
      "inputs": [
        {
          "indexed": true,
          "internalType": "bytes32",
          "name": "role",
          "type": "bytes32"
        },
        {
          "indexed": true,
          "internalType": "address",
          "name": "account",
          "type": "address"
        },
        {
          "indexed": true,
          "internalType": "address",
          "name": "sender",
          "type": "address"
        }
      ],
      "name": "RoleRevoked",
      "type": "event"
    },
    {
      "anonymous": false,
      "inputs": [
        {
          "indexed": false,
          "internalType": "address",
          "name": "account",
          "type": "address"
        }
      ],
      "name": "Unpaused",
      "type": "event"
    },
    {
      "inputs": [],
      "name": "ADMIN_ROLE",
      "outputs": [
        {
          "internalType": "bytes32",
          "name": "",
          "type": "bytes32"
        }
      ],
      "stateMutability": "view",
      "type": "function"
    },
    {
      "inputs": [],
      "name": "DEFAULT_ADMIN_ROLE",
      "outputs": [
        {
          "internalType": "bytes32",
          "name": "",
          "type": "bytes32"
        }
      ],
      "stateMutability": "view",
      "type": "function"
    },
    {
      "inputs": [],
      "name": "MAX_DEVIATION",
      "outputs": [
        {
          "internalType": "uint256",
          "name": "",
          "type": "uint256"
        }
      ],
      "stateMutability": "view",
      "type": "function"
    },
    {
      "inputs": [],
      "name": "REWARD_PERCENT",
      "outputs": [
        {
          "internalType": "uint256",
          "name": "",
          "type": "uint256"
        }
      ],
      "stateMutability": "view",
      "type": "function"
    },
    {
      "inputs": [],
      "name": "SLASHER_ROLE",
      "outputs": [
        {
          "internalType": "bytes32",
          "name": "",
          "type": "bytes32"
        }
      ],
      "stateMutability": "view",
      "type": "function"
    },
    {
      "inputs": [],
      "name": "SLASH_AMOUNT",
      "outputs": [
        {
          "internalType": "uint256",
          "name": "",
          "type": "uint256"
        }
      ],
      "stateMutability": "view",
      "type": "function"
    },
    {
      "inputs": [],
      "name": "TIMEOUT",
      "outputs": [
        {
          "internalType": "uint256",
          "name": "",
          "type": "uint256"
        }
      ],
      "stateMutability": "view",
      "type": "function"
    },
    {
      "inputs": [
        {
          "internalType": "uint256",
          "name": "requestId",
          "type": "uint256"
        }
      ],
      "name": "cancelRequest",
      "outputs": [],
      "stateMutability": "nonpayable",
      "type": "function"
    },
    {
      "inputs": [],
      "name": "claimRewards",
      "outputs": [],
      "stateMutability": "nonpayable",
      "type": "function"
    },
    {
      "inputs": [
        {
          "internalType": "uint256",
          "name": "requestId",
          "type": "uint256"
        }
      ],
      "name": "forceFinalize",
      "outputs": [],
      "stateMutability": "nonpayable",
      "type": "function"
    },
    {
      "inputs": [
        {
          "internalType": "uint256",
          "name": "requestId",
          "type": "uint256"
        },
        {
          "internalType": "uint256",
          "name": "value",
          "type": "uint256"
        },
        {
          "internalType": "uint256[8]",
          "name": "zkpProof",
          "type": "uint256[8]"
        },
        {
          "internalType": "uint256[2]",
          "name": "publicInputs",
          "type": "uint256[2]"
        }
      ],
      "name": "fulfillData",
      "outputs": [],
      "stateMutability": "nonpayable",
      "type": "function"
    },
    {
      "inputs": [
        {
          "internalType": "uint256",
          "name": "requestId",
          "type": "uint256"
        },
        {
          "internalType": "uint256",
          "name": "randomness",
          "type": "uint256"
        },
        {
          "internalType": "bytes",
          "name": "proof",
          "type": "bytes"
        }
      ],
      "name": "fulfillRandomness",
      "outputs": [],
      "stateMutability": "nonpayable",
      "type": "function"
    },
    {
      "inputs": [
        {
          "internalType": "bytes32",
          "name": "role",
          "type": "bytes32"
        }
      ],
      "name": "getRoleAdmin",
      "outputs": [
        {
          "internalType": "bytes32",
          "name": "",
          "type": "bytes32"
        }
      ],
      "stateMutability": "view",
      "type": "function"
    },
    {
      "inputs": [
        {
          "internalType": "bytes32",
          "name": "role",
          "type": "bytes32"
        },
        {
          "internalType": "address",
          "name": "account",
          "type": "address"
        }
      ],
      "name": "grantRole",
      "outputs": [],
      "stateMutability": "nonpayable",
      "type": "function"
    },
    {
      "inputs": [
        {
          "internalType": "bytes32",
          "name": "role",
          "type": "bytes32"
        },
        {
          "internalType": "address",
          "name": "account",
          "type": "address"
        }
      ],
      "name": "hasRole",
      "outputs": [
        {
          "internalType": "bool",
          "name": "",
          "type": "bool"
        }
      ],
      "stateMutability": "view",
      "type": "function"
    },
    {
      "inputs": [],
      "name": "minResponses",
      "outputs": [
        {
          "internalType": "uint256",
          "name": "",
          "type": "uint256"
        }
      ],
      "stateMutability": "view",
      "type": "function"
    },
    {
      "inputs": [],
      "name": "nextRandomnessId",
      "outputs": [
        {
          "internalType": "uint256",
          "name": "",
          "type": "uint256"
        }
      ],
      "stateMutability": "view",
      "type": "function"
    },
    {
      "inputs": [],
      "name": "nextRequestId",
      "outputs": [
        {
          "internalType": "uint256",
          "name": "",
          "type": "uint256"
        }
      ],
      "stateMutability": "view",
      "type": "function"
    },
    {
      "inputs": [
        {
          "internalType": "address",
          "name": "",
          "type": "address"
        }
      ],
      "name": "nodeRewards",
      "outputs": [
        {
          "internalType": "uint256",
          "name": "",
          "type": "uint256"
        }
      ],
      "stateMutability": "view",
      "type": "function"
    },
    {
      "inputs": [],
      "name": "obscuraToken",
      "outputs": [
        {
          "internalType": "contract IERC20",
          "name": "",
          "type": "address"
        }
      ],
      "stateMutability": "view",
      "type": "function"
    },
    {
      "inputs": [],
      "name": "pause",
      "outputs": [],
      "stateMutability": "nonpayable",
      "type": "function"
    },
    {
      "inputs": [],
      "name": "paused",
      "outputs": [
        {
          "internalType": "bool",
          "name": "",
          "type": "bool"
        }
      ],
      "stateMutability": "view",
      "type": "function"
    },
    {
      "inputs": [],
      "name": "paymentFee",
      "outputs": [
        {
          "internalType": "uint256",
          "name": "",
          "type": "uint256"
        }
      ],
      "stateMutability": "view",
      "type": "function"
    },
    {
      "inputs": [
        {
          "internalType": "uint256",
          "name": "",
          "type": "uint256"
        }
      ],
      "name": "randomnessRequests",
      "outputs": [
        {
          "internalType": "string",
          "name": "seed",
          "type": "string"
        },
        {
          "internalType": "address",
          "name": "requester",
          "type": "address"
        },
        {
          "internalType": "uint256",
          "name": "randomness",
          "type": "uint256"
        },
        {
          "internalType": "bool",
          "name": "resolved",
          "type": "bool"
        }
      ],
      "stateMutability": "view",
      "type": "function"
    },
    {
      "inputs": [
        {
          "internalType": "bytes32",
          "name": "role",
          "type": "bytes32"
        },
        {
          "internalType": "address",
          "name": "callerConfirmation",
          "type": "address"
        }
      ],
      "name": "renounceRole",
      "outputs": [],
      "stateMutability": "nonpayable",
      "type": "function"
    },
    {
      "inputs": [
        {
          "internalType": "string",
          "name": "apiUrl",
          "type": "string"
        },
        {
          "internalType": "uint256",
          "name": "min",
          "type": "uint256"
        },
        {
          "internalType": "uint256",
          "name": "max",
          "type": "uint256"
        },
        {
          "internalType": "string",
          "name": "metadata",
          "type": "string"
        }
      ],
      "name": "requestData",
      "outputs": [
        {
          "internalType": "uint256",
          "name": "",
          "type": "uint256"
        }
      ],
      "stateMutability": "nonpayable",
      "type": "function"
    },
    {
      "inputs": [
        {
          "internalType": "string",
          "name": "seed",
          "type": "string"
        }
      ],
      "name": "requestRandomness",
      "outputs": [
        {
          "internalType": "uint256",
          "name": "",
          "type": "uint256"
        }
      ],
      "stateMutability": "nonpayable",
      "type": "function"
    },
    {
      "inputs": [
        {
          "internalType": "uint256",
          "name": "",
          "type": "uint256"
        }
      ],
      "name": "requests",
      "outputs": [
        {
          "internalType": "uint256",
          "name": "id",
          "type": "uint256"
        },
        {
          "internalType": "string",
          "name": "apiUrl",
          "type": "string"
        },
        {
          "internalType": "address",
          "name": "requester",
          "type": "address"
        },
        {
          "internalType": "bool",
          "name": "resolved",
          "type": "bool"
        },
        {
          "internalType": "uint256",
          "name": "finalValue",
          "type": "uint256"
        },
        {
          "internalType": "uint256",
          "name": "createdAt",
          "type": "uint256"
        },
        {
          "internalType": "uint256",
          "name": "minThreshold",
          "type": "uint256"
        },
        {
          "internalType": "uint256",
          "name": "maxThreshold",
          "type": "uint256"
        },
        {
          "internalType": "string",
          "name": "metadata",
          "type": "string"
        }
      ],
      "stateMutability": "view",
      "type": "function"
    },
    {
      "inputs": [
        {
          "internalType": "bytes32",
          "name": "role",
          "type": "bytes32"
        },
        {
          "internalType": "address",
          "name": "account",
          "type": "address"
        }
      ],
      "name": "revokeRole",
      "outputs": [],
      "stateMutability": "nonpayable",
      "type": "function"
    },
    {
      "inputs": [
        {
          "internalType": "uint256",
          "name": "_fee",
          "type": "uint256"
        }
      ],
      "name": "setFee",
      "outputs": [],
      "stateMutability": "nonpayable",
      "type": "function"
    },
    {
      "inputs": [
        {
          "internalType": "uint256",
          "name": "_min",
          "type": "uint256"
        }
      ],
      "name": "setMinResponses",
      "outputs": [],
      "stateMutability": "nonpayable",
      "type": "function"
    },
    {
      "inputs": [
        {
          "internalType": "address",
          "name": "_node",
          "type": "address"
        },
        {
          "internalType": "bool",
          "name": "_status",
          "type": "bool"
        }
      ],
      "name": "setNodeWhitelist",
      "outputs": [],
      "stateMutability": "nonpayable",
      "type": "function"
    },
    {
      "inputs": [
        {
          "internalType": "address",
          "name": "_stakeGuard",
          "type": "address"
        }
      ],
      "name": "setStakeGuard",
      "outputs": [],
      "stateMutability": "nonpayable",
      "type": "function"
    },
    {
      "inputs": [
        {
          "internalType": "address",
          "name": "_verifier",
          "type": "address"
        }
      ],
      "name": "setVerifier",
      "outputs": [],
      "stateMutability": "nonpayable",
      "type": "function"
    },
    {
      "inputs": [],
      "name": "stakeGuard",
      "outputs": [
        {
          "internalType": "contract IStakeGuard",
          "name": "",
          "type": "address"
        }
      ],
      "stateMutability": "view",
      "type": "function"
    },
    {
      "inputs": [
        {
          "internalType": "bytes4",
          "name": "interfaceId",
          "type": "bytes4"
        }
      ],
      "name": "supportsInterface",
      "outputs": [
        {
          "internalType": "bool",
          "name": "",
          "type": "bool"
        }
      ],
      "stateMutability": "view",
      "type": "function"
    },
    {
      "inputs": [],
      "name": "unpause",
      "outputs": [],
      "stateMutability": "nonpayable",
      "type": "function"
    },
    {
      "inputs": [],
      "name": "verifier",
      "outputs": [
        {
          "internalType": "contract IVerifier",
          "name": "",
          "type": "address"
        }
      ],
      "stateMutability": "view",
      "type": "function"
    },
    {
      "inputs": [
        {
          "internalType": "address",
          "name": "",
          "type": "address"
        }
      ],
      "name": "whitelistedNodes",
      "outputs": [
        {
          "internalType": "bool",
          "name": "",
          "type": "bool"
        }
      ],
      "stateMutability": "view",
      "type": "function"
    },
    {
      "inputs": [],
      "name": "withdrawFees",
      "outputs": [],
      "stateMutability": "nonpayable",
      "type": "function"
    }
  ],
  "bytecode": "0x6080604052670de0b6b3a764000060065560016007553480156200002257600080fd5b506040516200263738038062002637833981016040819052620000459162000194565b600160025562000057600033620000c8565b50620000847fa49807205ce4d355092ef5a8a18f56e8913cf4a201fbe287825b095693c2177533620000c8565b50600380546001600160a01b039485166001600160a01b031991821617909155600480549385169382169390931790925560058054919093169116179055620001de565b6000828152602081815260408083206001600160a01b038516845290915281205460ff166200016d576000838152602081815260408083206001600160a01b03861684529091529020805460ff19166001179055620001243390565b6001600160a01b0316826001600160a01b0316847f2f8788117e7eff1d82e926ec794901d17c78024a50270940304540a733656f0d60405160405180910390a450600162000171565b5060005b92915050565b80516001600160a01b03811681146200018f57600080fd5b919050565b600080600060608486031215620001aa57600080fd5b620001b58462000177565b9250620001c56020850162000177565b9150620001d56040850162000177565b90509250925092565b61244980620001ee6000396000f3fe608060405234801561001057600080fd5b50600436106102485760003560e01c80636a84a9851161013b578063a217fddf116100b8578063d547741f1161007c578063d547741f14610514578063d585013c14610527578063e7b6ecff14610530578063e854725814610543578063f56f48f21461055657600080fd5b8063a217fddf146104d5578063b05f233a146104dd578063b92e31b1146104e5578063b9ffd9dd146104f8578063c4c326481461050b57600080fd5b8063770ce3d8116100ff578063770ce3d81461045f5780637a15ea671461047f57806381d12c58146104925780638456cb59146104ba57806391d14854146104c257600080fd5b80636a84a985146104025780636ef06a081461040b5780636f30aa221461041457806375b238fc14610437578063769729481461044c57600080fd5b80633f4ba83a116101c95780635437988d1161018d5780635437988d1461039b5780635bbffbb2146103ae5780635c975abb146103c15780635cb6dfff146103cc57806369fe0e2d146103ef57600080fd5b80633f4ba83a1461033e57806340a4ffef146103465780634178737714610359578063476343ee1461036c5780635095af641461037457600080fd5b80632f2ff15d116102105780632f2ff15d146102ee5780633015394c1461030157806336568abe14610314578063372500ab14610327578063377206061461032f57600080fd5b806301ffc9a71461024d57806306fbedbe14610275578063231f14571461028b578063248a9ca3146102a05780632b7ac3f3146102c3575b600080fd5b61026061025b366004611d45565b61055f565b60405190151581526020015b60405180910390f35b61027d605a81565b60405190815260200161026c565b61029e610299366004611d76565b610596565b005b61027d6102ae366004611d76565b60009081526020819052604090206001015490565b6005546102d6906001600160a01b031681565b6040516001600160a01b03909116815260200161026c565b61029e6102fc366004611da6565b6105b4565b61029e61030f366004611d76565b6105df565b61029e610322366004611da6565b6107c7565b61029e6107ff565b61027d678ac7230489e8000081565b61029e61092d565b61027d610354366004611e1b565b61094d565b6003546102d6906001600160a01b031681565b61029e610ab2565b61027d7f12b42e8a160f6064dc959c6f251e3af0750ad213dbecf573b4710d67d6c28e3981565b61029e6103a9366004611e5d565b610bad565b61029e6103bc366004611e86565b610be8565b60015460ff16610260565b6103df6103da366004611d76565b610c2c565b60405161026c9493929190611f03565b61029e6103fd366004611d76565b610ceb565b61027d600a5481565b61027d60065481565b610260610422366004611e5d565b60086020526000908152604090205460ff1681565b61027d6000805160206123f483398151915281565b61027d61045a366004611f3d565b610d09565b61027d61046d366004611e5d565b60096020526000908152604090205481565b6004546102d6906001600160a01b031681565b6104a56104a0366004611d76565b610eab565b60405161026c99989796959493929190611fc0565b61029e611018565b6102606104d0366004611da6565b611038565b61027d600081565b61027d603281565b61029e6104f336600461202d565b611061565b61029e610506366004611e5d565b61126e565b61027d60075481565b61029e610522366004611da6565b6112a9565b61027d600c5481565b61029e61053e366004611d76565b6112ce565b61029e610551366004612080565b6112f3565b61027d610e1081565b60006001600160e01b03198216637965db0b60e01b148061059057506301ffc9a760e01b6001600160e01b03198316145b92915050565b6000805160206123f48339815191526105ae8161161e565b50600755565b6000828152602081905260409020600101546105cf8161161e565b6105d98383611628565b50505050565b6105e76116ba565b6000818152600b6020526040902060028101546001600160a01b0316331461064a5760405162461bcd60e51b81526020600482015260116024820152702737ba103a3432903932b8bab2b9ba32b960791b60448201526064015b60405180910390fd5b6002810154600160a01b900460ff16156106995760405162461bcd60e51b815260206004820152601060248201526f105b1c9958591e481c995cdbdb1d995960821b6044820152606401610641565b610e1081600401546106ab91906120ec565b42116106ef5760405162461bcd60e51b8152602060048201526013602482015272151a5b595bdd5d081b9bdd081c995858da1959606a1b6044820152606401610641565b60028101805460ff60a01b1916600160a01b17905560035460065460405163a9059cbb60e01b815233600482015260248101919091526001600160a01b039091169063a9059cbb906044016020604051808303816000875af1158015610759573d6000803e3d6000fd5b505050506040513d601f19601f8201168201806040525081019061077d91906120ff565b6107b95760405162461bcd60e51b815260206004820152600d60248201526c1499599d5b990819985a5b1959609a1b6044820152606401610641565b506107c46001600255565b50565b6001600160a01b03811633146107f05760405163334bd91960e11b815260040160405180910390fd5b6107fa82826116e2565b505050565b6108076116ba565b336000908152600960205260409020548061085a5760405162461bcd60e51b81526020600482015260136024820152724e6f207265776172647320746f20636c61696d60681b6044820152606401610641565b3360008181526009602052604080822091909155600354905163a9059cbb60e01b81526004810192909252602482018390526001600160a01b03169063a9059cbb906044016020604051808303816000875af11580156108be573d6000803e3d6000fd5b505050506040513d601f19601f820116820180604052508101906108e291906120ff565b6109205760405162461bcd60e51b815260206004820152600f60248201526e151c985b9cd9995c8819985a5b1959608a1b6044820152606401610641565b5061092b6001600255565b565b6000805160206123f48339815191526109458161161e565b6107c461174d565b600061095761179f565b61095f6116ba565b6003546006546040516323b872dd60e01b815233600482015230602482015260448101919091526001600160a01b03909116906323b872dd906064016020604051808303816000875af11580156109ba573d6000803e3d6000fd5b505050506040513d601f19601f820116820180604052508101906109de91906120ff565b610a1f5760405162461bcd60e51b8152602060048201526012602482015271119959481c185e5b595b9d0819985a5b195960721b6044820152606401610641565b600c805460009182610a308361211c565b909155506000818152600d6020526040902090915080610a518587836121d3565b506001810180546001600160a01b0319163390811790915560405183907f673723d02765ca5f3d137c345c7fb902e007939bcc2f1333768621ba2f1bb9d990610a9d90899089906122bd565b60405180910390a35090506105906001600255565b6000805160206123f4833981519152610aca8161161e565b6003546040516370a0823160e01b81523060048201526000916001600160a01b0316906370a0823190602401602060405180830381865afa158015610b13573d6000803e3d6000fd5b505050506040513d601f19601f82011682018060405250810190610b3791906122d9565b60035460405163a9059cbb60e01b8152336004820152602481018390529192506001600160a01b03169063a9059cbb906044016020604051808303816000875af1158015610b89573d6000803e3d6000fd5b505050506040513d601f19601f820116820180604052508101906107fa91906120ff565b6000805160206123f4833981519152610bc58161161e565b50600580546001600160a01b0319166001600160a01b0392909216919091179055565b6000805160206123f4833981519152610c008161161e565b506001600160a01b03919091166000908152600860205260409020805460ff1916911515919091179055565b600d60205260009081526040902080548190610c479061214b565b80601f0160208091040260200160405190810160405280929190818152602001828054610c739061214b565b8015610cc05780601f10610c9557610100808354040283529160200191610cc0565b820191906000526020600020905b815481529060010190602001808311610ca357829003601f168201915b505050506001830154600284015460039094015492936001600160a01b039091169290915060ff1684565b6000805160206123f4833981519152610d038161161e565b50600655565b6000610d1361179f565b610d1b6116ba565b6003546006546040516323b872dd60e01b815233600482015230602482015260448101919091526001600160a01b03909116906323b872dd906064016020604051808303816000875af1158015610d76573d6000803e3d6000fd5b505050506040513d601f19601f82011682018060405250810190610d9a91906120ff565b610ddb5760405162461bcd60e51b8152602060048201526012602482015271119959481c185e5b595b9d0819985a5b195960721b6044820152606401610641565b600a805460009182610dec8361211c565b909155506000818152600b6020526040902081815590915060018101610e13898b836121d3565b506002810180546001600160a01b03191633179055426004820155600581018790556006810186905560078101610e4b8587836121d3565b50336001600160a01b0316827f65445418d0a2f902f581119ce888ce3c872dc471220fe4fc76c0e6d73daec8e18b8b8b8b604051610e8c94939291906122f2565b60405180910390a3509050610ea16001600255565b9695505050505050565b600b6020526000908152604090208054600182018054919291610ecd9061214b565b80601f0160208091040260200160405190810160405280929190818152602001828054610ef99061214b565b8015610f465780601f10610f1b57610100808354040283529160200191610f46565b820191906000526020600020905b815481529060010190602001808311610f2957829003601f168201915b505050506002830154600384015460048501546005860154600687015460078801805497986001600160a01b03871698600160a01b90970460ff169750949593949293919291610f959061214b565b80601f0160208091040260200160405190810160405280929190818152602001828054610fc19061214b565b801561100e5780601f10610fe35761010080835404028352916020019161100e565b820191906000526020600020905b815481529060010190602001808311610ff157829003601f168201915b5050505050905089565b6000805160206123f48339815191526110308161161e565b6107c46117c3565b6000918252602082815260408084206001600160a01b0393909316845291905290205460ff1690565b61106961179f565b6110716116ba565b3360009081526008602052604090205460ff166110c25760405162461bcd60e51b815260206004820152600f60248201526e139bdd081dda1a5d195b1a5cdd1959608a1b6044820152606401610641565b600480546040516348b4573960e11b815233928101929092526000916001600160a01b0390911690639168ae7290602401608060405180830381865afa158015611110573d6000803e3d6000fd5b505050506040513d601f19601f820116820180604052508101906111349190612319565b9350505050806111785760405162461bcd60e51b815260206004820152600f60248201526e4e6f6465206e6f742061637469766560881b6044820152606401610641565b6000858152600d60205260409020600381015460ff16156111ce5760405162461bcd60e51b815260206004820152601060248201526f105b1c9958591e481c995cdbdb1d995960821b6044820152606401610641565b6002810185905560038101805460ff191660011790556006546000906064906111f990605a9061235a565b6112039190612387565b336000908152600960205260408120805492935083929091906112279084906120ec565b909155505060405186815287907f546aca7b2683440b8f02fa95faeb8efc79dd0f16af3d815a002742ea6f76116c9060200160405180910390a25050506105d96001600255565b6000805160206123f48339815191526112868161161e565b50600480546001600160a01b0319166001600160a01b0392909216919091179055565b6000828152602081905260409020600101546112c48161161e565b6105d983836116e2565b6000805160206123f48339815191526112e68161161e565b6112ef826117fe565b5050565b6112fb61179f565b6113036116ba565b3360009081526008602052604090205460ff166113545760405162461bcd60e51b815260206004820152600f60248201526e139bdd081dda1a5d195b1a5cdd1959608a1b6044820152606401610641565b600480546040516348b4573960e11b815233928101929092526000916001600160a01b0390911690639168ae7290602401608060405180830381865afa1580156113a2573d6000803e3d6000fd5b505050506040513d601f19601f820116820180604052508101906113c69190612319565b9350505050806114185760405162461bcd60e51b815260206004820152601d60248201527f4e6f6465206e6f742061637469766520696e205374616b6547756172640000006044820152606401610641565b6000858152600b602052604090206002810154600160a01b900460ff16156114825760405162461bcd60e51b815260206004820152601860248201527f5265717565737420616c7265616479207265736f6c76656400000000000000006044820152606401610641565b33600090815260098201602052604090205460ff16156114d85760405162461bcd60e51b8152602060048201526011602482015270105b1c9958591e481c995cdc1bdb991959607a1b6044820152606401610641565b6005546001600160a01b0316158015906114f0575060015b1561155857600554604051635fe24f2360e01b81526001600160a01b0390911690635fe24f2390611527908790879060040161239b565b60006040518083038186803b15801561153f57600080fd5b505afa158015611553573d6000803e3d6000fd5b505050505b6040805180820182523380825260208083018981526008860180546001808201835560009283528483209651600290920290960180546001600160a01b0319166001600160a01b03909216919091178155915191850191909155828152600986018252849020805460ff1916909317909255915187815288917fc2af2237b2cd9e2e41495402b40b373744eff683f8123d61e07c0291e166dbe7910160405180910390a360075460088201541061161257611612866117fe565b50506105d96001600255565b6107c48133611b34565b60006116348383611038565b6116b2576000838152602081815260408083206001600160a01b03861684529091529020805460ff1916600117905561166a3390565b6001600160a01b0316826001600160a01b0316847f2f8788117e7eff1d82e926ec794901d17c78024a50270940304540a733656f0d60405160405180910390a4506001610590565b506000610590565b60028054036116dc57604051633ee5aeb560e01b815260040160405180910390fd5b60028055565b60006116ee8383611038565b156116b2576000838152602081815260408083206001600160a01b0386168085529252808320805460ff1916905551339286917ff6391f5c32d9c69d2a47ea670b442974b53935d1edc7fd64eb21e047a839171b9190a4506001610590565b611755611b6d565b6001805460ff191690557f5db9ee0a495bf2e6ff9c91a7834c1ba4fdd244a5e8aa4e537bd38aeae4b073aa335b6040516001600160a01b03909116815260200160405180910390a1565b60015460ff161561092b5760405163d93c066560e01b815260040160405180910390fd5b6117cb61179f565b6001805460ff1916811790557f62e78cea01bee320cd4e420270b5ea74000d11b0c9f74754ebdbfc544b05a25833611782565b6000818152600b60205260408120600881015490919067ffffffffffffffff81111561182c5761182c612135565b604051908082528060200260200182016040528015611855578160200160208202803683370190505b50905060005b60088301548110156118bd5782600801818154811061187c5761187c6123b6565b9060005260206000209060020201600101548282815181106118a0576118a06123b6565b6020908102919091010152806118b58161211c565b91505061185b565b5060006118c982611b90565b6003840181905560028401805460ff60a01b1916600160a01b179055600884015490915015611af45760006064605a600654611905919061235a565b61190f9190612387565b60088501549091506000906119249083612387565b905060005b6008860154811015611af057600086600801828154811061194c5761194c6123b6565b600091825260208220600290910201546008890180546001600160a01b0390921693509084908110611980576119806123b6565b60009182526020822060016002909202010154915086156119f65760646119a86032826120ec565b6119b2908961235a565b6119bc9190612387565b8211806119e8575060646119d16032826123cc565b6119db908961235a565b6119e59190612387565b82105b156119f1575060015b611a00565b8115611a00575060015b8015611aac57600480546040516333c59f7160e11b81526001600160a01b0386811693820193909352678ac7230489e80000602482015260606044820152601760648201527f507269636520646576696174696f6e206f75746c696572000000000000000000608482015291169063678b3ee29060a401600060405180830381600087803b158015611a9157600080fd5b505af1925050508015611aa2575060015b15611ada57611ada565b6001600160a01b03831660009081526009602052604081208054879290611ad49084906120ec565b90915550505b5050508080611ae89061211c565b915050611929565b5050505b837f5c69e7026b653d8606b5613bb00fd8c4b0504b1cbe8db600c406faac180924d582604051611b2691815260200190565b60405180910390a250505050565b611b3e8282611038565b6112ef5760405163e2517d3f60e01b81526001600160a01b038216600482015260248101839052604401610641565b60015460ff1661092b57604051638dfc202b60e01b815260040160405180910390fd5b6000805b8251811015611c8c576000611baa8260016120ec565b90505b8351811015611c7957838181518110611bc857611bc86123b6565b6020026020010151848381518110611be257611be26123b6565b60200260200101511115611c67576000848381518110611c0457611c046123b6565b60200260200101519050848281518110611c2057611c206123b6565b6020026020010151858481518110611c3a57611c3a6123b6565b60200260200101818152505080858381518110611c5957611c596123b6565b602002602001018181525050505b80611c718161211c565b915050611bad565b5080611c848161211c565b915050611b94565b5060028251611c9b91906123df565b600003611d125760028260028451611cb39190612387565b81518110611cc357611cc36123b6565b602002602001015183600160028651611cdc9190612387565b611ce691906123cc565b81518110611cf657611cf66123b6565b6020026020010151611d0891906120ec565b6105909190612387565b8160028351611d219190612387565b81518110611d3157611d316123b6565b60200260200101519050919050565b919050565b600060208284031215611d5757600080fd5b81356001600160e01b031981168114611d6f57600080fd5b9392505050565b600060208284031215611d8857600080fd5b5035919050565b80356001600160a01b0381168114611d4057600080fd5b60008060408385031215611db957600080fd5b82359150611dc960208401611d8f565b90509250929050565b60008083601f840112611de457600080fd5b50813567ffffffffffffffff811115611dfc57600080fd5b602083019150836020828501011115611e1457600080fd5b9250929050565b60008060208385031215611e2e57600080fd5b823567ffffffffffffffff811115611e4557600080fd5b611e5185828601611dd2565b90969095509350505050565b600060208284031215611e6f57600080fd5b611d6f82611d8f565b80151581146107c457600080fd5b60008060408385031215611e9957600080fd5b611ea283611d8f565b91506020830135611eb281611e78565b809150509250929050565b6000815180845260005b81811015611ee357602081850181015186830182015201611ec7565b506000602082860101526020601f19601f83011685010191505092915050565b608081526000611f166080830187611ebd565b6001600160a01b039590951660208301525060408101929092521515606090910152919050565b60008060008060008060808789031215611f5657600080fd5b863567ffffffffffffffff80821115611f6e57600080fd5b611f7a8a838b01611dd2565b909850965060208901359550604089013594506060890135915080821115611fa157600080fd5b50611fae89828a01611dd2565b979a9699509497509295939492505050565b60006101208b8352806020840152611fda8184018c611ebd565b905060018060a01b038a16604084015288151560608401528760808401528660a08401528560c08401528460e084015282810361010084015261201d8185611ebd565b9c9b505050505050505050505050565b6000806000806060858703121561204357600080fd5b8435935060208501359250604085013567ffffffffffffffff81111561206857600080fd5b61207487828801611dd2565b95989497509550505050565b60008060008061018080868803121561209857600080fd5b85359450602086013593506101408601878111156120b557600080fd5b6040870193508782880111156120ca57600080fd5b94979396509194505050565b634e487b7160e01b600052601160045260246000fd5b80820180821115610590576105906120d6565b60006020828403121561211157600080fd5b8151611d6f81611e78565b60006001820161212e5761212e6120d6565b5060010190565b634e487b7160e01b600052604160045260246000fd5b600181811c9082168061215f57607f821691505b60208210810361217f57634e487b7160e01b600052602260045260246000fd5b50919050565b601f8211156107fa57600081815260208120601f850160051c810160208610156121ac5750805b601f850160051c820191505b818110156121cb578281556001016121b8565b505050505050565b67ffffffffffffffff8311156121eb576121eb612135565b6121ff836121f9835461214b565b83612185565b6000601f841160018114612233576000851561221b5750838201355b600019600387901b1c1916600186901b17835561228d565b600083815260209020601f19861690835b828110156122645786850135825560209485019460019092019101612244565b50868210156122815760001960f88860031b161c19848701351681555b505060018560011b0183555b5050505050565b81835281816020850137506000828201602090810191909152601f909101601f19169091010190565b6020815260006122d1602083018486612294565b949350505050565b6000602082840312156122eb57600080fd5b5051919050565b606081526000612306606083018688612294565b6020830194909452506040015292915050565b6000806000806080858703121561232f57600080fd5b845193506020850151925060408501519150606085015161234f81611e78565b939692955090935050565b8082028115828204841417610590576105906120d6565b634e487b7160e01b600052601260045260246000fd5b60008261239657612396612371565b500490565b61014081016101008085843760408482850137509392505050565b634e487b7160e01b600052603260045260246000fd5b81810381811115610590576105906120d6565b6000826123ee576123ee612371565b50069056fea49807205ce4d355092ef5a8a18f56e8913cf4a201fbe287825b095693c21775a2646970667358221220e6c6b781c3631868f0813d51d0449e741a12b0141171f9501c3c1fedf1a67cde64736f6c63430008140033",
  "linkReferences": {},
  "deployedLinkReferences": {}
}