{
  "_format": "hh-sol-artifact-1",
  "contractName": "ObscuraToken",
  "sourceName": "contracts/ObscuraToken.sol",
  "abi": [
    {
      "inputs": [
        {
          "internalType": "uint256",
          "name": "initialSupply",
          "type": "uint256"
        }
      ],
      "stateMutability": "nonpayable",
      "type": "constructor"
    },
    {
      "inputs": [
        {
          "internalType": "address",
          "name": "spender",
          "type": "address"
        },
        {
          "internalType": "uint256",
          "name": "allowance",
          "type": "uint256"
        },
        {
          "internalType": "uint256",
          "name": "needed",
          "type": "uint256"
        }
      ],
      "name": "ERC20InsufficientAllowance",
      "type": "error"
    },
    {
      "inputs": [
        {
          "internalType": "address",
          "name": "sender",
          "type": "address"
        },
        {
          "internalType": "uint256",
          "name": "balance",
          "type": "uint256"
        },
        {
          "internalType": "uint256",
          "name": "needed",
          "type": "uint256"
        }
      ],
      "name": "ERC20InsufficientBalance",
      "type": "error"
    },
    {
      "inputs": [
        {
          "internalType": "address",
          "name": "approver",
          "type": "address"
        }
      ],
      "name": "ERC20InvalidApprover",
      "type": "error"
    },
    {
      "inputs": [
        {
          "internalType": "address",
          "name": "receiver",
          "type": "address"
        }
      ],
      "name": "ERC20InvalidReceiver",
      "type": "error"
    },
    {
      "inputs": [
        {
          "internalType": "address",
          "name": "sender",
          "type": "address"
        }
      ],
      "name": "ERC20InvalidSender",
      "type": "error"
    },
    {
      "inputs": [
        {
          "internalType": "address",
          "name": "spender",
          "type": "address"
        }
      ],
      "name": "ERC20InvalidSpender",
      "type": "error"
    },
    {
      "inputs": [
        {
          "internalType": "address",
          "name": "owner",
          "type": "address"
        }
      ],
      "name": "OwnableInvalidOwner",
      "type": "error"
    },
    {
      "inputs": [
        {
          "internalType": "address",
          "name": "account",
          "type": "address"
        }
      ],
      "name": "OwnableUnauthorizedAccount",
      "type": "error"
    },
    {
      "anonymous": false,
      "inputs": [
        {
          "indexed": true,
          "internalType": "address",
          "name": "owner",
          "type": "address"
        },
        {
          "indexed": true,
          "internalType": "address",
          "name": "spender",
          "type": "address"
        },
        {
          "indexed": false,
          "internalType": "uint256",
          "name": "value",
          "type": "uint256"
        }
      ],
      "name": "Approval",
      "type": "event"
    },
    {
      "anonymous": false,
      "inputs": [
        {
          "indexed": true,
          "internalType": "address",
          "name": "previousOwner",
          "type": "address"
        },
        {
          "indexed": true,
          "internalType": "address",
          "name": "newOwner",
          "type": "address"
        }
      ],
      "name": "OwnershipTransferred",
      "type": "event"
    },
    {
      "anonymous": false,
      "inputs": [
        {
          "indexed": true,
          "internalType": "address",
          "name": "from",
          "type": "address"
        },
        {
          "indexed": true,
          "internalType": "address",
          "name": "to",
          "type": "address"
        },
        {
          "indexed": false,
          "internalType": "uint256",
          "name": "value",
          "type": "uint256"
        }
      ],
      "name": "Transfer",
      "type": "event"
    },
    {
      "inputs": [
        {
          "internalType": "address",
          "name": "owner",
          "type": "address"
        },
        {
          "internalType": "address",
          "name": "spender",
          "type": "address"
        }
      ],
      "name": "allowance",
      "outputs": [
        {
          "internalType": "uint256",
          "name": "",
          "type": "uint256"
        }
      ],
      "stateMutability": "view",
      "type": "function"
    },
    {
      "inputs": [
        {
          "internalType": "address",
          "name": "spender",
          "type": "address"
        },
        {
          "internalType": "uint256",
          "name": "value",
          "type": "uint256"
        }
      ],
      "name": "approve",
      "outputs": [
        {
          "internalType": "bool",
          "name": "",
          "type": "bool"
        }
      ],
      "stateMutability": "nonpayable",
      "type": "function"
    },
    {
      "inputs": [
        {
          "internalType": "address",
          "name": "account",
          "type": "address"
        }
      ],
      "name": "balanceOf",
      "outputs": [
        {
          "internalType": "uint256",
          "name": "",
          "type": "uint256"
        }
      ],
      "stateMutability": "view",
      "type": "function"
    },
    {
      "inputs": [
        {
          "internalType": "uint256",
          "name": "amount",
          "type": "uint256"
        }
      ],
      "name": "burn",
      "outputs": [],
      "stateMutability": "nonpayable",
      "type": "function"
    },
    {
      "inputs": [],
      "name": "decimals",
      "outputs": [
        {
          "internalType": "uint8",
          "name": "",
          "type": "uint8"
        }
      ],
      "stateMutability": "view",
      "type": "function"
    },
    {
      "inputs": [
        {
          "internalType": "address[]",
          "name": "recipients",
          "type": "address[]"
        },
        {
          "internalType": "uint256[]",
          "name": "amounts",
          "type": "uint256[]"
        }
      ],
      "name": "distributeFees",
      "outputs": [],
      "stateMutability": "nonpayable",
      "type": "function"
    },
    {
      "inputs": [
        {
          "internalType": "address",
          "name": "to",
          "type": "address"
        },
        {
          "internalType": "uint256",
          "name": "amount",
          "type": "uint256"
        }
      ],
      "name": "mint",
      "outputs": [],
      "stateMutability": "nonpayable",
      "type": "function"
    },
    {
      "inputs": [],
      "name": "name",
      "outputs": [
        {
          "internalType": "string",
          "name": "",
          "type": "string"
        }
      ],
      "stateMutability": "view",
      "type": "function"
    },
    {
      "inputs": [],
      "name": "owner",
      "outputs": [
        {
          "internalType": "address",
          "name": "",
          "type": "address"
        }
      ],
      "stateMutability": "view",
      "type": "function"
    },
    {
      "inputs": [],
      "name": "renounceOwnership",
      "outputs": [],
      "stateMutability": "nonpayable",
      "type": "function"
    },
    {
      "inputs": [],
      "name": "symbol",
      "outputs": [
        {
          "internalType": "string",
          "name": "",
          "type": "string"
        }
      ],
      "stateMutability": "view",
      "type": "function"
    },
    {
      "inputs": [],
      "name": "totalSupply",
      "outputs": [
        {
          "internalType": "uint256",
          "name": "",
          "type": "uint256"
        }
      ],
      "stateMutability": "view",
      "type": "function"
    },
    {
      "inputs": [
        {
          "internalType": "address",
          "name": "to",
          "type": "address"
        },
        {
          "internalType": "uint256",
          "name": "value",
          "type": "uint256"
        }
      ],
      "name": "transfer",
      "outputs": [
        {
          "internalType": "bool",
          "name": "",
          "type": "bool"
        }
      ],
      "stateMutability": "nonpayable",
      "type": "function"
    },
    {
      "inputs": [
        {
          "internalType": "address",
          "name": "from",
          "type": "address"
        },
        {
          "internalType": "address",
          "name": "to",
          "type": "address"
        },
        {
          "internalType": "uint256",
          "name": "value",
          "type": "uint256"
        }
      ],
      "name": "transferFrom",
      "outputs": [
        {
          "internalType": "bool",
          "name": "",
          "type": "bool"
        }
      ],
      "stateMutability": "nonpayable",
      "type": "function"
    },
    {
      "inputs": [
        {
          "internalType": "address",
          "name": "newOwner",
          "type": "address"
        }
      ],
      "name": "transferOwnership",
      "outputs": [],
      "stateMutability": "nonpayable",
      "type": "function"
    }
  ],
  "bytecode": "0x60806040523480156200001157600080fd5b5060405162000f8638038062000f868339810160408190526200003491620002b2565b336040518060400160405280600f81526020016e4f627363757261204e6574776f726b60881b815250604051806040016040528060078152602001664f42534355524160c81b81525081600390816200008e919062000371565b5060046200009d828262000371565b5050506001600160a01b038116620000d057604051631e4fbdf760e01b8152600060048201526024015b60405180910390fd5b620000db81620000ef565b50620000e8338262000141565b5062000465565b600580546001600160a01b038381166001600160a01b0319831681179093556040519116919082907f8be0079c531659141344cd1fd0a4f28419497f9722a3daafe3b4186f6b6457e090600090a35050565b6001600160a01b0382166200016d5760405163ec442f0560e01b815260006004820152602401620000c7565b6200017b600083836200017f565b5050565b6001600160a01b038316620001ae578060026000828254620001a291906200043d565b90915550620002229050565b6001600160a01b03831660009081526020819052604090205481811015620002035760405163391434e360e21b81526001600160a01b03851660048201526024810182905260448101839052606401620000c7565b6001600160a01b03841660009081526020819052604090209082900390555b6001600160a01b03821662000240576002805482900390556200025f565b6001600160a01b03821660009081526020819052604090208054820190555b816001600160a01b0316836001600160a01b03167fddf252ad1be2c89b69c2b068fc378daa952ba7f163c4a11628f55a4df523b3ef83604051620002a591815260200190565b60405180910390a3505050565b600060208284031215620002c557600080fd5b5051919050565b634e487b7160e01b600052604160045260246000fd5b600181811c90821680620002f757607f821691505b6020821081036200031857634e487b7160e01b600052602260045260246000fd5b50919050565b601f8211156200036c57600081815260208120601f850160051c81016020861015620003475750805b601f850160051c820191505b81811015620003685782815560010162000353565b5050505b505050565b81516001600160401b038111156200038d576200038d620002cc565b620003a5816200039e8454620002e2565b846200031e565b602080601f831160018114620003dd5760008415620003c45750858301515b600019600386901b1c1916600185901b17855562000368565b600085815260208120601f198616915b828110156200040e57888601518255948401946001909101908401620003ed565b50858210156200042d5787850151600019600388901b60f8161c191681555b5050505050600190811b01905550565b808201808211156200045f57634e487b7160e01b600052601160045260246000fd5b92915050565b610b1180620004756000396000f3fe608060405234801561001057600080fd5b50600436106100f55760003560e01c806342966c681161009757806395d89b411161006657806395d89b41146101f6578063a9059cbb146101fe578063dd62ed3e14610211578063f2fde38b1461024a57600080fd5b806342966c681461019757806370a08231146101aa578063715018a6146101d35780638da5cb5b146101db57600080fd5b806323b872dd116100d357806323b872dd1461014d578063313ce5671461016057806332adb0c61461016f57806340c10f191461018457600080fd5b806306fdde03146100fa578063095ea7b31461011857806318160ddd1461013b575b600080fd5b61010261025d565b60405161010f9190610853565b60405180910390f35b61012b6101263660046108bd565b6102ef565b604051901515815260200161010f565b6002545b60405190815260200161010f565b61012b61015b3660046108e7565b610309565b6040516012815260200161010f565b61018261017d36600461096f565b61032d565b005b6101826101923660046108bd565b6103ea565b6101826101a53660046109db565b610400565b61013f6101b83660046109f4565b6001600160a01b031660009081526020819052604090205490565b61018261040d565b6005546040516001600160a01b03909116815260200161010f565b610102610421565b61012b61020c3660046108bd565b610430565b61013f61021f366004610a16565b6001600160a01b03918216600090815260016020908152604080832093909416825291909152205490565b6101826102583660046109f4565b61043e565b60606003805461026c90610a49565b80601f016020809104026020016040519081016040528092919081815260200182805461029890610a49565b80156102e55780601f106102ba576101008083540402835291602001916102e5565b820191906000526020600020905b8154815290600101906020018083116102c857829003601f168201915b5050505050905090565b6000336102fd818585610479565b60019150505b92915050565b60003361031785828561048b565b61032285858561050a565b506001949350505050565b610335610569565b82811461037d5760405162461bcd60e51b81526020600482015260116024820152704d69736d6174636865642061727261797360781b60448201526064015b60405180910390fd5b60005b838110156103e3576103d13386868481811061039e5761039e610a83565b90506020020160208101906103b391906109f4565b8585858181106103c5576103c5610a83565b9050602002013561050a565b806103db81610aaf565b915050610380565b5050505050565b6103f2610569565b6103fc8282610596565b5050565b61040a33826105cc565b50565b610415610569565b61041f6000610602565b565b60606004805461026c90610a49565b6000336102fd81858561050a565b610446610569565b6001600160a01b03811661047057604051631e4fbdf760e01b815260006004820152602401610374565b61040a81610602565b6104868383836001610654565b505050565b6001600160a01b0383811660009081526001602090815260408083209386168352929052205460001981101561050457818110156104f557604051637dc7a0d960e11b81526001600160a01b03841660048201526024810182905260448101839052606401610374565b61050484848484036000610654565b50505050565b6001600160a01b03831661053457604051634b637e8f60e11b815260006004820152602401610374565b6001600160a01b03821661055e5760405163ec442f0560e01b815260006004820152602401610374565b610486838383610729565b6005546001600160a01b0316331461041f5760405163118cdaa760e01b8152336004820152602401610374565b6001600160a01b0382166105c05760405163ec442f0560e01b815260006004820152602401610374565b6103fc60008383610729565b6001600160a01b0382166105f657604051634b637e8f60e11b815260006004820152602401610374565b6103fc82600083610729565b600580546001600160a01b038381166001600160a01b0319831681179093556040519116919082907f8be0079c531659141344cd1fd0a4f28419497f9722a3daafe3b4186f6b6457e090600090a35050565b6001600160a01b03841661067e5760405163e602df0560e01b815260006004820152602401610374565b6001600160a01b0383166106a857604051634a1406b160e11b815260006004820152602401610374565b6001600160a01b038085166000908152600160209081526040808320938716835292905220829055801561050457826001600160a01b0316846001600160a01b03167f8c5be1e5ebec7d5bd14f71427d1e84f3dd0314c0f7b2291e5b200ac8c7c3b9258460405161071b91815260200190565b60405180910390a350505050565b6001600160a01b0383166107545780600260008282546107499190610ac8565b909155506107c69050565b6001600160a01b038316600090815260208190526040902054818110156107a75760405163391434e360e21b81526001600160a01b03851660048201526024810182905260448101839052606401610374565b6001600160a01b03841660009081526020819052604090209082900390555b6001600160a01b0382166107e257600280548290039055610801565b6001600160a01b03821660009081526020819052604090208054820190555b816001600160a01b0316836001600160a01b03167fddf252ad1be2c89b69c2b068fc378daa952ba7f163c4a11628f55a4df523b3ef8360405161084691815260200190565b60405180910390a3505050565b600060208083528351808285015260005b8181101561088057858101830151858201604001528201610864565b506000604082860101526040601f19601f8301168501019250505092915050565b80356001600160a01b03811681146108b857600080fd5b919050565b600080604083850312156108d057600080fd5b6108d9836108a1565b946020939093013593505050565b6000806000606084860312156108fc57600080fd5b610905846108a1565b9250610913602085016108a1565b9150604084013590509250925092565b60008083601f84011261093557600080fd5b50813567ffffffffffffffff81111561094d57600080fd5b6020830191508360208260051b850101111561096857600080fd5b9250929050565b6000806000806040858703121561098557600080fd5b843567ffffffffffffffff8082111561099d57600080fd5b6109a988838901610923565b909650945060208701359150808211156109c257600080fd5b506109cf87828801610923565b95989497509550505050565b6000602082840312156109ed57600080fd5b5035919050565b600060208284031215610a0657600080fd5b610a0f826108a1565b9392505050565b60008060408385031215610a2957600080fd5b610a32836108a1565b9150610a40602084016108a1565b90509250929050565b600181811c90821680610a5d57607f821691505b602082108103610a7d57634e487b7160e01b600052602260045260246000fd5b50919050565b634e487b7160e01b600052603260045260246000fd5b634e487b7160e01b600052601160045260246000fd5b600060018201610ac157610ac1610a99565b5060010190565b8082018082111561030357610303610a9956fea264697066735822122015ed17622118c3fe6261e19e74a6ecf0e9e7c3dc7264f83a008216c57d4d096f64736f6c63430008140033",
  "linkReferences": {},
  "deployedLinkReferences": {}
}