{
  "_format": "hh-sol-artifact-1",
  "contractName": "ObscuraToken",
  "sourceName": "contracts/ObscuraToken.sol",
  "abi": [
    {
      "inputs": [
        {
          "internalType": "address",
          "name": "initialOwner",
          "type": "address"
        }
      ],
      "stateMutability": "nonpayable",
      "type": "constructor"
    },
    {
      "inputs": [],
      "name": "ECDSAInvalidSignature",
      "type": "error"
    },
    {
      "inputs": [
        {
          "internalType": "uint256",
          "name": "length",
          "type": "uint256"
        }
      ],
      "name": "ECDSAInvalidSignatureLength",
      "type": "error"
    },
    {
      "inputs": [
        {
          "internalType": "bytes32",
          "name": "s",
          "type": "bytes32"
        }
      ],
      "name": "ECDSAInvalidSignatureS",
      "type": "error"
    },
    {
      "inputs": [
        {
          "internalType": "address",
          "name": "spender",
          "type": "address"
        },
        {
          "internalType": "uint256",
          "name": "allowance",
          "type": "uint256"
        },
        {
          "internalType": "uint256",
          "name": "needed",
          "type": "uint256"
        }
      ],
      "name": "ERC20InsufficientAllowance",
      "type": "error"
    },
    {
      "inputs": [
        {
          "internalType": "address",
          "name": "sender",
          "type": "address"
        },
        {
          "internalType": "uint256",
          "name": "balance",
          "type": "uint256"
        },
        {
          "internalType": "uint256",
          "name": "needed",
          "type": "uint256"
        }
      ],
      "name": "ERC20InsufficientBalance",
      "type": "error"
    },
    {
      "inputs": [
        {
          "internalType": "address",
          "name": "approver",
          "type": "address"
        }
      ],
      "name": "ERC20InvalidApprover",
      "type": "error"
    },
    {
      "inputs": [
        {
          "internalType": "address",
          "name": "receiver",
          "type": "address"
        }
      ],
      "name": "ERC20InvalidReceiver",
      "type": "error"
    },
    {
      "inputs": [
        {
          "internalType": "address",
          "name": "sender",
          "type": "address"
        }
      ],
      "name": "ERC20InvalidSender",
      "type": "error"
    },
    {
      "inputs": [
        {
          "internalType": "address",
          "name": "spender",
          "type": "address"
        }
      ],
      "name": "ERC20InvalidSpender",
      "type": "error"
    },
    {
      "inputs": [
        {
          "internalType": "uint256",
          "name": "deadline",
          "type": "uint256"
        }
      ],
      "name": "ERC2612ExpiredSignature",
      "type": "error"
    },
    {
      "inputs": [
        {
          "internalType": "address",
          "name": "signer",
          "type": "address"
        },
        {
          "internalType": "address",
          "name": "owner",
          "type": "address"
        }
      ],
      "name": "ERC2612InvalidSigner",
      "type": "error"
    },
    {
      "inputs": [
        {
          "internalType": "address",
          "name": "account",
          "type": "address"
        },
        {
          "internalType": "uint256",
          "name": "currentNonce",
          "type": "uint256"
        }
      ],
      "name": "InvalidAccountNonce",
      "type": "error"
    },
    {
      "inputs": [],
      "name": "InvalidShortString",
      "type": "error"
    },
    {
      "inputs": [
        {
          "internalType": "address",
          "name": "owner",
          "type": "address"
        }
      ],
      "name": "OwnableInvalidOwner",
      "type": "error"
    },
    {
      "inputs": [
        {
          "internalType": "address",
          "name": "account",
          "type": "address"
        }
      ],
      "name": "OwnableUnauthorizedAccount",
      "type": "error"
    },
    {
      "inputs": [],
      "name": "ReentrancyGuardReentrantCall",
      "type": "error"
    },
    {
      "inputs": [
        {
          "internalType": "string",
          "name": "str",
          "type": "string"
        }
      ],
      "name": "StringTooLong",
      "type": "error"
    },
    {
      "anonymous": false,
      "inputs": [
        {
          "indexed": true,
          "internalType": "address",
          "name": "owner",
          "type": "address"
        },
        {
          "indexed": true,
          "internalType": "address",
          "name": "spender",
          "type": "address"
        },
        {
          "indexed": false,
          "internalType": "uint256",
          "name": "value",
          "type": "uint256"
        }
      ],
      "name": "Approval",
      "type": "event"
    },
    {
      "anonymous": false,
      "inputs": [],
      "name": "EIP712DomainChanged",
      "type": "event"
    },
    {
      "anonymous": false,
      "inputs": [
        {
          "indexed": true,
          "internalType": "address",
          "name": "pool",
          "type": "address"
        }
      ],
      "name": "NodeRewardsPoolSet",
      "type": "event"
    },
    {
      "anonymous": false,
      "inputs": [
        {
          "indexed": true,
          "internalType": "address",
          "name": "previousOwner",
          "type": "address"
        },
        {
          "indexed": true,
          "internalType": "address",
          "name": "newOwner",
          "type": "address"
        }
      ],
      "name": "OwnershipTransferred",
      "type": "event"
    },
    {
      "anonymous": false,
      "inputs": [
        {
          "indexed": false,
          "internalType": "uint256",
          "name": "newRate",
          "type": "uint256"
        }
      ],
      "name": "RewardRateUpdated",
      "type": "event"
    },
    {
      "anonymous": false,
      "inputs": [
        {
          "indexed": true,
          "internalType": "address",
          "name": "user",
          "type": "address"
        },
        {
          "indexed": false,
          "internalType": "uint256",
          "name": "amount",
          "type": "uint256"
        }
      ],
      "name": "RewardsClaimed",
      "type": "event"
    },
    {
      "anonymous": false,
      "inputs": [
        {
          "indexed": true,
          "internalType": "address",
          "name": "user",
          "type": "address"
        },
        {
          "indexed": false,
          "internalType": "uint256",
          "name": "amount",
          "type": "uint256"
        },
        {
          "indexed": false,
          "internalType": "uint256",
          "name": "lockDuration",
          "type": "uint256"
        }
      ],
      "name": "Staked",
      "type": "event"
    },
    {
      "anonymous": false,
      "inputs": [
        {
          "indexed": true,
          "internalType": "address",
          "name": "from",
          "type": "address"
        },
        {
          "indexed": true,
          "internalType": "address",
          "name": "to",
          "type": "address"
        },
        {
          "indexed": false,
          "internalType": "uint256",
          "name": "value",
          "type": "uint256"
        }
      ],
      "name": "Transfer",
      "type": "event"
    },
    {
      "anonymous": false,
      "inputs": [
        {
          "indexed": true,
          "internalType": "address",
          "name": "user",
          "type": "address"
        },
        {
          "indexed": false,
          "internalType": "uint256",
          "name": "amount",
          "type": "uint256"
        },
        {
          "indexed": false,
          "internalType": "uint256",
          "name": "rewards",
          "type": "uint256"
        }
      ],
      "name": "Unstaked",
      "type": "event"
    },
    {
      "inputs": [],
      "name": "COMMUNITY_ALLOCATION",
      "outputs": [
        {
          "internalType": "uint256",
          "name": "",
          "type": "uint256"
        }
      ],
      "stateMutability": "view",
      "type": "function"
    },
    {
      "inputs": [],
      "name": "DOMAIN_SEPARATOR",
      "outputs": [
        {
          "internalType": "bytes32",
          "name": "",
          "type": "bytes32"
        }
      ],
      "stateMutability": "view",
      "type": "function"
    },
    {
      "inputs": [],
      "name": "ECOSYSTEM_ALLOCATION",
      "outputs": [
        {
          "internalType": "uint256",
          "name": "",
          "type": "uint256"
        }
      ],
      "stateMutability": "view",
      "type": "function"
    },
    {
      "inputs": [],
      "name": "INITIAL_SUPPLY",
      "outputs": [
        {
          "internalType": "uint256",
          "name": "",
          "type": "uint256"
        }
      ],
      "stateMutability": "view",
      "type": "function"
    },
    {
      "inputs": [],
      "name": "MAX_SUPPLY",
      "outputs": [
        {
          "internalType": "uint256",
          "name": "",
          "type": "uint256"
        }
      ],
      "stateMutability": "view",
      "type": "function"
    },
    {
      "inputs": [],
      "name": "NODE_REWARDS_ALLOCATION",
      "outputs": [
        {
          "internalType": "uint256",
          "name": "",
          "type": "uint256"
        }
      ],
      "stateMutability": "view",
      "type": "function"
    },
    {
      "inputs": [],
      "name": "TEAM_ALLOCATION",
      "outputs": [
        {
          "internalType": "uint256",
          "name": "",
          "type": "uint256"
        }
      ],
      "stateMutability": "view",
      "type": "function"
    },
    {
      "inputs": [],
      "name": "TREASURY_ALLOCATION",
      "outputs": [
        {
          "internalType": "uint256",
          "name": "",
          "type": "uint256"
        }
      ],
      "stateMutability": "view",
      "type": "function"
    },
    {
      "inputs": [
        {
          "internalType": "address",
          "name": "owner",
          "type": "address"
        },
        {
          "internalType": "address",
          "name": "spender",
          "type": "address"
        }
      ],
      "name": "allowance",
      "outputs": [
        {
          "internalType": "uint256",
          "name": "",
          "type": "uint256"
        }
      ],
      "stateMutability": "view",
      "type": "function"
    },
    {
      "inputs": [
        {
          "internalType": "address",
          "name": "spender",
          "type": "address"
        },
        {
          "internalType": "uint256",
          "name": "value",
          "type": "uint256"
        }
      ],
      "name": "approve",
      "outputs": [
        {
          "internalType": "bool",
          "name": "",
          "type": "bool"
        }
      ],
      "stateMutability": "nonpayable",
      "type": "function"
    },
    {
      "inputs": [
        {
          "internalType": "address",
          "name": "account",
          "type": "address"
        }
      ],
      "name": "balanceOf",
      "outputs": [
        {
          "internalType": "uint256",
          "name": "",
          "type": "uint256"
        }
      ],
      "stateMutability": "view",
      "type": "function"
    },
    {
      "inputs": [
        {
          "internalType": "uint256",
          "name": "value",
          "type": "uint256"
        }
      ],
      "name": "burn",
      "outputs": [],
      "stateMutability": "nonpayable",
      "type": "function"
    },
    {
      "inputs": [
        {
          "internalType": "address",
          "name": "account",
          "type": "address"
        },
        {
          "internalType": "uint256",
          "name": "value",
          "type": "uint256"
        }
      ],
      "name": "burnFrom",
      "outputs": [],
      "stateMutability": "nonpayable",
      "type": "function"
    },
    {
      "inputs": [],
      "name": "claimRewards",
      "outputs": [],
      "stateMutability": "nonpayable",
      "type": "function"
    },
    {
      "inputs": [],
      "name": "decimals",
      "outputs": [
        {
          "internalType": "uint8",
          "name": "",
          "type": "uint8"
        }
      ],
      "stateMutability": "view",
      "type": "function"
    },
    {
      "inputs": [
        {
          "internalType": "address[]",
          "name": "recipients",
          "type": "address[]"
        },
        {
          "internalType": "uint256[]",
          "name": "amounts",
          "type": "uint256[]"
        }
      ],
      "name": "distributeFees",
      "outputs": [],
      "stateMutability": "nonpayable",
      "type": "function"
    },
    {
      "inputs": [],
      "name": "eip712Domain",
      "outputs": [
        {
          "internalType": "bytes1",
          "name": "fields",
          "type": "bytes1"
        },
        {
          "internalType": "string",
          "name": "name",
          "type": "string"
        },
        {
          "internalType": "string",
          "name": "version",
          "type": "string"
        },
        {
          "internalType": "uint256",
          "name": "chainId",
          "type": "uint256"
        },
        {
          "internalType": "address",
          "name": "verifyingContract",
          "type": "address"
        },
        {
          "internalType": "bytes32",
          "name": "salt",
          "type": "bytes32"
        },
        {
          "internalType": "uint256[]",
          "name": "extensions",
          "type": "uint256[]"
        }
      ],
      "stateMutability": "view",
      "type": "function"
    },
    {
      "inputs": [
        {
          "internalType": "address",
          "name": "user",
          "type": "address"
        }
      ],
      "name": "getStakeInfo",
      "outputs": [
        {
          "internalType": "uint256",
          "name": "amount",
          "type": "uint256"
        },
        {
          "internalType": "uint256",
          "name": "stakedAt",
          "type": "uint256"
        },
        {
          "internalType": "uint256",
          "name": "lockEndTime",
          "type": "uint256"
        },
        {
          "internalType": "uint256",
          "name": "pendingReward",
          "type": "uint256"
        }
      ],
      "stateMutability": "view",
      "type": "function"
    },
    {
      "inputs": [],
      "name": "minLockDuration",
      "outputs": [
        {
          "internalType": "uint256",
          "name": "",
          "type": "uint256"
        }
      ],
      "stateMutability": "view",
      "type": "function"
    },
    {
      "inputs": [],
      "name": "minStakeAmount",
      "outputs": [
        {
          "internalType": "uint256",
          "name": "",
          "type": "uint256"
        }
      ],
      "stateMutability": "view",
      "type": "function"
    },
    {
      "inputs": [
        {
          "internalType": "address",
          "name": "node",
          "type": "address"
        },
        {
          "internalType": "uint256",
          "name": "amount",
          "type": "uint256"
        }
      ],
      "name": "mintNodeRewards",
      "outputs": [],
      "stateMutability": "nonpayable",
      "type": "function"
    },
    {
      "inputs": [
        {
          "internalType": "uint256",
          "name": "amount",
          "type": "uint256"
        }
      ],
      "name": "mintToTreasury",
      "outputs": [],
      "stateMutability": "nonpayable",
      "type": "function"
    },
    {
      "inputs": [],
      "name": "name",
      "outputs": [
        {
          "internalType": "string",
          "name": "",
          "type": "string"
        }
      ],
      "stateMutability": "view",
      "type": "function"
    },
    {
      "inputs": [],
      "name": "nodeRewardsPool",
      "outputs": [
        {
          "internalType": "address",
          "name": "",
          "type": "address"
        }
      ],
      "stateMutability": "view",
      "type": "function"
    },
    {
      "inputs": [
        {
          "internalType": "address",
          "name": "owner",
          "type": "address"
        }
      ],
      "name": "nonces",
      "outputs": [
        {
          "internalType": "uint256",
          "name": "",
          "type": "uint256"
        }
      ],
      "stateMutability": "view",
      "type": "function"
    },
    {
      "inputs": [],
      "name": "owner",
      "outputs": [
        {
          "internalType": "address",
          "name": "",
          "type": "address"
        }
      ],
      "stateMutability": "view",
      "type": "function"
    },
    {
      "inputs": [
        {
          "internalType": "address",
          "name": "user",
          "type": "address"
        }
      ],
      "name": "pendingRewards",
      "outputs": [
        {
          "internalType": "uint256",
          "name": "",
          "type": "uint256"
        }
      ],
      "stateMutability": "view",
      "type": "function"
    },
    {
      "inputs": [
        {
          "internalType": "address",
          "name": "owner",
          "type": "address"
        },
        {
          "internalType": "address",
          "name": "spender",
          "type": "address"
        },
        {
          "internalType": "uint256",
          "name": "value",
          "type": "uint256"
        },
        {
          "internalType": "uint256",
          "name": "deadline",
          "type": "uint256"
        },
        {
          "internalType": "uint8",
          "name": "v",
          "type": "uint8"
        },
        {
          "internalType": "bytes32",
          "name": "r",
          "type": "bytes32"
        },
        {
          "internalType": "bytes32",
          "name": "s",
          "type": "bytes32"
        }
      ],
      "name": "permit",
      "outputs": [],
      "stateMutability": "nonpayable",
      "type": "function"
    },
    {
      "inputs": [],
      "name": "remainingMintableSupply",
      "outputs": [
        {
          "internalType": "uint256",
          "name": "",
          "type": "uint256"
        }
      ],
      "stateMutability": "view",
      "type": "function"
    },
    {
      "inputs": [],
      "name": "renounceOwnership",
      "outputs": [],
      "stateMutability": "nonpayable",
      "type": "function"
    },
    {
      "inputs": [],
      "name": "rewardRatePerSecond",
      "outputs": [
        {
          "internalType": "uint256",
          "name": "",
          "type": "uint256"
        }
      ],
      "stateMutability": "view",
      "type": "function"
    },
    {
      "inputs": [
        {
          "internalType": "uint256",
          "name": "duration",
          "type": "uint256"
        }
      ],
      "name": "setMinLockDuration",
      "outputs": [],
      "stateMutability": "nonpayable",
      "type": "function"
    },
    {
      "inputs": [
        {
          "internalType": "uint256",
          "name": "amount",
          "type": "uint256"
        }
      ],
      "name": "setMinStakeAmount",
      "outputs": [],
      "stateMutability": "nonpayable",
      "type": "function"
    },
    {
      "inputs": [
        {
          "internalType": "address",
          "name": "pool",
          "type": "address"
        }
      ],
      "name": "setNodeRewardsPool",
      "outputs": [],
      "stateMutability": "nonpayable",
      "type": "function"
    },
    {
      "inputs": [
        {
          "internalType": "uint256",
          "name": "rate",
          "type": "uint256"
        }
      ],
      "name": "setRewardRate",
      "outputs": [],
      "stateMutability": "nonpayable",
      "type": "function"
    },
    {
      "inputs": [
        {
          "internalType": "address",
          "name": "treasury",
          "type": "address"
        }
      ],
      "name": "setTreasuryAddress",
      "outputs": [],
      "stateMutability": "nonpayable",
      "type": "function"
    },
    {
      "inputs": [
        {
          "internalType": "uint256",
          "name": "amount",
          "type": "uint256"
        },
        {
          "internalType": "uint256",
          "name": "lockDuration",
          "type": "uint256"
        }
      ],
      "name": "stake",
      "outputs": [],
      "stateMutability": "nonpayable",
      "type": "function"
    },
    {
      "inputs": [
        {
          "internalType": "address",
          "name": "",
          "type": "address"
        }
      ],
      "name": "stakes",
      "outputs": [
        {
          "internalType": "uint256",
          "name": "amount",
          "type": "uint256"
        },
        {
          "internalType": "uint256",
          "name": "stakedAt",
          "type": "uint256"
        },
        {
          "internalType": "uint256",
          "name": "lockEndTime",
          "type": "uint256"
        },
        {
          "internalType": "uint256",
          "name": "rewardsAccrued",
          "type": "uint256"
        }
      ],
      "stateMutability": "view",
      "type": "function"
    },
    {
      "inputs": [],
      "name": "stakingAPY",
      "outputs": [
        {
          "internalType": "uint256",
          "name": "",
          "type": "uint256"
        }
      ],
      "stateMutability": "view",
      "type": "function"
    },
    {
      "inputs": [],
      "name": "symbol",
      "outputs": [
        {
          "internalType": "string",
          "name": "",
          "type": "string"
        }
      ],
      "stateMutability": "view",
      "type": "function"
    },
    {
      "inputs": [],
      "name": "totalMinted",
      "outputs": [
        {
          "internalType": "uint256",
          "name": "",
          "type": "uint256"
        }
      ],
      "stateMutability": "view",
      "type": "function"
    },
    {
      "inputs": [],
      "name": "totalStaked",
      "outputs": [
        {
          "internalType": "uint256",
          "name": "",
          "type": "uint256"
        }
      ],
      "stateMutability": "view",
      "type": "function"
    },
    {
      "inputs": [],
      "name": "totalSupply",
      "outputs": [
        {
          "internalType": "uint256",
          "name": "",
          "type": "uint256"
        }
      ],
      "stateMutability": "view",
      "type": "function"
    },
    {
      "inputs": [
        {
          "internalType": "address",
          "name": "to",
          "type": "address"
        },
        {
          "internalType": "uint256",
          "name": "value",
          "type": "uint256"
        }
      ],
      "name": "transfer",
      "outputs": [
        {
          "internalType": "bool",
          "name": "",
          "type": "bool"
        }
      ],
      "stateMutability": "nonpayable",
      "type": "function"
    },
    {
      "inputs": [
        {
          "internalType": "address",
          "name": "from",
          "type": "address"
        },
        {
          "internalType": "address",
          "name": "to",
          "type": "address"
        },
        {
          "internalType": "uint256",
          "name": "value",
          "type": "uint256"
        }
      ],
      "name": "transferFrom",
      "outputs": [
        {
          "internalType": "bool",
          "name": "",
          "type": "bool"
        }
      ],
      "stateMutability": "nonpayable",
      "type": "function"
    },
    {
      "inputs": [
        {
          "internalType": "address",
          "name": "newOwner",
          "type": "address"
        }
      ],
      "name": "transferOwnership",
      "outputs": [],
      "stateMutability": "nonpayable",
      "type": "function"
    },
    {
      "inputs": [],
      "name": "treasuryAddress",
      "outputs": [
        {
          "internalType": "address",
          "name": "",
          "type": "address"
        }
      ],
      "stateMutability": "view",
      "type": "function"
    },
    {
      "inputs": [],
      "name": "unstake",
      "outputs": [],
      "stateMutability": "nonpayable",
      "type": "function"
    }
  ],
  "bytecode": "0x610160346200056d57601f906001600160401b03601f19620027423881900380860183168501929190858410858511176200046f57808692604095865283396020958691810103126200056d57516001600160a01b0394858216918290036200056d57835194620000708662000572565b6007865281860196664f62736375726160c81b91828952865192620000958462000572565b6007845284840152865199620000ab8b62000572565b60078b52664f42534355524160c81b858c015287519a620000cc8c62000572565b600194858d52868d0192603160f81b845281518581116200046f576003928354908982811c9216801562000562575b8b8310146200054c578184849311620004f6575b508a90848311600114620004915760009262000485575b505060001982851b1c191690881b1782555b8251928584116200046f5760049a8b548981811c9116801562000464575b8b8210146200044f57908184879695949311620003f3575b508a9285116001146200038b57506000936200037f575b505082871b92600019911b1c19161787555b620001a2896200058e565b996101209a8b52620001b48c62000752565b996101409a8b525190209a8b60e0525190206101009a818c524660a052885191868301917f8b73c3c69bb8fe3d512ecc4cf759cc79239f7b179b0ffacaa9a75d522b39400f83528a84015260608301524660808301523060a083015260a0825260c0820192828410908411176200036a57828952815190206080523060c052851562000353575050600880546001600160a01b0319811686179091558491167f8be0079c531659141344cd1fd0a4f28419497f9722a3daafe3b4186f6b6457e0600080a36009556002546a52b7d2dcc80cd2e4000000938482018092116200033e57506000917fddf252ad1be2c89b69c2b068fc378daa952ba7f163c4a11628f55a4df523b3ef916002558383528281528583208581540190558551858152a3600f5566038d7ea4c68000600c55683635c9adc5dea00000600d5562093a80600e555191611e3793846200090b85396080518461190d015260a051846119d9015260c051846118d7015260e0518461195c01525183611982015251826109440152518161096e0152f35b601190634e487b7160e01b6000525260246000fd5b631e4fbdf760e01b8252600060c490910152602490fd5b604188634e487b7160e01b6000525260246000fd5b01519150388062000185565b89959392919316928c6000528a6000209360005b8c828210620003dc5750508511620003c1575b50505050811b01875562000197565b01519060f884600019921b161c1916905538808080620003b2565b8385015187558c989096019593840193016200039f565b9091929394508c6000528a6000208480880160051c8201928d891062000445575b918c91899897969594930160051c01915b828110620004355750506200016e565b600081558897508c910162000425565b9250819262000414565b60228d634e487b7160e01b6000525260246000fd5b90607f169062000156565b634e487b7160e01b600052604160045260246000fd5b01519050388062000126565b908d8b941691866000528c600020928d6000905b828210620004de5750508411620004c5575b505050811b01825562000138565b015160001983871b60f8161c19169055388080620004b7565b8385015186558e979095019493840193018e620004a5565b909150846000528a6000208480850160051c8201928d861062000542575b918c91869594930160051c01915b828110620005325750506200010f565b600081558594508c910162000522565b9250819262000514565b634e487b7160e01b600052602260045260246000fd5b91607f1691620000fb565b600080fd5b604081019081106001600160401b038211176200046f57604052565b805160209190828110156200062d575090601f825111620005cc5780825192015190808310620005bd57501790565b82600019910360031b1b161790565b90604051809263305a27a960e01b82528060048301528251908160248401526000935b82851062000613575050604492506000838284010152601f80199101168101030190fd5b8481018201518686016044015293810193859350620005ef565b6001600160401b0381116200046f576005928354926001938481811c9116801562000747575b838210146200054c57601f811162000710575b5081601f8411600114620006a657509282939183926000946200069a575b50501b916000199060031b1c191617905560ff90565b01519250388062000684565b919083601f1981168760005284600020946000905b88838310620006f55750505010620006db575b505050811b01905560ff90565b015160001960f88460031b161c19169055388080620006ce565b858701518855909601959485019487935090810190620006bb565b8560005284601f846000209201871c820191601f8601881c015b8281106200073a57505062000666565b600081550185906200072a565b90607f169062000653565b805160209081811015620007e05750601f8251116200077f5780825192015190808310620005bd57501790565b90604051809263305a27a960e01b82528060048301528251908160248401526000935b828510620007c6575050604492506000838284010152601f80199101168101030190fd5b8481018201518686016044015293810193859350620007a2565b906001600160401b0382116200046f57600654926001938481811c91168015620008ff575b838210146200054c57601f8111620008c5575b5081601f84116001146200085957509282939183926000946200084d575b50501b916000199060031b1c19161760065560ff90565b01519250388062000836565b919083601f198116600660005284600020946000905b88838310620008aa575050501062000890575b505050811b0160065560ff90565b015160001960f88460031b161c1916905538808062000882565b8587015188559096019594850194879350908101906200086f565b600660005284601f84600020920160051c820191601f860160051c015b828110620008f257505062000818565b60008155018590620008e2565b90607f16906200080556fe608060408181526004908136101561001657600080fd5b600091823560e01c93846302a363051461131c5750836306fdde031461124a578363095ea7b3146112215783631531b62a146111a557836316934fc41461113e57836318160ddd1461112057836323b872dd146110e45783632def662014610fc35783632ff2e9dc14610f9e578363313ce56714610f8357836331d7a26214610f5e57836332adb0c614610e5e57836332cb6b0c14610e38578363349f0b9014610dee5783633644e51514610dcb578363372500ab14610d8b57836342966c6814610d6d5783635d773b2c14610d4f5783636605bfda14610d0a57836370a0823114610cd4578363715018a614610c7757836379cc679014610c485783637b0472f014610a9f5783637ecebe0014610a68578363817b1cd214610a4a57836384b0196e1461092e5783638da5cb5b1461090657836390534f24146108eb57836395d89b4114610806578363993eb1c5146102375783639e447fc6146107ba578363a2309ff81461079c578363a65948a31461070f578363a9059cbb146106df578363bf1ad7e0146106c4578363c345315314610656578363c41cbd29146105eb578363c5f956af146105c3578363c74ed2fe146105a1578363d505accf1461043a578363d6a298e91461041c578363dd62ed3e146103d4578363eb4af045146103b2578363ef20f68e1461030a578363f1887684146102ec578363f2fde38b1461025a57508263fb0707981461023c57505063fd99cbed1461023757600080fd5b6113e3565b346102565781600319360112610256576020905160288152f35b5080fd5b346102e85760203660031901126102e857610273611381565b9061027c6113ff565b6001600160a01b039182169283156102d2575050600854826bffffffffffffffffffffffff60a01b821617600855167f8be0079c531659141344cd1fd0a4f28419497f9722a3daafe3b4186f6b6457e08380a380f35b51631e4fbdf760e01b8152908101849052602490fd5b8280fd5b5034610256578160031936011261025657602090600d549051908152f35b829034610256578260031936011261025657610324611381565b60105460243592906001600160a01b0316330361037b57509061036d81610375936103686b033b2e3c9fd0803ce800000061036184600f54611597565b1115611d9a565b611c22565b600f54611597565b600f5580f35b606490602086519162461bcd60e51b8352820152601160248201527013db9b1e481c995dd85c991cc81c1bdbdb607a1b6044820152fd5b905034610256576020366003190112610256576103cd6113ff565b35600d5580f35b5034610256578060031936011261025657806020926103f1611381565b6103f961139c565b6001600160a01b0391821683526001865283832091168252845220549051908152f35b5034610256578160031936011261025657602090600e549051908152f35b8290346102565760e036600319011261025657610455611381565b61045d61139c565b906044359260643560843560ff8116810361059d578142116105865760018060a01b0390818516928389526007602052898920908154916001830190558a519060208201927f6e71edae12b1b97f4d1f60370fef10105fa2faae0126114a169c64845d6126c98452868d840152858a1660608401528a608084015260a083015260c082015260c0815260e0810181811067ffffffffffffffff821117610573578b5251902061054191610538916105126118d4565b908c519161190160f01b83526002830152602282015260c43591604260a43592206117bf565b9092919261184f565b1681810361055857866105558787876115ba565b80f35b87516325c0072360e11b815292830152602482015260449150fd5b634e487b7160e01b8b526041875260248bfd5b875163313c898160e11b8152808401839052602490fd5b8680fd5b905034610256576020366003190112610256576105bc6113ff565b35600e5580f35b503461025657816003193601126102565760115490516001600160a01b039091168152602090f35b823461065357602036600319011261065357610605611381565b61060d6113ff565b601080546001600160a01b0319166001600160a01b039290921691821790557f8da82d2fc8b298d61598b7a804783c4ddbaed2ba45650ef4bca51d2cef8e82e38280a280f35b80fd5b509034610653576020366003190112610653576106c082610675611381565b9260018060a01b0384168152600a602052209283549261069e6002600187015496015491611d37565b9151948594859094939260609260808301968352602083015260408201520152565b0390f35b503461025657816003193601126102565760209051600a8152f35b50346102565780600319360112610256576020906107086106fe611381565b60243590336114b9565b5160018152f35b8290346102565760203660031901126102565780359061072d6113ff565b6011546001600160a01b031690811561076657509061036d81610375936103686b033b2e3c9fd0803ce800000061036184600f54611597565b606490602086519162461bcd60e51b8352820152601060248201526f151c99585cdd5c9e481b9bdd081cd95d60821b6044820152fd5b5034610256578160031936011261025657602090600f549051908152f35b346102e85760203660031901126102e8577f41d466ebd06fb97e7786086ac8b69b7eb7da798592036251291d34e9791cde019160209135906107fa6113ff565b81600c5551908152a180f35b90346102e857826003193601126102e857805191838154906108278261142b565b808652926001928084169081156108c05750600114610864575b6106c08686610852828b0383611497565b51918291602083526020830190611341565b815294507f8a35acfbc15ff81a39ae7d344fd709f28e8600b4aa8c65c6b64bfe7fe36bd19b5b8286106108a8575050506108528260206106c0958201019486610841565b8054602087870181019190915290950194810161088a565b90506106c097508693506020925061085294915060ff191682840152151560051b8201019486610841565b50346102565781600319360112610256576020905160148152f35b503461025657816003193601126102565760085490516001600160a01b039091168152602090f35b90346102e857826003193601126102e8576109687f00000000000000000000000000000000000000000000000000000000000000006119ff565b926109927f0000000000000000000000000000000000000000000000000000000000000000611afb565b908251926020928385019585871067ffffffffffffffff881117610a37575092806109ed8388966109e0998b9996528686528151998a99600f60f81b8b5260e0868c015260e08b0190611341565b91898303908a0152611341565b924660608801523060808801528460a088015286840360c088015251928381520193925b828110610a2057505050500390f35b835185528695509381019392810192600101610a11565b634e487b7160e01b845260419052602483fd5b5034610256578160031936011261025657602090600b549051908152f35b50346102565760203660031901126102565760209181906001600160a01b03610a8f611381565b1681526007845220549051908152f35b925034610256578060031936011261025657823590602435610abf611bb5565b600d548310610c0f57600e548110610bcc57338452602094848652838386205410610b9257507f1449c6dd7851abc30abf37f57715f492010519147cc2652fbc38202c18a6ee90929394338652600a815282862054610b84575b610b248530336114b9565b338652600a8152828620610b39868254611597565b9055338652600a81524260018488200155610b548242611597565b338752600a825260028488200155610b6e85600b54611597565b600b5582519485528401523392a2600160095580f35b610b8d33611c80565b610b19565b825162461bcd60e51b81529081018690526014602482015273496e73756666696369656e742062616c616e636560601b6044820152606490fd5b815162461bcd60e51b8152602081870152601760248201527f4c6f636b206475726174696f6e20746f6f2073686f72740000000000000000006044820152606490fd5b815162461bcd60e51b8152602081870152601360248201527242656c6f77206d696e696d756d207374616b6560681b6044820152606490fd5b50346102565736600319011261065357610555610c63611381565b60243590610c7282338361164d565b611720565b8234610653578060031936011261065357610c906113ff565b600880546001600160a01b0319811690915581906001600160a01b03167f8be0079c531659141344cd1fd0a4f28419497f9722a3daafe3b4186f6b6457e08280a380f35b50346102565760203660031901126102565760209181906001600160a01b03610cfb611381565b16815280845220549051908152f35b823461065357602036600319011261065357610d24611381565b610d2c6113ff565b60018060a01b03166bffffffffffffffffffffffff60a01b601154161760115580f35b5034610256578160031936011261025657602090600c549051908152f35b90503461025657602036600319011261025657610555903533611720565b5034610256578160031936011261025657610dba90610da8611bb5565b338352600a6020528220541515611bd8565b610dc333611c80565b600160095580f35b5034610256578160031936011261025657602090610de76118d4565b9051908152f35b925034610256578160031936011261025657600f54916b033b2e3c9fd0803ce8000000928303928311610e25576020838351908152f35b634e487b7160e01b815260118452602490fd5b5034610256578160031936011261025657602090516b033b2e3c9fd0803ce80000008152f35b90346102e857806003193601126102e85767ffffffffffffffff918035838111610f5a57610e8f90369083016113b2565b602493919394853590811161059d57610eab90369085016113b2565b919092610eb66113ff565b828203610f255750865b818110610ecb578780f35b610ed6818388611ddb565b356001600160a01b0381168103610f2157610efe90610ef6838688611ddb565b3590336114b9565b6000198114610f0f57600101610ec0565b634e487b7160e01b8852601185528688fd5b8880fd5b5162461bcd60e51b8152602081860152601181880152704d69736d6174636865642061727261797360781b6044820152606490fd5b8480fd5b503461025657602036600319011261025657602090610de7610f7e611381565b611d37565b50346102565781600319360112610256576020905160128152f35b5034610256578160031936011261025657602090516a52b7d2dcc80cd2e40000008152f35b90346102e857826003193601126102e857610fdc611bb5565b338352600a602052808320805492610ff5841515611bd8565b600282015442106110b25750907f7fc4727e062e336010f2c282598ef5f14facb3de68cf8195c2f23e1454b2b74e9184600361103033611d37565b9261103d87600b54611c15565b600b5582815501556110508433306114b9565b80151580611091575b611073575b815193845260208401523392a2600160095580f35b61107d8133611c22565b61108981600f54611597565b600f5561105e565b506b033b2e3c9fd0803ce80000006110ab82600f54611597565b1115611059565b606490602084519162461bcd60e51b8352820152600c60248201526b14dd1a5b1b081b1bd8dad95960a21b6044820152fd5b503461025657606036600319011261025657602090610708611104611381565b61110c61139c565b6044359161111b83338361164d565b6114b9565b50346102565781600319360112610256576020906002549051908152f35b5034610256576020366003190112610256579081906001600160a01b03611163611381565b168152600a60205220906106c0825491600184015493600360028201549101549151948594859094939260609260808301968352602083015260408201520152565b8234610653578060031936011261065357600c54916301e133809283810293818504148115171561120e5764496cebb800029280840461271014901517156111fb57602083670de0b6b3a7640000865191048152f35b634e487b7160e01b825260119052602490fd5b634e487b7160e01b835260118252602483fd5b5034610256578060031936011261025657602090610708611240611381565b60243590336115ba565b50346102565781600319360112610256578051908260035461126b8161142b565b808552916001918083169081156112f45750600114611297575b505050610852826106c0940383611497565b9450600385527fc2575a0e9e593c00f959f8c92f12db2869c3395a3b0502d05e2516446f71f85b5b8286106112dc575050506108528260206106c09582010194611285565b805460208787018101919091529095019481016112bf565b6106c097508693506020925061085294915060ff191682840152151560051b82010194611285565b8390346102565781600319360112610256576010546001600160a01b03168152602090f35b919082519283825260005b84811061136d575050826000602080949584010152601f8019910116010190565b60208183018101518483018201520161134c565b600435906001600160a01b038216820361139757565b600080fd5b602435906001600160a01b038216820361139757565b9181601f840112156113975782359167ffffffffffffffff8311611397576020808501948460051b01011161139757565b34611397576000366003190112611397576020604051600f8152f35b6008546001600160a01b0316330361141357565b60405163118cdaa760e01b8152336004820152602490fd5b90600182811c9216801561145b575b602083101461144557565b634e487b7160e01b600052602260045260246000fd5b91607f169161143a565b6040810190811067ffffffffffffffff82111761148157604052565b634e487b7160e01b600052604160045260246000fd5b90601f8019910116810190811067ffffffffffffffff82111761148157604052565b916001600160a01b0380841692831561157e57169283156115655760009083825281602052604082205490838210611533575091604082827fddf252ad1be2c89b69c2b068fc378daa952ba7f163c4a11628f55a4df523b3ef958760209652828652038282205586815220818154019055604051908152a3565b60405163391434e360e21b81526001600160a01b03919091166004820152602481019190915260448101839052606490fd5b60405163ec442f0560e01b815260006004820152602490fd5b604051634b637e8f60e11b815260006004820152602490fd5b919082018092116115a457565b634e487b7160e01b600052601160045260246000fd5b6001600160a01b03908116918215611634571691821561161b5760207f8c5be1e5ebec7d5bd14f71427d1e84f3dd0314c0f7b2291e5b200ac8c7c3b925918360005260018252604060002085600052825280604060002055604051908152a3565b604051634a1406b160e11b815260006004820152602490fd5b60405163e602df0560e01b815260006004820152602490fd5b9160018060a01b03809316916000938385526001602052604093848620918316918287526020528486205492600019841061168c575b50505050505050565b8484106116f0575080156116d85781156116c057855260016020528385209085526020520391205538808080808080611683565b8451634a1406b160e11b815260048101879052602490fd5b845163e602df0560e01b815260048101879052602490fd5b8551637dc7a0d960e11b81526001600160a01b039190911660048201526024810184905260448101859052606490fd5b906001600160a01b03821690811561157e576000928284528360205260408420549082821061178d5750817fddf252ad1be2c89b69c2b068fc378daa952ba7f163c4a11628f55a4df523b3ef926020928587528684520360408620558060025403600255604051908152a3565b60405163391434e360e21b81526001600160a01b03919091166004820152602481019190915260448101829052606490fd5b91907f7fffffffffffffffffffffffffffffff5d576e7357a4501ddfe92f46681b20a0841161184357926020929160ff608095604051948552168484015260408301526060820152600092839182805260015afa156118375780516001600160a01b0381161561182e57918190565b50809160019190565b604051903d90823e3d90fd5b50505060009160039190565b60048110156118be5780611861575050565b6001810361187b5760405163f645eedf60e01b8152600490fd5b6002810361189c5760405163fce698f760e01b815260048101839052602490fd5b6003146118a65750565b602490604051906335e2f38360e21b82526004820152fd5b634e487b7160e01b600052602160045260246000fd5b307f00000000000000000000000000000000000000000000000000000000000000006001600160a01b031614806119d6575b1561192f577f000000000000000000000000000000000000000000000000000000000000000090565b60405160208101907f8b73c3c69bb8fe3d512ecc4cf759cc79239f7b179b0ffacaa9a75d522b39400f82527f000000000000000000000000000000000000000000000000000000000000000060408201527f000000000000000000000000000000000000000000000000000000000000000060608201524660808201523060a082015260a0815260c0810181811067ffffffffffffffff8211176114815760405251902090565b507f00000000000000000000000000000000000000000000000000000000000000004614611906565b60ff8114611a3d5760ff811690601f8211611a2b5760405191611a2183611465565b8252602082015290565b604051632cd44ac360e21b8152600490fd5b50604051600554816000611a508361142b565b80835292600190818116908115611ad95750600114611a7a575b50611a7792500382611497565b90565b6005600090815291507f036b6384b5eca791c62761152d0c79bb0604c104a5fb6f4eb0703f3154bb3db05b848310611abe5750611a77935050810160200138611a6a565b81935090816020925483858901015201910190918492611aa5565b905060209250611a7794915060ff191682840152151560051b82010138611a6a565b60ff8114611b1d5760ff811690601f8211611a2b5760405191611a2183611465565b50604051600654816000611b308361142b565b80835292600190818116908115611ad95750600114611b565750611a7792500382611497565b6006600090815291507ff652222313e28459528d920b65115c16c04f3efc82aaedc97be59f3f377c0d3f5b848310611b9a5750611a77935050810160200138611a6a565b81935090816020925483858901015201910190918492611b81565b600260095414611bc6576002600955565b604051633ee5aeb560e01b8152600490fd5b15611bdf57565b60405162461bcd60e51b815260206004820152600e60248201526d139bc81cdd185ad948199bdd5b9960921b6044820152606490fd5b919082039182116115a457565b6001600160a01b0316908115611565577fddf252ad1be2c89b69c2b068fc378daa952ba7f163c4a11628f55a4df523b3ef602082611c64600094600254611597565b60025584845283825260408420818154019055604051908152a3565b611c8981611d37565b80151580611d03575b611c9a575050565b602081611ceb7ffc30cddea38e2bf4d6ea7d3f9ed3b6ad7f176419f4963bd81318067a4aee73fe9360018060a01b0386169586600052600a8552604060002060006003820155600142910155611c22565b611cf781600f54611597565b600f55604051908152a2565b506b033b2e3c9fd0803ce8000000611d1d82600f54611597565b1115611c92565b818102929181159184041417156115a457565b6001600160a01b03166000908152600a602052604090208054908115611d93576003670de0b6b3a7640000611d89611a7794611d84611d7a600187015442611c15565b91600c5490611d24565b611d24565b0491015490611597565b5050600090565b15611da157565b60405162461bcd60e51b815260206004820152601260248201527145786365656473206d617820737570706c7960701b6044820152606490fd5b9190811015611deb5760051b0190565b634e487b7160e01b600052603260045260246000fdfea264697066735822122033d003eb319cc3c5f11f94e88221fe48b1cf604f328a8571266679717eabf22d64736f6c63430008140033",
  "linkReferences": {},
  "deployedLinkReferences": {}
}