{
  "_format": "hh-sol-artifact-1",
  "contractName": "Verifier",
  "sourceName": "contracts/Verifier.sol",
  "abi": [
    {
      "inputs": [],
      "name": "ProofInvalid",
      "type": "error"
    },
    {
      "inputs": [],
      "name": "PublicInputNotInField",
      "type": "error"
    },
    {
      "inputs": [
        {
          "internalType": "uint256[8]",
          "name": "proof",
          "type": "uint256[8]"
        }
      ],
      "name": "compressProof",
      "outputs": [
        {
          "internalType": "uint256[4]",
          "name": "compressed",
          "type": "uint256[4]"
        }
      ],
      "stateMutability": "view",
      "type": "function"
    },
    {
      "inputs": [
        {
          "internalType": "uint256[4]",
          "name": "compressedProof",
          "type": "uint256[4]"
        },
        {
          "internalType": "uint256[2]",
          "name": "input",
          "type": "uint256[2]"
        }
      ],
      "name": "verifyCompressedProof",
      "outputs": [],
      "stateMutability": "view",
      "type": "function"
    },
    {
      "inputs": [
        {
          "internalType": "uint256[8]",
          "name": "proof",
          "type": "uint256[8]"
        },
        {
          "internalType": "uint256[2]",
          "name": "input",
          "type": "uint256[2]"
        }
      ],
      "name": "verifyProof",
      "outputs": [],
      "stateMutability": "view",
      "type": "function"
    }
  ],
  "bytecode": "0x608060405234801561001057600080fd5b50611369806100206000396000f3fe608060405234801561001057600080fd5b50600436106100415760003560e01c806344f63692146100465780635fe24f231461006f578063f11817b214610084575b600080fd5b610059610054366004611204565b610097565b6040516100669190611228565b60405180910390f35b61008261007d36600461126a565b6100f4565b005b6100826100923660046112a1565b610374565b61009f611197565b6100b282358360015b6020020135610693565b81526100d06060830135604084013560a08501356080860135610788565b602083015260408201526100ea60c08301358360076100a8565b6060820152919050565b60008061010083610a7f565b9150915060006040516101008682377f1cb379edfc2a897007f419cde1588d4fd3f12b521b1b53da90390eecc32a93296101008201527f2a328522872fdcdd20ad702ab02b9cf9e1834c9a0d34e71869560ad409098ae56101208201527f20d053a7874270aefe6f86c8b80e61819562867bafec142bd33e376b41b3b61d6101408201527f25d0c76748aaba220c065d139fa78fc6e483c9542cf0ba92cdc5d57ef49872b76101608201527f2ceb368ef55d3159d17786219710d3204a5927b9f9817484dcf921db72689a056101808201527f1d1e197cec8325725d6952439bbfe363206db59a8f56bdc39a72f3492e6e67f16101a08201527f28da1f4be748031345b5985e734e533d8a4acf1ad0400017197aa2e877be42b06101c08201527f1cd4d4eb0d0acdcc593097a75d1fbb0d78a2543e6ecf30ae29c6c13d2451a5646101e08201527f1dbe16d123c5c9e614ec32210c72c5e9ca62fd1d2fb976027b668d3fb08485496102008201527f0ee0b6fdcec7c283951a1560eecb80f0dbc9951413f064ee4ca29f68cbfea50261022082015283610240820152826102608201527f05446cb83f7003b27f5a2d0cdfbfa9ce27833486ed39ab918b7027f4bb434ea56102808201527f0ec6bafa9c149fcb392309f842f4363b96aad9bf76cfd5ad44b7dbe1046324c76102a08201527f1d842be0166ead8b3a2b05544fb23224318b778b4b77ceb4dcfe589efd00bd236102c08201527f01525479ca1cc87639ba01dffc9475da02bff0d891ab9e5dcaf06743d8be6abe6102e08201526020816103008360085afa90511690508061036d57604051631ff3747d60e21b815260040160405180910390fd5b5050505050565b61037c6111b5565b60008061038f85825b6020020135610c39565b909250905060008080806103ab60408a013560208b0135610cde565b929650909450925090506000806103c38b6003610385565b915091506000806103d38c610a7f565b8b8d5260208d018b905260408d0189905260608d018a905260808d0187905260a08d0188905260c08d0186905260e08d018590527f1cb379edfc2a897007f419cde1588d4fd3f12b521b1b53da90390eecc32a93296101008e01527f2a328522872fdcdd20ad702ab02b9cf9e1834c9a0d34e71869560ad409098ae56101208e01527f20d053a7874270aefe6f86c8b80e61819562867bafec142bd33e376b41b3b61d6101408e01527f25d0c76748aaba220c065d139fa78fc6e483c9542cf0ba92cdc5d57ef49872b76101608e01527f2ceb368ef55d3159d17786219710d3204a5927b9f9817484dcf921db72689a056101808e01527f1d1e197cec8325725d6952439bbfe363206db59a8f56bdc39a72f3492e6e67f16101a08e01527f28da1f4be748031345b5985e734e533d8a4acf1ad0400017197aa2e877be42b06101c08e01527f1cd4d4eb0d0acdcc593097a75d1fbb0d78a2543e6ecf30ae29c6c13d2451a5646101e08e01527f1dbe16d123c5c9e614ec32210c72c5e9ca62fd1d2fb976027b668d3fb08485496102008e01527f0ee0b6fdcec7c283951a1560eecb80f0dbc9951413f064ee4ca29f68cbfea5026102208e01526102408d018290526102608d018190527f05446cb83f7003b27f5a2d0cdfbfa9ce27833486ed39ab918b7027f4bb434ea56102808e01527f0ec6bafa9c149fcb392309f842f4363b96aad9bf76cfd5ad44b7dbe1046324c76102a08e01527f1d842be0166ead8b3a2b05544fb23224318b778b4b77ceb4dcfe589efd00bd236102c08e01527f01525479ca1cc87639ba01dffc9475da02bff0d891ab9e5dcaf06743d8be6abe6102e08e0152909250905060006106486111d4565b6020816103008f60085afa915081158061066457508051600114155b1561068257604051631ff3747d60e21b815260040160405180910390fd5b505050505050505050505050505050565b6000600080516020611314833981519152831015806106c057506000805160206113148339815191528210155b156106de57604051631ff3747d60e21b815260040160405180910390fd5b821580156106ea575081155b156106f757506000610782565b6000610736600080516020611314833981519152600360008051602061131483398151915287600080516020611314833981519152898a090908610ec4565b905080830361074b575050600182901b610782565b61075481610f28565b8303610767575050600182811b17610782565b604051631ff3747d60e21b815260040160405180910390fd5b505b92915050565b600080600080516020611314833981519152861015806107b657506000805160206113148339815191528510155b806107cf57506000805160206113148339815191528410155b806107e857506000805160206113148339815191528310155b1561080657604051631ff3747d60e21b815260040160405180910390fd5b8284868817171760000361081f57506000905080610a76565b6000808060008051602061131483398151915261084b60036000805160206113148339815191526112f2565b6000805160206113148339815191528a8c0909905060006000805160206113148339815191528a6000805160206113148339815191528c8d0909905060006000805160206113148339815191528a6000805160206113148339815191528c8d09099050600080516020611314833981519152806000805160206113148339815191528c860984087f2b149d40ceb8aaae81be18991be06ac3b5b4c5e559dbefa33267e6dc24a138e5089450610944600080516020611314833981519152806000805160206113148339815191528e870984087f2fcd3ac2a640a154eb23960892a85a68f031ca0c8344b23a577dcf1052b9e77508610f28565b93505050506000806109956000805160206113148339815191528061096b5761096b6112dc565b60008051602061131483398151915285860960008051602061131483398151915287880908610ec4565b90506109e26000805160206113148339815191527f183227397098d014dc2822db40c0ac2ecbc0b548b438e5469e10460b6c3e7ea460008051602061131483398151915284880809610f41565b159150506109f1838383610f8b565b90935091508683148015610a0457508186145b15610a2e5780610a15576000610a18565b60025b60ff1660028a901b176000179450879350610a72565b610a3783610f28565b87148015610a4c5750610a4982610f28565b86145b156107675780610a5d576000610a60565b60025b60ff1660028a901b1760011794508793505b5050505b94509492505050565b6000806000600190506040516040810160007f1c9500b45007c46fe853c36a8b74fb9c19b4abc0ef7738378600f30247eb2bd183527f0c5a15fb465b6d8fd58774049bc48c77263d0fd4fcce93f9c9c14e54fd60bff160208401527f1dcd1ba3aff86df02390d4d66028786de3c9482356f41d3511a906583c77d61582527e0c9aa52db18ccf6603e481de86d5c2faec68fa0cbb80e6f08018631f80cc876020830152863590508060408301527f30644e72e131a029b85045b68181585d2833e84879b9709143e1f593f000000181108416935060408260608460075afa8416935060408360808560065afa841693507f0bfdba4c7e59091d78d24b7758362dec67f308e4377b78f36245ba011455928f82527f11c36633a4a550da65b702e0c920d87f64cf76710ffaa2ddcb74e8c925a478c36020830152602087013590508060408301527f30644e72e131a029b85045b68181585d2833e84879b9709143e1f593f00000018110841693505060408160608360075afa831692505060408160808360065afa81516020909201519194509092501680610c335760405163a54f8e2760e01b815260040160405180910390fd5b50915091565b60008082600003610c4f57506000928392509050565b600183811c9250808416146000805160206113148339815191528310610c8857604051631ff3747d60e21b815260040160405180910390fd5b610cc56000805160206113148339815191526003600080516020611314833981519152866000805160206113148339815191528889090908610ec4565b91508015610c3357610cd682610f28565b915050915091565b600080808085158015610cef575084155b15610d0557506000925082915081905080610ebb565b600286811c9450859350600180881614908088161460008051602061131483398151915286101580610d4557506000805160206113148339815191528510155b15610d6357604051631ff3747d60e21b815260040160405180910390fd5b6000600080516020611314833981519152610d8d60036000805160206113148339815191526112f2565b600080516020611314833981519152888a090990506000600080516020611314833981519152886000805160206113148339815191528a8b090990506000600080516020611314833981519152886000805160206113148339815191528a8b09099050600080516020611314833981519152806000805160206113148339815191528a860984087f2b149d40ceb8aaae81be18991be06ac3b5b4c5e559dbefa33267e6dc24a138e5089650610e86600080516020611314833981519152806000805160206113148339815191528c870984087f2fcd3ac2a640a154eb23960892a85a68f031ca0c8344b23a577dcf1052b9e77508610f28565b9550610e93878786610f8b565b90975095508415610eb557610ea787610f28565b9650610eb286610f28565b95505b50505050505b92959194509250565b6000610ef0827f0c19139cb84c680a6e14116da060561765e05aa45a1c72a34f082305b61f3f526110d2565b90508160008051602061131483398151915282830914610f2357604051631ff3747d60e21b815260040160405180910390fd5b919050565b6000805160206113148339815191529081900681030690565b600080610f6e837f0c19139cb84c680a6e14116da060561765e05aa45a1c72a34f082305b61f3f526110d2565b905082600080516020611314833981519152828309149392505050565b60008080610fbd60008051602061131483398151915280878809600080516020611314833981519152898a0908610ec4565b90508315610fd157610fce81610f28565b90505b61101c6000805160206113148339815191527f183227397098d014dc2822db40c0ac2ecbc0b548b438e5469e10460b6c3e7ea4600080516020611314833981519152848a0809610ec4565b925060008051602061131483398151915261104860008051602061131483398151915260028609611137565b86099150600080516020611314833981519152611075600080516020611314833981519152848509610f28565b60008051602061131483398151915285860908861415806110ab5750600080516020611314833981519152808385096002098514155b156110c957604051631ff3747d60e21b815260040160405180910390fd5b50935093915050565b600080604051602081526020808201526020604082015284606082015283608082015260008051602061131483398151915260a082015260208160c08360055afa9051925090508061078057604051631ff3747d60e21b815260040160405180910390fd5b6000611163827f30644e72e131a029b85045b68181585d97816a916871ca8d3c208c16d87cfd456110d2565b9050600080516020611314833981519152818309600114610f2357604051631ff3747d60e21b815260040160405180910390fd5b60405180608001604052806004906020820280368337509192915050565b6040518061030001604052806018906020820280368337509192915050565b60405180602001604052806001906020820280368337509192915050565b80610100810183101561078257600080fd5b6000610100828403121561121757600080fd5b61122183836111f2565b9392505050565b60808101818360005b6004811015611250578151835260209283019290910190600101611231565b50505092915050565b806040810183101561078257600080fd5b600080610140838503121561127e57600080fd5b61128884846111f2565b9150611298846101008501611259565b90509250929050565b60008060c083850312156112b457600080fd5b60808301848111156112c557600080fd5b8392506112d28582611259565b9150509250929050565b634e487b7160e01b600052601260045260246000fd5b8181038181111561078257634e487b7160e01b600052601160045260246000fdfe30644e72e131a029b85045b68181585d97816a916871ca8d3c208c16d87cfd47a2646970667358221220d6b4f56e7142537a6a037ee02fe7c69a1cf5cb64235310856365ae2a8804a7e664736f6c63430008140033",
  "linkReferences": {},
  "deployedLinkReferences": {}
}