{
  "_format": "hh-sol-artifact-1",
  "contractName": "Verifier",
  "sourceName": "contracts/Verifier.sol",
  "abi": [
    {
      "inputs": [],
      "name": "ProofInvalid",
      "type": "error"
    },
    {
      "inputs": [],
      "name": "PublicInputNotInField",
      "type": "error"
    },
    {
      "inputs": [
        {
          "internalType": "uint256[8]",
          "name": "proof",
          "type": "uint256[8]"
        }
      ],
      "name": "compressProof",
      "outputs": [
        {
          "internalType": "uint256[4]",
          "name": "compressed",
          "type": "uint256[4]"
        }
      ],
      "stateMutability": "view",
      "type": "function"
    },
    {
      "inputs": [
        {
          "internalType": "uint256[4]",
          "name": "compressedProof",
          "type": "uint256[4]"
        },
        {
          "internalType": "uint256[2]",
          "name": "input",
          "type": "uint256[2]"
        }
      ],
      "name": "verifyCompressedProof",
      "outputs": [],
      "stateMutability": "view",
      "type": "function"
    },
    {
      "inputs": [
        {
          "internalType": "uint256[8]",
          "name": "proof",
          "type": "uint256[8]"
        },
        {
          "internalType": "uint256[2]",
          "name": "input",
          "type": "uint256[2]"
        }
      ],
      "name": "verifyProof",
      "outputs": [],
      "stateMutability": "view",
      "type": "function"
    }
  ],
  "bytecode": "0x6080806040523461001657610f2d908161001c8239f35b600080fdfe608060408181526004908136101561001657600080fd5b600092833560e01c90816344f63692146108a7575080635fe24f23146104cf5763f11817b21461004557600080fd5b346104cb5760c03660031901126104cb57366084116104cb573660c4116104cb5780516103008082019167ffffffffffffffff92818110848211176104a857845281368237836100958635610d66565b6100a6602493929335604435610dbb565b909193926100b5606435610d66565b9590948751986001898b017f1c9500b45007c46fe853c36a8b74fb9c19b4abc0ef7738378600f30247eb2bd18c528b602081019b7f0c5a15fb465b6d8fd58774049bc48c77263d0fd4fcce93f9c9c14e54fd60bff18d527f1dcd1ba3aff86df02390d4d66028786de3c9482356f41d3511a906583c77d615835260608201907e0c9aa52db18ccf6603e481de86d5c2faec68fa0cbb80e6f08018631f80cc878252608435908060808501958387527f11c36633a4a550da65b702e0c920d87f64cf76710ffaa2ddcb74e8c925a478c3828260608160075afa947f30644e72e131a029b85045b68181585d2833e84879b9709143e1f593f00000019586858a60808160065afa92101616957f0bfdba4c7e59091d78d24b7758362dec67f308e4377b78f36245ba011455928f83525260a43580975260608160075afa9360808160065afa9310161616169951985199156104bb578a5260208a01528b8901526060880152608087015260a086015260c085015260e08401527f1cb379edfc2a897007f419cde1588d4fd3f12b521b1b53da90390eecc32a93296101008401527f2a328522872fdcdd20ad702ab02b9cf9e1834c9a0d34e71869560ad409098ae56101208401527f20d053a7874270aefe6f86c8b80e61819562867bafec142bd33e376b41b3b61d6101408401527f25d0c76748aaba220c065d139fa78fc6e483c9542cf0ba92cdc5d57ef49872b76101608401527f2ceb368ef55d3159d17786219710d3204a5927b9f9817484dcf921db72689a056101808401527f1d1e197cec8325725d6952439bbfe363206db59a8f56bdc39a72f3492e6e67f16101a08401527f28da1f4be748031345b5985e734e533d8a4acf1ad0400017197aa2e877be42b06101c08401527f1cd4d4eb0d0acdcc593097a75d1fbb0d78a2543e6ecf30ae29c6c13d2451a5646101e08401527f1dbe16d123c5c9e614ec32210c72c5e9ca62fd1d2fb976027b668d3fb08485496102008401527f0ee0b6fdcec7c283951a1560eecb80f0dbc9951413f064ee4ca29f68cbfea5026102208401526102408301526102608201527f05446cb83f7003b27f5a2d0cdfbfa9ce27833486ed39ab918b7027f4bb434ea56102808201527f0ec6bafa9c149fcb392309f842f4363b96aad9bf76cfd5ad44b7dbe1046324c76102a08201527f1d842be0166ead8b3a2b05544fb23224318b778b4b77ceb4dcfe589efd00bd236102c08201527f01525479ca1cc87639ba01dffc9475da02bff0d891ab9e5dcaf06743d8be6abe6102e08201528351926020840190848210908211176104a857845260209183918336843760085afa1590811561049b575b5061048e578280f35b51631ff3747d60e21b8152fd5b6001915051141538610485565b634e487b7160e01b875260418652602487fd5b8d5163a54f8e2760e01b81528f90fd5b8280fd5b50346104cb57610140806003193601126108a35761010436811161089f57366101441161089f5782519060018483017f1c9500b45007c46fe853c36a8b74fb9c19b4abc0ef7738378600f30247eb2bd1845260208401927f0c5a15fb465b6d8fd58774049bc48c77263d0fd4fcce93f9c9c14e54fd60bff184527f1dcd1ba3aff86df02390d4d66028786de3c9482356f41d3511a906583c77d615825260608501907e0c9aa52db18ccf6603e481de86d5c2faec68fa0cbb80e6f08018631f80cc87825235908760808701938385527f11c36633a4a550da65b702e0c920d87f64cf76710ffaa2ddcb74e8c925a478c3828260608160075afa947f30644e72e131a029b85045b68181585d2833e84879b9709143e1f593f00000019586858c60808160065afa92101616937f0bfdba4c7e59091d78d24b7758362dec67f308e4377b78f36245ba011455928f8352526101243580955260608160075afa91888760808160065afa93101616161691519051911561088f577f20d053a7874270aefe6f86c8b80e61819562867bafec142bd33e376b41b3b61d8451937f1cb379edfc2a897007f419cde1588d4fd3f12b521b1b53da90390eecc32a9329610100808988378601527f2a328522872fdcdd20ad702ab02b9cf9e1834c9a0d34e71869560ad409098ae56101208601528401527f25d0c76748aaba220c065d139fa78fc6e483c9542cf0ba92cdc5d57ef49872b76101608401527f2ceb368ef55d3159d17786219710d3204a5927b9f9817484dcf921db72689a056101808401527f1d1e197cec8325725d6952439bbfe363206db59a8f56bdc39a72f3492e6e67f16101a08401527f28da1f4be748031345b5985e734e533d8a4acf1ad0400017197aa2e877be42b06101c08401527f1cd4d4eb0d0acdcc593097a75d1fbb0d78a2543e6ecf30ae29c6c13d2451a5646101e08401527f1dbe16d123c5c9e614ec32210c72c5e9ca62fd1d2fb976027b668d3fb08485496102008401527f0ee0b6fdcec7c283951a1560eecb80f0dbc9951413f064ee4ca29f68cbfea5026102208401526102408301526102608201527f05446cb83f7003b27f5a2d0cdfbfa9ce27833486ed39ab918b7027f4bb434ea56102808201527f0ec6bafa9c149fcb392309f842f4363b96aad9bf76cfd5ad44b7dbe1046324c76102a08201527f1d842be0166ead8b3a2b05544fb23224318b778b4b77ceb4dcfe589efd00bd236102c08201527f01525479ca1cc87639ba01dffc9475da02bff0d891ab9e5dcaf06743d8be6abe6102e08201526020816103008160085afa9051161561048e578280f35b5050505163a54f8e2760e01b8152fd5b8480fd5b8380fd5b9390503461096057610100366003190112610960573661010411610960576080840184811067ffffffffffffffff82111761094d5782529260803682376108f16024358435610963565b815261090760843560a435604435606435610a7e565b9290602093848401528183015261092260e43560c435610963565b6060830152519390845b84831061093857608086f35b8380600192845181520192019201919061092c565b634e487b7160e01b825260418452602482fd5b80fd5b90600080516020610ed88339815191528083108015906109e7575b6109c5578215806109df575b6109d7576109a181600381868181800909086109f1565b8281036109b15750505060011b90565b819006810306036109c557600190811b1790565b604051631ff3747d60e21b8152600490fd5b505050600090565b50811561098a565b508082101561097e565b906109fb82610a15565b91600080516020610ed8833981519152838009036109c557565b9060405191602083526020808401526020604084015260608301527f0c19139cb84c680a6e14116da060561765e05aa45a1c72a34f082305b61f3f526080830152600080516020610ed883398151915260a083015260208260c08160055afa915191156109c557565b90929391600080516020610ed883398151915294858310801590610c4e575b8015610c44575b8015610c3a575b6109c5578082868517171715610c2e5785610b9f81808080808981808e9f8f9e9f7f30644e72e131a029b85045b68181585d97816a916871ca8d3c208c16d87cfd448280928709099e8f0981848181800909087f2b149d40ceb8aaae81be18991be06ac3b5b4c5e559dbefa33267e6dc24a138e5089b09818d8181800909087f2fcd3ac2a640a154eb23960892a85a68f031ca0c8344b23a577dcf1052b9e775080681030695827f183227397098d014dc2822db40c0ac2ecbc0b548b438e5469e10460b6c3e7ea481610b8681808c800981878009086109f1565b84080983610b9382610a15565b80091415968791610c58565b939080821480610c25575b15610bd757505050505090600090600014610bcf575060ff60025b169060021b179190565b60ff90610bc5565b82809106810306149283610c14575b5050506000146109c55760019160009015610c0c575060ff60025b169060021b17179190565b60ff90610c01565b819293500681030614388080610be6565b50848414610baa565b50600094508493505050565b5085811015610aab565b5085821015610aa4565b5085851015610a9d565b91610cb67f183227397098d014dc2822db40c0ac2ecbc0b548b438e5469e10460b6c3e7ea491949294600080516020610ed88339815191529283809281610ca781808c8009818c8009086109f1565b91610d5a575b508708096109f1565b9381600286096040519060208252602080830152602060408301528060608301527f30644e72e131a029b85045b68181585d97816a916871ca8d3c208c16d87cfd4560808301528360a083015260208260c08160055afa915191156109c557838260019209036109c5578290820993828080808880090681030681888009081491821592610d47575b50506109c557565b8091925084860960020914153880610d3f565b80910681030681610cad565b8015610db2578060011c91600080516020610ed8833981519152808410156109c557600180610d9e83600381898181800909086109f1565b941614610da85750565b8091920681030690565b50600090600090565b919091801580610ecf575b610ec2578060021c928092600080516020610ed883398151915291828610801590610eb8575b6109c5578584848080858180808080600280827f30644e72e131a029b85045b68181585d97816a916871ca8d3c208c16d87cfd44610e8f9f8f90839109099b16149a8a0981868181800909087f2fcd3ac2a640a154eb23960892a85a68f031ca0c8344b23a577dcf1052b9e77508068103069409818b8181800909087f2b149d40ceb8aaae81be18991be06ac3b5b4c5e559dbefa33267e6dc24a138e508610c58565b9092819360018082971614610ea357505050565b81900681038190069450908190068103069150565b5082811015610dec565b5060009150819081908190565b508215610dc656fe30644e72e131a029b85045b68181585d97816a916871ca8d3c208c16d87cfd47a26469706673582212207e6300fd493b9558807e36bc2ab06a60ddefb8902a2ffbbd750b85820d3f2a6c64736f6c63430008140033",
  "linkReferences": {},
  "deployedLinkReferences": {}
}